{
	"data": {
		"bytecode": {
			"linkReferences": {},
			"object": "601160015560076101a081815266556e69666f726d60c81b6101c05260809081526101e091825266436c6f7468657360c81b6102005260a0919091526004610220818152632430b4b960e11b6102405260c052600b6102609081526a2330b1b4b0b6102430b4b960a91b6102805260e0526102a0818152634579657360e01b6102c0526101005260086102e0908152672432b0b233b2b0b960c11b61030052610120526009610320818152684163636573736f727960b81b6103405261014052610360818152682732b1b59023b2b0b960b91b61038052610160526103e060405260056103a090815264416c70686160d81b6103c05261018052620001059290620001f7565b506040805160c081018252600160808201818152600760fb1b60a0840152825282518084018452818152603760f81b6020828101919091528084019190915283518085018552828152601b60f91b81830152838501528351808501909452908352603560f81b9083015260608101919091526200018790600f9060046200024e565b503480156200019557600080fd5b50620001a133620001a7565b620003d5565b600080546001600160a01b038381166001600160a01b0319831681178455604051919092169283917f8be0079c531659141344cd1fd0a4f28419497f9722a3daafe3b4186f6b6457e09190a35050565b82600981019282156200023c579160200282015b828111156200023c57825180516200022b91849160209091019062000293565b50916020019190600101906200020b565b506200024a9291506200031e565b5090565b82600481019282156200023c579160200282015b828111156200023c57825180516200028291849160209091019062000293565b509160200191906001019062000262565b828054620002a19062000398565b90600052602060002090601f016020900481019282620002c5576000855562000310565b82601f10620002e057805160ff191683800117855562000310565b8280016001018555821562000310579182015b8281111562000310578251825591602001919060010190620002f3565b506200024a9291506200033f565b808211156200024a57600062000335828262000356565b506001016200031e565b5b808211156200024a576000815560010162000340565b508054620003649062000398565b6000825580601f1062000375575050565b601f0160209004906000526020600020908101906200039591906200033f565b50565b600181811c90821680620003ad57607f821691505b60208210811415620003cf57634e487b7160e01b600052602260045260246000fd5b50919050565b612f9880620003e56000396000f3fe608060405234801561001057600080fd5b50600436106100b45760003560e01c8063a6b0969211610071578063a6b0969214610167578063b7a5ad541461018c578063c87b56dd1461019f578063d93ae3d9146101b2578063ee7bd58b146101c5578063f2fde38b146101e857600080fd5b806368dba5e5146100b95780637abecb86146100e2578063819912a2146100f55780638555967e1461010a5780638da5cb5b146101355780639bf2ee3514610146575b600080fd5b6100cc6100c736600461202e565b6101fb565b6040516100d991906120a3565b60405180910390f35b6100cc6100f036600461202e565b611013565b6101086101033660046120bd565b6115c5565b005b60135461011d906001600160a01b031681565b6040516001600160a01b0390911681526020016100d9565b6000546001600160a01b031661011d565b6101596101543660046120f5565b61161a565b6040516100d992919061212e565b61017a61017536600461215c565b611751565b60405160ff90911681526020016100d9565b61010861019a3660046121ca565b6117c0565b6100cc6101ad36600461202e565b61180a565b6101086101c036600461227b565b611932565b61017a6101d33660046122fe565b600e6020526000908152604090205460ff1681565b6101086101f63660046120bd565b611b5c565b6013546040516394e5684760e01b8152600481018390526060916000916001600160a01b03909116906394e568479060240161012060405180830381865afa15801561024b573d6000803e3d6000fd5b505050506040513d601f19601f8201168201806040525081019061026f9190612389565b9050606081600001511561085b576103db6004600101805461029090612455565b80601f01602080910402602001604051908101604052809291908181526020018280546102bc90612455565b80156103095780601f106102de57610100808354040283529160200191610309565b820191906000526020600020905b8154815290600101906020018083116102ec57829003601f168201915b50506000808052600d60209081528881015160ff1682527f81955a0a11e65eac625c29e8882660bae4e165a75d72780094acae8ece9a29ee905260409020805490935061035892509050612455565b80601f016020809104026020016040519081016040528092919081815260200182805461038490612455565b80156103d15780601f106103a6576101008083540402835291602001916103d1565b820191906000526020600020905b8154815290600101906020018083116103b457829003601f168201915b5050505050611bf7565b6104b9600460020180546103ee90612455565b80601f016020809104026020016040519081016040528092919081815260200182805461041a90612455565b80156104675780601f1061043c57610100808354040283529160200191610467565b820191906000526020600020905b81548152906001019060200180831161044a57829003601f168201915b505060016000908152600d602090815260408a81015160ff1683527ffd54ff1ed53f34a900b24c5ba64f85761163b5d82d98a47b9bd80e45466993c59091529020805490935061035892509050612455565b610597600460030180546104cc90612455565b80601f01602080910402602001604051908101604052809291908181526020018280546104f890612455565b80156105455780601f1061051a57610100808354040283529160200191610545565b820191906000526020600020905b81548152906001019060200180831161052857829003601f168201915b505060026000908152600d602090815260808b015160ff1682527f10a81eed9d63d16face5e76357905348e6253d3394086026bb2bf2145d7cc249905260409020805490935061035892509050612455565b6106746004800180546105a990612455565b80601f01602080910402602001604051908101604052809291908181526020018280546105d590612455565b80156106225780601f106105f757610100808354040283529160200191610622565b820191906000526020600020905b81548152906001019060200180831161060557829003601f168201915b505060036000908152600d602090815260608c015160ff1682527f26b4a10d0f0b04925c23bd4480ee147c916e5e87a7d68206a533dad160ac81e2905260409020805490935061035892509050612455565b6107526004600601805461068790612455565b80601f01602080910402602001604051908101604052809291908181526020018280546106b390612455565b80156107005780601f106106d557610100808354040283529160200191610700565b820191906000526020600020905b8154815290600101906020018083116106e357829003601f168201915b505060046000908152600d602090815260e08d015160ff1682527fafafe8948a4ed9d478b1e9a5780b119b5edd00ea7d07bc35bef7c814824eb94b905260409020805490935061035892509050612455565b6108306004600501805461076590612455565b80601f016020809104026020016040519081016040528092919081815260200182805461079190612455565b80156107de5780601f106107b3576101008083540402835291602001916107de565b820191906000526020600020905b8154815290600101906020018083116107c157829003601f168201915b505060056000908152600d602090815260a08e015160ff1682527fa5049387d9cb649c59f4bda666105ba636c2a103d8e2b232ba4d125737cd2149905260409020805490935061035892509050612455565b604051602001610845969594939291906124ac565b6040516020818303038152906040529050610ee2565b6109386004600001805461086e90612455565b80601f016020809104026020016040519081016040528092919081815260200182805461089a90612455565b80156108e75780601f106108bc576101008083540402835291602001916108e7565b820191906000526020600020905b8154815290600101906020018083116108ca57829003601f168201915b5050600a6000908152600d60209081528881015160ff1682527fba9d637f252776d5e1b3534bbd7554a1265a4ef0539d9ca50abe118598a6973c905260409020805490935061035892509050612455565b610a166004600201805461094b90612455565b80601f016020809104026020016040519081016040528092919081815260200182805461097790612455565b80156109c45780601f10610999576101008083540402835291602001916109c4565b820191906000526020600020905b8154815290600101906020018083116109a757829003601f168201915b5050600b6000908152600d602090815260408a81015160ff1683527f52c2086a203f40e709b1346663401f6c737b2fce5878601fcf875b047fed5fb69091529020805490935061035892509050612455565b610af460046003018054610a2990612455565b80601f0160208091040260200160405190810160405280929190818152602001828054610a5590612455565b8015610aa25780601f10610a7757610100808354040283529160200191610aa2565b820191906000526020600020905b815481529060010190602001808311610a8557829003601f168201915b5050600c6000908152600d602090815260808b015160ff1682527fe399baa2fabbab2a0309615b124a802277bab50ec0ca3452a00889e216c4b902905260409020805490935061035892509050612455565b610bd0600480018054610b0690612455565b80601f0160208091040260200160405190810160405280929190818152602001828054610b3290612455565b8015610b7f5780601f10610b5457610100808354040283529160200191610b7f565b820191906000526020600020905b815481529060010190602001808311610b6257829003601f168201915b5050600d6000818152602091825260608c015160ff1681527fe0af3347aa7e5af384208c9d29458f902f0ceddbc90963608afa77235658b36090915260409020805490935061035892509050612455565b610cae60046006018054610be390612455565b80601f0160208091040260200160405190810160405280929190818152602001828054610c0f90612455565b8015610c5c5780601f10610c3157610100808354040283529160200191610c5c565b820191906000526020600020905b815481529060010190602001808311610c3f57829003601f168201915b5050600e6000908152600d602090815260e08d015160ff1682527f154ef5b709dcdc8b49a2af6408b8a1af209c39b5fa796f03680257c97692546e905260409020805490935061035892509050612455565b610d8d60046005018054610cc190612455565b80601f0160208091040260200160405190810160405280929190818152602001828054610ced90612455565b8015610d3a5780601f10610d0f57610100808354040283529160200191610d3a565b820191906000526020600020905b815481529060010190602001808311610d1d57829003601f168201915b5050600f6000908152600d60209081526101008e015160ff1682527f52fb6a28cb3c239105f8f829bc7376f939b6bfb040c470bdc2bda0af2e784b94905260409020805490935061035892509050612455565b610e6b60046007018054610da090612455565b80601f0160208091040260200160405190810160405280929190818152602001828054610dcc90612455565b8015610e195780601f10610dee57610100808354040283529160200191610e19565b820191906000526020600020905b815481529060010190602001808311610dfc57829003601f168201915b505060106000908152600d602090815260c08f015160ff1682527f01a49be1e7ea084651fd665847100d28826db0b17160863a99534933cbbd2dce905260409020805490935061035892509050612455565b610eb96040518060400160405280600b81526020016a416c7068612053636f726560a81b815250600f8b610100015160ff1660048110610ead57610ead61243f565b01805461035890612455565b604051602001610ed0989796959493929190612571565b60405160208183030381529060405290505b60135460408051630803163f60e31b8152905183926001600160a01b031691634018b1f89160048083019260209291908290030181865afa158015610f2b573d6000803e3d6000fd5b505050506040513d601f19601f82011682018060405250810190610f4f919061264f565b851115610f7b57604051806040016040528060078152602001661123b2b710189160c91b815250610f9c565b604051806040016040528060078152602001661123b2b710181160c91b8152505b8351610fc85760405180604001604052806008815260200167112837b634b1b29160c11b815250610fe9565b60405180604001604052806007815260200166112a3434b2b31160c91b8152505b604051602001610ffb93929190612668565b60405160208183030381529060405292505050919050565b6013546040516394e5684760e01b8152600481018390526060916000916001600160a01b03909116906394e568479060240161012060405180830381865afa158015611063573d6000803e3d6000fd5b505050506040513d601f19601f820116820180604052508101906110879190612389565b90506000816000015161109b57600a61109e565b60005b9050600082600001516111435761113e600280546110bb90612455565b80601f01602080910402602001604051908101604052809291908181526020018280546110e790612455565b80156111345780601f1061110957610100808354040283529160200191611134565b820191906000526020600020905b81548152906001019060200180831161111757829003601f168201915b5050505050611c23565b611153565b611153600380546110bb90612455565b6112c7600d6000611164868261273d565b60ff1660ff1681526020019081526020016000206000866020015160ff1660ff1681526020019081526020016000206040518060400160405290816000820180546111ae90612455565b80601f01602080910402602001604051908101604052809291908181526020018280546111da90612455565b80156112275780601f106111fc57610100808354040283529160200191611227565b820191906000526020600020905b81548152906001019060200180831161120a57829003601f168201915b5050505050815260200160018201805461124090612455565b80601f016020809104026020016040519081016040528092919081815260200182805461126c90612455565b80156112b95780601f1061128e576101008083540402835291602001916112b9565b820191906000526020600020905b81548152906001019060200180831161129c57829003601f168201915b505050505081525050611c4c565b611323600d60006112d987600161273d565b60ff1660ff1681526020019081526020016000206000876040015160ff1660ff1681526020019081526020016000206040518060400160405290816000820180546111ae90612455565b61137f600d600061133588600261273d565b60ff1660ff1681526020019081526020016000206000886080015160ff1660ff1681526020019081526020016000206040518060400160405290816000820180546111ae90612455565b6113db600d600061139189600361273d565b60ff1660ff1681526020019081526020016000206000896060015160ff1660ff1681526020019081526020016000206040518060400160405290816000820180546111ae90612455565b611437600d60006113ed8a600461273d565b60ff1660ff16815260200190815260200160002060008a60e0015160ff1660ff1681526020019081526020016000206040518060400160405290816000820180546111ae90612455565b885161149f5761149a600d600061144f8b600561273d565b60ff1660ff16815260200190815260200160002060008b610100015160ff1660ff1681526020019081526020016000206040518060400160405290816000820180546111ae90612455565b6114fb565b6114fb600d60006114b18b600561273d565b60ff1660ff16815260200190815260200160002060008b60a0015160ff1660ff1681526020019081526020016000206040518060400160405290816000820180546111ae90612455565b8951156115175760405180602001604052806000815250611573565b611573600d60006115298c600661273d565b60ff1660ff16815260200190815260200160002060008c60c0015160ff1660ff1681526020019081526020016000206040518060400160405290816000820180546111ae90612455565b60405160200161158a989796959493929190612762565b6040516020818303038152906040529050806040516020016115ac9190612807565b6040516020818303038152906040529350505050919050565b6000546001600160a01b031633146115f85760405162461bcd60e51b81526004016115ef90612901565b60405180910390fd5b601380546001600160a01b0319166001600160a01b0392909216919091179055565b600d60209081526000928352604080842090915290825290208054819061164090612455565b80601f016020809104026020016040519081016040528092919081815260200182805461166c90612455565b80156116b95780601f1061168e576101008083540402835291602001916116b9565b820191906000526020600020905b81548152906001019060200180831161169c57829003601f168201915b5050505050908060010180546116ce90612455565b80601f01602080910402602001604051908101604052809291908181526020018280546116fa90612455565b80156117475780601f1061171c57610100808354040283529160200191611747565b820191906000526020600020905b81548152906001019060200180831161172a57829003601f168201915b5050505050905082565b60006001548260ff1614156117b657600061176d60648561294c565b61ffff169050605f8111156117865760009150506117ba565b60508111156117995760019150506117ba565b60328111156117ac5760029150506117ba565b60039150506117ba565b5060005b92915050565b6000546001600160a01b031633146117ea5760405162461bcd60e51b81526004016115ef90612901565b6117f660028585611f21565b5061180360038383611f21565b5050505050565b6013546040516394e5684760e01b8152600481018390526060916000916001600160a01b03909116906394e568479060240161012060405180830381865afa15801561185a573d6000803e3d6000fd5b505050506040513d601f19601f8201168201806040525081019061187e9190612389565b9050600081600001516118b15760405180604001604052806008815260200167506f6c696365202360c01b8152506118d2565b604051806040016040528060078152602001665468696566202360c81b8152505b6118db85611c63565b6118ec6118e787611013565b611d69565b6118f5876101fb565b604051602001611908949392919061296d565b604051602081830303815290604052905061192281611d69565b604051602001610ffb9190612ca0565b6000546001600160a01b0316331461195c5760405162461bcd60e51b81526004016115ef90612901565b82811461199f5760405162461bcd60e51b81526020600482015260116024820152704d69736d61746368656420696e7075747360781b60448201526064016115ef565b60005b81811015611b165760405180604001604052808484848181106119c7576119c761243f565b90506020028101906119d99190612ce5565b6119e39080612d05565b8080601f016020809104026020016040519081016040528093929190818152602001838380828437600092019190915250505090825250602001848484818110611a2f57611a2f61243f565b9050602002810190611a419190612ce5565b611a4f906020810190612d05565b8080601f016020809104026020016040519081016040528093929190818152602001838380828437600092018290525093909452505060ff89168152600d602052604081209150878785818110611aa857611aa861243f565b9050602002016020810190611abd91906122fe565b60ff168152602080820192909252604001600020825180519192611ae692849290910190611fa5565b506020828101518051611aff9260018501920190611fa5565b509050508080611b0e90612d4c565b9150506119a2565b5060ff8086166000908152600e6020526040812080548493919291611b3d9185911661273d565b92506101000a81548160ff021916908360ff1602179055505050505050565b6000546001600160a01b03163314611b865760405162461bcd60e51b81526004016115ef90612901565b6001600160a01b038116611beb5760405162461bcd60e51b815260206004820152602660248201527f4f776e61626c653a206e6577206f776e657220697320746865207a65726f206160448201526564647265737360d01b60648201526084016115ef565b611bf481611ed1565b50565b60608282604051602001611c0c929190612d67565b604051602081830303815290604052905092915050565b606081604051602001611c369190612dd8565b6040516020818303038152906040529050919050565b60608160200151604051602001611c369190612dd8565b606081611c875750506040805180820190915260018152600360fc1b602082015290565b8160005b8115611cb15780611c9b81612d4c565b9150611caa9050600a83612eac565b9150611c8b565b60008167ffffffffffffffff811115611ccc57611ccc61231b565b6040519080825280601f01601f191660200182016040528015611cf6576020820181803683370190505b5090505b8415611d6157611d0b600183612ec0565b9150611d18600a86612ed7565b611d23906030612eeb565b60f81b818381518110611d3857611d3861243f565b60200101906001600160f81b031916908160001a905350611d5a600a86612eac565b9450611cfa565b949350505050565b6060815160001415611d8957505060408051602081019091526000815290565b6000604051806060016040528060408152602001612f236040913990506000600384516002611db89190612eeb565b611dc29190612eac565b611dcd906004612f03565b90506000611ddc826020612eeb565b67ffffffffffffffff811115611df457611df461231b565b6040519080825280601f01601f191660200182016040528015611e1e576020820181803683370190505b509050818152600183018586518101602084015b81831015611e8c5760039283018051603f601282901c811687015160f890811b8552600c83901c8216880151811b6001860152600683901c8216880151811b60028601529116860151901b93820193909352600401611e32565b600389510660018114611ea65760028114611eb757611ec3565b613d3d60f01b600119830152611ec3565b603d60f81b6000198301525b509398975050505050505050565b600080546001600160a01b038381166001600160a01b0319831681178455604051919092169283917f8be0079c531659141344cd1fd0a4f28419497f9722a3daafe3b4186f6b6457e09190a35050565b828054611f2d90612455565b90600052602060002090601f016020900481019282611f4f5760008555611f95565b82601f10611f685782800160ff19823516178555611f95565b82800160010185558215611f95579182015b82811115611f95578235825591602001919060010190611f7a565b50611fa1929150612019565b5090565b828054611fb190612455565b90600052602060002090601f016020900481019282611fd35760008555611f95565b82601f10611fec57805160ff1916838001178555611f95565b82800160010185558215611f95579182015b82811115611f95578251825591602001919060010190611ffe565b5b80821115611fa1576000815560010161201a565b60006020828403121561204057600080fd5b5035919050565b60005b8381101561206257818101518382015260200161204a565b83811115612071576000848401525b50505050565b6000815180845261208f816020860160208601612047565b601f01601f19169290920160200192915050565b6020815260006120b66020830184612077565b9392505050565b6000602082840312156120cf57600080fd5b81356001600160a01b03811681146120b657600080fd5b60ff81168114611bf457600080fd5b6000806040838503121561210857600080fd5b8235612113816120e6565b91506020830135612123816120e6565b809150509250929050565b6040815260006121416040830185612077565b82810360208401526121538185612077565b95945050505050565b6000806040838503121561216f57600080fd5b823561ffff8116811461211357600080fd5b60008083601f84011261219357600080fd5b50813567ffffffffffffffff8111156121ab57600080fd5b6020830191508360208285010111156121c357600080fd5b9250929050565b600080600080604085870312156121e057600080fd5b843567ffffffffffffffff808211156121f857600080fd5b61220488838901612181565b9096509450602087013591508082111561221d57600080fd5b5061222a87828801612181565b95989497509550505050565b60008083601f84011261224857600080fd5b50813567ffffffffffffffff81111561226057600080fd5b6020830191508360208260051b85010111156121c357600080fd5b60008060008060006060868803121561229357600080fd5b853561229e816120e6565b9450602086013567ffffffffffffffff808211156122bb57600080fd5b6122c789838a01612236565b909650945060408801359150808211156122e057600080fd5b506122ed88828901612236565b969995985093965092949392505050565b60006020828403121561231057600080fd5b81356120b6816120e6565b634e487b7160e01b600052604160045260246000fd5b604051610120810167ffffffffffffffff8111828210171561236357634e487b7160e01b600052604160045260246000fd5b60405290565b8051801515811461237957600080fd5b919050565b8051612379816120e6565b6000610120828403121561239c57600080fd5b6123a4612331565b6123ad83612369565b81526123bb6020840161237e565b60208201526123cc6040840161237e565b60408201526123dd6060840161237e565b60608201526123ee6080840161237e565b60808201526123ff60a0840161237e565b60a082015261241060c0840161237e565b60c082015261242160e0840161237e565b60e082015261010061243481850161237e565b908201529392505050565b634e487b7160e01b600052603260045260246000fd5b600181811c9082168061246957607f821691505b6020821081141561248a57634e487b7160e01b600052602260045260246000fd5b50919050565b600081516124a2818560208601612047565b9290920192915050565b6000875160206124bf8285838d01612047565b8184019150600b60fa1b80835289516124de8160018601858e01612047565b6001930192830181905288516124fa8160028601858d01612047565b6002930192830181905287516125168160038601858c01612047565b6003930192830181905286516125328160048601858b01612047565b6004930192830152845161254c8160058501848901612047565b612562600582850101600b60fa1b815260010190565b9b9a5050505050505050505050565b60008951612583818460208e01612047565b8083019050600b60fa1b8082528a516125a3816001850160208f01612047565b6001920191820181905289516125c0816002850160208e01612047565b6002920191820181905288516125dd816003850160208d01612047565b600392019182015286516125f8816004840160208b01612047565b61263f6126266126396126266126336126266126206004888a0101600b60fa1b815260010190565b8d612490565b600b60fa1b815260010190565b8a612490565b87612490565b9c9b505050505050505050505050565b60006020828403121561266157600080fd5b5051919050565b605b60f81b815260008451612684816001850160208901612047565b7f7b2274726169745f74797065223a2247656e65726174696f6e222c2276616c756001918401918201526232911d60e91b602182015284516126cd816024840160208901612047565b7f7d2c7b2274726169745f74797065223a2254797065222c2276616c7565223a0060249290910191820152835161270b816043840160208801612047565b617d5d60f01b6043929091019182015260450195945050505050565b634e487b7160e01b600052601160045260246000fd5b600060ff821660ff84168060ff0382111561275a5761275a612727565b019392505050565b6000895160206127758285838f01612047565b8a51918401916127888184848f01612047565b8a5192019161279a8184848e01612047565b89519201916127ac8184848d01612047565b88519201916127be8184848c01612047565b87519201916127d08184848b01612047565b86519201916127e28184848a01612047565b85519201916127f48184848901612047565b919091019b9a5050505050505050505050565b7f3c7376672069643d22706f6c696365416e645468696566222077696474683d2281527f3130302522206865696768743d2231303025222076657273696f6e3d22312e3160208201527f222076696577426f783d223020302034302034302220786d6c6e733d2268747460408201527f703a2f2f7777772e77332e6f72672f323030302f7376672220786d6c6e733a7860608201527f6c696e6b3d22687474703a2f2f7777772e77332e6f72672f313939392f786c696080820152633735911f60e11b60a0820152600082516128e48160a4850160208701612047565b651e17b9bb339f60d11b60a493909101928301525060aa01919050565b6020808252818101527f4f776e61626c653a2063616c6c6572206973206e6f7420746865206f776e6572604082015260600190565b634e487b7160e01b600052601260045260246000fd5b600061ffff8084168061296157612961612936565b92169190910692915050565b693d913730b6b2911d101160b11b8152845160009061299381600a850160208a01612047565b8551908301906129aa81600a840160208a01612047565b7f222c20226465736372697074696f6e223a2022506f6c69636520262054686965600a92909101918201527f662047616d652069732061206e65772067656e65726174696f6e20706c61792d602a8201527f746f2d6561726e204e46542067616d65206f6e204176616c616e636865207468604a8201527f617420696e636f72706f72617465732070726f626162696c6974792d62617365606a8201527f6420646572697661746976657320616c6f6e6773696465204e4654732e205468608a8201527f726f75676820612076617374206172726179206f662063686f6963657320616e60aa8201527f64206465636973696f6e2d6d616b696e6720706f73736962696c69746965732c60ca8201527f20506f6c69636520262054686965662047616d652070726f6d6973657320746f60ea8201527f20696e7374696c206578636974656d656e7420616e6420637572696f7369747961010a8201527f20616d6f6e6773742074686520636f6d6d756e6974792061732065766572792061012a8201527f696e646976696475616c2061646f70747320646966666572656e74207374726161014a8201527f74656769657320746f20646f20626574746572207468616e206f6e6520616e6f61016a8201527f7468657220616e6420746f20636f6d65206f7574206f6e20746f702e2054686561018a8201527f207265616c207175657374696f6e2069732c2061726520796f7520235465616d6101aa8201527f5468696566206f7220235465616d506f6c6963653f2043686f6f7365207769736101ca8201527f656c79206f7220776174636820746865206f74686572206765742072696368216101ea8201527f222c2022696d616765223a2022646174613a696d6167652f7376672b786d6c3b61020a8201526618985cd94d8d0b60ca1b61022a820152612c95612c88612c82612c66610231850189612490565b6f1116101130ba3a3934b13aba32b9911d60811b815260100190565b86612490565b607d60f81b815260010190565b979650505050505050565b7f646174613a6170706c69636174696f6e2f6a736f6e3b6261736536342c000000815260008251612cd881601d850160208701612047565b91909101601d0192915050565b60008235603e19833603018112612cfb57600080fd5b9190910192915050565b6000808335601e19843603018112612d1c57600080fd5b83018035915067ffffffffffffffff821115612d3757600080fd5b6020019150368190038213156121c357600080fd5b6000600019821415612d6057612d60612727565b5060010190565b6e3d913a3930b4ba2fba3cb832911d1160891b81528251600090612d9281600f850160208801612047565b6a1116113b30b63ab2911d1160a91b600f918401918201528351612dbd81601a840160208801612047565b61227d60f01b601a9290910191820152601c01949350505050565b7f3c696d61676520783d22342220793d2234222077696474683d2233322220686581527f696768743d2233322220696d6167652d72656e646572696e673d22706978656c60208201527f6174656422207072657365727665417370656374526174696f3d22784d69645960408201527f4d69642220786c696e6b3a687265663d22646174613a696d6167652f706e673b60608201526618985cd94d8d0b60ca1b608082015260008251612e92816087850160208701612047565b6211179f60e91b6087939091019283015250608a01919050565b600082612ebb57612ebb612936565b500490565b600082821015612ed257612ed2612727565b500390565b600082612ee657612ee6612936565b500690565b60008219821115612efe57612efe612727565b500190565b6000816000190483118215151615612f1d57612f1d612727565b50029056fe4142434445464748494a4b4c4d4e4f505152535455565758595a6162636465666768696a6b6c6d6e6f707172737475767778797a303132333435363738392b2fa26469706673582212200b31d036a0ca1c259978c6296863fa9620e83c631fc1046263328273f95d667764736f6c634300080b0033",
			"opcodes": "PUSH1 0x11 PUSH1 0x1 SSTORE PUSH1 0x7 PUSH2 0x1A0 DUP2 DUP2 MSTORE PUSH7 0x556E69666F726D PUSH1 0xC8 SHL PUSH2 0x1C0 MSTORE PUSH1 0x80 SWAP1 DUP2 MSTORE PUSH2 0x1E0 SWAP2 DUP3 MSTORE PUSH7 0x436C6F74686573 PUSH1 0xC8 SHL PUSH2 0x200 MSTORE PUSH1 0xA0 SWAP2 SWAP1 SWAP2 MSTORE PUSH1 0x4 PUSH2 0x220 DUP2 DUP2 MSTORE PUSH4 0x2430B4B9 PUSH1 0xE1 SHL PUSH2 0x240 MSTORE PUSH1 0xC0 MSTORE PUSH1 0xB PUSH2 0x260 SWAP1 DUP2 MSTORE PUSH11 0x2330B1B4B0B6102430B4B9 PUSH1 0xA9 SHL PUSH2 0x280 MSTORE PUSH1 0xE0 MSTORE PUSH2 0x2A0 DUP2 DUP2 MSTORE PUSH4 0x45796573 PUSH1 0xE0 SHL PUSH2 0x2C0 MSTORE PUSH2 0x100 MSTORE PUSH1 0x8 PUSH2 0x2E0 SWAP1 DUP2 MSTORE PUSH8 0x2432B0B233B2B0B9 PUSH1 0xC1 SHL PUSH2 0x300 MSTORE PUSH2 0x120 MSTORE PUSH1 0x9 PUSH2 0x320 DUP2 DUP2 MSTORE PUSH9 0x4163636573736F7279 PUSH1 0xB8 SHL PUSH2 0x340 MSTORE PUSH2 0x140 MSTORE PUSH2 0x360 DUP2 DUP2 MSTORE PUSH9 0x2732B1B59023B2B0B9 PUSH1 0xB9 SHL PUSH2 0x380 MSTORE PUSH2 0x160 MSTORE PUSH2 0x3E0 PUSH1 0x40 MSTORE PUSH1 0x5 PUSH2 0x3A0 SWAP1 DUP2 MSTORE PUSH5 0x416C706861 PUSH1 0xD8 SHL PUSH2 0x3C0 MSTORE PUSH2 0x180 MSTORE PUSH3 0x105 SWAP3 SWAP1 PUSH3 0x1F7 JUMP JUMPDEST POP PUSH1 0x40 DUP1 MLOAD PUSH1 0xC0 DUP2 ADD DUP3 MSTORE PUSH1 0x1 PUSH1 0x80 DUP3 ADD DUP2 DUP2 MSTORE PUSH1 0x7 PUSH1 0xFB SHL PUSH1 0xA0 DUP5 ADD MSTORE DUP3 MSTORE DUP3 MLOAD DUP1 DUP5 ADD DUP5 MSTORE DUP2 DUP2 MSTORE PUSH1 0x37 PUSH1 0xF8 SHL PUSH1 0x20 DUP3 DUP2 ADD SWAP2 SWAP1 SWAP2 MSTORE DUP1 DUP5 ADD SWAP2 SWAP1 SWAP2 MSTORE DUP4 MLOAD DUP1 DUP6 ADD DUP6 MSTORE DUP3 DUP2 MSTORE PUSH1 0x1B PUSH1 0xF9 SHL DUP2 DUP4 ADD MSTORE DUP4 DUP6 ADD MSTORE DUP4 MLOAD DUP1 DUP6 ADD SWAP1 SWAP5 MSTORE SWAP1 DUP4 MSTORE PUSH1 0x35 PUSH1 0xF8 SHL SWAP1 DUP4 ADD MSTORE PUSH1 0x60 DUP2 ADD SWAP2 SWAP1 SWAP2 MSTORE PUSH3 0x187 SWAP1 PUSH1 0xF SWAP1 PUSH1 0x4 PUSH3 0x24E JUMP JUMPDEST POP CALLVALUE DUP1 ISZERO PUSH3 0x195 JUMPI PUSH1 0x0 DUP1 REVERT JUMPDEST POP PUSH3 0x1A1 CALLER PUSH3 0x1A7 JUMP JUMPDEST PUSH3 0x3D5 JUMP JUMPDEST PUSH1 0x0 DUP1 SLOAD PUSH1 0x1 PUSH1 0x1 PUSH1 0xA0 SHL SUB DUP4 DUP2 AND PUSH1 0x1 PUSH1 0x1 PUSH1 0xA0 SHL SUB NOT DUP4 AND DUP2 OR DUP5 SSTORE PUSH1 0x40 MLOAD SWAP2 SWAP1 SWAP3 AND SWAP3 DUP4 SWAP2 PUSH32 0x8BE0079C531659141344CD1FD0A4F28419497F9722A3DAAFE3B4186F6B6457E0 SWAP2 SWAP1 LOG3 POP POP JUMP JUMPDEST DUP3 PUSH1 0x9 DUP2 ADD SWAP3 DUP3 ISZERO PUSH3 0x23C JUMPI SWAP2 PUSH1 0x20 MUL DUP3 ADD JUMPDEST DUP3 DUP2 GT ISZERO PUSH3 0x23C JUMPI DUP3 MLOAD DUP1 MLOAD PUSH3 0x22B SWAP2 DUP5 SWAP2 PUSH1 0x20 SWAP1 SWAP2 ADD SWAP1 PUSH3 0x293 JUMP JUMPDEST POP SWAP2 PUSH1 0x20 ADD SWAP2 SWAP1 PUSH1 0x1 ADD SWAP1 PUSH3 0x20B JUMP JUMPDEST POP PUSH3 0x24A SWAP3 SWAP2 POP PUSH3 0x31E JUMP JUMPDEST POP SWAP1 JUMP JUMPDEST DUP3 PUSH1 0x4 DUP2 ADD SWAP3 DUP3 ISZERO PUSH3 0x23C JUMPI SWAP2 PUSH1 0x20 MUL DUP3 ADD JUMPDEST DUP3 DUP2 GT ISZERO PUSH3 0x23C JUMPI DUP3 MLOAD DUP1 MLOAD PUSH3 0x282 SWAP2 DUP5 SWAP2 PUSH1 0x20 SWAP1 SWAP2 ADD SWAP1 PUSH3 0x293 JUMP JUMPDEST POP SWAP2 PUSH1 0x20 ADD SWAP2 SWAP1 PUSH1 0x1 ADD SWAP1 PUSH3 0x262 JUMP JUMPDEST DUP3 DUP1 SLOAD PUSH3 0x2A1 SWAP1 PUSH3 0x398 JUMP JUMPDEST SWAP1 PUSH1 0x0 MSTORE PUSH1 0x20 PUSH1 0x0 KECCAK256 SWAP1 PUSH1 0x1F ADD PUSH1 0x20 SWAP1 DIV DUP2 ADD SWAP3 DUP3 PUSH3 0x2C5 JUMPI PUSH1 0x0 DUP6 SSTORE PUSH3 0x310 JUMP JUMPDEST DUP3 PUSH1 0x1F LT PUSH3 0x2E0 JUMPI DUP1 MLOAD PUSH1 0xFF NOT AND DUP4 DUP1 ADD OR DUP6 SSTORE PUSH3 0x310 JUMP JUMPDEST DUP3 DUP1 ADD PUSH1 0x1 ADD DUP6 SSTORE DUP3 ISZERO PUSH3 0x310 JUMPI SWAP2 DUP3 ADD JUMPDEST DUP3 DUP2 GT ISZERO PUSH3 0x310 JUMPI DUP3 MLOAD DUP3 SSTORE SWAP2 PUSH1 0x20 ADD SWAP2 SWAP1 PUSH1 0x1 ADD SWAP1 PUSH3 0x2F3 JUMP JUMPDEST POP PUSH3 0x24A SWAP3 SWAP2 POP PUSH3 0x33F JUMP JUMPDEST DUP1 DUP3 GT ISZERO PUSH3 0x24A JUMPI PUSH1 0x0 PUSH3 0x335 DUP3 DUP3 PUSH3 0x356 JUMP JUMPDEST POP PUSH1 0x1 ADD PUSH3 0x31E JUMP JUMPDEST JUMPDEST DUP1 DUP3 GT ISZERO PUSH3 0x24A JUMPI PUSH1 0x0 DUP2 SSTORE PUSH1 0x1 ADD PUSH3 0x340 JUMP JUMPDEST POP DUP1 SLOAD PUSH3 0x364 SWAP1 PUSH3 0x398 JUMP JUMPDEST PUSH1 0x0 DUP3 SSTORE DUP1 PUSH1 0x1F LT PUSH3 0x375 JUMPI POP POP JUMP JUMPDEST PUSH1 0x1F ADD PUSH1 0x20 SWAP1 DIV SWAP1 PUSH1 0x0 MSTORE PUSH1 0x20 PUSH1 0x0 KECCAK256 SWAP1 DUP2 ADD SWAP1 PUSH3 0x395 SWAP2 SWAP1 PUSH3 0x33F JUMP JUMPDEST POP JUMP JUMPDEST PUSH1 0x1 DUP2 DUP2 SHR SWAP1 DUP3 AND DUP1 PUSH3 0x3AD JUMPI PUSH1 0x7F DUP3 AND SWAP2 POP JUMPDEST PUSH1 0x20 DUP3 LT DUP2 EQ ISZERO PUSH3 0x3CF JUMPI PUSH4 0x4E487B71 PUSH1 0xE0 SHL PUSH1 0x0 MSTORE PUSH1 0x22 PUSH1 0x4 MSTORE PUSH1 0x24 PUSH1 0x0 REVERT JUMPDEST POP SWAP2 SWAP1 POP JUMP JUMPDEST PUSH2 0x2F98 DUP1 PUSH3 0x3E5 PUSH1 0x0 CODECOPY PUSH1 0x0 RETURN INVALID PUSH1 0x80 PUSH1 0x40 MSTORE CALLVALUE DUP1 ISZERO PUSH2 0x10 JUMPI PUSH1 0x0 DUP1 REVERT JUMPDEST POP PUSH1 0x4 CALLDATASIZE LT PUSH2 0xB4 JUMPI PUSH1 0x0 CALLDATALOAD PUSH1 0xE0 SHR DUP1 PUSH4 0xA6B09692 GT PUSH2 0x71 JUMPI DUP1 PUSH4 0xA6B09692 EQ PUSH2 0x167 JUMPI DUP1 PUSH4 0xB7A5AD54 EQ PUSH2 0x18C JUMPI DUP1 PUSH4 0xC87B56DD EQ PUSH2 0x19F JUMPI DUP1 PUSH4 0xD93AE3D9 EQ PUSH2 0x1B2 JUMPI DUP1 PUSH4 0xEE7BD58B EQ PUSH2 0x1C5 JUMPI DUP1 PUSH4 0xF2FDE38B EQ PUSH2 0x1E8 JUMPI PUSH1 0x0 DUP1 REVERT JUMPDEST DUP1 PUSH4 0x68DBA5E5 EQ PUSH2 0xB9 JUMPI DUP1 PUSH4 0x7ABECB86 EQ PUSH2 0xE2 JUMPI DUP1 PUSH4 0x819912A2 EQ PUSH2 0xF5 JUMPI DUP1 PUSH4 0x8555967E EQ PUSH2 0x10A JUMPI DUP1 PUSH4 0x8DA5CB5B EQ PUSH2 0x135 JUMPI DUP1 PUSH4 0x9BF2EE35 EQ PUSH2 0x146 JUMPI JUMPDEST PUSH1 0x0 DUP1 REVERT JUMPDEST PUSH2 0xCC PUSH2 0xC7 CALLDATASIZE PUSH1 0x4 PUSH2 0x202E JUMP JUMPDEST PUSH2 0x1FB JUMP JUMPDEST PUSH1 0x40 MLOAD PUSH2 0xD9 SWAP2 SWAP1 PUSH2 0x20A3 JUMP JUMPDEST PUSH1 0x40 MLOAD DUP1 SWAP2 SUB SWAP1 RETURN JUMPDEST PUSH2 0xCC PUSH2 0xF0 CALLDATASIZE PUSH1 0x4 PUSH2 0x202E JUMP JUMPDEST PUSH2 0x1013 JUMP JUMPDEST PUSH2 0x108 PUSH2 0x103 CALLDATASIZE PUSH1 0x4 PUSH2 0x20BD JUMP JUMPDEST PUSH2 0x15C5 JUMP JUMPDEST STOP JUMPDEST PUSH1 0x13 SLOAD PUSH2 0x11D SWAP1 PUSH1 0x1 PUSH1 0x1 PUSH1 0xA0 SHL SUB AND DUP2 JUMP JUMPDEST PUSH1 0x40 MLOAD PUSH1 0x1 PUSH1 0x1 PUSH1 0xA0 SHL SUB SWAP1 SWAP2 AND DUP2 MSTORE PUSH1 0x20 ADD PUSH2 0xD9 JUMP JUMPDEST PUSH1 0x0 SLOAD PUSH1 0x1 PUSH1 0x1 PUSH1 0xA0 SHL SUB AND PUSH2 0x11D JUMP JUMPDEST PUSH2 0x159 PUSH2 0x154 CALLDATASIZE PUSH1 0x4 PUSH2 0x20F5 JUMP JUMPDEST PUSH2 0x161A JUMP JUMPDEST PUSH1 0x40 MLOAD PUSH2 0xD9 SWAP3 SWAP2 SWAP1 PUSH2 0x212E JUMP JUMPDEST PUSH2 0x17A PUSH2 0x175 CALLDATASIZE PUSH1 0x4 PUSH2 0x215C JUMP JUMPDEST PUSH2 0x1751 JUMP JUMPDEST PUSH1 0x40 MLOAD PUSH1 0xFF SWAP1 SWAP2 AND DUP2 MSTORE PUSH1 0x20 ADD PUSH2 0xD9 JUMP JUMPDEST PUSH2 0x108 PUSH2 0x19A CALLDATASIZE PUSH1 0x4 PUSH2 0x21CA JUMP JUMPDEST PUSH2 0x17C0 JUMP JUMPDEST PUSH2 0xCC PUSH2 0x1AD CALLDATASIZE PUSH1 0x4 PUSH2 0x202E JUMP JUMPDEST PUSH2 0x180A JUMP JUMPDEST PUSH2 0x108 PUSH2 0x1C0 CALLDATASIZE PUSH1 0x4 PUSH2 0x227B JUMP JUMPDEST PUSH2 0x1932 JUMP JUMPDEST PUSH2 0x17A PUSH2 0x1D3 CALLDATASIZE PUSH1 0x4 PUSH2 0x22FE JUMP JUMPDEST PUSH1 0xE PUSH1 0x20 MSTORE PUSH1 0x0 SWAP1 DUP2 MSTORE PUSH1 0x40 SWAP1 KECCAK256 SLOAD PUSH1 0xFF AND DUP2 JUMP JUMPDEST PUSH2 0x108 PUSH2 0x1F6 CALLDATASIZE PUSH1 0x4 PUSH2 0x20BD JUMP JUMPDEST PUSH2 0x1B5C JUMP JUMPDEST PUSH1 0x13 SLOAD PUSH1 0x40 MLOAD PUSH4 0x94E56847 PUSH1 0xE0 SHL DUP2 MSTORE PUSH1 0x4 DUP2 ADD DUP4 SWAP1 MSTORE PUSH1 0x60 SWAP2 PUSH1 0x0 SWAP2 PUSH1 0x1 PUSH1 0x1 PUSH1 0xA0 SHL SUB SWAP1 SWAP2 AND SWAP1 PUSH4 0x94E56847 SWAP1 PUSH1 0x24 ADD PUSH2 0x120 PUSH1 0x40 MLOAD DUP1 DUP4 SUB DUP2 DUP7 GAS STATICCALL ISZERO DUP1 ISZERO PUSH2 0x24B JUMPI RETURNDATASIZE PUSH1 0x0 DUP1 RETURNDATACOPY RETURNDATASIZE PUSH1 0x0 REVERT JUMPDEST POP POP POP POP PUSH1 0x40 MLOAD RETURNDATASIZE PUSH1 0x1F NOT PUSH1 0x1F DUP3 ADD AND DUP3 ADD DUP1 PUSH1 0x40 MSTORE POP DUP2 ADD SWAP1 PUSH2 0x26F SWAP2 SWAP1 PUSH2 0x2389 JUMP JUMPDEST SWAP1 POP PUSH1 0x60 DUP2 PUSH1 0x0 ADD MLOAD ISZERO PUSH2 0x85B JUMPI PUSH2 0x3DB PUSH1 0x4 PUSH1 0x1 ADD DUP1 SLOAD PUSH2 0x290 SWAP1 PUSH2 0x2455 JUMP JUMPDEST DUP1 PUSH1 0x1F ADD PUSH1 0x20 DUP1 SWAP2 DIV MUL PUSH1 0x20 ADD PUSH1 0x40 MLOAD SWAP1 DUP2 ADD PUSH1 0x40 MSTORE DUP1 SWAP3 SWAP2 SWAP1 DUP2 DUP2 MSTORE PUSH1 0x20 ADD DUP3 DUP1 SLOAD PUSH2 0x2BC SWAP1 PUSH2 0x2455 JUMP JUMPDEST DUP1 ISZERO PUSH2 0x309 JUMPI DUP1 PUSH1 0x1F LT PUSH2 0x2DE JUMPI PUSH2 0x100 DUP1 DUP4 SLOAD DIV MUL DUP4 MSTORE SWAP2 PUSH1 0x20 ADD SWAP2 PUSH2 0x309 JUMP JUMPDEST DUP3 ADD SWAP2 SWAP1 PUSH1 0x0 MSTORE PUSH1 0x20 PUSH1 0x0 KECCAK256 SWAP1 JUMPDEST DUP2 SLOAD DUP2 MSTORE SWAP1 PUSH1 0x1 ADD SWAP1 PUSH1 0x20 ADD DUP1 DUP4 GT PUSH2 0x2EC JUMPI DUP3 SWAP1 SUB PUSH1 0x1F AND DUP3 ADD SWAP2 JUMPDEST POP POP PUSH1 0x0 DUP1 DUP1 MSTORE PUSH1 0xD PUSH1 0x20 SWAP1 DUP2 MSTORE DUP9 DUP2 ADD MLOAD PUSH1 0xFF AND DUP3 MSTORE PUSH32 0x81955A0A11E65EAC625C29E8882660BAE4E165A75D72780094ACAE8ECE9A29EE SWAP1 MSTORE PUSH1 0x40 SWAP1 KECCAK256 DUP1 SLOAD SWAP1 SWAP4 POP PUSH2 0x358 SWAP3 POP SWAP1 POP PUSH2 0x2455 JUMP JUMPDEST DUP1 PUSH1 0x1F ADD PUSH1 0x20 DUP1 SWAP2 DIV MUL PUSH1 0x20 ADD PUSH1 0x40 MLOAD SWAP1 DUP2 ADD PUSH1 0x40 MSTORE DUP1 SWAP3 SWAP2 SWAP1 DUP2 DUP2 MSTORE PUSH1 0x20 ADD DUP3 DUP1 SLOAD PUSH2 0x384 SWAP1 PUSH2 0x2455 JUMP JUMPDEST DUP1 ISZERO PUSH2 0x3D1 JUMPI DUP1 PUSH1 0x1F LT PUSH2 0x3A6 JUMPI PUSH2 0x100 DUP1 DUP4 SLOAD DIV MUL DUP4 MSTORE SWAP2 PUSH1 0x20 ADD SWAP2 PUSH2 0x3D1 JUMP JUMPDEST DUP3 ADD SWAP2 SWAP1 PUSH1 0x0 MSTORE PUSH1 0x20 PUSH1 0x0 KECCAK256 SWAP1 JUMPDEST DUP2 SLOAD DUP2 MSTORE SWAP1 PUSH1 0x1 ADD SWAP1 PUSH1 0x20 ADD DUP1 DUP4 GT PUSH2 0x3B4 JUMPI DUP3 SWAP1 SUB PUSH1 0x1F AND DUP3 ADD SWAP2 JUMPDEST POP POP POP POP POP PUSH2 0x1BF7 JUMP JUMPDEST PUSH2 0x4B9 PUSH1 0x4 PUSH1 0x2 ADD DUP1 SLOAD PUSH2 0x3EE SWAP1 PUSH2 0x2455 JUMP JUMPDEST DUP1 PUSH1 0x1F ADD PUSH1 0x20 DUP1 SWAP2 DIV MUL PUSH1 0x20 ADD PUSH1 0x40 MLOAD SWAP1 DUP2 ADD PUSH1 0x40 MSTORE DUP1 SWAP3 SWAP2 SWAP1 DUP2 DUP2 MSTORE PUSH1 0x20 ADD DUP3 DUP1 SLOAD PUSH2 0x41A SWAP1 PUSH2 0x2455 JUMP JUMPDEST DUP1 ISZERO PUSH2 0x467 JUMPI DUP1 PUSH1 0x1F LT PUSH2 0x43C JUMPI PUSH2 0x100 DUP1 DUP4 SLOAD DIV MUL DUP4 MSTORE SWAP2 PUSH1 0x20 ADD SWAP2 PUSH2 0x467 JUMP JUMPDEST DUP3 ADD SWAP2 SWAP1 PUSH1 0x0 MSTORE PUSH1 0x20 PUSH1 0x0 KECCAK256 SWAP1 JUMPDEST DUP2 SLOAD DUP2 MSTORE SWAP1 PUSH1 0x1 ADD SWAP1 PUSH1 0x20 ADD DUP1 DUP4 GT PUSH2 0x44A JUMPI DUP3 SWAP1 SUB PUSH1 0x1F AND DUP3 ADD SWAP2 JUMPDEST POP POP PUSH1 0x1 PUSH1 0x0 SWAP1 DUP2 MSTORE PUSH1 0xD PUSH1 0x20 SWAP1 DUP2 MSTORE PUSH1 0x40 DUP11 DUP2 ADD MLOAD PUSH1 0xFF AND DUP4 MSTORE PUSH32 0xFD54FF1ED53F34A900B24C5BA64F85761163B5D82D98A47B9BD80E45466993C5 SWAP1 SWAP2 MSTORE SWAP1 KECCAK256 DUP1 SLOAD SWAP1 SWAP4 POP PUSH2 0x358 SWAP3 POP SWAP1 POP PUSH2 0x2455 JUMP JUMPDEST PUSH2 0x597 PUSH1 0x4 PUSH1 0x3 ADD DUP1 SLOAD PUSH2 0x4CC SWAP1 PUSH2 0x2455 JUMP JUMPDEST DUP1 PUSH1 0x1F ADD PUSH1 0x20 DUP1 SWAP2 DIV MUL PUSH1 0x20 ADD PUSH1 0x40 MLOAD SWAP1 DUP2 ADD PUSH1 0x40 MSTORE DUP1 SWAP3 SWAP2 SWAP1 DUP2 DUP2 MSTORE PUSH1 0x20 ADD DUP3 DUP1 SLOAD PUSH2 0x4F8 SWAP1 PUSH2 0x2455 JUMP JUMPDEST DUP1 ISZERO PUSH2 0x545 JUMPI DUP1 PUSH1 0x1F LT PUSH2 0x51A JUMPI PUSH2 0x100 DUP1 DUP4 SLOAD DIV MUL DUP4 MSTORE SWAP2 PUSH1 0x20 ADD SWAP2 PUSH2 0x545 JUMP JUMPDEST DUP3 ADD SWAP2 SWAP1 PUSH1 0x0 MSTORE PUSH1 0x20 PUSH1 0x0 KECCAK256 SWAP1 JUMPDEST DUP2 SLOAD DUP2 MSTORE SWAP1 PUSH1 0x1 ADD SWAP1 PUSH1 0x20 ADD DUP1 DUP4 GT PUSH2 0x528 JUMPI DUP3 SWAP1 SUB PUSH1 0x1F AND DUP3 ADD SWAP2 JUMPDEST POP POP PUSH1 0x2 PUSH1 0x0 SWAP1 DUP2 MSTORE PUSH1 0xD PUSH1 0x20 SWAP1 DUP2 MSTORE PUSH1 0x80 DUP12 ADD MLOAD PUSH1 0xFF AND DUP3 MSTORE PUSH32 0x10A81EED9D63D16FACE5E76357905348E6253D3394086026BB2BF2145D7CC249 SWAP1 MSTORE PUSH1 0x40 SWAP1 KECCAK256 DUP1 SLOAD SWAP1 SWAP4 POP PUSH2 0x358 SWAP3 POP SWAP1 POP PUSH2 0x2455 JUMP JUMPDEST PUSH2 0x674 PUSH1 0x4 DUP1 ADD DUP1 SLOAD PUSH2 0x5A9 SWAP1 PUSH2 0x2455 JUMP JUMPDEST DUP1 PUSH1 0x1F ADD PUSH1 0x20 DUP1 SWAP2 DIV MUL PUSH1 0x20 ADD PUSH1 0x40 MLOAD SWAP1 DUP2 ADD PUSH1 0x40 MSTORE DUP1 SWAP3 SWAP2 SWAP1 DUP2 DUP2 MSTORE PUSH1 0x20 ADD DUP3 DUP1 SLOAD PUSH2 0x5D5 SWAP1 PUSH2 0x2455 JUMP JUMPDEST DUP1 ISZERO PUSH2 0x622 JUMPI DUP1 PUSH1 0x1F LT PUSH2 0x5F7 JUMPI PUSH2 0x100 DUP1 DUP4 SLOAD DIV MUL DUP4 MSTORE SWAP2 PUSH1 0x20 ADD SWAP2 PUSH2 0x622 JUMP JUMPDEST DUP3 ADD SWAP2 SWAP1 PUSH1 0x0 MSTORE PUSH1 0x20 PUSH1 0x0 KECCAK256 SWAP1 JUMPDEST DUP2 SLOAD DUP2 MSTORE SWAP1 PUSH1 0x1 ADD SWAP1 PUSH1 0x20 ADD DUP1 DUP4 GT PUSH2 0x605 JUMPI DUP3 SWAP1 SUB PUSH1 0x1F AND DUP3 ADD SWAP2 JUMPDEST POP POP PUSH1 0x3 PUSH1 0x0 SWAP1 DUP2 MSTORE PUSH1 0xD PUSH1 0x20 SWAP1 DUP2 MSTORE PUSH1 0x60 DUP13 ADD MLOAD PUSH1 0xFF AND DUP3 MSTORE PUSH32 0x26B4A10D0F0B04925C23BD4480EE147C916E5E87A7D68206A533DAD160AC81E2 SWAP1 MSTORE PUSH1 0x40 SWAP1 KECCAK256 DUP1 SLOAD SWAP1 SWAP4 POP PUSH2 0x358 SWAP3 POP SWAP1 POP PUSH2 0x2455 JUMP JUMPDEST PUSH2 0x752 PUSH1 0x4 PUSH1 0x6 ADD DUP1 SLOAD PUSH2 0x687 SWAP1 PUSH2 0x2455 JUMP JUMPDEST DUP1 PUSH1 0x1F ADD PUSH1 0x20 DUP1 SWAP2 DIV MUL PUSH1 0x20 ADD PUSH1 0x40 MLOAD SWAP1 DUP2 ADD PUSH1 0x40 MSTORE DUP1 SWAP3 SWAP2 SWAP1 DUP2 DUP2 MSTORE PUSH1 0x20 ADD DUP3 DUP1 SLOAD PUSH2 0x6B3 SWAP1 PUSH2 0x2455 JUMP JUMPDEST DUP1 ISZERO PUSH2 0x700 JUMPI DUP1 PUSH1 0x1F LT PUSH2 0x6D5 JUMPI PUSH2 0x100 DUP1 DUP4 SLOAD DIV MUL DUP4 MSTORE SWAP2 PUSH1 0x20 ADD SWAP2 PUSH2 0x700 JUMP JUMPDEST DUP3 ADD SWAP2 SWAP1 PUSH1 0x0 MSTORE PUSH1 0x20 PUSH1 0x0 KECCAK256 SWAP1 JUMPDEST DUP2 SLOAD DUP2 MSTORE SWAP1 PUSH1 0x1 ADD SWAP1 PUSH1 0x20 ADD DUP1 DUP4 GT PUSH2 0x6E3 JUMPI DUP3 SWAP1 SUB PUSH1 0x1F AND DUP3 ADD SWAP2 JUMPDEST POP POP PUSH1 0x4 PUSH1 0x0 SWAP1 DUP2 MSTORE PUSH1 0xD PUSH1 0x20 SWAP1 DUP2 MSTORE PUSH1 0xE0 DUP14 ADD MLOAD PUSH1 0xFF AND DUP3 MSTORE PUSH32 0xAFAFE8948A4ED9D478B1E9A5780B119B5EDD00EA7D07BC35BEF7C814824EB94B SWAP1 MSTORE PUSH1 0x40 SWAP1 KECCAK256 DUP1 SLOAD SWAP1 SWAP4 POP PUSH2 0x358 SWAP3 POP SWAP1 POP PUSH2 0x2455 JUMP JUMPDEST PUSH2 0x830 PUSH1 0x4 PUSH1 0x5 ADD DUP1 SLOAD PUSH2 0x765 SWAP1 PUSH2 0x2455 JUMP JUMPDEST DUP1 PUSH1 0x1F ADD PUSH1 0x20 DUP1 SWAP2 DIV MUL PUSH1 0x20 ADD PUSH1 0x40 MLOAD SWAP1 DUP2 ADD PUSH1 0x40 MSTORE DUP1 SWAP3 SWAP2 SWAP1 DUP2 DUP2 MSTORE PUSH1 0x20 ADD DUP3 DUP1 SLOAD PUSH2 0x791 SWAP1 PUSH2 0x2455 JUMP JUMPDEST DUP1 ISZERO PUSH2 0x7DE JUMPI DUP1 PUSH1 0x1F LT PUSH2 0x7B3 JUMPI PUSH2 0x100 DUP1 DUP4 SLOAD DIV MUL DUP4 MSTORE SWAP2 PUSH1 0x20 ADD SWAP2 PUSH2 0x7DE JUMP JUMPDEST DUP3 ADD SWAP2 SWAP1 PUSH1 0x0 MSTORE PUSH1 0x20 PUSH1 0x0 KECCAK256 SWAP1 JUMPDEST DUP2 SLOAD DUP2 MSTORE SWAP1 PUSH1 0x1 ADD SWAP1 PUSH1 0x20 ADD DUP1 DUP4 GT PUSH2 0x7C1 JUMPI DUP3 SWAP1 SUB PUSH1 0x1F AND DUP3 ADD SWAP2 JUMPDEST POP POP PUSH1 0x5 PUSH1 0x0 SWAP1 DUP2 MSTORE PUSH1 0xD PUSH1 0x20 SWAP1 DUP2 MSTORE PUSH1 0xA0 DUP15 ADD MLOAD PUSH1 0xFF AND DUP3 MSTORE PUSH32 0xA5049387D9CB649C59F4BDA666105BA636C2A103D8E2B232BA4D125737CD2149 SWAP1 MSTORE PUSH1 0x40 SWAP1 KECCAK256 DUP1 SLOAD SWAP1 SWAP4 POP PUSH2 0x358 SWAP3 POP SWAP1 POP PUSH2 0x2455 JUMP JUMPDEST PUSH1 0x40 MLOAD PUSH1 0x20 ADD PUSH2 0x845 SWAP7 SWAP6 SWAP5 SWAP4 SWAP3 SWAP2 SWAP1 PUSH2 0x24AC JUMP JUMPDEST PUSH1 0x40 MLOAD PUSH1 0x20 DUP2 DUP4 SUB SUB DUP2 MSTORE SWAP1 PUSH1 0x40 MSTORE SWAP1 POP PUSH2 0xEE2 JUMP JUMPDEST PUSH2 0x938 PUSH1 0x4 PUSH1 0x0 ADD DUP1 SLOAD PUSH2 0x86E SWAP1 PUSH2 0x2455 JUMP JUMPDEST DUP1 PUSH1 0x1F ADD PUSH1 0x20 DUP1 SWAP2 DIV MUL PUSH1 0x20 ADD PUSH1 0x40 MLOAD SWAP1 DUP2 ADD PUSH1 0x40 MSTORE DUP1 SWAP3 SWAP2 SWAP1 DUP2 DUP2 MSTORE PUSH1 0x20 ADD DUP3 DUP1 SLOAD PUSH2 0x89A SWAP1 PUSH2 0x2455 JUMP JUMPDEST DUP1 ISZERO PUSH2 0x8E7 JUMPI DUP1 PUSH1 0x1F LT PUSH2 0x8BC JUMPI PUSH2 0x100 DUP1 DUP4 SLOAD DIV MUL DUP4 MSTORE SWAP2 PUSH1 0x20 ADD SWAP2 PUSH2 0x8E7 JUMP JUMPDEST DUP3 ADD SWAP2 SWAP1 PUSH1 0x0 MSTORE PUSH1 0x20 PUSH1 0x0 KECCAK256 SWAP1 JUMPDEST DUP2 SLOAD DUP2 MSTORE SWAP1 PUSH1 0x1 ADD SWAP1 PUSH1 0x20 ADD DUP1 DUP4 GT PUSH2 0x8CA JUMPI DUP3 SWAP1 SUB PUSH1 0x1F AND DUP3 ADD SWAP2 JUMPDEST POP POP PUSH1 0xA PUSH1 0x0 SWAP1 DUP2 MSTORE PUSH1 0xD PUSH1 0x20 SWAP1 DUP2 MSTORE DUP9 DUP2 ADD MLOAD PUSH1 0xFF AND DUP3 MSTORE PUSH32 0xBA9D637F252776D5E1B3534BBD7554A1265A4EF0539D9CA50ABE118598A6973C SWAP1 MSTORE PUSH1 0x40 SWAP1 KECCAK256 DUP1 SLOAD SWAP1 SWAP4 POP PUSH2 0x358 SWAP3 POP SWAP1 POP PUSH2 0x2455 JUMP JUMPDEST PUSH2 0xA16 PUSH1 0x4 PUSH1 0x2 ADD DUP1 SLOAD PUSH2 0x94B SWAP1 PUSH2 0x2455 JUMP JUMPDEST DUP1 PUSH1 0x1F ADD PUSH1 0x20 DUP1 SWAP2 DIV MUL PUSH1 0x20 ADD PUSH1 0x40 MLOAD SWAP1 DUP2 ADD PUSH1 0x40 MSTORE DUP1 SWAP3 SWAP2 SWAP1 DUP2 DUP2 MSTORE PUSH1 0x20 ADD DUP3 DUP1 SLOAD PUSH2 0x977 SWAP1 PUSH2 0x2455 JUMP JUMPDEST DUP1 ISZERO PUSH2 0x9C4 JUMPI DUP1 PUSH1 0x1F LT PUSH2 0x999 JUMPI PUSH2 0x100 DUP1 DUP4 SLOAD DIV MUL DUP4 MSTORE SWAP2 PUSH1 0x20 ADD SWAP2 PUSH2 0x9C4 JUMP JUMPDEST DUP3 ADD SWAP2 SWAP1 PUSH1 0x0 MSTORE PUSH1 0x20 PUSH1 0x0 KECCAK256 SWAP1 JUMPDEST DUP2 SLOAD DUP2 MSTORE SWAP1 PUSH1 0x1 ADD SWAP1 PUSH1 0x20 ADD DUP1 DUP4 GT PUSH2 0x9A7 JUMPI DUP3 SWAP1 SUB PUSH1 0x1F AND DUP3 ADD SWAP2 JUMPDEST POP POP PUSH1 0xB PUSH1 0x0 SWAP1 DUP2 MSTORE PUSH1 0xD PUSH1 0x20 SWAP1 DUP2 MSTORE PUSH1 0x40 DUP11 DUP2 ADD MLOAD PUSH1 0xFF AND DUP4 MSTORE PUSH32 0x52C2086A203F40E709B1346663401F6C737B2FCE5878601FCF875B047FED5FB6 SWAP1 SWAP2 MSTORE SWAP1 KECCAK256 DUP1 SLOAD SWAP1 SWAP4 POP PUSH2 0x358 SWAP3 POP SWAP1 POP PUSH2 0x2455 JUMP JUMPDEST PUSH2 0xAF4 PUSH1 0x4 PUSH1 0x3 ADD DUP1 SLOAD PUSH2 0xA29 SWAP1 PUSH2 0x2455 JUMP JUMPDEST DUP1 PUSH1 0x1F ADD PUSH1 0x20 DUP1 SWAP2 DIV MUL PUSH1 0x20 ADD PUSH1 0x40 MLOAD SWAP1 DUP2 ADD PUSH1 0x40 MSTORE DUP1 SWAP3 SWAP2 SWAP1 DUP2 DUP2 MSTORE PUSH1 0x20 ADD DUP3 DUP1 SLOAD PUSH2 0xA55 SWAP1 PUSH2 0x2455 JUMP JUMPDEST DUP1 ISZERO PUSH2 0xAA2 JUMPI DUP1 PUSH1 0x1F LT PUSH2 0xA77 JUMPI PUSH2 0x100 DUP1 DUP4 SLOAD DIV MUL DUP4 MSTORE SWAP2 PUSH1 0x20 ADD SWAP2 PUSH2 0xAA2 JUMP JUMPDEST DUP3 ADD SWAP2 SWAP1 PUSH1 0x0 MSTORE PUSH1 0x20 PUSH1 0x0 KECCAK256 SWAP1 JUMPDEST DUP2 SLOAD DUP2 MSTORE SWAP1 PUSH1 0x1 ADD SWAP1 PUSH1 0x20 ADD DUP1 DUP4 GT PUSH2 0xA85 JUMPI DUP3 SWAP1 SUB PUSH1 0x1F AND DUP3 ADD SWAP2 JUMPDEST POP POP PUSH1 0xC PUSH1 0x0 SWAP1 DUP2 MSTORE PUSH1 0xD PUSH1 0x20 SWAP1 DUP2 MSTORE PUSH1 0x80 DUP12 ADD MLOAD PUSH1 0xFF AND DUP3 MSTORE PUSH32 0xE399BAA2FABBAB2A0309615B124A802277BAB50EC0CA3452A00889E216C4B902 SWAP1 MSTORE PUSH1 0x40 SWAP1 KECCAK256 DUP1 SLOAD SWAP1 SWAP4 POP PUSH2 0x358 SWAP3 POP SWAP1 POP PUSH2 0x2455 JUMP JUMPDEST PUSH2 0xBD0 PUSH1 0x4 DUP1 ADD DUP1 SLOAD PUSH2 0xB06 SWAP1 PUSH2 0x2455 JUMP JUMPDEST DUP1 PUSH1 0x1F ADD PUSH1 0x20 DUP1 SWAP2 DIV MUL PUSH1 0x20 ADD PUSH1 0x40 MLOAD SWAP1 DUP2 ADD PUSH1 0x40 MSTORE DUP1 SWAP3 SWAP2 SWAP1 DUP2 DUP2 MSTORE PUSH1 0x20 ADD DUP3 DUP1 SLOAD PUSH2 0xB32 SWAP1 PUSH2 0x2455 JUMP JUMPDEST DUP1 ISZERO PUSH2 0xB7F JUMPI DUP1 PUSH1 0x1F LT PUSH2 0xB54 JUMPI PUSH2 0x100 DUP1 DUP4 SLOAD DIV MUL DUP4 MSTORE SWAP2 PUSH1 0x20 ADD SWAP2 PUSH2 0xB7F JUMP JUMPDEST DUP3 ADD SWAP2 SWAP1 PUSH1 0x0 MSTORE PUSH1 0x20 PUSH1 0x0 KECCAK256 SWAP1 JUMPDEST DUP2 SLOAD DUP2 MSTORE SWAP1 PUSH1 0x1 ADD SWAP1 PUSH1 0x20 ADD DUP1 DUP4 GT PUSH2 0xB62 JUMPI DUP3 SWAP1 SUB PUSH1 0x1F AND DUP3 ADD SWAP2 JUMPDEST POP POP PUSH1 0xD PUSH1 0x0 DUP2 DUP2 MSTORE PUSH1 0x20 SWAP2 DUP3 MSTORE PUSH1 0x60 DUP13 ADD MLOAD PUSH1 0xFF AND DUP2 MSTORE PUSH32 0xE0AF3347AA7E5AF384208C9D29458F902F0CEDDBC90963608AFA77235658B360 SWAP1 SWAP2 MSTORE PUSH1 0x40 SWAP1 KECCAK256 DUP1 SLOAD SWAP1 SWAP4 POP PUSH2 0x358 SWAP3 POP SWAP1 POP PUSH2 0x2455 JUMP JUMPDEST PUSH2 0xCAE PUSH1 0x4 PUSH1 0x6 ADD DUP1 SLOAD PUSH2 0xBE3 SWAP1 PUSH2 0x2455 JUMP JUMPDEST DUP1 PUSH1 0x1F ADD PUSH1 0x20 DUP1 SWAP2 DIV MUL PUSH1 0x20 ADD PUSH1 0x40 MLOAD SWAP1 DUP2 ADD PUSH1 0x40 MSTORE DUP1 SWAP3 SWAP2 SWAP1 DUP2 DUP2 MSTORE PUSH1 0x20 ADD DUP3 DUP1 SLOAD PUSH2 0xC0F SWAP1 PUSH2 0x2455 JUMP JUMPDEST DUP1 ISZERO PUSH2 0xC5C JUMPI DUP1 PUSH1 0x1F LT PUSH2 0xC31 JUMPI PUSH2 0x100 DUP1 DUP4 SLOAD DIV MUL DUP4 MSTORE SWAP2 PUSH1 0x20 ADD SWAP2 PUSH2 0xC5C JUMP JUMPDEST DUP3 ADD SWAP2 SWAP1 PUSH1 0x0 MSTORE PUSH1 0x20 PUSH1 0x0 KECCAK256 SWAP1 JUMPDEST DUP2 SLOAD DUP2 MSTORE SWAP1 PUSH1 0x1 ADD SWAP1 PUSH1 0x20 ADD DUP1 DUP4 GT PUSH2 0xC3F JUMPI DUP3 SWAP1 SUB PUSH1 0x1F AND DUP3 ADD SWAP2 JUMPDEST POP POP PUSH1 0xE PUSH1 0x0 SWAP1 DUP2 MSTORE PUSH1 0xD PUSH1 0x20 SWAP1 DUP2 MSTORE PUSH1 0xE0 DUP14 ADD MLOAD PUSH1 0xFF AND DUP3 MSTORE PUSH32 0x154EF5B709DCDC8B49A2AF6408B8A1AF209C39B5FA796F03680257C97692546E SWAP1 MSTORE PUSH1 0x40 SWAP1 KECCAK256 DUP1 SLOAD SWAP1 SWAP4 POP PUSH2 0x358 SWAP3 POP SWAP1 POP PUSH2 0x2455 JUMP JUMPDEST PUSH2 0xD8D PUSH1 0x4 PUSH1 0x5 ADD DUP1 SLOAD PUSH2 0xCC1 SWAP1 PUSH2 0x2455 JUMP JUMPDEST DUP1 PUSH1 0x1F ADD PUSH1 0x20 DUP1 SWAP2 DIV MUL PUSH1 0x20 ADD PUSH1 0x40 MLOAD SWAP1 DUP2 ADD PUSH1 0x40 MSTORE DUP1 SWAP3 SWAP2 SWAP1 DUP2 DUP2 MSTORE PUSH1 0x20 ADD DUP3 DUP1 SLOAD PUSH2 0xCED SWAP1 PUSH2 0x2455 JUMP JUMPDEST DUP1 ISZERO PUSH2 0xD3A JUMPI DUP1 PUSH1 0x1F LT PUSH2 0xD0F JUMPI PUSH2 0x100 DUP1 DUP4 SLOAD DIV MUL DUP4 MSTORE SWAP2 PUSH1 0x20 ADD SWAP2 PUSH2 0xD3A JUMP JUMPDEST DUP3 ADD SWAP2 SWAP1 PUSH1 0x0 MSTORE PUSH1 0x20 PUSH1 0x0 KECCAK256 SWAP1 JUMPDEST DUP2 SLOAD DUP2 MSTORE SWAP1 PUSH1 0x1 ADD SWAP1 PUSH1 0x20 ADD DUP1 DUP4 GT PUSH2 0xD1D JUMPI DUP3 SWAP1 SUB PUSH1 0x1F AND DUP3 ADD SWAP2 JUMPDEST POP POP PUSH1 0xF PUSH1 0x0 SWAP1 DUP2 MSTORE PUSH1 0xD PUSH1 0x20 SWAP1 DUP2 MSTORE PUSH2 0x100 DUP15 ADD MLOAD PUSH1 0xFF AND DUP3 MSTORE PUSH32 0x52FB6A28CB3C239105F8F829BC7376F939B6BFB040C470BDC2BDA0AF2E784B94 SWAP1 MSTORE PUSH1 0x40 SWAP1 KECCAK256 DUP1 SLOAD SWAP1 SWAP4 POP PUSH2 0x358 SWAP3 POP SWAP1 POP PUSH2 0x2455 JUMP JUMPDEST PUSH2 0xE6B PUSH1 0x4 PUSH1 0x7 ADD DUP1 SLOAD PUSH2 0xDA0 SWAP1 PUSH2 0x2455 JUMP JUMPDEST DUP1 PUSH1 0x1F ADD PUSH1 0x20 DUP1 SWAP2 DIV MUL PUSH1 0x20 ADD PUSH1 0x40 MLOAD SWAP1 DUP2 ADD PUSH1 0x40 MSTORE DUP1 SWAP3 SWAP2 SWAP1 DUP2 DUP2 MSTORE PUSH1 0x20 ADD DUP3 DUP1 SLOAD PUSH2 0xDCC SWAP1 PUSH2 0x2455 JUMP JUMPDEST DUP1 ISZERO PUSH2 0xE19 JUMPI DUP1 PUSH1 0x1F LT PUSH2 0xDEE JUMPI PUSH2 0x100 DUP1 DUP4 SLOAD DIV MUL DUP4 MSTORE SWAP2 PUSH1 0x20 ADD SWAP2 PUSH2 0xE19 JUMP JUMPDEST DUP3 ADD SWAP2 SWAP1 PUSH1 0x0 MSTORE PUSH1 0x20 PUSH1 0x0 KECCAK256 SWAP1 JUMPDEST DUP2 SLOAD DUP2 MSTORE SWAP1 PUSH1 0x1 ADD SWAP1 PUSH1 0x20 ADD DUP1 DUP4 GT PUSH2 0xDFC JUMPI DUP3 SWAP1 SUB PUSH1 0x1F AND DUP3 ADD SWAP2 JUMPDEST POP POP PUSH1 0x10 PUSH1 0x0 SWAP1 DUP2 MSTORE PUSH1 0xD PUSH1 0x20 SWAP1 DUP2 MSTORE PUSH1 0xC0 DUP16 ADD MLOAD PUSH1 0xFF AND DUP3 MSTORE PUSH32 0x1A49BE1E7EA084651FD665847100D28826DB0B17160863A99534933CBBD2DCE SWAP1 MSTORE PUSH1 0x40 SWAP1 KECCAK256 DUP1 SLOAD SWAP1 SWAP4 POP PUSH2 0x358 SWAP3 POP SWAP1 POP PUSH2 0x2455 JUMP JUMPDEST PUSH2 0xEB9 PUSH1 0x40 MLOAD DUP1 PUSH1 0x40 ADD PUSH1 0x40 MSTORE DUP1 PUSH1 0xB DUP2 MSTORE PUSH1 0x20 ADD PUSH11 0x416C7068612053636F7265 PUSH1 0xA8 SHL DUP2 MSTORE POP PUSH1 0xF DUP12 PUSH2 0x100 ADD MLOAD PUSH1 0xFF AND PUSH1 0x4 DUP2 LT PUSH2 0xEAD JUMPI PUSH2 0xEAD PUSH2 0x243F JUMP JUMPDEST ADD DUP1 SLOAD PUSH2 0x358 SWAP1 PUSH2 0x2455 JUMP JUMPDEST PUSH1 0x40 MLOAD PUSH1 0x20 ADD PUSH2 0xED0 SWAP9 SWAP8 SWAP7 SWAP6 SWAP5 SWAP4 SWAP3 SWAP2 SWAP1 PUSH2 0x2571 JUMP JUMPDEST PUSH1 0x40 MLOAD PUSH1 0x20 DUP2 DUP4 SUB SUB DUP2 MSTORE SWAP1 PUSH1 0x40 MSTORE SWAP1 POP JUMPDEST PUSH1 0x13 SLOAD PUSH1 0x40 DUP1 MLOAD PUSH4 0x803163F PUSH1 0xE3 SHL DUP2 MSTORE SWAP1 MLOAD DUP4 SWAP3 PUSH1 0x1 PUSH1 0x1 PUSH1 0xA0 SHL SUB AND SWAP2 PUSH4 0x4018B1F8 SWAP2 PUSH1 0x4 DUP1 DUP4 ADD SWAP3 PUSH1 0x20 SWAP3 SWAP2 SWAP1 DUP3 SWAP1 SUB ADD DUP2 DUP7 GAS STATICCALL ISZERO DUP1 ISZERO PUSH2 0xF2B JUMPI RETURNDATASIZE PUSH1 0x0 DUP1 RETURNDATACOPY RETURNDATASIZE PUSH1 0x0 REVERT JUMPDEST POP POP POP POP PUSH1 0x40 MLOAD RETURNDATASIZE PUSH1 0x1F NOT PUSH1 0x1F DUP3 ADD AND DUP3 ADD DUP1 PUSH1 0x40 MSTORE POP DUP2 ADD SWAP1 PUSH2 0xF4F SWAP2 SWAP1 PUSH2 0x264F JUMP JUMPDEST DUP6 GT ISZERO PUSH2 0xF7B JUMPI PUSH1 0x40 MLOAD DUP1 PUSH1 0x40 ADD PUSH1 0x40 MSTORE DUP1 PUSH1 0x7 DUP2 MSTORE PUSH1 0x20 ADD PUSH7 0x1123B2B7101891 PUSH1 0xC9 SHL DUP2 MSTORE POP PUSH2 0xF9C JUMP JUMPDEST PUSH1 0x40 MLOAD DUP1 PUSH1 0x40 ADD PUSH1 0x40 MSTORE DUP1 PUSH1 0x7 DUP2 MSTORE PUSH1 0x20 ADD PUSH7 0x1123B2B7101811 PUSH1 0xC9 SHL DUP2 MSTORE POP JUMPDEST DUP4 MLOAD PUSH2 0xFC8 JUMPI PUSH1 0x40 MLOAD DUP1 PUSH1 0x40 ADD PUSH1 0x40 MSTORE DUP1 PUSH1 0x8 DUP2 MSTORE PUSH1 0x20 ADD PUSH8 0x112837B634B1B291 PUSH1 0xC1 SHL DUP2 MSTORE POP PUSH2 0xFE9 JUMP JUMPDEST PUSH1 0x40 MLOAD DUP1 PUSH1 0x40 ADD PUSH1 0x40 MSTORE DUP1 PUSH1 0x7 DUP2 MSTORE PUSH1 0x20 ADD PUSH7 0x112A3434B2B311 PUSH1 0xC9 SHL DUP2 MSTORE POP JUMPDEST PUSH1 0x40 MLOAD PUSH1 0x20 ADD PUSH2 0xFFB SWAP4 SWAP3 SWAP2 SWAP1 PUSH2 0x2668 JUMP JUMPDEST PUSH1 0x40 MLOAD PUSH1 0x20 DUP2 DUP4 SUB SUB DUP2 MSTORE SWAP1 PUSH1 0x40 MSTORE SWAP3 POP POP POP SWAP2 SWAP1 POP JUMP JUMPDEST PUSH1 0x13 SLOAD PUSH1 0x40 MLOAD PUSH4 0x94E56847 PUSH1 0xE0 SHL DUP2 MSTORE PUSH1 0x4 DUP2 ADD DUP4 SWAP1 MSTORE PUSH1 0x60 SWAP2 PUSH1 0x0 SWAP2 PUSH1 0x1 PUSH1 0x1 PUSH1 0xA0 SHL SUB SWAP1 SWAP2 AND SWAP1 PUSH4 0x94E56847 SWAP1 PUSH1 0x24 ADD PUSH2 0x120 PUSH1 0x40 MLOAD DUP1 DUP4 SUB DUP2 DUP7 GAS STATICCALL ISZERO DUP1 ISZERO PUSH2 0x1063 JUMPI RETURNDATASIZE PUSH1 0x0 DUP1 RETURNDATACOPY RETURNDATASIZE PUSH1 0x0 REVERT JUMPDEST POP POP POP POP PUSH1 0x40 MLOAD RETURNDATASIZE PUSH1 0x1F NOT PUSH1 0x1F DUP3 ADD AND DUP3 ADD DUP1 PUSH1 0x40 MSTORE POP DUP2 ADD SWAP1 PUSH2 0x1087 SWAP2 SWAP1 PUSH2 0x2389 JUMP JUMPDEST SWAP1 POP PUSH1 0x0 DUP2 PUSH1 0x0 ADD MLOAD PUSH2 0x109B JUMPI PUSH1 0xA PUSH2 0x109E JUMP JUMPDEST PUSH1 0x0 JUMPDEST SWAP1 POP PUSH1 0x0 DUP3 PUSH1 0x0 ADD MLOAD PUSH2 0x1143 JUMPI PUSH2 0x113E PUSH1 0x2 DUP1 SLOAD PUSH2 0x10BB SWAP1 PUSH2 0x2455 JUMP JUMPDEST DUP1 PUSH1 0x1F ADD PUSH1 0x20 DUP1 SWAP2 DIV MUL PUSH1 0x20 ADD PUSH1 0x40 MLOAD SWAP1 DUP2 ADD PUSH1 0x40 MSTORE DUP1 SWAP3 SWAP2 SWAP1 DUP2 DUP2 MSTORE PUSH1 0x20 ADD DUP3 DUP1 SLOAD PUSH2 0x10E7 SWAP1 PUSH2 0x2455 JUMP JUMPDEST DUP1 ISZERO PUSH2 0x1134 JUMPI DUP1 PUSH1 0x1F LT PUSH2 0x1109 JUMPI PUSH2 0x100 DUP1 DUP4 SLOAD DIV MUL DUP4 MSTORE SWAP2 PUSH1 0x20 ADD SWAP2 PUSH2 0x1134 JUMP JUMPDEST DUP3 ADD SWAP2 SWAP1 PUSH1 0x0 MSTORE PUSH1 0x20 PUSH1 0x0 KECCAK256 SWAP1 JUMPDEST DUP2 SLOAD DUP2 MSTORE SWAP1 PUSH1 0x1 ADD SWAP1 PUSH1 0x20 ADD DUP1 DUP4 GT PUSH2 0x1117 JUMPI DUP3 SWAP1 SUB PUSH1 0x1F AND DUP3 ADD SWAP2 JUMPDEST POP POP POP POP POP PUSH2 0x1C23 JUMP JUMPDEST PUSH2 0x1153 JUMP JUMPDEST PUSH2 0x1153 PUSH1 0x3 DUP1 SLOAD PUSH2 0x10BB SWAP1 PUSH2 0x2455 JUMP JUMPDEST PUSH2 0x12C7 PUSH1 0xD PUSH1 0x0 PUSH2 0x1164 DUP7 DUP3 PUSH2 0x273D JUMP JUMPDEST PUSH1 0xFF AND PUSH1 0xFF AND DUP2 MSTORE PUSH1 0x20 ADD SWAP1 DUP2 MSTORE PUSH1 0x20 ADD PUSH1 0x0 KECCAK256 PUSH1 0x0 DUP7 PUSH1 0x20 ADD MLOAD PUSH1 0xFF AND PUSH1 0xFF AND DUP2 MSTORE PUSH1 0x20 ADD SWAP1 DUP2 MSTORE PUSH1 0x20 ADD PUSH1 0x0 KECCAK256 PUSH1 0x40 MLOAD DUP1 PUSH1 0x40 ADD PUSH1 0x40 MSTORE SWAP1 DUP2 PUSH1 0x0 DUP3 ADD DUP1 SLOAD PUSH2 0x11AE SWAP1 PUSH2 0x2455 JUMP JUMPDEST DUP1 PUSH1 0x1F ADD PUSH1 0x20 DUP1 SWAP2 DIV MUL PUSH1 0x20 ADD PUSH1 0x40 MLOAD SWAP1 DUP2 ADD PUSH1 0x40 MSTORE DUP1 SWAP3 SWAP2 SWAP1 DUP2 DUP2 MSTORE PUSH1 0x20 ADD DUP3 DUP1 SLOAD PUSH2 0x11DA SWAP1 PUSH2 0x2455 JUMP JUMPDEST DUP1 ISZERO PUSH2 0x1227 JUMPI DUP1 PUSH1 0x1F LT PUSH2 0x11FC JUMPI PUSH2 0x100 DUP1 DUP4 SLOAD DIV MUL DUP4 MSTORE SWAP2 PUSH1 0x20 ADD SWAP2 PUSH2 0x1227 JUMP JUMPDEST DUP3 ADD SWAP2 SWAP1 PUSH1 0x0 MSTORE PUSH1 0x20 PUSH1 0x0 KECCAK256 SWAP1 JUMPDEST DUP2 SLOAD DUP2 MSTORE SWAP1 PUSH1 0x1 ADD SWAP1 PUSH1 0x20 ADD DUP1 DUP4 GT PUSH2 0x120A JUMPI DUP3 SWAP1 SUB PUSH1 0x1F AND DUP3 ADD SWAP2 JUMPDEST POP POP POP POP POP DUP2 MSTORE PUSH1 0x20 ADD PUSH1 0x1 DUP3 ADD DUP1 SLOAD PUSH2 0x1240 SWAP1 PUSH2 0x2455 JUMP JUMPDEST DUP1 PUSH1 0x1F ADD PUSH1 0x20 DUP1 SWAP2 DIV MUL PUSH1 0x20 ADD PUSH1 0x40 MLOAD SWAP1 DUP2 ADD PUSH1 0x40 MSTORE DUP1 SWAP3 SWAP2 SWAP1 DUP2 DUP2 MSTORE PUSH1 0x20 ADD DUP3 DUP1 SLOAD PUSH2 0x126C SWAP1 PUSH2 0x2455 JUMP JUMPDEST DUP1 ISZERO PUSH2 0x12B9 JUMPI DUP1 PUSH1 0x1F LT PUSH2 0x128E JUMPI PUSH2 0x100 DUP1 DUP4 SLOAD DIV MUL DUP4 MSTORE SWAP2 PUSH1 0x20 ADD SWAP2 PUSH2 0x12B9 JUMP JUMPDEST DUP3 ADD SWAP2 SWAP1 PUSH1 0x0 MSTORE PUSH1 0x20 PUSH1 0x0 KECCAK256 SWAP1 JUMPDEST DUP2 SLOAD DUP2 MSTORE SWAP1 PUSH1 0x1 ADD SWAP1 PUSH1 0x20 ADD DUP1 DUP4 GT PUSH2 0x129C JUMPI DUP3 SWAP1 SUB PUSH1 0x1F AND DUP3 ADD SWAP2 JUMPDEST POP POP POP POP POP DUP2 MSTORE POP POP PUSH2 0x1C4C JUMP JUMPDEST PUSH2 0x1323 PUSH1 0xD PUSH1 0x0 PUSH2 0x12D9 DUP8 PUSH1 0x1 PUSH2 0x273D JUMP JUMPDEST PUSH1 0xFF AND PUSH1 0xFF AND DUP2 MSTORE PUSH1 0x20 ADD SWAP1 DUP2 MSTORE PUSH1 0x20 ADD PUSH1 0x0 KECCAK256 PUSH1 0x0 DUP8 PUSH1 0x40 ADD MLOAD PUSH1 0xFF AND PUSH1 0xFF AND DUP2 MSTORE PUSH1 0x20 ADD SWAP1 DUP2 MSTORE PUSH1 0x20 ADD PUSH1 0x0 KECCAK256 PUSH1 0x40 MLOAD DUP1 PUSH1 0x40 ADD PUSH1 0x40 MSTORE SWAP1 DUP2 PUSH1 0x0 DUP3 ADD DUP1 SLOAD PUSH2 0x11AE SWAP1 PUSH2 0x2455 JUMP JUMPDEST PUSH2 0x137F PUSH1 0xD PUSH1 0x0 PUSH2 0x1335 DUP9 PUSH1 0x2 PUSH2 0x273D JUMP JUMPDEST PUSH1 0xFF AND PUSH1 0xFF AND DUP2 MSTORE PUSH1 0x20 ADD SWAP1 DUP2 MSTORE PUSH1 0x20 ADD PUSH1 0x0 KECCAK256 PUSH1 0x0 DUP9 PUSH1 0x80 ADD MLOAD PUSH1 0xFF AND PUSH1 0xFF AND DUP2 MSTORE PUSH1 0x20 ADD SWAP1 DUP2 MSTORE PUSH1 0x20 ADD PUSH1 0x0 KECCAK256 PUSH1 0x40 MLOAD DUP1 PUSH1 0x40 ADD PUSH1 0x40 MSTORE SWAP1 DUP2 PUSH1 0x0 DUP3 ADD DUP1 SLOAD PUSH2 0x11AE SWAP1 PUSH2 0x2455 JUMP JUMPDEST PUSH2 0x13DB PUSH1 0xD PUSH1 0x0 PUSH2 0x1391 DUP10 PUSH1 0x3 PUSH2 0x273D JUMP JUMPDEST PUSH1 0xFF AND PUSH1 0xFF AND DUP2 MSTORE PUSH1 0x20 ADD SWAP1 DUP2 MSTORE PUSH1 0x20 ADD PUSH1 0x0 KECCAK256 PUSH1 0x0 DUP10 PUSH1 0x60 ADD MLOAD PUSH1 0xFF AND PUSH1 0xFF AND DUP2 MSTORE PUSH1 0x20 ADD SWAP1 DUP2 MSTORE PUSH1 0x20 ADD PUSH1 0x0 KECCAK256 PUSH1 0x40 MLOAD DUP1 PUSH1 0x40 ADD PUSH1 0x40 MSTORE SWAP1 DUP2 PUSH1 0x0 DUP3 ADD DUP1 SLOAD PUSH2 0x11AE SWAP1 PUSH2 0x2455 JUMP JUMPDEST PUSH2 0x1437 PUSH1 0xD PUSH1 0x0 PUSH2 0x13ED DUP11 PUSH1 0x4 PUSH2 0x273D JUMP JUMPDEST PUSH1 0xFF AND PUSH1 0xFF AND DUP2 MSTORE PUSH1 0x20 ADD SWAP1 DUP2 MSTORE PUSH1 0x20 ADD PUSH1 0x0 KECCAK256 PUSH1 0x0 DUP11 PUSH1 0xE0 ADD MLOAD PUSH1 0xFF AND PUSH1 0xFF AND DUP2 MSTORE PUSH1 0x20 ADD SWAP1 DUP2 MSTORE PUSH1 0x20 ADD PUSH1 0x0 KECCAK256 PUSH1 0x40 MLOAD DUP1 PUSH1 0x40 ADD PUSH1 0x40 MSTORE SWAP1 DUP2 PUSH1 0x0 DUP3 ADD DUP1 SLOAD PUSH2 0x11AE SWAP1 PUSH2 0x2455 JUMP JUMPDEST DUP9 MLOAD PUSH2 0x149F JUMPI PUSH2 0x149A PUSH1 0xD PUSH1 0x0 PUSH2 0x144F DUP12 PUSH1 0x5 PUSH2 0x273D JUMP JUMPDEST PUSH1 0xFF AND PUSH1 0xFF AND DUP2 MSTORE PUSH1 0x20 ADD SWAP1 DUP2 MSTORE PUSH1 0x20 ADD PUSH1 0x0 KECCAK256 PUSH1 0x0 DUP12 PUSH2 0x100 ADD MLOAD PUSH1 0xFF AND PUSH1 0xFF AND DUP2 MSTORE PUSH1 0x20 ADD SWAP1 DUP2 MSTORE PUSH1 0x20 ADD PUSH1 0x0 KECCAK256 PUSH1 0x40 MLOAD DUP1 PUSH1 0x40 ADD PUSH1 0x40 MSTORE SWAP1 DUP2 PUSH1 0x0 DUP3 ADD DUP1 SLOAD PUSH2 0x11AE SWAP1 PUSH2 0x2455 JUMP JUMPDEST PUSH2 0x14FB JUMP JUMPDEST PUSH2 0x14FB PUSH1 0xD PUSH1 0x0 PUSH2 0x14B1 DUP12 PUSH1 0x5 PUSH2 0x273D JUMP JUMPDEST PUSH1 0xFF AND PUSH1 0xFF AND DUP2 MSTORE PUSH1 0x20 ADD SWAP1 DUP2 MSTORE PUSH1 0x20 ADD PUSH1 0x0 KECCAK256 PUSH1 0x0 DUP12 PUSH1 0xA0 ADD MLOAD PUSH1 0xFF AND PUSH1 0xFF AND DUP2 MSTORE PUSH1 0x20 ADD SWAP1 DUP2 MSTORE PUSH1 0x20 ADD PUSH1 0x0 KECCAK256 PUSH1 0x40 MLOAD DUP1 PUSH1 0x40 ADD PUSH1 0x40 MSTORE SWAP1 DUP2 PUSH1 0x0 DUP3 ADD DUP1 SLOAD PUSH2 0x11AE SWAP1 PUSH2 0x2455 JUMP JUMPDEST DUP10 MLOAD ISZERO PUSH2 0x1517 JUMPI PUSH1 0x40 MLOAD DUP1 PUSH1 0x20 ADD PUSH1 0x40 MSTORE DUP1 PUSH1 0x0 DUP2 MSTORE POP PUSH2 0x1573 JUMP JUMPDEST PUSH2 0x1573 PUSH1 0xD PUSH1 0x0 PUSH2 0x1529 DUP13 PUSH1 0x6 PUSH2 0x273D JUMP JUMPDEST PUSH1 0xFF AND PUSH1 0xFF AND DUP2 MSTORE PUSH1 0x20 ADD SWAP1 DUP2 MSTORE PUSH1 0x20 ADD PUSH1 0x0 KECCAK256 PUSH1 0x0 DUP13 PUSH1 0xC0 ADD MLOAD PUSH1 0xFF AND PUSH1 0xFF AND DUP2 MSTORE PUSH1 0x20 ADD SWAP1 DUP2 MSTORE PUSH1 0x20 ADD PUSH1 0x0 KECCAK256 PUSH1 0x40 MLOAD DUP1 PUSH1 0x40 ADD PUSH1 0x40 MSTORE SWAP1 DUP2 PUSH1 0x0 DUP3 ADD DUP1 SLOAD PUSH2 0x11AE SWAP1 PUSH2 0x2455 JUMP JUMPDEST PUSH1 0x40 MLOAD PUSH1 0x20 ADD PUSH2 0x158A SWAP9 SWAP8 SWAP7 SWAP6 SWAP5 SWAP4 SWAP3 SWAP2 SWAP1 PUSH2 0x2762 JUMP JUMPDEST PUSH1 0x40 MLOAD PUSH1 0x20 DUP2 DUP4 SUB SUB DUP2 MSTORE SWAP1 PUSH1 0x40 MSTORE SWAP1 POP DUP1 PUSH1 0x40 MLOAD PUSH1 0x20 ADD PUSH2 0x15AC SWAP2 SWAP1 PUSH2 0x2807 JUMP JUMPDEST PUSH1 0x40 MLOAD PUSH1 0x20 DUP2 DUP4 SUB SUB DUP2 MSTORE SWAP1 PUSH1 0x40 MSTORE SWAP4 POP POP POP POP SWAP2 SWAP1 POP JUMP JUMPDEST PUSH1 0x0 SLOAD PUSH1 0x1 PUSH1 0x1 PUSH1 0xA0 SHL SUB AND CALLER EQ PUSH2 0x15F8 JUMPI PUSH1 0x40 MLOAD PUSH3 0x461BCD PUSH1 0xE5 SHL DUP2 MSTORE PUSH1 0x4 ADD PUSH2 0x15EF SWAP1 PUSH2 0x2901 JUMP JUMPDEST PUSH1 0x40 MLOAD DUP1 SWAP2 SUB SWAP1 REVERT JUMPDEST PUSH1 0x13 DUP1 SLOAD PUSH1 0x1 PUSH1 0x1 PUSH1 0xA0 SHL SUB NOT AND PUSH1 0x1 PUSH1 0x1 PUSH1 0xA0 SHL SUB SWAP3 SWAP1 SWAP3 AND SWAP2 SWAP1 SWAP2 OR SWAP1 SSTORE JUMP JUMPDEST PUSH1 0xD PUSH1 0x20 SWAP1 DUP2 MSTORE PUSH1 0x0 SWAP3 DUP4 MSTORE PUSH1 0x40 DUP1 DUP5 KECCAK256 SWAP1 SWAP2 MSTORE SWAP1 DUP3 MSTORE SWAP1 KECCAK256 DUP1 SLOAD DUP2 SWAP1 PUSH2 0x1640 SWAP1 PUSH2 0x2455 JUMP JUMPDEST DUP1 PUSH1 0x1F ADD PUSH1 0x20 DUP1 SWAP2 DIV MUL PUSH1 0x20 ADD PUSH1 0x40 MLOAD SWAP1 DUP2 ADD PUSH1 0x40 MSTORE DUP1 SWAP3 SWAP2 SWAP1 DUP2 DUP2 MSTORE PUSH1 0x20 ADD DUP3 DUP1 SLOAD PUSH2 0x166C SWAP1 PUSH2 0x2455 JUMP JUMPDEST DUP1 ISZERO PUSH2 0x16B9 JUMPI DUP1 PUSH1 0x1F LT PUSH2 0x168E JUMPI PUSH2 0x100 DUP1 DUP4 SLOAD DIV MUL DUP4 MSTORE SWAP2 PUSH1 0x20 ADD SWAP2 PUSH2 0x16B9 JUMP JUMPDEST DUP3 ADD SWAP2 SWAP1 PUSH1 0x0 MSTORE PUSH1 0x20 PUSH1 0x0 KECCAK256 SWAP1 JUMPDEST DUP2 SLOAD DUP2 MSTORE SWAP1 PUSH1 0x1 ADD SWAP1 PUSH1 0x20 ADD DUP1 DUP4 GT PUSH2 0x169C JUMPI DUP3 SWAP1 SUB PUSH1 0x1F AND DUP3 ADD SWAP2 JUMPDEST POP POP POP POP POP SWAP1 DUP1 PUSH1 0x1 ADD DUP1 SLOAD PUSH2 0x16CE SWAP1 PUSH2 0x2455 JUMP JUMPDEST DUP1 PUSH1 0x1F ADD PUSH1 0x20 DUP1 SWAP2 DIV MUL PUSH1 0x20 ADD PUSH1 0x40 MLOAD SWAP1 DUP2 ADD PUSH1 0x40 MSTORE DUP1 SWAP3 SWAP2 SWAP1 DUP2 DUP2 MSTORE PUSH1 0x20 ADD DUP3 DUP1 SLOAD PUSH2 0x16FA SWAP1 PUSH2 0x2455 JUMP JUMPDEST DUP1 ISZERO PUSH2 0x1747 JUMPI DUP1 PUSH1 0x1F LT PUSH2 0x171C JUMPI PUSH2 0x100 DUP1 DUP4 SLOAD DIV MUL DUP4 MSTORE SWAP2 PUSH1 0x20 ADD SWAP2 PUSH2 0x1747 JUMP JUMPDEST DUP3 ADD SWAP2 SWAP1 PUSH1 0x0 MSTORE PUSH1 0x20 PUSH1 0x0 KECCAK256 SWAP1 JUMPDEST DUP2 SLOAD DUP2 MSTORE SWAP1 PUSH1 0x1 ADD SWAP1 PUSH1 0x20 ADD DUP1 DUP4 GT PUSH2 0x172A JUMPI DUP3 SWAP1 SUB PUSH1 0x1F AND DUP3 ADD SWAP2 JUMPDEST POP POP POP POP POP SWAP1 POP DUP3 JUMP JUMPDEST PUSH1 0x0 PUSH1 0x1 SLOAD DUP3 PUSH1 0xFF AND EQ ISZERO PUSH2 0x17B6 JUMPI PUSH1 0x0 PUSH2 0x176D PUSH1 0x64 DUP6 PUSH2 0x294C JUMP JUMPDEST PUSH2 0xFFFF AND SWAP1 POP PUSH1 0x5F DUP2 GT ISZERO PUSH2 0x1786 JUMPI PUSH1 0x0 SWAP2 POP POP PUSH2 0x17BA JUMP JUMPDEST PUSH1 0x50 DUP2 GT ISZERO PUSH2 0x1799 JUMPI PUSH1 0x1 SWAP2 POP POP PUSH2 0x17BA JUMP JUMPDEST PUSH1 0x32 DUP2 GT ISZERO PUSH2 0x17AC JUMPI PUSH1 0x2 SWAP2 POP POP PUSH2 0x17BA JUMP JUMPDEST PUSH1 0x3 SWAP2 POP POP PUSH2 0x17BA JUMP JUMPDEST POP PUSH1 0x0 JUMPDEST SWAP3 SWAP2 POP POP JUMP JUMPDEST PUSH1 0x0 SLOAD PUSH1 0x1 PUSH1 0x1 PUSH1 0xA0 SHL SUB AND CALLER EQ PUSH2 0x17EA JUMPI PUSH1 0x40 MLOAD PUSH3 0x461BCD PUSH1 0xE5 SHL DUP2 MSTORE PUSH1 0x4 ADD PUSH2 0x15EF SWAP1 PUSH2 0x2901 JUMP JUMPDEST PUSH2 0x17F6 PUSH1 0x2 DUP6 DUP6 PUSH2 0x1F21 JUMP JUMPDEST POP PUSH2 0x1803 PUSH1 0x3 DUP4 DUP4 PUSH2 0x1F21 JUMP JUMPDEST POP POP POP POP POP JUMP JUMPDEST PUSH1 0x13 SLOAD PUSH1 0x40 MLOAD PUSH4 0x94E56847 PUSH1 0xE0 SHL DUP2 MSTORE PUSH1 0x4 DUP2 ADD DUP4 SWAP1 MSTORE PUSH1 0x60 SWAP2 PUSH1 0x0 SWAP2 PUSH1 0x1 PUSH1 0x1 PUSH1 0xA0 SHL SUB SWAP1 SWAP2 AND SWAP1 PUSH4 0x94E56847 SWAP1 PUSH1 0x24 ADD PUSH2 0x120 PUSH1 0x40 MLOAD DUP1 DUP4 SUB DUP2 DUP7 GAS STATICCALL ISZERO DUP1 ISZERO PUSH2 0x185A JUMPI RETURNDATASIZE PUSH1 0x0 DUP1 RETURNDATACOPY RETURNDATASIZE PUSH1 0x0 REVERT JUMPDEST POP POP POP POP PUSH1 0x40 MLOAD RETURNDATASIZE PUSH1 0x1F NOT PUSH1 0x1F DUP3 ADD AND DUP3 ADD DUP1 PUSH1 0x40 MSTORE POP DUP2 ADD SWAP1 PUSH2 0x187E SWAP2 SWAP1 PUSH2 0x2389 JUMP JUMPDEST SWAP1 POP PUSH1 0x0 DUP2 PUSH1 0x0 ADD MLOAD PUSH2 0x18B1 JUMPI PUSH1 0x40 MLOAD DUP1 PUSH1 0x40 ADD PUSH1 0x40 MSTORE DUP1 PUSH1 0x8 DUP2 MSTORE PUSH1 0x20 ADD PUSH8 0x506F6C6963652023 PUSH1 0xC0 SHL DUP2 MSTORE POP PUSH2 0x18D2 JUMP JUMPDEST PUSH1 0x40 MLOAD DUP1 PUSH1 0x40 ADD PUSH1 0x40 MSTORE DUP1 PUSH1 0x7 DUP2 MSTORE PUSH1 0x20 ADD PUSH7 0x54686965662023 PUSH1 0xC8 SHL DUP2 MSTORE POP JUMPDEST PUSH2 0x18DB DUP6 PUSH2 0x1C63 JUMP JUMPDEST PUSH2 0x18EC PUSH2 0x18E7 DUP8 PUSH2 0x1013 JUMP JUMPDEST PUSH2 0x1D69 JUMP JUMPDEST PUSH2 0x18F5 DUP8 PUSH2 0x1FB JUMP JUMPDEST PUSH1 0x40 MLOAD PUSH1 0x20 ADD PUSH2 0x1908 SWAP5 SWAP4 SWAP3 SWAP2 SWAP1 PUSH2 0x296D JUMP JUMPDEST PUSH1 0x40 MLOAD PUSH1 0x20 DUP2 DUP4 SUB SUB DUP2 MSTORE SWAP1 PUSH1 0x40 MSTORE SWAP1 POP PUSH2 0x1922 DUP2 PUSH2 0x1D69 JUMP JUMPDEST PUSH1 0x40 MLOAD PUSH1 0x20 ADD PUSH2 0xFFB SWAP2 SWAP1 PUSH2 0x2CA0 JUMP JUMPDEST PUSH1 0x0 SLOAD PUSH1 0x1 PUSH1 0x1 PUSH1 0xA0 SHL SUB AND CALLER EQ PUSH2 0x195C JUMPI PUSH1 0x40 MLOAD PUSH3 0x461BCD PUSH1 0xE5 SHL DUP2 MSTORE PUSH1 0x4 ADD PUSH2 0x15EF SWAP1 PUSH2 0x2901 JUMP JUMPDEST DUP3 DUP2 EQ PUSH2 0x199F JUMPI PUSH1 0x40 MLOAD PUSH3 0x461BCD PUSH1 0xE5 SHL DUP2 MSTORE PUSH1 0x20 PUSH1 0x4 DUP3 ADD MSTORE PUSH1 0x11 PUSH1 0x24 DUP3 ADD MSTORE PUSH17 0x4D69736D61746368656420696E70757473 PUSH1 0x78 SHL PUSH1 0x44 DUP3 ADD MSTORE PUSH1 0x64 ADD PUSH2 0x15EF JUMP JUMPDEST PUSH1 0x0 JUMPDEST DUP2 DUP2 LT ISZERO PUSH2 0x1B16 JUMPI PUSH1 0x40 MLOAD DUP1 PUSH1 0x40 ADD PUSH1 0x40 MSTORE DUP1 DUP5 DUP5 DUP5 DUP2 DUP2 LT PUSH2 0x19C7 JUMPI PUSH2 0x19C7 PUSH2 0x243F JUMP JUMPDEST SWAP1 POP PUSH1 0x20 MUL DUP2 ADD SWAP1 PUSH2 0x19D9 SWAP2 SWAP1 PUSH2 0x2CE5 JUMP JUMPDEST PUSH2 0x19E3 SWAP1 DUP1 PUSH2 0x2D05 JUMP JUMPDEST DUP1 DUP1 PUSH1 0x1F ADD PUSH1 0x20 DUP1 SWAP2 DIV MUL PUSH1 0x20 ADD PUSH1 0x40 MLOAD SWAP1 DUP2 ADD PUSH1 0x40 MSTORE DUP1 SWAP4 SWAP3 SWAP2 SWAP1 DUP2 DUP2 MSTORE PUSH1 0x20 ADD DUP4 DUP4 DUP1 DUP3 DUP5 CALLDATACOPY PUSH1 0x0 SWAP3 ADD SWAP2 SWAP1 SWAP2 MSTORE POP POP POP SWAP1 DUP3 MSTORE POP PUSH1 0x20 ADD DUP5 DUP5 DUP5 DUP2 DUP2 LT PUSH2 0x1A2F JUMPI PUSH2 0x1A2F PUSH2 0x243F JUMP JUMPDEST SWAP1 POP PUSH1 0x20 MUL DUP2 ADD SWAP1 PUSH2 0x1A41 SWAP2 SWAP1 PUSH2 0x2CE5 JUMP JUMPDEST PUSH2 0x1A4F SWAP1 PUSH1 0x20 DUP2 ADD SWAP1 PUSH2 0x2D05 JUMP JUMPDEST DUP1 DUP1 PUSH1 0x1F ADD PUSH1 0x20 DUP1 SWAP2 DIV MUL PUSH1 0x20 ADD PUSH1 0x40 MLOAD SWAP1 DUP2 ADD PUSH1 0x40 MSTORE DUP1 SWAP4 SWAP3 SWAP2 SWAP1 DUP2 DUP2 MSTORE PUSH1 0x20 ADD DUP4 DUP4 DUP1 DUP3 DUP5 CALLDATACOPY PUSH1 0x0 SWAP3 ADD DUP3 SWAP1 MSTORE POP SWAP4 SWAP1 SWAP5 MSTORE POP POP PUSH1 0xFF DUP10 AND DUP2 MSTORE PUSH1 0xD PUSH1 0x20 MSTORE PUSH1 0x40 DUP2 KECCAK256 SWAP2 POP DUP8 DUP8 DUP6 DUP2 DUP2 LT PUSH2 0x1AA8 JUMPI PUSH2 0x1AA8 PUSH2 0x243F JUMP JUMPDEST SWAP1 POP PUSH1 0x20 MUL ADD PUSH1 0x20 DUP2 ADD SWAP1 PUSH2 0x1ABD SWAP2 SWAP1 PUSH2 0x22FE JUMP JUMPDEST PUSH1 0xFF AND DUP2 MSTORE PUSH1 0x20 DUP1 DUP3 ADD SWAP3 SWAP1 SWAP3 MSTORE PUSH1 0x40 ADD PUSH1 0x0 KECCAK256 DUP3 MLOAD DUP1 MLOAD SWAP2 SWAP3 PUSH2 0x1AE6 SWAP3 DUP5 SWAP3 SWAP1 SWAP2 ADD SWAP1 PUSH2 0x1FA5 JUMP JUMPDEST POP PUSH1 0x20 DUP3 DUP2 ADD MLOAD DUP1 MLOAD PUSH2 0x1AFF SWAP3 PUSH1 0x1 DUP6 ADD SWAP3 ADD SWAP1 PUSH2 0x1FA5 JUMP JUMPDEST POP SWAP1 POP POP DUP1 DUP1 PUSH2 0x1B0E SWAP1 PUSH2 0x2D4C JUMP JUMPDEST SWAP2 POP POP PUSH2 0x19A2 JUMP JUMPDEST POP PUSH1 0xFF DUP1 DUP7 AND PUSH1 0x0 SWAP1 DUP2 MSTORE PUSH1 0xE PUSH1 0x20 MSTORE PUSH1 0x40 DUP2 KECCAK256 DUP1 SLOAD DUP5 SWAP4 SWAP2 SWAP3 SWAP2 PUSH2 0x1B3D SWAP2 DUP6 SWAP2 AND PUSH2 0x273D JUMP JUMPDEST SWAP3 POP PUSH2 0x100 EXP DUP2 SLOAD DUP2 PUSH1 0xFF MUL NOT AND SWAP1 DUP4 PUSH1 0xFF AND MUL OR SWAP1 SSTORE POP POP POP POP POP POP JUMP JUMPDEST PUSH1 0x0 SLOAD PUSH1 0x1 PUSH1 0x1 PUSH1 0xA0 SHL SUB AND CALLER EQ PUSH2 0x1B86 JUMPI PUSH1 0x40 MLOAD PUSH3 0x461BCD PUSH1 0xE5 SHL DUP2 MSTORE PUSH1 0x4 ADD PUSH2 0x15EF SWAP1 PUSH2 0x2901 JUMP JUMPDEST PUSH1 0x1 PUSH1 0x1 PUSH1 0xA0 SHL SUB DUP2 AND PUSH2 0x1BEB JUMPI PUSH1 0x40 MLOAD PUSH3 0x461BCD PUSH1 0xE5 SHL DUP2 MSTORE PUSH1 0x20 PUSH1 0x4 DUP3 ADD MSTORE PUSH1 0x26 PUSH1 0x24 DUP3 ADD MSTORE PUSH32 0x4F776E61626C653A206E6577206F776E657220697320746865207A65726F2061 PUSH1 0x44 DUP3 ADD MSTORE PUSH6 0x646472657373 PUSH1 0xD0 SHL PUSH1 0x64 DUP3 ADD MSTORE PUSH1 0x84 ADD PUSH2 0x15EF JUMP JUMPDEST PUSH2 0x1BF4 DUP2 PUSH2 0x1ED1 JUMP JUMPDEST POP JUMP JUMPDEST PUSH1 0x60 DUP3 DUP3 PUSH1 0x40 MLOAD PUSH1 0x20 ADD PUSH2 0x1C0C SWAP3 SWAP2 SWAP1 PUSH2 0x2D67 JUMP JUMPDEST PUSH1 0x40 MLOAD PUSH1 0x20 DUP2 DUP4 SUB SUB DUP2 MSTORE SWAP1 PUSH1 0x40 MSTORE SWAP1 POP SWAP3 SWAP2 POP POP JUMP JUMPDEST PUSH1 0x60 DUP2 PUSH1 0x40 MLOAD PUSH1 0x20 ADD PUSH2 0x1C36 SWAP2 SWAP1 PUSH2 0x2DD8 JUMP JUMPDEST PUSH1 0x40 MLOAD PUSH1 0x20 DUP2 DUP4 SUB SUB DUP2 MSTORE SWAP1 PUSH1 0x40 MSTORE SWAP1 POP SWAP2 SWAP1 POP JUMP JUMPDEST PUSH1 0x60 DUP2 PUSH1 0x20 ADD MLOAD PUSH1 0x40 MLOAD PUSH1 0x20 ADD PUSH2 0x1C36 SWAP2 SWAP1 PUSH2 0x2DD8 JUMP JUMPDEST PUSH1 0x60 DUP2 PUSH2 0x1C87 JUMPI POP POP PUSH1 0x40 DUP1 MLOAD DUP1 DUP3 ADD SWAP1 SWAP2 MSTORE PUSH1 0x1 DUP2 MSTORE PUSH1 0x3 PUSH1 0xFC SHL PUSH1 0x20 DUP3 ADD MSTORE SWAP1 JUMP JUMPDEST DUP2 PUSH1 0x0 JUMPDEST DUP2 ISZERO PUSH2 0x1CB1 JUMPI DUP1 PUSH2 0x1C9B DUP2 PUSH2 0x2D4C JUMP JUMPDEST SWAP2 POP PUSH2 0x1CAA SWAP1 POP PUSH1 0xA DUP4 PUSH2 0x2EAC JUMP JUMPDEST SWAP2 POP PUSH2 0x1C8B JUMP JUMPDEST PUSH1 0x0 DUP2 PUSH8 0xFFFFFFFFFFFFFFFF DUP2 GT ISZERO PUSH2 0x1CCC JUMPI PUSH2 0x1CCC PUSH2 0x231B JUMP JUMPDEST PUSH1 0x40 MLOAD SWAP1 DUP1 DUP3 MSTORE DUP1 PUSH1 0x1F ADD PUSH1 0x1F NOT AND PUSH1 0x20 ADD DUP3 ADD PUSH1 0x40 MSTORE DUP1 ISZERO PUSH2 0x1CF6 JUMPI PUSH1 0x20 DUP3 ADD DUP2 DUP1 CALLDATASIZE DUP4 CALLDATACOPY ADD SWAP1 POP JUMPDEST POP SWAP1 POP JUMPDEST DUP5 ISZERO PUSH2 0x1D61 JUMPI PUSH2 0x1D0B PUSH1 0x1 DUP4 PUSH2 0x2EC0 JUMP JUMPDEST SWAP2 POP PUSH2 0x1D18 PUSH1 0xA DUP7 PUSH2 0x2ED7 JUMP JUMPDEST PUSH2 0x1D23 SWAP1 PUSH1 0x30 PUSH2 0x2EEB JUMP JUMPDEST PUSH1 0xF8 SHL DUP2 DUP4 DUP2 MLOAD DUP2 LT PUSH2 0x1D38 JUMPI PUSH2 0x1D38 PUSH2 0x243F JUMP JUMPDEST PUSH1 0x20 ADD ADD SWAP1 PUSH1 0x1 PUSH1 0x1 PUSH1 0xF8 SHL SUB NOT AND SWAP1 DUP2 PUSH1 0x0 BYTE SWAP1 MSTORE8 POP PUSH2 0x1D5A PUSH1 0xA DUP7 PUSH2 0x2EAC JUMP JUMPDEST SWAP5 POP PUSH2 0x1CFA JUMP JUMPDEST SWAP5 SWAP4 POP POP POP POP JUMP JUMPDEST PUSH1 0x60 DUP2 MLOAD PUSH1 0x0 EQ ISZERO PUSH2 0x1D89 JUMPI POP POP PUSH1 0x40 DUP1 MLOAD PUSH1 0x20 DUP2 ADD SWAP1 SWAP2 MSTORE PUSH1 0x0 DUP2 MSTORE SWAP1 JUMP JUMPDEST PUSH1 0x0 PUSH1 0x40 MLOAD DUP1 PUSH1 0x60 ADD PUSH1 0x40 MSTORE DUP1 PUSH1 0x40 DUP2 MSTORE PUSH1 0x20 ADD PUSH2 0x2F23 PUSH1 0x40 SWAP2 CODECOPY SWAP1 POP PUSH1 0x0 PUSH1 0x3 DUP5 MLOAD PUSH1 0x2 PUSH2 0x1DB8 SWAP2 SWAP1 PUSH2 0x2EEB JUMP JUMPDEST PUSH2 0x1DC2 SWAP2 SWAP1 PUSH2 0x2EAC JUMP JUMPDEST PUSH2 0x1DCD SWAP1 PUSH1 0x4 PUSH2 0x2F03 JUMP JUMPDEST SWAP1 POP PUSH1 0x0 PUSH2 0x1DDC DUP3 PUSH1 0x20 PUSH2 0x2EEB JUMP JUMPDEST PUSH8 0xFFFFFFFFFFFFFFFF DUP2 GT ISZERO PUSH2 0x1DF4 JUMPI PUSH2 0x1DF4 PUSH2 0x231B JUMP JUMPDEST PUSH1 0x40 MLOAD SWAP1 DUP1 DUP3 MSTORE DUP1 PUSH1 0x1F ADD PUSH1 0x1F NOT AND PUSH1 0x20 ADD DUP3 ADD PUSH1 0x40 MSTORE DUP1 ISZERO PUSH2 0x1E1E JUMPI PUSH1 0x20 DUP3 ADD DUP2 DUP1 CALLDATASIZE DUP4 CALLDATACOPY ADD SWAP1 POP JUMPDEST POP SWAP1 POP DUP2 DUP2 MSTORE PUSH1 0x1 DUP4 ADD DUP6 DUP7 MLOAD DUP2 ADD PUSH1 0x20 DUP5 ADD JUMPDEST DUP2 DUP4 LT ISZERO PUSH2 0x1E8C JUMPI PUSH1 0x3 SWAP3 DUP4 ADD DUP1 MLOAD PUSH1 0x3F PUSH1 0x12 DUP3 SWAP1 SHR DUP2 AND DUP8 ADD MLOAD PUSH1 0xF8 SWAP1 DUP2 SHL DUP6 MSTORE PUSH1 0xC DUP4 SWAP1 SHR DUP3 AND DUP9 ADD MLOAD DUP2 SHL PUSH1 0x1 DUP7 ADD MSTORE PUSH1 0x6 DUP4 SWAP1 SHR DUP3 AND DUP9 ADD MLOAD DUP2 SHL PUSH1 0x2 DUP7 ADD MSTORE SWAP2 AND DUP7 ADD MLOAD SWAP1 SHL SWAP4 DUP3 ADD SWAP4 SWAP1 SWAP4 MSTORE PUSH1 0x4 ADD PUSH2 0x1E32 JUMP JUMPDEST PUSH1 0x3 DUP10 MLOAD MOD PUSH1 0x1 DUP2 EQ PUSH2 0x1EA6 JUMPI PUSH1 0x2 DUP2 EQ PUSH2 0x1EB7 JUMPI PUSH2 0x1EC3 JUMP JUMPDEST PUSH2 0x3D3D PUSH1 0xF0 SHL PUSH1 0x1 NOT DUP4 ADD MSTORE PUSH2 0x1EC3 JUMP JUMPDEST PUSH1 0x3D PUSH1 0xF8 SHL PUSH1 0x0 NOT DUP4 ADD MSTORE JUMPDEST POP SWAP4 SWAP9 SWAP8 POP POP POP POP POP POP POP POP JUMP JUMPDEST PUSH1 0x0 DUP1 SLOAD PUSH1 0x1 PUSH1 0x1 PUSH1 0xA0 SHL SUB DUP4 DUP2 AND PUSH1 0x1 PUSH1 0x1 PUSH1 0xA0 SHL SUB NOT DUP4 AND DUP2 OR DUP5 SSTORE PUSH1 0x40 MLOAD SWAP2 SWAP1 SWAP3 AND SWAP3 DUP4 SWAP2 PUSH32 0x8BE0079C531659141344CD1FD0A4F28419497F9722A3DAAFE3B4186F6B6457E0 SWAP2 SWAP1 LOG3 POP POP JUMP JUMPDEST DUP3 DUP1 SLOAD PUSH2 0x1F2D SWAP1 PUSH2 0x2455 JUMP JUMPDEST SWAP1 PUSH1 0x0 MSTORE PUSH1 0x20 PUSH1 0x0 KECCAK256 SWAP1 PUSH1 0x1F ADD PUSH1 0x20 SWAP1 DIV DUP2 ADD SWAP3 DUP3 PUSH2 0x1F4F JUMPI PUSH1 0x0 DUP6 SSTORE PUSH2 0x1F95 JUMP JUMPDEST DUP3 PUSH1 0x1F LT PUSH2 0x1F68 JUMPI DUP3 DUP1 ADD PUSH1 0xFF NOT DUP3 CALLDATALOAD AND OR DUP6 SSTORE PUSH2 0x1F95 JUMP JUMPDEST DUP3 DUP1 ADD PUSH1 0x1 ADD DUP6 SSTORE DUP3 ISZERO PUSH2 0x1F95 JUMPI SWAP2 DUP3 ADD JUMPDEST DUP3 DUP2 GT ISZERO PUSH2 0x1F95 JUMPI DUP3 CALLDATALOAD DUP3 SSTORE SWAP2 PUSH1 0x20 ADD SWAP2 SWAP1 PUSH1 0x1 ADD SWAP1 PUSH2 0x1F7A JUMP JUMPDEST POP PUSH2 0x1FA1 SWAP3 SWAP2 POP PUSH2 0x2019 JUMP JUMPDEST POP SWAP1 JUMP JUMPDEST DUP3 DUP1 SLOAD PUSH2 0x1FB1 SWAP1 PUSH2 0x2455 JUMP JUMPDEST SWAP1 PUSH1 0x0 MSTORE PUSH1 0x20 PUSH1 0x0 KECCAK256 SWAP1 PUSH1 0x1F ADD PUSH1 0x20 SWAP1 DIV DUP2 ADD SWAP3 DUP3 PUSH2 0x1FD3 JUMPI PUSH1 0x0 DUP6 SSTORE PUSH2 0x1F95 JUMP JUMPDEST DUP3 PUSH1 0x1F LT PUSH2 0x1FEC JUMPI DUP1 MLOAD PUSH1 0xFF NOT AND DUP4 DUP1 ADD OR DUP6 SSTORE PUSH2 0x1F95 JUMP JUMPDEST DUP3 DUP1 ADD PUSH1 0x1 ADD DUP6 SSTORE DUP3 ISZERO PUSH2 0x1F95 JUMPI SWAP2 DUP3 ADD JUMPDEST DUP3 DUP2 GT ISZERO PUSH2 0x1F95 JUMPI DUP3 MLOAD DUP3 SSTORE SWAP2 PUSH1 0x20 ADD SWAP2 SWAP1 PUSH1 0x1 ADD SWAP1 PUSH2 0x1FFE JUMP JUMPDEST JUMPDEST DUP1 DUP3 GT ISZERO PUSH2 0x1FA1 JUMPI PUSH1 0x0 DUP2 SSTORE PUSH1 0x1 ADD PUSH2 0x201A JUMP JUMPDEST PUSH1 0x0 PUSH1 0x20 DUP3 DUP5 SUB SLT ISZERO PUSH2 0x2040 JUMPI PUSH1 0x0 DUP1 REVERT JUMPDEST POP CALLDATALOAD SWAP2 SWAP1 POP JUMP JUMPDEST PUSH1 0x0 JUMPDEST DUP4 DUP2 LT ISZERO PUSH2 0x2062 JUMPI DUP2 DUP2 ADD MLOAD DUP4 DUP3 ADD MSTORE PUSH1 0x20 ADD PUSH2 0x204A JUMP JUMPDEST DUP4 DUP2 GT ISZERO PUSH2 0x2071 JUMPI PUSH1 0x0 DUP5 DUP5 ADD MSTORE JUMPDEST POP POP POP POP JUMP JUMPDEST PUSH1 0x0 DUP2 MLOAD DUP1 DUP5 MSTORE PUSH2 0x208F DUP2 PUSH1 0x20 DUP7 ADD PUSH1 0x20 DUP7 ADD PUSH2 0x2047 JUMP JUMPDEST PUSH1 0x1F ADD PUSH1 0x1F NOT AND SWAP3 SWAP1 SWAP3 ADD PUSH1 0x20 ADD SWAP3 SWAP2 POP POP JUMP JUMPDEST PUSH1 0x20 DUP2 MSTORE PUSH1 0x0 PUSH2 0x20B6 PUSH1 0x20 DUP4 ADD DUP5 PUSH2 0x2077 JUMP JUMPDEST SWAP4 SWAP3 POP POP POP JUMP JUMPDEST PUSH1 0x0 PUSH1 0x20 DUP3 DUP5 SUB SLT ISZERO PUSH2 0x20CF JUMPI PUSH1 0x0 DUP1 REVERT JUMPDEST DUP2 CALLDATALOAD PUSH1 0x1 PUSH1 0x1 PUSH1 0xA0 SHL SUB DUP2 AND DUP2 EQ PUSH2 0x20B6 JUMPI PUSH1 0x0 DUP1 REVERT JUMPDEST PUSH1 0xFF DUP2 AND DUP2 EQ PUSH2 0x1BF4 JUMPI PUSH1 0x0 DUP1 REVERT JUMPDEST PUSH1 0x0 DUP1 PUSH1 0x40 DUP4 DUP6 SUB SLT ISZERO PUSH2 0x2108 JUMPI PUSH1 0x0 DUP1 REVERT JUMPDEST DUP3 CALLDATALOAD PUSH2 0x2113 DUP2 PUSH2 0x20E6 JUMP JUMPDEST SWAP2 POP PUSH1 0x20 DUP4 ADD CALLDATALOAD PUSH2 0x2123 DUP2 PUSH2 0x20E6 JUMP JUMPDEST DUP1 SWAP2 POP POP SWAP3 POP SWAP3 SWAP1 POP JUMP JUMPDEST PUSH1 0x40 DUP2 MSTORE PUSH1 0x0 PUSH2 0x2141 PUSH1 0x40 DUP4 ADD DUP6 PUSH2 0x2077 JUMP JUMPDEST DUP3 DUP2 SUB PUSH1 0x20 DUP5 ADD MSTORE PUSH2 0x2153 DUP2 DUP6 PUSH2 0x2077 JUMP JUMPDEST SWAP6 SWAP5 POP POP POP POP POP JUMP JUMPDEST PUSH1 0x0 DUP1 PUSH1 0x40 DUP4 DUP6 SUB SLT ISZERO PUSH2 0x216F JUMPI PUSH1 0x0 DUP1 REVERT JUMPDEST DUP3 CALLDATALOAD PUSH2 0xFFFF DUP2 AND DUP2 EQ PUSH2 0x2113 JUMPI PUSH1 0x0 DUP1 REVERT JUMPDEST PUSH1 0x0 DUP1 DUP4 PUSH1 0x1F DUP5 ADD SLT PUSH2 0x2193 JUMPI PUSH1 0x0 DUP1 REVERT JUMPDEST POP DUP2 CALLDATALOAD PUSH8 0xFFFFFFFFFFFFFFFF DUP2 GT ISZERO PUSH2 0x21AB JUMPI PUSH1 0x0 DUP1 REVERT JUMPDEST PUSH1 0x20 DUP4 ADD SWAP2 POP DUP4 PUSH1 0x20 DUP3 DUP6 ADD ADD GT ISZERO PUSH2 0x21C3 JUMPI PUSH1 0x0 DUP1 REVERT JUMPDEST SWAP3 POP SWAP3 SWAP1 POP JUMP JUMPDEST PUSH1 0x0 DUP1 PUSH1 0x0 DUP1 PUSH1 0x40 DUP6 DUP8 SUB SLT ISZERO PUSH2 0x21E0 JUMPI PUSH1 0x0 DUP1 REVERT JUMPDEST DUP5 CALLDATALOAD PUSH8 0xFFFFFFFFFFFFFFFF DUP1 DUP3 GT ISZERO PUSH2 0x21F8 JUMPI PUSH1 0x0 DUP1 REVERT JUMPDEST PUSH2 0x2204 DUP9 DUP4 DUP10 ADD PUSH2 0x2181 JUMP JUMPDEST SWAP1 SWAP7 POP SWAP5 POP PUSH1 0x20 DUP8 ADD CALLDATALOAD SWAP2 POP DUP1 DUP3 GT ISZERO PUSH2 0x221D JUMPI PUSH1 0x0 DUP1 REVERT JUMPDEST POP PUSH2 0x222A DUP8 DUP3 DUP9 ADD PUSH2 0x2181 JUMP JUMPDEST SWAP6 SWAP9 SWAP5 SWAP8 POP SWAP6 POP POP POP POP JUMP JUMPDEST PUSH1 0x0 DUP1 DUP4 PUSH1 0x1F DUP5 ADD SLT PUSH2 0x2248 JUMPI PUSH1 0x0 DUP1 REVERT JUMPDEST POP DUP2 CALLDATALOAD PUSH8 0xFFFFFFFFFFFFFFFF DUP2 GT ISZERO PUSH2 0x2260 JUMPI PUSH1 0x0 DUP1 REVERT JUMPDEST PUSH1 0x20 DUP4 ADD SWAP2 POP DUP4 PUSH1 0x20 DUP3 PUSH1 0x5 SHL DUP6 ADD ADD GT ISZERO PUSH2 0x21C3 JUMPI PUSH1 0x0 DUP1 REVERT JUMPDEST PUSH1 0x0 DUP1 PUSH1 0x0 DUP1 PUSH1 0x0 PUSH1 0x60 DUP7 DUP9 SUB SLT ISZERO PUSH2 0x2293 JUMPI PUSH1 0x0 DUP1 REVERT JUMPDEST DUP6 CALLDATALOAD PUSH2 0x229E DUP2 PUSH2 0x20E6 JUMP JUMPDEST SWAP5 POP PUSH1 0x20 DUP7 ADD CALLDATALOAD PUSH8 0xFFFFFFFFFFFFFFFF DUP1 DUP3 GT ISZERO PUSH2 0x22BB JUMPI PUSH1 0x0 DUP1 REVERT JUMPDEST PUSH2 0x22C7 DUP10 DUP4 DUP11 ADD PUSH2 0x2236 JUMP JUMPDEST SWAP1 SWAP7 POP SWAP5 POP PUSH1 0x40 DUP9 ADD CALLDATALOAD SWAP2 POP DUP1 DUP3 GT ISZERO PUSH2 0x22E0 JUMPI PUSH1 0x0 DUP1 REVERT JUMPDEST POP PUSH2 0x22ED DUP9 DUP3 DUP10 ADD PUSH2 0x2236 JUMP JUMPDEST SWAP7 SWAP10 SWAP6 SWAP9 POP SWAP4 SWAP7 POP SWAP3 SWAP5 SWAP4 SWAP3 POP POP POP JUMP JUMPDEST PUSH1 0x0 PUSH1 0x20 DUP3 DUP5 SUB SLT ISZERO PUSH2 0x2310 JUMPI PUSH1 0x0 DUP1 REVERT JUMPDEST DUP2 CALLDATALOAD PUSH2 0x20B6 DUP2 PUSH2 0x20E6 JUMP JUMPDEST PUSH4 0x4E487B71 PUSH1 0xE0 SHL PUSH1 0x0 MSTORE PUSH1 0x41 PUSH1 0x4 MSTORE PUSH1 0x24 PUSH1 0x0 REVERT JUMPDEST PUSH1 0x40 MLOAD PUSH2 0x120 DUP2 ADD PUSH8 0xFFFFFFFFFFFFFFFF DUP2 GT DUP3 DUP3 LT OR ISZERO PUSH2 0x2363 JUMPI PUSH4 0x4E487B71 PUSH1 0xE0 SHL PUSH1 0x0 MSTORE PUSH1 0x41 PUSH1 0x4 MSTORE PUSH1 0x24 PUSH1 0x0 REVERT JUMPDEST PUSH1 0x40 MSTORE SWAP1 JUMP JUMPDEST DUP1 MLOAD DUP1 ISZERO ISZERO DUP2 EQ PUSH2 0x2379 JUMPI PUSH1 0x0 DUP1 REVERT JUMPDEST SWAP2 SWAP1 POP JUMP JUMPDEST DUP1 MLOAD PUSH2 0x2379 DUP2 PUSH2 0x20E6 JUMP JUMPDEST PUSH1 0x0 PUSH2 0x120 DUP3 DUP5 SUB SLT ISZERO PUSH2 0x239C JUMPI PUSH1 0x0 DUP1 REVERT JUMPDEST PUSH2 0x23A4 PUSH2 0x2331 JUMP JUMPDEST PUSH2 0x23AD DUP4 PUSH2 0x2369 JUMP JUMPDEST DUP2 MSTORE PUSH2 0x23BB PUSH1 0x20 DUP5 ADD PUSH2 0x237E JUMP JUMPDEST PUSH1 0x20 DUP3 ADD MSTORE PUSH2 0x23CC PUSH1 0x40 DUP5 ADD PUSH2 0x237E JUMP JUMPDEST PUSH1 0x40 DUP3 ADD MSTORE PUSH2 0x23DD PUSH1 0x60 DUP5 ADD PUSH2 0x237E JUMP JUMPDEST PUSH1 0x60 DUP3 ADD MSTORE PUSH2 0x23EE PUSH1 0x80 DUP5 ADD PUSH2 0x237E JUMP JUMPDEST PUSH1 0x80 DUP3 ADD MSTORE PUSH2 0x23FF PUSH1 0xA0 DUP5 ADD PUSH2 0x237E JUMP JUMPDEST PUSH1 0xA0 DUP3 ADD MSTORE PUSH2 0x2410 PUSH1 0xC0 DUP5 ADD PUSH2 0x237E JUMP JUMPDEST PUSH1 0xC0 DUP3 ADD MSTORE PUSH2 0x2421 PUSH1 0xE0 DUP5 ADD PUSH2 0x237E JUMP JUMPDEST PUSH1 0xE0 DUP3 ADD MSTORE PUSH2 0x100 PUSH2 0x2434 DUP2 DUP6 ADD PUSH2 0x237E JUMP JUMPDEST SWAP1 DUP3 ADD MSTORE SWAP4 SWAP3 POP POP POP JUMP JUMPDEST PUSH4 0x4E487B71 PUSH1 0xE0 SHL PUSH1 0x0 MSTORE PUSH1 0x32 PUSH1 0x4 MSTORE PUSH1 0x24 PUSH1 0x0 REVERT JUMPDEST PUSH1 0x1 DUP2 DUP2 SHR SWAP1 DUP3 AND DUP1 PUSH2 0x2469 JUMPI PUSH1 0x7F DUP3 AND SWAP2 POP JUMPDEST PUSH1 0x20 DUP3 LT DUP2 EQ ISZERO PUSH2 0x248A JUMPI PUSH4 0x4E487B71 PUSH1 0xE0 SHL PUSH1 0x0 MSTORE PUSH1 0x22 PUSH1 0x4 MSTORE PUSH1 0x24 PUSH1 0x0 REVERT JUMPDEST POP SWAP2 SWAP1 POP JUMP JUMPDEST PUSH1 0x0 DUP2 MLOAD PUSH2 0x24A2 DUP2 DUP6 PUSH1 0x20 DUP7 ADD PUSH2 0x2047 JUMP JUMPDEST SWAP3 SWAP1 SWAP3 ADD SWAP3 SWAP2 POP POP JUMP JUMPDEST PUSH1 0x0 DUP8 MLOAD PUSH1 0x20 PUSH2 0x24BF DUP3 DUP6 DUP4 DUP14 ADD PUSH2 0x2047 JUMP JUMPDEST DUP2 DUP5 ADD SWAP2 POP PUSH1 0xB PUSH1 0xFA SHL DUP1 DUP4 MSTORE DUP10 MLOAD PUSH2 0x24DE DUP2 PUSH1 0x1 DUP7 ADD DUP6 DUP15 ADD PUSH2 0x2047 JUMP JUMPDEST PUSH1 0x1 SWAP4 ADD SWAP3 DUP4 ADD DUP2 SWAP1 MSTORE DUP9 MLOAD PUSH2 0x24FA DUP2 PUSH1 0x2 DUP7 ADD DUP6 DUP14 ADD PUSH2 0x2047 JUMP JUMPDEST PUSH1 0x2 SWAP4 ADD SWAP3 DUP4 ADD DUP2 SWAP1 MSTORE DUP8 MLOAD PUSH2 0x2516 DUP2 PUSH1 0x3 DUP7 ADD DUP6 DUP13 ADD PUSH2 0x2047 JUMP JUMPDEST PUSH1 0x3 SWAP4 ADD SWAP3 DUP4 ADD DUP2 SWAP1 MSTORE DUP7 MLOAD PUSH2 0x2532 DUP2 PUSH1 0x4 DUP7 ADD DUP6 DUP12 ADD PUSH2 0x2047 JUMP JUMPDEST PUSH1 0x4 SWAP4 ADD SWAP3 DUP4 ADD MSTORE DUP5 MLOAD PUSH2 0x254C DUP2 PUSH1 0x5 DUP6 ADD DUP5 DUP10 ADD PUSH2 0x2047 JUMP JUMPDEST PUSH2 0x2562 PUSH1 0x5 DUP3 DUP6 ADD ADD PUSH1 0xB PUSH1 0xFA SHL DUP2 MSTORE PUSH1 0x1 ADD SWAP1 JUMP JUMPDEST SWAP12 SWAP11 POP POP POP POP POP POP POP POP POP POP POP JUMP JUMPDEST PUSH1 0x0 DUP10 MLOAD PUSH2 0x2583 DUP2 DUP5 PUSH1 0x20 DUP15 ADD PUSH2 0x2047 JUMP JUMPDEST DUP1 DUP4 ADD SWAP1 POP PUSH1 0xB PUSH1 0xFA SHL DUP1 DUP3 MSTORE DUP11 MLOAD PUSH2 0x25A3 DUP2 PUSH1 0x1 DUP6 ADD PUSH1 0x20 DUP16 ADD PUSH2 0x2047 JUMP JUMPDEST PUSH1 0x1 SWAP3 ADD SWAP2 DUP3 ADD DUP2 SWAP1 MSTORE DUP10 MLOAD PUSH2 0x25C0 DUP2 PUSH1 0x2 DUP6 ADD PUSH1 0x20 DUP15 ADD PUSH2 0x2047 JUMP JUMPDEST PUSH1 0x2 SWAP3 ADD SWAP2 DUP3 ADD DUP2 SWAP1 MSTORE DUP9 MLOAD PUSH2 0x25DD DUP2 PUSH1 0x3 DUP6 ADD PUSH1 0x20 DUP14 ADD PUSH2 0x2047 JUMP JUMPDEST PUSH1 0x3 SWAP3 ADD SWAP2 DUP3 ADD MSTORE DUP7 MLOAD PUSH2 0x25F8 DUP2 PUSH1 0x4 DUP5 ADD PUSH1 0x20 DUP12 ADD PUSH2 0x2047 JUMP JUMPDEST PUSH2 0x263F PUSH2 0x2626 PUSH2 0x2639 PUSH2 0x2626 PUSH2 0x2633 PUSH2 0x2626 PUSH2 0x2620 PUSH1 0x4 DUP9 DUP11 ADD ADD PUSH1 0xB PUSH1 0xFA SHL DUP2 MSTORE PUSH1 0x1 ADD SWAP1 JUMP JUMPDEST DUP14 PUSH2 0x2490 JUMP JUMPDEST PUSH1 0xB PUSH1 0xFA SHL DUP2 MSTORE PUSH1 0x1 ADD SWAP1 JUMP JUMPDEST DUP11 PUSH2 0x2490 JUMP JUMPDEST DUP8 PUSH2 0x2490 JUMP JUMPDEST SWAP13 SWAP12 POP POP POP POP POP POP POP POP POP POP POP POP JUMP JUMPDEST PUSH1 0x0 PUSH1 0x20 DUP3 DUP5 SUB SLT ISZERO PUSH2 0x2661 JUMPI PUSH1 0x0 DUP1 REVERT JUMPDEST POP MLOAD SWAP2 SWAP1 POP JUMP JUMPDEST PUSH1 0x5B PUSH1 0xF8 SHL DUP2 MSTORE PUSH1 0x0 DUP5 MLOAD PUSH2 0x2684 DUP2 PUSH1 0x1 DUP6 ADD PUSH1 0x20 DUP10 ADD PUSH2 0x2047 JUMP JUMPDEST PUSH32 0x7B2274726169745F74797065223A2247656E65726174696F6E222C2276616C75 PUSH1 0x1 SWAP2 DUP5 ADD SWAP2 DUP3 ADD MSTORE PUSH3 0x32911D PUSH1 0xE9 SHL PUSH1 0x21 DUP3 ADD MSTORE DUP5 MLOAD PUSH2 0x26CD DUP2 PUSH1 0x24 DUP5 ADD PUSH1 0x20 DUP10 ADD PUSH2 0x2047 JUMP JUMPDEST PUSH32 0x7D2C7B2274726169745F74797065223A2254797065222C2276616C7565223A00 PUSH1 0x24 SWAP3 SWAP1 SWAP2 ADD SWAP2 DUP3 ADD MSTORE DUP4 MLOAD PUSH2 0x270B DUP2 PUSH1 0x43 DUP5 ADD PUSH1 0x20 DUP9 ADD PUSH2 0x2047 JUMP JUMPDEST PUSH2 0x7D5D PUSH1 0xF0 SHL PUSH1 0x43 SWAP3 SWAP1 SWAP2 ADD SWAP2 DUP3 ADD MSTORE PUSH1 0x45 ADD SWAP6 SWAP5 POP POP POP POP POP JUMP JUMPDEST PUSH4 0x4E487B71 PUSH1 0xE0 SHL PUSH1 0x0 MSTORE PUSH1 0x11 PUSH1 0x4 MSTORE PUSH1 0x24 PUSH1 0x0 REVERT JUMPDEST PUSH1 0x0 PUSH1 0xFF DUP3 AND PUSH1 0xFF DUP5 AND DUP1 PUSH1 0xFF SUB DUP3 GT ISZERO PUSH2 0x275A JUMPI PUSH2 0x275A PUSH2 0x2727 JUMP JUMPDEST ADD SWAP4 SWAP3 POP POP POP JUMP JUMPDEST PUSH1 0x0 DUP10 MLOAD PUSH1 0x20 PUSH2 0x2775 DUP3 DUP6 DUP4 DUP16 ADD PUSH2 0x2047 JUMP JUMPDEST DUP11 MLOAD SWAP2 DUP5 ADD SWAP2 PUSH2 0x2788 DUP2 DUP5 DUP5 DUP16 ADD PUSH2 0x2047 JUMP JUMPDEST DUP11 MLOAD SWAP3 ADD SWAP2 PUSH2 0x279A DUP2 DUP5 DUP5 DUP15 ADD PUSH2 0x2047 JUMP JUMPDEST DUP10 MLOAD SWAP3 ADD SWAP2 PUSH2 0x27AC DUP2 DUP5 DUP5 DUP14 ADD PUSH2 0x2047 JUMP JUMPDEST DUP9 MLOAD SWAP3 ADD SWAP2 PUSH2 0x27BE DUP2 DUP5 DUP5 DUP13 ADD PUSH2 0x2047 JUMP JUMPDEST DUP8 MLOAD SWAP3 ADD SWAP2 PUSH2 0x27D0 DUP2 DUP5 DUP5 DUP12 ADD PUSH2 0x2047 JUMP JUMPDEST DUP7 MLOAD SWAP3 ADD SWAP2 PUSH2 0x27E2 DUP2 DUP5 DUP5 DUP11 ADD PUSH2 0x2047 JUMP JUMPDEST DUP6 MLOAD SWAP3 ADD SWAP2 PUSH2 0x27F4 DUP2 DUP5 DUP5 DUP10 ADD PUSH2 0x2047 JUMP JUMPDEST SWAP2 SWAP1 SWAP2 ADD SWAP12 SWAP11 POP POP POP POP POP POP POP POP POP POP POP JUMP JUMPDEST PUSH32 0x3C7376672069643D22706F6C696365416E645468696566222077696474683D22 DUP2 MSTORE PUSH32 0x3130302522206865696768743D2231303025222076657273696F6E3D22312E31 PUSH1 0x20 DUP3 ADD MSTORE PUSH32 0x222076696577426F783D223020302034302034302220786D6C6E733D22687474 PUSH1 0x40 DUP3 ADD MSTORE PUSH32 0x703A2F2F7777772E77332E6F72672F323030302F7376672220786D6C6E733A78 PUSH1 0x60 DUP3 ADD MSTORE PUSH32 0x6C696E6B3D22687474703A2F2F7777772E77332E6F72672F313939392F786C69 PUSH1 0x80 DUP3 ADD MSTORE PUSH4 0x3735911F PUSH1 0xE1 SHL PUSH1 0xA0 DUP3 ADD MSTORE PUSH1 0x0 DUP3 MLOAD PUSH2 0x28E4 DUP2 PUSH1 0xA4 DUP6 ADD PUSH1 0x20 DUP8 ADD PUSH2 0x2047 JUMP JUMPDEST PUSH6 0x1E17B9BB339F PUSH1 0xD1 SHL PUSH1 0xA4 SWAP4 SWAP1 SWAP2 ADD SWAP3 DUP4 ADD MSTORE POP PUSH1 0xAA ADD SWAP2 SWAP1 POP JUMP JUMPDEST PUSH1 0x20 DUP1 DUP3 MSTORE DUP2 DUP2 ADD MSTORE PUSH32 0x4F776E61626C653A2063616C6C6572206973206E6F7420746865206F776E6572 PUSH1 0x40 DUP3 ADD MSTORE PUSH1 0x60 ADD SWAP1 JUMP JUMPDEST PUSH4 0x4E487B71 PUSH1 0xE0 SHL PUSH1 0x0 MSTORE PUSH1 0x12 PUSH1 0x4 MSTORE PUSH1 0x24 PUSH1 0x0 REVERT JUMPDEST PUSH1 0x0 PUSH2 0xFFFF DUP1 DUP5 AND DUP1 PUSH2 0x2961 JUMPI PUSH2 0x2961 PUSH2 0x2936 JUMP JUMPDEST SWAP3 AND SWAP2 SWAP1 SWAP2 MOD SWAP3 SWAP2 POP POP JUMP JUMPDEST PUSH10 0x3D913730B6B2911D1011 PUSH1 0xB1 SHL DUP2 MSTORE DUP5 MLOAD PUSH1 0x0 SWAP1 PUSH2 0x2993 DUP2 PUSH1 0xA DUP6 ADD PUSH1 0x20 DUP11 ADD PUSH2 0x2047 JUMP JUMPDEST DUP6 MLOAD SWAP1 DUP4 ADD SWAP1 PUSH2 0x29AA DUP2 PUSH1 0xA DUP5 ADD PUSH1 0x20 DUP11 ADD PUSH2 0x2047 JUMP JUMPDEST PUSH32 0x222C20226465736372697074696F6E223A2022506F6C69636520262054686965 PUSH1 0xA SWAP3 SWAP1 SWAP2 ADD SWAP2 DUP3 ADD MSTORE PUSH32 0x662047616D652069732061206E65772067656E65726174696F6E20706C61792D PUSH1 0x2A DUP3 ADD MSTORE PUSH32 0x746F2D6561726E204E46542067616D65206F6E204176616C616E636865207468 PUSH1 0x4A DUP3 ADD MSTORE PUSH32 0x617420696E636F72706F72617465732070726F626162696C6974792D62617365 PUSH1 0x6A DUP3 ADD MSTORE PUSH32 0x6420646572697661746976657320616C6F6E6773696465204E4654732E205468 PUSH1 0x8A DUP3 ADD MSTORE PUSH32 0x726F75676820612076617374206172726179206F662063686F6963657320616E PUSH1 0xAA DUP3 ADD MSTORE PUSH32 0x64206465636973696F6E2D6D616B696E6720706F73736962696C69746965732C PUSH1 0xCA DUP3 ADD MSTORE PUSH32 0x20506F6C69636520262054686965662047616D652070726F6D6973657320746F PUSH1 0xEA DUP3 ADD MSTORE PUSH32 0x20696E7374696C206578636974656D656E7420616E6420637572696F73697479 PUSH2 0x10A DUP3 ADD MSTORE PUSH32 0x20616D6F6E6773742074686520636F6D6D756E69747920617320657665727920 PUSH2 0x12A DUP3 ADD MSTORE PUSH32 0x696E646976696475616C2061646F70747320646966666572656E742073747261 PUSH2 0x14A DUP3 ADD MSTORE PUSH32 0x74656769657320746F20646F20626574746572207468616E206F6E6520616E6F PUSH2 0x16A DUP3 ADD MSTORE PUSH32 0x7468657220616E6420746F20636F6D65206F7574206F6E20746F702E20546865 PUSH2 0x18A DUP3 ADD MSTORE PUSH32 0x207265616C207175657374696F6E2069732C2061726520796F7520235465616D PUSH2 0x1AA DUP3 ADD MSTORE PUSH32 0x5468696566206F7220235465616D506F6C6963653F2043686F6F736520776973 PUSH2 0x1CA DUP3 ADD MSTORE PUSH32 0x656C79206F7220776174636820746865206F7468657220676574207269636821 PUSH2 0x1EA DUP3 ADD MSTORE PUSH32 0x222C2022696D616765223A2022646174613A696D6167652F7376672B786D6C3B PUSH2 0x20A DUP3 ADD MSTORE PUSH7 0x18985CD94D8D0B PUSH1 0xCA SHL PUSH2 0x22A DUP3 ADD MSTORE PUSH2 0x2C95 PUSH2 0x2C88 PUSH2 0x2C82 PUSH2 0x2C66 PUSH2 0x231 DUP6 ADD DUP10 PUSH2 0x2490 JUMP JUMPDEST PUSH16 0x1116101130BA3A3934B13ABA32B9911D PUSH1 0x81 SHL DUP2 MSTORE PUSH1 0x10 ADD SWAP1 JUMP JUMPDEST DUP7 PUSH2 0x2490 JUMP JUMPDEST PUSH1 0x7D PUSH1 0xF8 SHL DUP2 MSTORE PUSH1 0x1 ADD SWAP1 JUMP JUMPDEST SWAP8 SWAP7 POP POP POP POP POP POP POP JUMP JUMPDEST PUSH32 0x646174613A6170706C69636174696F6E2F6A736F6E3B6261736536342C000000 DUP2 MSTORE PUSH1 0x0 DUP3 MLOAD PUSH2 0x2CD8 DUP2 PUSH1 0x1D DUP6 ADD PUSH1 0x20 DUP8 ADD PUSH2 0x2047 JUMP JUMPDEST SWAP2 SWAP1 SWAP2 ADD PUSH1 0x1D ADD SWAP3 SWAP2 POP POP JUMP JUMPDEST PUSH1 0x0 DUP3 CALLDATALOAD PUSH1 0x3E NOT DUP4 CALLDATASIZE SUB ADD DUP2 SLT PUSH2 0x2CFB JUMPI PUSH1 0x0 DUP1 REVERT JUMPDEST SWAP2 SWAP1 SWAP2 ADD SWAP3 SWAP2 POP POP JUMP JUMPDEST PUSH1 0x0 DUP1 DUP4 CALLDATALOAD PUSH1 0x1E NOT DUP5 CALLDATASIZE SUB ADD DUP2 SLT PUSH2 0x2D1C JUMPI PUSH1 0x0 DUP1 REVERT JUMPDEST DUP4 ADD DUP1 CALLDATALOAD SWAP2 POP PUSH8 0xFFFFFFFFFFFFFFFF DUP3 GT ISZERO PUSH2 0x2D37 JUMPI PUSH1 0x0 DUP1 REVERT JUMPDEST PUSH1 0x20 ADD SWAP2 POP CALLDATASIZE DUP2 SWAP1 SUB DUP3 SGT ISZERO PUSH2 0x21C3 JUMPI PUSH1 0x0 DUP1 REVERT JUMPDEST PUSH1 0x0 PUSH1 0x0 NOT DUP3 EQ ISZERO PUSH2 0x2D60 JUMPI PUSH2 0x2D60 PUSH2 0x2727 JUMP JUMPDEST POP PUSH1 0x1 ADD SWAP1 JUMP JUMPDEST PUSH15 0x3D913A3930B4BA2FBA3CB832911D11 PUSH1 0x89 SHL DUP2 MSTORE DUP3 MLOAD PUSH1 0x0 SWAP1 PUSH2 0x2D92 DUP2 PUSH1 0xF DUP6 ADD PUSH1 0x20 DUP9 ADD PUSH2 0x2047 JUMP JUMPDEST PUSH11 0x1116113B30B63AB2911D11 PUSH1 0xA9 SHL PUSH1 0xF SWAP2 DUP5 ADD SWAP2 DUP3 ADD MSTORE DUP4 MLOAD PUSH2 0x2DBD DUP2 PUSH1 0x1A DUP5 ADD PUSH1 0x20 DUP9 ADD PUSH2 0x2047 JUMP JUMPDEST PUSH2 0x227D PUSH1 0xF0 SHL PUSH1 0x1A SWAP3 SWAP1 SWAP2 ADD SWAP2 DUP3 ADD MSTORE PUSH1 0x1C ADD SWAP5 SWAP4 POP POP POP POP JUMP JUMPDEST PUSH32 0x3C696D61676520783D22342220793D2234222077696474683D22333222206865 DUP2 MSTORE PUSH32 0x696768743D2233322220696D6167652D72656E646572696E673D22706978656C PUSH1 0x20 DUP3 ADD MSTORE PUSH32 0x6174656422207072657365727665417370656374526174696F3D22784D696459 PUSH1 0x40 DUP3 ADD MSTORE PUSH32 0x4D69642220786C696E6B3A687265663D22646174613A696D6167652F706E673B PUSH1 0x60 DUP3 ADD MSTORE PUSH7 0x18985CD94D8D0B PUSH1 0xCA SHL PUSH1 0x80 DUP3 ADD MSTORE PUSH1 0x0 DUP3 MLOAD PUSH2 0x2E92 DUP2 PUSH1 0x87 DUP6 ADD PUSH1 0x20 DUP8 ADD PUSH2 0x2047 JUMP JUMPDEST PUSH3 0x11179F PUSH1 0xE9 SHL PUSH1 0x87 SWAP4 SWAP1 SWAP2 ADD SWAP3 DUP4 ADD MSTORE POP PUSH1 0x8A ADD SWAP2 SWAP1 POP JUMP JUMPDEST PUSH1 0x0 DUP3 PUSH2 0x2EBB JUMPI PUSH2 0x2EBB PUSH2 0x2936 JUMP JUMPDEST POP DIV SWAP1 JUMP JUMPDEST PUSH1 0x0 DUP3 DUP3 LT ISZERO PUSH2 0x2ED2 JUMPI PUSH2 0x2ED2 PUSH2 0x2727 JUMP JUMPDEST POP SUB SWAP1 JUMP JUMPDEST PUSH1 0x0 DUP3 PUSH2 0x2EE6 JUMPI PUSH2 0x2EE6 PUSH2 0x2936 JUMP JUMPDEST POP MOD SWAP1 JUMP JUMPDEST PUSH1 0x0 DUP3 NOT DUP3 GT ISZERO PUSH2 0x2EFE JUMPI PUSH2 0x2EFE PUSH2 0x2727 JUMP JUMPDEST POP ADD SWAP1 JUMP JUMPDEST PUSH1 0x0 DUP2 PUSH1 0x0 NOT DIV DUP4 GT DUP3 ISZERO ISZERO AND ISZERO PUSH2 0x2F1D JUMPI PUSH2 0x2F1D PUSH2 0x2727 JUMP JUMPDEST POP MUL SWAP1 JUMP INVALID COINBASE TIMESTAMP NUMBER DIFFICULTY GASLIMIT CHAINID SELFBALANCE BASEFEE 0x49 0x4A 0x4B 0x4C 0x4D 0x4E 0x4F POP MLOAD MSTORE MSTORE8 SLOAD SSTORE JUMP JUMPI PC MSIZE GAS PUSH2 0x6263 PUSH5 0x6566676869 PUSH11 0x6B6C6D6E6F707172737475 PUSH23 0x7778797A303132333435363738392B2FA2646970667358 0x22 SLT KECCAK256 SIGNEXTEND BALANCE 0xD0 CALLDATASIZE LOG0 0xCA SHR 0x25 SWAP10 PUSH25 0xC6296863FA9620E83C631FC1046263328273F95D667764736F PUSH13 0x634300080B0033000000000000 "
		},
		"gasEstimates": {
			"creation": {
				"codeDepositCost": "2436800",
				"executionCost": "infinite",
				"totalCost": "infinite"
			},
			"external": {
				"compileAttributes(uint256)": "infinite",
				"drawSVG(uint256)": "infinite",
				"owner()": "2420",
				"policeAndThief()": "2404",
				"selectTrait(uint16,uint8)": "2760",
				"setGame(address)": "26721",
				"tokenURI(uint256)": "infinite",
				"traitCountForType(uint8)": "2604",
				"traitData(uint8,uint8)": "infinite",
				"transferOwnership(address)": "28384",
				"uploadBodies(string,string)": "infinite",
				"uploadTraits(uint8,uint8[],(string,string)[])": "infinite"
			},
			"internal": {
				"attributeForTypeAndValue(string memory,string memory)": "infinite",
				"base64(bytes memory)": "infinite",
				"draw(string memory)": "infinite",
				"drawTrait(struct Traits.Trait memory)": "infinite"
			}
		},
		"methodIdentifiers": {
			"compileAttributes(uint256)": "68dba5e5",
			"drawSVG(uint256)": "7abecb86",
			"owner()": "8da5cb5b",
			"policeAndThief()": "8555967e",
			"selectTrait(uint16,uint8)": "a6b09692",
			"setGame(address)": "819912a2",
			"tokenURI(uint256)": "c87b56dd",
			"traitCountForType(uint8)": "ee7bd58b",
			"traitData(uint8,uint8)": "9bf2ee35",
			"transferOwnership(address)": "f2fde38b",
			"uploadBodies(string,string)": "b7a5ad54",
			"uploadTraits(uint8,uint8[],(string,string)[])": "d93ae3d9"
		}
	},
	"abi": [
		{
			"anonymous": false,
			"inputs": [
				{
					"indexed": true,
					"internalType": "address",
					"name": "previousOwner",
					"type": "address"
				},
				{
					"indexed": true,
					"internalType": "address",
					"name": "newOwner",
					"type": "address"
				}
			],
			"name": "OwnershipTransferred",
			"type": "event"
		},
		{
			"inputs": [
				{
					"internalType": "uint256",
					"name": "tokenId",
					"type": "uint256"
				}
			],
			"name": "compileAttributes",
			"outputs": [
				{
					"internalType": "string",
					"name": "",
					"type": "string"
				}
			],
			"stateMutability": "view",
			"type": "function"
		},
		{
			"inputs": [
				{
					"internalType": "uint256",
					"name": "tokenId",
					"type": "uint256"
				}
			],
			"name": "drawSVG",
			"outputs": [
				{
					"internalType": "string",
					"name": "",
					"type": "string"
				}
			],
			"stateMutability": "view",
			"type": "function"
		},
		{
			"inputs": [],
			"name": "owner",
			"outputs": [
				{
					"internalType": "address",
					"name": "",
					"type": "address"
				}
			],
			"stateMutability": "view",
			"type": "function"
		},
		{
			"inputs": [],
			"name": "policeAndThief",
			"outputs": [
				{
					"internalType": "contract IPoliceAndThief",
					"name": "",
					"type": "address"
				}
			],
			"stateMutability": "view",
			"type": "function"
		},
		{
			"inputs": [
				{
					"internalType": "uint16",
					"name": "seed",
					"type": "uint16"
				},
				{
					"internalType": "uint8",
					"name": "traitType",
					"type": "uint8"
				}
			],
			"name": "selectTrait",
			"outputs": [
				{
					"internalType": "uint8",
					"name": "",
					"type": "uint8"
				}
			],
			"stateMutability": "view",
			"type": "function"
		},
		{
			"inputs": [
				{
					"internalType": "address",
					"name": "_policeAndThief",
					"type": "address"
				}
			],
			"name": "setGame",
			"outputs": [],
			"stateMutability": "nonpayable",
			"type": "function"
		},
		{
			"inputs": [
				{
					"internalType": "uint256",
					"name": "tokenId",
					"type": "uint256"
				}
			],
			"name": "tokenURI",
			"outputs": [
				{
					"internalType": "string",
					"name": "",
					"type": "string"
				}
			],
			"stateMutability": "view",
			"type": "function"
		},
		{
			"inputs": [
				{
					"internalType": "uint8",
					"name": "",
					"type": "uint8"
				}
			],
			"name": "traitCountForType",
			"outputs": [
				{
					"internalType": "uint8",
					"name": "",
					"type": "uint8"
				}
			],
			"stateMutability": "view",
			"type": "function"
		},
		{
			"inputs": [
				{
					"internalType": "uint8",
					"name": "",
					"type": "uint8"
				},
				{
					"internalType": "uint8",
					"name": "",
					"type": "uint8"
				}
			],
			"name": "traitData",
			"outputs": [
				{
					"internalType": "string",
					"name": "name",
					"type": "string"
				},
				{
					"internalType": "string",
					"name": "png",
					"type": "string"
				}
			],
			"stateMutability": "view",
			"type": "function"
		},
		{
			"inputs": [
				{
					"internalType": "address",
					"name": "newOwner",
					"type": "address"
				}
			],
			"name": "transferOwnership",
			"outputs": [],
			"stateMutability": "nonpayable",
			"type": "function"
		},
		{
			"inputs": [
				{
					"internalType": "string",
					"name": "_police",
					"type": "string"
				},
				{
					"internalType": "string",
					"name": "_thief",
					"type": "string"
				}
			],
			"name": "uploadBodies",
			"outputs": [],
			"stateMutability": "nonpayable",
			"type": "function"
		},
		{
			"inputs": [
				{
					"internalType": "uint8",
					"name": "traitType",
					"type": "uint8"
				},
				{
					"internalType": "uint8[]",
					"name": "traitIds",
					"type": "uint8[]"
				},
				{
					"components": [
						{
							"internalType": "string",
							"name": "name",
							"type": "string"
						},
						{
							"internalType": "string",
							"name": "png",
							"type": "string"
						}
					],
					"internalType": "struct Traits.Trait[]",
					"name": "traits",
					"type": "tuple[]"
				}
			],
			"name": "uploadTraits",
			"outputs": [],
			"stateMutability": "nonpayable",
			"type": "function"
		}
	]
}