{
	"data": {
		"bytecode": {
			"linkReferences": {},
			"object": "608060405260006007819055600881905560098190556910f0cf064dd592000000600a55603c600b55600c819055600d556011805462ffffff191690553480156200004957600080fd5b50604051620030f1380380620030f18339810160408190526200006c916200014a565b6200007733620000e1565b6000805460ff60a01b1916600160a01b179055600180546001600160a01b039485166001600160a01b03199182161790915560028054938516939091169290921790915560118054919092166301000000026301000000600160b81b03199091161790556200019e565b600080546001600160a01b038381166001600160a01b0319831681178455604051919092169283917f8be0079c531659141344cd1fd0a4f28419497f9722a3daafe3b4186f6b6457e09190a35050565b6001600160a01b03811681146200014757600080fd5b50565b6000806000606084860312156200016057600080fd5b83516200016d8162000131565b6020850151909350620001808162000131565b6040850151909250620001938162000131565b809150509250925092565b612f4380620001ae6000396000f3fe608060405234801561001057600080fd5b50600436106102265760003560e01c80636f234fb5116101305780639af69f2f116100b8578063b40b03d21161007c578063b40b03d2146104ff578063c0c472c014610512578063d51285351461051b578063dd55fcb31461052e578063f2fde38b1461054157600080fd5b80639af69f2f146104b55780639c82f2a4146104bd5780639d34b691146104d05780639e6dee4a146104e3578063a94945bb146104f657600080fd5b80637bde72dc116100ff5780637bde72dc14610462578063819912a21461046b5780638b6a036d1461047e5780638da5cb5b146104915780639062ae06146104a257600080fd5b80636f234fb5146103af5780636f257875146103cf57806376531008146103d8578063771f2476146103eb57600080fd5b806337a386b9116101b35780635b519142116101825780635b5191421461035b5780635c975abb1461036e578063607af397146103805780636a3ef057146103895780636dc7a6271461039c57600080fd5b806337a386b91461033357806339db714f1461033c57806340a8058a14610349578063457e57891461035257600080fd5b806316c38b3c116101fa57806316c38b3c146102b65780631e1d8cf8146102cb578063201ef2a4146102d45780632b3297f9146102ee57806337a289791461032057600080fd5b80620d07ce1461022b5780630986b210146102475780630db7af5314610267578063150b7a021461028a575b600080fd5b610234600a5481565b6040519081526020015b60405180910390f35b61025a610255366004612928565b610554565b60405161023e9190612945565b61027a610275366004612989565b6105c0565b604051901515815260200161023e565b61029d6102983660046129a2565b61063e565b6040516001600160e01b0319909116815260200161023e565b6102c96102c4366004612a4f565b6106ba565b005b610234600e5481565b6102dc600881565b60405160ff909116815260200161023e565b60115461030890630100000090046001600160a01b031681565b6040516001600160a01b03909116815260200161023e565b6102c961032e366004612a6c565b6106fd565b610234600b5481565b60115461027a9060ff1681565b610234600d5481565b610234600f5481565b6102c9610369366004612ada565b61072f565b600054600160a01b900460ff1661027a565b61023460105481565b6102c9610397366004612b2f565b610b2f565b60115461027a9062010000900460ff1681565b6102346103bd366004612989565b60056020526000908152604090205481565b61023460075481565b6102c96103e6366004612a4f565b611048565b6104316103f9366004612989565b60036020526000908152604090205461ffff8116906201000081046001600160501b031690600160601b90046001600160a01b031683565b6040805161ffff90941684526001600160501b0390921660208401526001600160a01b03169082015260600161023e565b61023460095481565b6102c9610479366004612928565b611085565b6102346b07c13bc4b2c133c56000000081565b6000546001600160a01b0316610308565b6102346104b0366004612b2f565b6110d1565b610234601481565b6102c96104cb366004612928565b61137e565b6102c96104de366004612a4f565b6113d4565b6103086104f1366004612989565b61141a565b610234600c5481565b6102c961050d366004612b71565b611509565b61023460085481565b6102c9610529366004612bc8565b611776565b61043161053c366004612a6c565b611807565b6102c961054f366004612928565b61185a565b6001600160a01b0381166000908152600660209081526040918290208054835181840281018401909452808452606093928301828280156105b457602002820191906000526020600020905b8154815260200190600101908083116105a0575b50505050509050919050565b60015460405163e05c57bf60e01b8152600481018390526000916001600160a01b03169063e05c57bf9060240161012060405180830381865afa15801561060b573d6000803e3d6000fd5b505050506040513d601f19601f8201168201806040525081019061062f9190612c26565b50969998505050505050505050565b60006001600160a01b038516156106a85760405162461bcd60e51b815260206004820152602360248201527f43616e6e6f742073656e6420746f6b656e7320746f204261726e206469726563604482015262746c7960e81b60648201526084015b60405180910390fd5b50630a85bd0160e11b95945050505050565b6000546001600160a01b031633146106e45760405162461bcd60e51b815260040161069f90612cd0565b80156106f5576106f26118f2565b50565b6106f2611974565b6000546001600160a01b031633146107275760405162461bcd60e51b815260040161069f90612cd0565b600b55600a55565b600054600160a01b900460ff16156107595760405162461bcd60e51b815260040161069f90612d05565b601154610100900460ff16156107815760405162461bcd60e51b815260040161069f90612d30565b6011805461ff0019166101001790556107973390565b6001600160a01b0316836001600160a01b03161480156107bf57506001600160a01b03831632145b806107dd57506001546001600160a01b0316336001600160a01b0316145b6108295760405162461bcd60e51b815260206004820152601a60248201527f444f4e54204749564520594f555220544f4b454e532041574159000000000000604482015260640161069f565b60005b81811015610b1e5782828281811061084657610846612d57565b905060200201602081019061085b9190612d6d565b61ffff1661086857610b0c565b6108c33384848481811061087e5761087e612d57565b90506020020160208101906108939190612d6d565b61ffff166001600160a01b0390911660009081526006602090815260408220805460018101825590835291200155565b6001546001600160a01b0316336001600160a01b031614610a675760015433906001600160a01b0316636352211e85858581811061090357610903612d57565b90506020020160208101906109189190612d6d565b6040516001600160e01b031960e084901b16815261ffff9091166004820152602401602060405180830381865afa158015610957573d6000803e3d6000fd5b505050506040513d601f19601f8201168201806040525081019061097b9190612d91565b6001600160a01b0316146109c15760405162461bcd60e51b815260206004820152600d60248201526c20a4a72a102ca7902a27a5a2a760991b604482015260640161069f565b6001546001600160a01b03166323b872dd33308686868181106109e6576109e6612d57565b90506020020160208101906109fb9190612d6d565b6040516001600160e01b031960e086901b1681526001600160a01b03938416600482015292909116602483015261ffff166044820152606401600060405180830381600087803b158015610a4e57600080fd5b505af1158015610a62573d6000803e3d6000fd5b505050505b610a9a838383818110610a7c57610a7c612d57565b9050602002016020810190610a919190612d6d565b61ffff166105c0565b15610ad857610ad384848484818110610ab557610ab5612d57565b9050602002016020810190610aca9190612d6d565b61ffff166119f9565b610b0c565b610b0c84848484818110610aee57610aee612d57565b9050602002016020810190610b039190612d6d565b61ffff16611b6e565b80610b1681612dc4565b91505061082c565b50506011805461ff00191690555050565b601154610100900460ff1615610b575760405162461bcd60e51b815260040161069f90612d30565b6011805461ff001981166101001790915560ff16610ba95760405162461bcd60e51b815260206004820152600f60248201526e149154d0d55148111254d050931151608a1b604482015260640161069f565b60408051606080820183526000808352602080840182905283850182905284519283018552818352820181905292810183905282805b8581101561103457868682818110610bf957610bf9612d57565b905060200201359450610c12610c0c3390565b86611c85565b610c1b856105c0565b15610d64576000858152600360209081526040918290208251606081018452905461ffff811682526201000081046001600160501b031692820192909252600160601b9091046001600160a01b031691810182905294503314610c905760405162461bcd60e51b815260040161069f90612ddf565b6001546001600160a01b03166323b872dd3033886040518463ffffffff1660e01b8152600401610cc293929190612e0b565b600060405180830381600087803b158015610cdc57600080fd5b505af1158015610cf0573d6000803e3d6000fd5b5050506000868152600360205260408120819055600f805460019350909190610d1a908490612e2f565b9091555050604080518681526000602082015260018183015290517f77eeeceeb03a054c3bb2bf8e5b43d03bed962c2351fb292cf68fedca9f6a82a29181900360600190a1611022565b610d6d85611d54565b60ff166000818152600460209081526040808320898452600590925290912054815492945090918110610da257610da2612d57565b600091825260209182902060408051606081018252929091015461ffff811683526201000081046001600160501b031693830193909352600160601b9092046001600160a01b031691810182905294503314610e105760405162461bcd60e51b815260040161069f90612ddf565b8160076000828254610e229190612e2f565b90915550506001546001600160a01b03166323b872dd3033886040518463ffffffff1660e01b8152600401610e5993929190612e0b565b600060405180830381600087803b158015610e7357600080fd5b505af1158015610e87573d6000803e3d6000fd5b50505060008381526004602052604090208054909150610ea990600190612e2f565b81548110610eb957610eb9612d57565b6000918252602080832060408051606081018252939091015461ffff811684526201000081046001600160501b031684840152600160601b90046001600160a01b0316838201528584526004825280842089855260059092529092205482549195508592918110610f2c57610f2c612d57565b60009182526020808320845192018054858301516040968701516001600160a01b0316600160601b026001600160601b036001600160501b0390921662010000026001600160601b031990931661ffff968716179290921716179055888352600581528383205487519092168352838320919091558482526004905220805480610fb857610fb8612e46565b6000828152602080822083016000199081018390559290920190925586825260058152604080832083905580518881529182019290925260018183015290517f34478fbe5499eed4dbe01a401ad9153550f5f43c8818d1dc1d745cb4b81ba2909181900360600190a15b8061102c81612dc4565b915050610bdf565b50506011805461ff00191690555050505050565b6000546001600160a01b031633146110725760405162461bcd60e51b815260040161069f90612cd0565b6011805460ff1916911515919091179055565b6000546001600160a01b031633146110af5760405162461bcd60e51b815260040161069f90612cd0565b600180546001600160a01b0319166001600160a01b0392909216919091179055565b600080805b83811015611376576110f3858583818110610a7c57610a7c612d57565b1561125a5760006003600087878581811061111057611110612d57565b90506020020160208101906111259190612d6d565b61ffff9081168252602080830193909352604091820160009081208351606081018552905492831681526201000083046001600160501b031694810194909452600160601b9091046001600160a01b031691830191909152600e54919250906b07c13bc4b2c133c56000000011156111d057603c600a5483602001516001600160501b0316426111b59190612e2f565b6111bf9190612e5c565b6111c99190612e91565b9050611226565b60105482602001516001600160501b031611156111ef57506000611226565b603c600a5483602001516001600160501b031660105461120f9190612e2f565b6112199190612e5c565b6112239190612e91565b90505b6064611233601482612e2f565b61123d9083612e5c565b6112479190612e91565b6112519085612ea5565b93505050611364565b600061128f86868481811061127157611271612d57565b90506020020160208101906112869190612d6d565b61ffff16611d54565b60ff166000818152600460205260408120919250906005828989878181106112b9576112b9612d57565b90506020020160208101906112ce9190612d6d565b61ffff16815260200190815260200160002054815481106112f1576112f1612d57565b600091825260209182902060408051606081018252929091015461ffff811683526201000081046001600160501b0316938301849052600160601b90046001600160a01b03169082015260095490925061134b9190612e2f565b6113559083612e5c565b61135f9085612ea5565b935050505b8061136e81612dc4565b9150506110d6565b509392505050565b6000546001600160a01b031633146113a85760405162461bcd60e51b815260040161069f90612cd0565b601180546001600160a01b039092166301000000026301000000600160b81b0319909216919091179055565b6000546001600160a01b031633146113fe5760405162461bcd60e51b815260040161069f90612cd0565b60118054911515620100000262ff000019909216919091179055565b60006007546000141561142f57506000919050565b60006007548363ffffffff166114459190612ebd565b60209390931c92905060008061145d60036008612ed1565b60ff1690505b600881116114fe57600081815260046020526040902054611485908290612e5c565b61148f9083612ea5565b915081831061149d576114ec565b600081815260046020526040902080546114b79087612ebd565b815481106114c7576114c7612d57565b600091825260209091200154600160601b90046001600160a01b031695945050505050565b806114f681612dc4565b915050611463565b506000949350505050565b601154610100900460ff16156115315760405162461bcd60e51b815260040161069f90612d30565b6011805461ff001916610100179055600e546b07c13bc4b2c133c56000000011156115a557603c600a54600f546010544261156c9190612e2f565b6115769190612e5c565b6115809190612e5c565b61158a9190612e91565b600e600082825461159b9190612ea5565b9091555050426010555b3332146115df5760405162461bcd60e51b81526020600482015260086024820152674f6e6c7920454f4160c01b604482015260640161069f565b60115462010000900460ff166116285760405162461bcd60e51b815260206004820152600e60248201526d436c61696d20646561637469766560901b604482015260640161069f565b6000805b838110156116e657611649858583818110610a7c57610a7c612d57565b156116935761168285858381811061166357611663612d57565b90506020020160208101906116789190612d6d565b61ffff1684611de5565b61168c9083612ea5565b91506116d4565b6116c78585838181106116a8576116a8612d57565b90506020020160208101906116bd9190612d6d565b61ffff1684612162565b6116d19083612ea5565b91505b806116de81612dc4565b91505061162c565b50806116f25750611766565b6002546001600160a01b03166340c10f19336040516001600160e01b031960e084901b1681526001600160a01b03909116600482015260248101849052604401600060405180830381600087803b15801561174c57600080fd5b505af1158015611760573d6000803e3d6000fd5b50505050505b50506011805461ff001916905550565b601154630100000090046001600160a01b03163314806117a057506000546001600160a01b031633145b6117e15760405162461bcd60e51b815260206004820152601260248201527137b7363c9039bbb839103e3e1037bbb732b960711b604482015260640161069f565b82156117f7576117f28285836125fb565b611801565b6118018285611b6e565b50505050565b6004602052816000526040600020818154811061182357600080fd5b60009182526020909120015461ffff811692506201000081046001600160501b03169150600160601b90046001600160a01b031683565b6000546001600160a01b031633146118845760405162461bcd60e51b815260040161069f90612cd0565b6001600160a01b0381166118e95760405162461bcd60e51b815260206004820152602660248201527f4f776e61626c653a206e6577206f776e657220697320746865207a65726f206160448201526564647265737360d01b606482015260840161069f565b6106f281612726565b600054600160a01b900460ff161561191c5760405162461bcd60e51b815260040161069f90612d05565b6000805460ff60a01b1916600160a01b1790557f62e78cea01bee320cd4e420270b5ea74000d11b0c9f74754ebdbfc544b05a2586119573390565b6040516001600160a01b03909116815260200160405180910390a1565b600054600160a01b900460ff166119c55760405162461bcd60e51b815260206004820152601560248201527414185d5cd958589b194e881b9bdd081c185d5cd959605a1b604482015260640161069f565b6000805460ff60a01b191690557f5db9ee0a495bf2e6ff9c91a7834c1ba4fdd244a5e8aa4e537bd38aeae4b073aa33611957565b600054600160a01b900460ff1615611a235760405162461bcd60e51b815260040161069f90612d05565b6b07c13bc4b2c133c560000000600e541015611a8857603c600a54600f5460105442611a4f9190612e2f565b611a599190612e5c565b611a639190612e5c565b611a6d9190612e91565b600e6000828254611a7e9190612ea5565b9091555050426010555b6040805160608101825261ffff80841682526001600160501b0342811660208085019182526001600160a01b03808916868801908152600089815260039093529682209551865493519751909116600160601b026001600160601b039790941662010000026001600160601b03199093169416939093171793909316929092179055600f805460019290611b1d908490612ea5565b9091555050604080516001600160a01b038416815260208101839052428183015290517f6173e4d2d9dd52aae0ed37afed3adcf924a490639b759ca93d32dc43366c17d29181900360600190a15050565b6000611b7982611d54565b60ff1690508060076000828254611b909190612ea5565b9091555050600081815260046020818152604080842080548786526005845282862081905593835281516060808201845261ffff808a168352600980546001600160501b039081168589019081526001600160a01b038e8116878a0181815260018d018a55988d529b8a9020965196909a01805491519751969094166001600160601b031990911617620100009690911695909502949094176001600160601b0316600160601b93909716929092029590951790555481519485529184018690528301527f6173e4d2d9dd52aae0ed37afed3adcf924a490639b759ca93d32dc43366c17d291015b60405180910390a1505050565b6001600160a01b0382166000908152600660205260408120905b81548110156118015782828281548110611cbb57611cbb612d57565b90600052602060002001541415611d425781548290611cdc90600190612e2f565b81548110611cec57611cec612d57565b9060005260206000200154828281548110611d0957611d09612d57565b906000526020600020018190555081805480611d2757611d27612e46565b60019003818190600052602060002001600090559055611801565b80611d4c81612dc4565b915050611c9f565b60015460405163e05c57bf60e01b81526004810183905260009182916001600160a01b039091169063e05c57bf9060240161012060405180830381865afa158015611da3573d6000803e3d6000fd5b505050506040513d601f19601f82011682018060405250810190611dc79190612c26565b98505050505050505050806008611dde9190612ed1565b9392505050565b60008281526003602090815260408083208151606081018352905461ffff811682526201000081046001600160501b031693820193909352600160601b9092046001600160a01b03169082018190523314611e525760405162461bcd60e51b815260040161069f90612ddf565b828015611e775750600b546020820151611e75906001600160501b031642612e2f565b105b15611ed05760405162461bcd60e51b8152602060048201526024808201527f474f4e4e4120424520434f4c4420574954484f55542054574f204441592753206044820152631313d3d560e21b606482015260840161069f565b6b07c13bc4b2c133c560000000600e541015611f1f57603c600a5482602001516001600160501b031642611f049190612e2f565b611f0e9190612e5c565b611f189190612e91565b9150611f76565b60105481602001516001600160501b03161115611f3f5760009150611f76565b603c600a5482602001516001600160501b0316601054611f5f9190612e2f565b611f699190612e5c565b611f739190612e91565b91505b821561203d57611f863385611c85565b611f8f84612776565b60011660011415611fa857611fa3826128ba565b600091505b6001546001600160a01b03166323b872dd3033876040518463ffffffff1660e01b8152600401611fda93929190612e0b565b600060405180830381600087803b158015611ff457600080fd5b505af1158015612008573d6000803e3d6000fd5b5050506000858152600360205260408120819055600f805460019350909190612032908490612e2f565b9091555061211a9050565b61205c606461204d601485612e5c565b6120579190612e91565b6128ba565b6064612069601482612e2f565b6120739084612e5c565b61207d9190612e91565b915060405180606001604052808561ffff168152602001426001600160501b031681526020016120aa3390565b6001600160a01b0390811690915260008681526003602090815260409182902084518154928601519590930151909316600160601b026001600160601b036001600160501b0390951662010000026001600160601b031990921661ffff9093169290921717929092169190911790555b60408051858152602081018490528415158183015290517f77eeeceeb03a054c3bb2bf8e5b43d03bed962c2351fb292cf68fedca9f6a82a29181900360600190a15092915050565b6001546040516331a9108f60e11b81526004810184905260009130916001600160a01b0390911690636352211e90602401602060405180830381865afa1580156121b0573d6000803e3d6000fd5b505050506040513d601f19601f820116820180604052508101906121d49190612d91565b6001600160a01b03161461222a5760405162461bcd60e51b815260206004820152601760248201527f41494e5420412050415254204f4620544845205041434b000000000000000000604482015260640161069f565b600061223584611d54565b60ff166000818152600460209081526040808320888452600590925282205481549394509192909190811061226c5761226c612d57565b600091825260209182902060408051606081018252929091015461ffff811683526201000081046001600160501b031693830193909352600160601b9092046001600160a01b0316918101829052915033146122da5760405162461bcd60e51b815260040161069f90612ddf565b80602001516001600160501b03166009546122f59190612e2f565b6122ff9083612e5c565b925083156124e65761231033610c0c565b81600760008282546123229190612e2f565b90915550506001546001600160a01b03166323b872dd3033886040518463ffffffff1660e01b815260040161235993929190612e0b565b600060405180830381600087803b15801561237357600080fd5b505af1158015612387573d6000803e3d6000fd5b50505060008381526004602052604081208054919250906123aa90600190612e2f565b815481106123ba576123ba612d57565b6000918252602080832060408051606081018252939091015461ffff811684526201000081046001600160501b031684840152600160601b90046001600160a01b031683820152868452600482528084208a85526005909252909220548254919350839291811061242d5761242d612d57565b60009182526020808320845192018054858301516040968701516001600160a01b0316600160601b026001600160601b036001600160501b0390921662010000026001600160601b031990931661ffff9687161792909217161790558983526005815283832054855190921683528383209190915585825260049052208054806124b9576124b9612e46565b600082815260208082208301600019908101839055909201909255878252600590526040812055506125b2565b60405180606001604052808661ffff1681526020016009546001600160501b031681526020016125133390565b6001600160a01b0316905260008381526004602090815260408083208984526005909252909120548154811061254b5761254b612d57565b6000918252602091829020835191018054928401516040909401516001600160a01b0316600160601b026001600160601b036001600160501b0390951662010000026001600160601b031990941661ffff9093169290921792909217929092169190911790555b60408051868152602081018590528515158183015290517f34478fbe5499eed4dbe01a401ad9153550f5f43c8818d1dc1d745cb4b81ba2909181900360600190a1505092915050565b603c600a54600f54601054846126119190612e2f565b61261b9190612e5c565b6126259190612e5c565b61262f9190612e91565b600e60008282546126409190612ea5565b90915550506040805160608101825261ffff80851682526001600160501b0380851660208085019182526001600160a01b03808a1686880190815260008a815260039093529682209551865493519751909116600160601b026001600160601b039790941662010000026001600160601b03199093169416939093171793909316929092179055600f8054600192906126da908490612ea5565b9091555050604080516001600160a01b0385168152602081018490529081018290527f6173e4d2d9dd52aae0ed37afed3adcf924a490639b759ca93d32dc43366c17d290606001611c78565b600080546001600160a01b038381166001600160a01b0319831681178455604051919092169283917f8be0079c531659141344cd1fd0a4f28419497f9722a3daafe3b4186f6b6457e09190a35050565b60015460408051630644dbb360e11b815290516000926001600160a01b031691630c89b7669160048083019260209291908290030181865afa1580156127c0573d6000803e3d6000fd5b505050506040513d601f19601f820116820180604052508101906127e49190612d91565b6001600160a01b0316637d94792a6040518163ffffffff1660e01b8152600401602060405180830381865afa158015612821573d6000803e3d6000fd5b505050506040513d601f19601f820116820180604052508101906128459190612ef4565b32612851600143612e2f565b600f5460075460105460405160609590951b6001600160601b03191660208601529240603485015242605485015260748401879052609484019190915260b483015260d482015260f40160408051601f1981840301815291905280516020909101201892915050565b6007546128db5780600860008282546128d39190612ea5565b909155505050565b6007546008546128eb9083612ea5565b6128f59190612e91565b600960008282546129069190612ea5565b9091555050600060085550565b6001600160a01b03811681146106f257600080fd5b60006020828403121561293a57600080fd5b8135611dde81612913565b6020808252825182820181905260009190848201906040850190845b8181101561297d57835183529284019291840191600101612961565b50909695505050505050565b60006020828403121561299b57600080fd5b5035919050565b6000806000806000608086880312156129ba57600080fd5b85356129c581612913565b945060208601356129d581612913565b935060408601359250606086013567ffffffffffffffff808211156129f957600080fd5b818801915088601f830112612a0d57600080fd5b813581811115612a1c57600080fd5b896020828501011115612a2e57600080fd5b9699959850939650602001949392505050565b80151581146106f257600080fd5b600060208284031215612a6157600080fd5b8135611dde81612a41565b60008060408385031215612a7f57600080fd5b50508035926020909101359150565b60008083601f840112612aa057600080fd5b50813567ffffffffffffffff811115612ab857600080fd5b6020830191508360208260051b8501011115612ad357600080fd5b9250929050565b600080600060408486031215612aef57600080fd5b8335612afa81612913565b9250602084013567ffffffffffffffff811115612b1657600080fd5b612b2286828701612a8e565b9497909650939450505050565b60008060208385031215612b4257600080fd5b823567ffffffffffffffff811115612b5957600080fd5b612b6585828601612a8e565b90969095509350505050565b600080600060408486031215612b8657600080fd5b833567ffffffffffffffff811115612b9d57600080fd5b612ba986828701612a8e565b9094509250506020840135612bbd81612a41565b809150509250925092565b60008060008060808587031215612bde57600080fd5b843593506020850135612bf081612a41565b92506040850135612c0081612913565b9396929550929360600135925050565b805160ff81168114612c2157600080fd5b919050565b60008060008060008060008060006101208a8c031215612c4557600080fd5b8951612c5081612a41565b9850612c5e60208b01612c10565b9750612c6c60408b01612c10565b9650612c7a60608b01612c10565b9550612c8860808b01612c10565b9450612c9660a08b01612c10565b9350612ca460c08b01612c10565b9250612cb260e08b01612c10565b9150612cc16101008b01612c10565b90509295985092959850929598565b6020808252818101527f4f776e61626c653a2063616c6c6572206973206e6f7420746865206f776e6572604082015260600190565b60208082526011908201527014185d5cd958589b194e881c185d5cd959607a1b604082015260600190565b6020808252600d908201526c4e6f207265656e7472616e637960981b604082015260600190565b634e487b7160e01b600052603260045260246000fd5b600060208284031215612d7f57600080fd5b813561ffff81168114611dde57600080fd5b600060208284031215612da357600080fd5b8151611dde81612913565b634e487b7160e01b600052601160045260246000fd5b6000600019821415612dd857612dd8612dae565b5060010190565b6020808252601290820152715357495045522c204e4f2053574950494e4760701b604082015260600190565b6001600160a01b039384168152919092166020820152604081019190915260600190565b600082821015612e4157612e41612dae565b500390565b634e487b7160e01b600052603160045260246000fd5b6000816000190483118215151615612e7657612e76612dae565b500290565b634e487b7160e01b600052601260045260246000fd5b600082612ea057612ea0612e7b565b500490565b60008219821115612eb857612eb8612dae565b500190565b600082612ecc57612ecc612e7b565b500690565b600060ff821660ff841680821015612eeb57612eeb612dae565b90039392505050565b600060208284031215612f0657600080fd5b505191905056fea2646970667358221220f296012e99f858c270549818950d691190dcc124da34c88c5038f73ea5110e0564736f6c634300080b0033",
			"opcodes": "PUSH1 0x80 PUSH1 0x40 MSTORE PUSH1 0x0 PUSH1 0x7 DUP2 SWAP1 SSTORE PUSH1 0x8 DUP2 SWAP1 SSTORE PUSH1 0x9 DUP2 SWAP1 SSTORE PUSH10 0x10F0CF064DD592000000 PUSH1 0xA SSTORE PUSH1 0x3C PUSH1 0xB SSTORE PUSH1 0xC DUP2 SWAP1 SSTORE PUSH1 0xD SSTORE PUSH1 0x11 DUP1 SLOAD PUSH3 0xFFFFFF NOT AND SWAP1 SSTORE CALLVALUE DUP1 ISZERO PUSH3 0x49 JUMPI PUSH1 0x0 DUP1 REVERT JUMPDEST POP PUSH1 0x40 MLOAD PUSH3 0x30F1 CODESIZE SUB DUP1 PUSH3 0x30F1 DUP4 CODECOPY DUP2 ADD PUSH1 0x40 DUP2 SWAP1 MSTORE PUSH3 0x6C SWAP2 PUSH3 0x14A JUMP JUMPDEST PUSH3 0x77 CALLER PUSH3 0xE1 JUMP JUMPDEST PUSH1 0x0 DUP1 SLOAD PUSH1 0xFF PUSH1 0xA0 SHL NOT AND PUSH1 0x1 PUSH1 0xA0 SHL OR SWAP1 SSTORE PUSH1 0x1 DUP1 SLOAD PUSH1 0x1 PUSH1 0x1 PUSH1 0xA0 SHL SUB SWAP5 DUP6 AND PUSH1 0x1 PUSH1 0x1 PUSH1 0xA0 SHL SUB NOT SWAP2 DUP3 AND OR SWAP1 SWAP2 SSTORE PUSH1 0x2 DUP1 SLOAD SWAP4 DUP6 AND SWAP4 SWAP1 SWAP2 AND SWAP3 SWAP1 SWAP3 OR SWAP1 SWAP2 SSTORE PUSH1 0x11 DUP1 SLOAD SWAP2 SWAP1 SWAP3 AND PUSH4 0x1000000 MUL PUSH4 0x1000000 PUSH1 0x1 PUSH1 0xB8 SHL SUB NOT SWAP1 SWAP2 AND OR SWAP1 SSTORE PUSH3 0x19E JUMP JUMPDEST PUSH1 0x0 DUP1 SLOAD PUSH1 0x1 PUSH1 0x1 PUSH1 0xA0 SHL SUB DUP4 DUP2 AND PUSH1 0x1 PUSH1 0x1 PUSH1 0xA0 SHL SUB NOT DUP4 AND DUP2 OR DUP5 SSTORE PUSH1 0x40 MLOAD SWAP2 SWAP1 SWAP3 AND SWAP3 DUP4 SWAP2 PUSH32 0x8BE0079C531659141344CD1FD0A4F28419497F9722A3DAAFE3B4186F6B6457E0 SWAP2 SWAP1 LOG3 POP POP JUMP JUMPDEST PUSH1 0x1 PUSH1 0x1 PUSH1 0xA0 SHL SUB DUP2 AND DUP2 EQ PUSH3 0x147 JUMPI PUSH1 0x0 DUP1 REVERT JUMPDEST POP JUMP JUMPDEST PUSH1 0x0 DUP1 PUSH1 0x0 PUSH1 0x60 DUP5 DUP7 SUB SLT ISZERO PUSH3 0x160 JUMPI PUSH1 0x0 DUP1 REVERT JUMPDEST DUP4 MLOAD PUSH3 0x16D DUP2 PUSH3 0x131 JUMP JUMPDEST PUSH1 0x20 DUP6 ADD MLOAD SWAP1 SWAP4 POP PUSH3 0x180 DUP2 PUSH3 0x131 JUMP JUMPDEST PUSH1 0x40 DUP6 ADD MLOAD SWAP1 SWAP3 POP PUSH3 0x193 DUP2 PUSH3 0x131 JUMP JUMPDEST DUP1 SWAP2 POP POP SWAP3 POP SWAP3 POP SWAP3 JUMP JUMPDEST PUSH2 0x2F43 DUP1 PUSH3 0x1AE PUSH1 0x0 CODECOPY PUSH1 0x0 RETURN INVALID PUSH1 0x80 PUSH1 0x40 MSTORE CALLVALUE DUP1 ISZERO PUSH2 0x10 JUMPI PUSH1 0x0 DUP1 REVERT JUMPDEST POP PUSH1 0x4 CALLDATASIZE LT PUSH2 0x226 JUMPI PUSH1 0x0 CALLDATALOAD PUSH1 0xE0 SHR DUP1 PUSH4 0x6F234FB5 GT PUSH2 0x130 JUMPI DUP1 PUSH4 0x9AF69F2F GT PUSH2 0xB8 JUMPI DUP1 PUSH4 0xB40B03D2 GT PUSH2 0x7C JUMPI DUP1 PUSH4 0xB40B03D2 EQ PUSH2 0x4FF JUMPI DUP1 PUSH4 0xC0C472C0 EQ PUSH2 0x512 JUMPI DUP1 PUSH4 0xD5128535 EQ PUSH2 0x51B JUMPI DUP1 PUSH4 0xDD55FCB3 EQ PUSH2 0x52E JUMPI DUP1 PUSH4 0xF2FDE38B EQ PUSH2 0x541 JUMPI PUSH1 0x0 DUP1 REVERT JUMPDEST DUP1 PUSH4 0x9AF69F2F EQ PUSH2 0x4B5 JUMPI DUP1 PUSH4 0x9C82F2A4 EQ PUSH2 0x4BD JUMPI DUP1 PUSH4 0x9D34B691 EQ PUSH2 0x4D0 JUMPI DUP1 PUSH4 0x9E6DEE4A EQ PUSH2 0x4E3 JUMPI DUP1 PUSH4 0xA94945BB EQ PUSH2 0x4F6 JUMPI PUSH1 0x0 DUP1 REVERT JUMPDEST DUP1 PUSH4 0x7BDE72DC GT PUSH2 0xFF JUMPI DUP1 PUSH4 0x7BDE72DC EQ PUSH2 0x462 JUMPI DUP1 PUSH4 0x819912A2 EQ PUSH2 0x46B JUMPI DUP1 PUSH4 0x8B6A036D EQ PUSH2 0x47E JUMPI DUP1 PUSH4 0x8DA5CB5B EQ PUSH2 0x491 JUMPI DUP1 PUSH4 0x9062AE06 EQ PUSH2 0x4A2 JUMPI PUSH1 0x0 DUP1 REVERT JUMPDEST DUP1 PUSH4 0x6F234FB5 EQ PUSH2 0x3AF JUMPI DUP1 PUSH4 0x6F257875 EQ PUSH2 0x3CF JUMPI DUP1 PUSH4 0x76531008 EQ PUSH2 0x3D8 JUMPI DUP1 PUSH4 0x771F2476 EQ PUSH2 0x3EB JUMPI PUSH1 0x0 DUP1 REVERT JUMPDEST DUP1 PUSH4 0x37A386B9 GT PUSH2 0x1B3 JUMPI DUP1 PUSH4 0x5B519142 GT PUSH2 0x182 JUMPI DUP1 PUSH4 0x5B519142 EQ PUSH2 0x35B JUMPI DUP1 PUSH4 0x5C975ABB EQ PUSH2 0x36E JUMPI DUP1 PUSH4 0x607AF397 EQ PUSH2 0x380 JUMPI DUP1 PUSH4 0x6A3EF057 EQ PUSH2 0x389 JUMPI DUP1 PUSH4 0x6DC7A627 EQ PUSH2 0x39C JUMPI PUSH1 0x0 DUP1 REVERT JUMPDEST DUP1 PUSH4 0x37A386B9 EQ PUSH2 0x333 JUMPI DUP1 PUSH4 0x39DB714F EQ PUSH2 0x33C JUMPI DUP1 PUSH4 0x40A8058A EQ PUSH2 0x349 JUMPI DUP1 PUSH4 0x457E5789 EQ PUSH2 0x352 JUMPI PUSH1 0x0 DUP1 REVERT JUMPDEST DUP1 PUSH4 0x16C38B3C GT PUSH2 0x1FA JUMPI DUP1 PUSH4 0x16C38B3C EQ PUSH2 0x2B6 JUMPI DUP1 PUSH4 0x1E1D8CF8 EQ PUSH2 0x2CB JUMPI DUP1 PUSH4 0x201EF2A4 EQ PUSH2 0x2D4 JUMPI DUP1 PUSH4 0x2B3297F9 EQ PUSH2 0x2EE JUMPI DUP1 PUSH4 0x37A28979 EQ PUSH2 0x320 JUMPI PUSH1 0x0 DUP1 REVERT JUMPDEST DUP1 PUSH3 0xD07CE EQ PUSH2 0x22B JUMPI DUP1 PUSH4 0x986B210 EQ PUSH2 0x247 JUMPI DUP1 PUSH4 0xDB7AF53 EQ PUSH2 0x267 JUMPI DUP1 PUSH4 0x150B7A02 EQ PUSH2 0x28A JUMPI JUMPDEST PUSH1 0x0 DUP1 REVERT JUMPDEST PUSH2 0x234 PUSH1 0xA SLOAD DUP2 JUMP JUMPDEST PUSH1 0x40 MLOAD SWAP1 DUP2 MSTORE PUSH1 0x20 ADD JUMPDEST PUSH1 0x40 MLOAD DUP1 SWAP2 SUB SWAP1 RETURN JUMPDEST PUSH2 0x25A PUSH2 0x255 CALLDATASIZE PUSH1 0x4 PUSH2 0x2928 JUMP JUMPDEST PUSH2 0x554 JUMP JUMPDEST PUSH1 0x40 MLOAD PUSH2 0x23E SWAP2 SWAP1 PUSH2 0x2945 JUMP JUMPDEST PUSH2 0x27A PUSH2 0x275 CALLDATASIZE PUSH1 0x4 PUSH2 0x2989 JUMP JUMPDEST PUSH2 0x5C0 JUMP JUMPDEST PUSH1 0x40 MLOAD SWAP1 ISZERO ISZERO DUP2 MSTORE PUSH1 0x20 ADD PUSH2 0x23E JUMP JUMPDEST PUSH2 0x29D PUSH2 0x298 CALLDATASIZE PUSH1 0x4 PUSH2 0x29A2 JUMP JUMPDEST PUSH2 0x63E JUMP JUMPDEST PUSH1 0x40 MLOAD PUSH1 0x1 PUSH1 0x1 PUSH1 0xE0 SHL SUB NOT SWAP1 SWAP2 AND DUP2 MSTORE PUSH1 0x20 ADD PUSH2 0x23E JUMP JUMPDEST PUSH2 0x2C9 PUSH2 0x2C4 CALLDATASIZE PUSH1 0x4 PUSH2 0x2A4F JUMP JUMPDEST PUSH2 0x6BA JUMP JUMPDEST STOP JUMPDEST PUSH2 0x234 PUSH1 0xE SLOAD DUP2 JUMP JUMPDEST PUSH2 0x2DC PUSH1 0x8 DUP2 JUMP JUMPDEST PUSH1 0x40 MLOAD PUSH1 0xFF SWAP1 SWAP2 AND DUP2 MSTORE PUSH1 0x20 ADD PUSH2 0x23E JUMP JUMPDEST PUSH1 0x11 SLOAD PUSH2 0x308 SWAP1 PUSH4 0x1000000 SWAP1 DIV PUSH1 0x1 PUSH1 0x1 PUSH1 0xA0 SHL SUB AND DUP2 JUMP JUMPDEST PUSH1 0x40 MLOAD PUSH1 0x1 PUSH1 0x1 PUSH1 0xA0 SHL SUB SWAP1 SWAP2 AND DUP2 MSTORE PUSH1 0x20 ADD PUSH2 0x23E JUMP JUMPDEST PUSH2 0x2C9 PUSH2 0x32E CALLDATASIZE PUSH1 0x4 PUSH2 0x2A6C JUMP JUMPDEST PUSH2 0x6FD JUMP JUMPDEST PUSH2 0x234 PUSH1 0xB SLOAD DUP2 JUMP JUMPDEST PUSH1 0x11 SLOAD PUSH2 0x27A SWAP1 PUSH1 0xFF AND DUP2 JUMP JUMPDEST PUSH2 0x234 PUSH1 0xD SLOAD DUP2 JUMP JUMPDEST PUSH2 0x234 PUSH1 0xF SLOAD DUP2 JUMP JUMPDEST PUSH2 0x2C9 PUSH2 0x369 CALLDATASIZE PUSH1 0x4 PUSH2 0x2ADA JUMP JUMPDEST PUSH2 0x72F JUMP JUMPDEST PUSH1 0x0 SLOAD PUSH1 0x1 PUSH1 0xA0 SHL SWAP1 DIV PUSH1 0xFF AND PUSH2 0x27A JUMP JUMPDEST PUSH2 0x234 PUSH1 0x10 SLOAD DUP2 JUMP JUMPDEST PUSH2 0x2C9 PUSH2 0x397 CALLDATASIZE PUSH1 0x4 PUSH2 0x2B2F JUMP JUMPDEST PUSH2 0xB2F JUMP JUMPDEST PUSH1 0x11 SLOAD PUSH2 0x27A SWAP1 PUSH3 0x10000 SWAP1 DIV PUSH1 0xFF AND DUP2 JUMP JUMPDEST PUSH2 0x234 PUSH2 0x3BD CALLDATASIZE PUSH1 0x4 PUSH2 0x2989 JUMP JUMPDEST PUSH1 0x5 PUSH1 0x20 MSTORE PUSH1 0x0 SWAP1 DUP2 MSTORE PUSH1 0x40 SWAP1 KECCAK256 SLOAD DUP2 JUMP JUMPDEST PUSH2 0x234 PUSH1 0x7 SLOAD DUP2 JUMP JUMPDEST PUSH2 0x2C9 PUSH2 0x3E6 CALLDATASIZE PUSH1 0x4 PUSH2 0x2A4F JUMP JUMPDEST PUSH2 0x1048 JUMP JUMPDEST PUSH2 0x431 PUSH2 0x3F9 CALLDATASIZE PUSH1 0x4 PUSH2 0x2989 JUMP JUMPDEST PUSH1 0x3 PUSH1 0x20 MSTORE PUSH1 0x0 SWAP1 DUP2 MSTORE PUSH1 0x40 SWAP1 KECCAK256 SLOAD PUSH2 0xFFFF DUP2 AND SWAP1 PUSH3 0x10000 DUP2 DIV PUSH1 0x1 PUSH1 0x1 PUSH1 0x50 SHL SUB AND SWAP1 PUSH1 0x1 PUSH1 0x60 SHL SWAP1 DIV PUSH1 0x1 PUSH1 0x1 PUSH1 0xA0 SHL SUB AND DUP4 JUMP JUMPDEST PUSH1 0x40 DUP1 MLOAD PUSH2 0xFFFF SWAP1 SWAP5 AND DUP5 MSTORE PUSH1 0x1 PUSH1 0x1 PUSH1 0x50 SHL SUB SWAP1 SWAP3 AND PUSH1 0x20 DUP5 ADD MSTORE PUSH1 0x1 PUSH1 0x1 PUSH1 0xA0 SHL SUB AND SWAP1 DUP3 ADD MSTORE PUSH1 0x60 ADD PUSH2 0x23E JUMP JUMPDEST PUSH2 0x234 PUSH1 0x9 SLOAD DUP2 JUMP JUMPDEST PUSH2 0x2C9 PUSH2 0x479 CALLDATASIZE PUSH1 0x4 PUSH2 0x2928 JUMP JUMPDEST PUSH2 0x1085 JUMP JUMPDEST PUSH2 0x234 PUSH12 0x7C13BC4B2C133C560000000 DUP2 JUMP JUMPDEST PUSH1 0x0 SLOAD PUSH1 0x1 PUSH1 0x1 PUSH1 0xA0 SHL SUB AND PUSH2 0x308 JUMP JUMPDEST PUSH2 0x234 PUSH2 0x4B0 CALLDATASIZE PUSH1 0x4 PUSH2 0x2B2F JUMP JUMPDEST PUSH2 0x10D1 JUMP JUMPDEST PUSH2 0x234 PUSH1 0x14 DUP2 JUMP JUMPDEST PUSH2 0x2C9 PUSH2 0x4CB CALLDATASIZE PUSH1 0x4 PUSH2 0x2928 JUMP JUMPDEST PUSH2 0x137E JUMP JUMPDEST PUSH2 0x2C9 PUSH2 0x4DE CALLDATASIZE PUSH1 0x4 PUSH2 0x2A4F JUMP JUMPDEST PUSH2 0x13D4 JUMP JUMPDEST PUSH2 0x308 PUSH2 0x4F1 CALLDATASIZE PUSH1 0x4 PUSH2 0x2989 JUMP JUMPDEST PUSH2 0x141A JUMP JUMPDEST PUSH2 0x234 PUSH1 0xC SLOAD DUP2 JUMP JUMPDEST PUSH2 0x2C9 PUSH2 0x50D CALLDATASIZE PUSH1 0x4 PUSH2 0x2B71 JUMP JUMPDEST PUSH2 0x1509 JUMP JUMPDEST PUSH2 0x234 PUSH1 0x8 SLOAD DUP2 JUMP JUMPDEST PUSH2 0x2C9 PUSH2 0x529 CALLDATASIZE PUSH1 0x4 PUSH2 0x2BC8 JUMP JUMPDEST PUSH2 0x1776 JUMP JUMPDEST PUSH2 0x431 PUSH2 0x53C CALLDATASIZE PUSH1 0x4 PUSH2 0x2A6C JUMP JUMPDEST PUSH2 0x1807 JUMP JUMPDEST PUSH2 0x2C9 PUSH2 0x54F CALLDATASIZE PUSH1 0x4 PUSH2 0x2928 JUMP JUMPDEST PUSH2 0x185A JUMP JUMPDEST PUSH1 0x1 PUSH1 0x1 PUSH1 0xA0 SHL SUB DUP2 AND PUSH1 0x0 SWAP1 DUP2 MSTORE PUSH1 0x6 PUSH1 0x20 SWAP1 DUP2 MSTORE PUSH1 0x40 SWAP2 DUP3 SWAP1 KECCAK256 DUP1 SLOAD DUP4 MLOAD DUP2 DUP5 MUL DUP2 ADD DUP5 ADD SWAP1 SWAP5 MSTORE DUP1 DUP5 MSTORE PUSH1 0x60 SWAP4 SWAP3 DUP4 ADD DUP3 DUP3 DUP1 ISZERO PUSH2 0x5B4 JUMPI PUSH1 0x20 MUL DUP3 ADD SWAP2 SWAP1 PUSH1 0x0 MSTORE PUSH1 0x20 PUSH1 0x0 KECCAK256 SWAP1 JUMPDEST DUP2 SLOAD DUP2 MSTORE PUSH1 0x20 ADD SWAP1 PUSH1 0x1 ADD SWAP1 DUP1 DUP4 GT PUSH2 0x5A0 JUMPI JUMPDEST POP POP POP POP POP SWAP1 POP SWAP2 SWAP1 POP JUMP JUMPDEST PUSH1 0x1 SLOAD PUSH1 0x40 MLOAD PUSH4 0xE05C57BF PUSH1 0xE0 SHL DUP2 MSTORE PUSH1 0x4 DUP2 ADD DUP4 SWAP1 MSTORE PUSH1 0x0 SWAP2 PUSH1 0x1 PUSH1 0x1 PUSH1 0xA0 SHL SUB AND SWAP1 PUSH4 0xE05C57BF SWAP1 PUSH1 0x24 ADD PUSH2 0x120 PUSH1 0x40 MLOAD DUP1 DUP4 SUB DUP2 DUP7 GAS STATICCALL ISZERO DUP1 ISZERO PUSH2 0x60B JUMPI RETURNDATASIZE PUSH1 0x0 DUP1 RETURNDATACOPY RETURNDATASIZE PUSH1 0x0 REVERT JUMPDEST POP POP POP POP PUSH1 0x40 MLOAD RETURNDATASIZE PUSH1 0x1F NOT PUSH1 0x1F DUP3 ADD AND DUP3 ADD DUP1 PUSH1 0x40 MSTORE POP DUP2 ADD SWAP1 PUSH2 0x62F SWAP2 SWAP1 PUSH2 0x2C26 JUMP JUMPDEST POP SWAP7 SWAP10 SWAP9 POP POP POP POP POP POP POP POP POP JUMP JUMPDEST PUSH1 0x0 PUSH1 0x1 PUSH1 0x1 PUSH1 0xA0 SHL SUB DUP6 AND ISZERO PUSH2 0x6A8 JUMPI PUSH1 0x40 MLOAD PUSH3 0x461BCD PUSH1 0xE5 SHL DUP2 MSTORE PUSH1 0x20 PUSH1 0x4 DUP3 ADD MSTORE PUSH1 0x23 PUSH1 0x24 DUP3 ADD MSTORE PUSH32 0x43616E6E6F742073656E6420746F6B656E7320746F204261726E206469726563 PUSH1 0x44 DUP3 ADD MSTORE PUSH3 0x746C79 PUSH1 0xE8 SHL PUSH1 0x64 DUP3 ADD MSTORE PUSH1 0x84 ADD JUMPDEST PUSH1 0x40 MLOAD DUP1 SWAP2 SUB SWAP1 REVERT JUMPDEST POP PUSH4 0xA85BD01 PUSH1 0xE1 SHL SWAP6 SWAP5 POP POP POP POP POP JUMP JUMPDEST PUSH1 0x0 SLOAD PUSH1 0x1 PUSH1 0x1 PUSH1 0xA0 SHL SUB AND CALLER EQ PUSH2 0x6E4 JUMPI PUSH1 0x40 MLOAD PUSH3 0x461BCD PUSH1 0xE5 SHL DUP2 MSTORE PUSH1 0x4 ADD PUSH2 0x69F SWAP1 PUSH2 0x2CD0 JUMP JUMPDEST DUP1 ISZERO PUSH2 0x6F5 JUMPI PUSH2 0x6F2 PUSH2 0x18F2 JUMP JUMPDEST POP JUMP JUMPDEST PUSH2 0x6F2 PUSH2 0x1974 JUMP JUMPDEST PUSH1 0x0 SLOAD PUSH1 0x1 PUSH1 0x1 PUSH1 0xA0 SHL SUB AND CALLER EQ PUSH2 0x727 JUMPI PUSH1 0x40 MLOAD PUSH3 0x461BCD PUSH1 0xE5 SHL DUP2 MSTORE PUSH1 0x4 ADD PUSH2 0x69F SWAP1 PUSH2 0x2CD0 JUMP JUMPDEST PUSH1 0xB SSTORE PUSH1 0xA SSTORE JUMP JUMPDEST PUSH1 0x0 SLOAD PUSH1 0x1 PUSH1 0xA0 SHL SWAP1 DIV PUSH1 0xFF AND ISZERO PUSH2 0x759 JUMPI PUSH1 0x40 MLOAD PUSH3 0x461BCD PUSH1 0xE5 SHL DUP2 MSTORE PUSH1 0x4 ADD PUSH2 0x69F SWAP1 PUSH2 0x2D05 JUMP JUMPDEST PUSH1 0x11 SLOAD PUSH2 0x100 SWAP1 DIV PUSH1 0xFF AND ISZERO PUSH2 0x781 JUMPI PUSH1 0x40 MLOAD PUSH3 0x461BCD PUSH1 0xE5 SHL DUP2 MSTORE PUSH1 0x4 ADD PUSH2 0x69F SWAP1 PUSH2 0x2D30 JUMP JUMPDEST PUSH1 0x11 DUP1 SLOAD PUSH2 0xFF00 NOT AND PUSH2 0x100 OR SWAP1 SSTORE PUSH2 0x797 CALLER SWAP1 JUMP JUMPDEST PUSH1 0x1 PUSH1 0x1 PUSH1 0xA0 SHL SUB AND DUP4 PUSH1 0x1 PUSH1 0x1 PUSH1 0xA0 SHL SUB AND EQ DUP1 ISZERO PUSH2 0x7BF JUMPI POP PUSH1 0x1 PUSH1 0x1 PUSH1 0xA0 SHL SUB DUP4 AND ORIGIN EQ JUMPDEST DUP1 PUSH2 0x7DD JUMPI POP PUSH1 0x1 SLOAD PUSH1 0x1 PUSH1 0x1 PUSH1 0xA0 SHL SUB AND CALLER PUSH1 0x1 PUSH1 0x1 PUSH1 0xA0 SHL SUB AND EQ JUMPDEST PUSH2 0x829 JUMPI PUSH1 0x40 MLOAD PUSH3 0x461BCD PUSH1 0xE5 SHL DUP2 MSTORE PUSH1 0x20 PUSH1 0x4 DUP3 ADD MSTORE PUSH1 0x1A PUSH1 0x24 DUP3 ADD MSTORE PUSH32 0x444F4E54204749564520594F555220544F4B454E532041574159000000000000 PUSH1 0x44 DUP3 ADD MSTORE PUSH1 0x64 ADD PUSH2 0x69F JUMP JUMPDEST PUSH1 0x0 JUMPDEST DUP2 DUP2 LT ISZERO PUSH2 0xB1E JUMPI DUP3 DUP3 DUP3 DUP2 DUP2 LT PUSH2 0x846 JUMPI PUSH2 0x846 PUSH2 0x2D57 JUMP JUMPDEST SWAP1 POP PUSH1 0x20 MUL ADD PUSH1 0x20 DUP2 ADD SWAP1 PUSH2 0x85B SWAP2 SWAP1 PUSH2 0x2D6D JUMP JUMPDEST PUSH2 0xFFFF AND PUSH2 0x868 JUMPI PUSH2 0xB0C JUMP JUMPDEST PUSH2 0x8C3 CALLER DUP5 DUP5 DUP5 DUP2 DUP2 LT PUSH2 0x87E JUMPI PUSH2 0x87E PUSH2 0x2D57 JUMP JUMPDEST SWAP1 POP PUSH1 0x20 MUL ADD PUSH1 0x20 DUP2 ADD SWAP1 PUSH2 0x893 SWAP2 SWAP1 PUSH2 0x2D6D JUMP JUMPDEST PUSH2 0xFFFF AND PUSH1 0x1 PUSH1 0x1 PUSH1 0xA0 SHL SUB SWAP1 SWAP2 AND PUSH1 0x0 SWAP1 DUP2 MSTORE PUSH1 0x6 PUSH1 0x20 SWAP1 DUP2 MSTORE PUSH1 0x40 DUP3 KECCAK256 DUP1 SLOAD PUSH1 0x1 DUP2 ADD DUP3 SSTORE SWAP1 DUP4 MSTORE SWAP2 KECCAK256 ADD SSTORE JUMP JUMPDEST PUSH1 0x1 SLOAD PUSH1 0x1 PUSH1 0x1 PUSH1 0xA0 SHL SUB AND CALLER PUSH1 0x1 PUSH1 0x1 PUSH1 0xA0 SHL SUB AND EQ PUSH2 0xA67 JUMPI PUSH1 0x1 SLOAD CALLER SWAP1 PUSH1 0x1 PUSH1 0x1 PUSH1 0xA0 SHL SUB AND PUSH4 0x6352211E DUP6 DUP6 DUP6 DUP2 DUP2 LT PUSH2 0x903 JUMPI PUSH2 0x903 PUSH2 0x2D57 JUMP JUMPDEST SWAP1 POP PUSH1 0x20 MUL ADD PUSH1 0x20 DUP2 ADD SWAP1 PUSH2 0x918 SWAP2 SWAP1 PUSH2 0x2D6D JUMP JUMPDEST PUSH1 0x40 MLOAD PUSH1 0x1 PUSH1 0x1 PUSH1 0xE0 SHL SUB NOT PUSH1 0xE0 DUP5 SWAP1 SHL AND DUP2 MSTORE PUSH2 0xFFFF SWAP1 SWAP2 AND PUSH1 0x4 DUP3 ADD MSTORE PUSH1 0x24 ADD PUSH1 0x20 PUSH1 0x40 MLOAD DUP1 DUP4 SUB DUP2 DUP7 GAS STATICCALL ISZERO DUP1 ISZERO PUSH2 0x957 JUMPI RETURNDATASIZE PUSH1 0x0 DUP1 RETURNDATACOPY RETURNDATASIZE PUSH1 0x0 REVERT JUMPDEST POP POP POP POP PUSH1 0x40 MLOAD RETURNDATASIZE PUSH1 0x1F NOT PUSH1 0x1F DUP3 ADD AND DUP3 ADD DUP1 PUSH1 0x40 MSTORE POP DUP2 ADD SWAP1 PUSH2 0x97B SWAP2 SWAP1 PUSH2 0x2D91 JUMP JUMPDEST PUSH1 0x1 PUSH1 0x1 PUSH1 0xA0 SHL SUB AND EQ PUSH2 0x9C1 JUMPI PUSH1 0x40 MLOAD PUSH3 0x461BCD PUSH1 0xE5 SHL DUP2 MSTORE PUSH1 0x20 PUSH1 0x4 DUP3 ADD MSTORE PUSH1 0xD PUSH1 0x24 DUP3 ADD MSTORE PUSH13 0x20A4A72A102CA7902A27A5A2A7 PUSH1 0x99 SHL PUSH1 0x44 DUP3 ADD MSTORE PUSH1 0x64 ADD PUSH2 0x69F JUMP JUMPDEST PUSH1 0x1 SLOAD PUSH1 0x1 PUSH1 0x1 PUSH1 0xA0 SHL SUB AND PUSH4 0x23B872DD CALLER ADDRESS DUP7 DUP7 DUP7 DUP2 DUP2 LT PUSH2 0x9E6 JUMPI PUSH2 0x9E6 PUSH2 0x2D57 JUMP JUMPDEST SWAP1 POP PUSH1 0x20 MUL ADD PUSH1 0x20 DUP2 ADD SWAP1 PUSH2 0x9FB SWAP2 SWAP1 PUSH2 0x2D6D JUMP JUMPDEST PUSH1 0x40 MLOAD PUSH1 0x1 PUSH1 0x1 PUSH1 0xE0 SHL SUB NOT PUSH1 0xE0 DUP7 SWAP1 SHL AND DUP2 MSTORE PUSH1 0x1 PUSH1 0x1 PUSH1 0xA0 SHL SUB SWAP4 DUP5 AND PUSH1 0x4 DUP3 ADD MSTORE SWAP3 SWAP1 SWAP2 AND PUSH1 0x24 DUP4 ADD MSTORE PUSH2 0xFFFF AND PUSH1 0x44 DUP3 ADD MSTORE PUSH1 0x64 ADD PUSH1 0x0 PUSH1 0x40 MLOAD DUP1 DUP4 SUB DUP2 PUSH1 0x0 DUP8 DUP1 EXTCODESIZE ISZERO DUP1 ISZERO PUSH2 0xA4E JUMPI PUSH1 0x0 DUP1 REVERT JUMPDEST POP GAS CALL ISZERO DUP1 ISZERO PUSH2 0xA62 JUMPI RETURNDATASIZE PUSH1 0x0 DUP1 RETURNDATACOPY RETURNDATASIZE PUSH1 0x0 REVERT JUMPDEST POP POP POP POP JUMPDEST PUSH2 0xA9A DUP4 DUP4 DUP4 DUP2 DUP2 LT PUSH2 0xA7C JUMPI PUSH2 0xA7C PUSH2 0x2D57 JUMP JUMPDEST SWAP1 POP PUSH1 0x20 MUL ADD PUSH1 0x20 DUP2 ADD SWAP1 PUSH2 0xA91 SWAP2 SWAP1 PUSH2 0x2D6D JUMP JUMPDEST PUSH2 0xFFFF AND PUSH2 0x5C0 JUMP JUMPDEST ISZERO PUSH2 0xAD8 JUMPI PUSH2 0xAD3 DUP5 DUP5 DUP5 DUP5 DUP2 DUP2 LT PUSH2 0xAB5 JUMPI PUSH2 0xAB5 PUSH2 0x2D57 JUMP JUMPDEST SWAP1 POP PUSH1 0x20 MUL ADD PUSH1 0x20 DUP2 ADD SWAP1 PUSH2 0xACA SWAP2 SWAP1 PUSH2 0x2D6D JUMP JUMPDEST PUSH2 0xFFFF AND PUSH2 0x19F9 JUMP JUMPDEST PUSH2 0xB0C JUMP JUMPDEST PUSH2 0xB0C DUP5 DUP5 DUP5 DUP5 DUP2 DUP2 LT PUSH2 0xAEE JUMPI PUSH2 0xAEE PUSH2 0x2D57 JUMP JUMPDEST SWAP1 POP PUSH1 0x20 MUL ADD PUSH1 0x20 DUP2 ADD SWAP1 PUSH2 0xB03 SWAP2 SWAP1 PUSH2 0x2D6D JUMP JUMPDEST PUSH2 0xFFFF AND PUSH2 0x1B6E JUMP JUMPDEST DUP1 PUSH2 0xB16 DUP2 PUSH2 0x2DC4 JUMP JUMPDEST SWAP2 POP POP PUSH2 0x82C JUMP JUMPDEST POP POP PUSH1 0x11 DUP1 SLOAD PUSH2 0xFF00 NOT AND SWAP1 SSTORE POP POP JUMP JUMPDEST PUSH1 0x11 SLOAD PUSH2 0x100 SWAP1 DIV PUSH1 0xFF AND ISZERO PUSH2 0xB57 JUMPI PUSH1 0x40 MLOAD PUSH3 0x461BCD PUSH1 0xE5 SHL DUP2 MSTORE PUSH1 0x4 ADD PUSH2 0x69F SWAP1 PUSH2 0x2D30 JUMP JUMPDEST PUSH1 0x11 DUP1 SLOAD PUSH2 0xFF00 NOT DUP2 AND PUSH2 0x100 OR SWAP1 SWAP2 SSTORE PUSH1 0xFF AND PUSH2 0xBA9 JUMPI PUSH1 0x40 MLOAD PUSH3 0x461BCD PUSH1 0xE5 SHL DUP2 MSTORE PUSH1 0x20 PUSH1 0x4 DUP3 ADD MSTORE PUSH1 0xF PUSH1 0x24 DUP3 ADD MSTORE PUSH15 0x149154D0D55148111254D050931151 PUSH1 0x8A SHL PUSH1 0x44 DUP3 ADD MSTORE PUSH1 0x64 ADD PUSH2 0x69F JUMP JUMPDEST PUSH1 0x40 DUP1 MLOAD PUSH1 0x60 DUP1 DUP3 ADD DUP4 MSTORE PUSH1 0x0 DUP1 DUP4 MSTORE PUSH1 0x20 DUP1 DUP5 ADD DUP3 SWAP1 MSTORE DUP4 DUP6 ADD DUP3 SWAP1 MSTORE DUP5 MLOAD SWAP3 DUP4 ADD DUP6 MSTORE DUP2 DUP4 MSTORE DUP3 ADD DUP2 SWAP1 MSTORE SWAP3 DUP2 ADD DUP4 SWAP1 MSTORE DUP3 DUP1 JUMPDEST DUP6 DUP2 LT ISZERO PUSH2 0x1034 JUMPI DUP7 DUP7 DUP3 DUP2 DUP2 LT PUSH2 0xBF9 JUMPI PUSH2 0xBF9 PUSH2 0x2D57 JUMP JUMPDEST SWAP1 POP PUSH1 0x20 MUL ADD CALLDATALOAD SWAP5 POP PUSH2 0xC12 PUSH2 0xC0C CALLER SWAP1 JUMP JUMPDEST DUP7 PUSH2 0x1C85 JUMP JUMPDEST PUSH2 0xC1B DUP6 PUSH2 0x5C0 JUMP JUMPDEST ISZERO PUSH2 0xD64 JUMPI PUSH1 0x0 DUP6 DUP2 MSTORE PUSH1 0x3 PUSH1 0x20 SWAP1 DUP2 MSTORE PUSH1 0x40 SWAP2 DUP3 SWAP1 KECCAK256 DUP3 MLOAD PUSH1 0x60 DUP2 ADD DUP5 MSTORE SWAP1 SLOAD PUSH2 0xFFFF DUP2 AND DUP3 MSTORE PUSH3 0x10000 DUP2 DIV PUSH1 0x1 PUSH1 0x1 PUSH1 0x50 SHL SUB AND SWAP3 DUP3 ADD SWAP3 SWAP1 SWAP3 MSTORE PUSH1 0x1 PUSH1 0x60 SHL SWAP1 SWAP2 DIV PUSH1 0x1 PUSH1 0x1 PUSH1 0xA0 SHL SUB AND SWAP2 DUP2 ADD DUP3 SWAP1 MSTORE SWAP5 POP CALLER EQ PUSH2 0xC90 JUMPI PUSH1 0x40 MLOAD PUSH3 0x461BCD PUSH1 0xE5 SHL DUP2 MSTORE PUSH1 0x4 ADD PUSH2 0x69F SWAP1 PUSH2 0x2DDF JUMP JUMPDEST PUSH1 0x1 SLOAD PUSH1 0x1 PUSH1 0x1 PUSH1 0xA0 SHL SUB AND PUSH4 0x23B872DD ADDRESS CALLER DUP9 PUSH1 0x40 MLOAD DUP5 PUSH4 0xFFFFFFFF AND PUSH1 0xE0 SHL DUP2 MSTORE PUSH1 0x4 ADD PUSH2 0xCC2 SWAP4 SWAP3 SWAP2 SWAP1 PUSH2 0x2E0B JUMP JUMPDEST PUSH1 0x0 PUSH1 0x40 MLOAD DUP1 DUP4 SUB DUP2 PUSH1 0x0 DUP8 DUP1 EXTCODESIZE ISZERO DUP1 ISZERO PUSH2 0xCDC JUMPI PUSH1 0x0 DUP1 REVERT JUMPDEST POP GAS CALL ISZERO DUP1 ISZERO PUSH2 0xCF0 JUMPI RETURNDATASIZE PUSH1 0x0 DUP1 RETURNDATACOPY RETURNDATASIZE PUSH1 0x0 REVERT JUMPDEST POP POP POP PUSH1 0x0 DUP7 DUP2 MSTORE PUSH1 0x3 PUSH1 0x20 MSTORE PUSH1 0x40 DUP2 KECCAK256 DUP2 SWAP1 SSTORE PUSH1 0xF DUP1 SLOAD PUSH1 0x1 SWAP4 POP SWAP1 SWAP2 SWAP1 PUSH2 0xD1A SWAP1 DUP5 SWAP1 PUSH2 0x2E2F JUMP JUMPDEST SWAP1 SWAP2 SSTORE POP POP PUSH1 0x40 DUP1 MLOAD DUP7 DUP2 MSTORE PUSH1 0x0 PUSH1 0x20 DUP3 ADD MSTORE PUSH1 0x1 DUP2 DUP4 ADD MSTORE SWAP1 MLOAD PUSH32 0x77EEECEEB03A054C3BB2BF8E5B43D03BED962C2351FB292CF68FEDCA9F6A82A2 SWAP2 DUP2 SWAP1 SUB PUSH1 0x60 ADD SWAP1 LOG1 PUSH2 0x1022 JUMP JUMPDEST PUSH2 0xD6D DUP6 PUSH2 0x1D54 JUMP JUMPDEST PUSH1 0xFF AND PUSH1 0x0 DUP2 DUP2 MSTORE PUSH1 0x4 PUSH1 0x20 SWAP1 DUP2 MSTORE PUSH1 0x40 DUP1 DUP4 KECCAK256 DUP10 DUP5 MSTORE PUSH1 0x5 SWAP1 SWAP3 MSTORE SWAP1 SWAP2 KECCAK256 SLOAD DUP2 SLOAD SWAP3 SWAP5 POP SWAP1 SWAP2 DUP2 LT PUSH2 0xDA2 JUMPI PUSH2 0xDA2 PUSH2 0x2D57 JUMP JUMPDEST PUSH1 0x0 SWAP2 DUP3 MSTORE PUSH1 0x20 SWAP2 DUP3 SWAP1 KECCAK256 PUSH1 0x40 DUP1 MLOAD PUSH1 0x60 DUP2 ADD DUP3 MSTORE SWAP3 SWAP1 SWAP2 ADD SLOAD PUSH2 0xFFFF DUP2 AND DUP4 MSTORE PUSH3 0x10000 DUP2 DIV PUSH1 0x1 PUSH1 0x1 PUSH1 0x50 SHL SUB AND SWAP4 DUP4 ADD SWAP4 SWAP1 SWAP4 MSTORE PUSH1 0x1 PUSH1 0x60 SHL SWAP1 SWAP3 DIV PUSH1 0x1 PUSH1 0x1 PUSH1 0xA0 SHL SUB AND SWAP2 DUP2 ADD DUP3 SWAP1 MSTORE SWAP5 POP CALLER EQ PUSH2 0xE10 JUMPI PUSH1 0x40 MLOAD PUSH3 0x461BCD PUSH1 0xE5 SHL DUP2 MSTORE PUSH1 0x4 ADD PUSH2 0x69F SWAP1 PUSH2 0x2DDF JUMP JUMPDEST DUP2 PUSH1 0x7 PUSH1 0x0 DUP3 DUP3 SLOAD PUSH2 0xE22 SWAP2 SWAP1 PUSH2 0x2E2F JUMP JUMPDEST SWAP1 SWAP2 SSTORE POP POP PUSH1 0x1 SLOAD PUSH1 0x1 PUSH1 0x1 PUSH1 0xA0 SHL SUB AND PUSH4 0x23B872DD ADDRESS CALLER DUP9 PUSH1 0x40 MLOAD DUP5 PUSH4 0xFFFFFFFF AND PUSH1 0xE0 SHL DUP2 MSTORE PUSH1 0x4 ADD PUSH2 0xE59 SWAP4 SWAP3 SWAP2 SWAP1 PUSH2 0x2E0B JUMP JUMPDEST PUSH1 0x0 PUSH1 0x40 MLOAD DUP1 DUP4 SUB DUP2 PUSH1 0x0 DUP8 DUP1 EXTCODESIZE ISZERO DUP1 ISZERO PUSH2 0xE73 JUMPI PUSH1 0x0 DUP1 REVERT JUMPDEST POP GAS CALL ISZERO DUP1 ISZERO PUSH2 0xE87 JUMPI RETURNDATASIZE PUSH1 0x0 DUP1 RETURNDATACOPY RETURNDATASIZE PUSH1 0x0 REVERT JUMPDEST POP POP POP PUSH1 0x0 DUP4 DUP2 MSTORE PUSH1 0x4 PUSH1 0x20 MSTORE PUSH1 0x40 SWAP1 KECCAK256 DUP1 SLOAD SWAP1 SWAP2 POP PUSH2 0xEA9 SWAP1 PUSH1 0x1 SWAP1 PUSH2 0x2E2F JUMP JUMPDEST DUP2 SLOAD DUP2 LT PUSH2 0xEB9 JUMPI PUSH2 0xEB9 PUSH2 0x2D57 JUMP JUMPDEST PUSH1 0x0 SWAP2 DUP3 MSTORE PUSH1 0x20 DUP1 DUP4 KECCAK256 PUSH1 0x40 DUP1 MLOAD PUSH1 0x60 DUP2 ADD DUP3 MSTORE SWAP4 SWAP1 SWAP2 ADD SLOAD PUSH2 0xFFFF DUP2 AND DUP5 MSTORE PUSH3 0x10000 DUP2 DIV PUSH1 0x1 PUSH1 0x1 PUSH1 0x50 SHL SUB AND DUP5 DUP5 ADD MSTORE PUSH1 0x1 PUSH1 0x60 SHL SWAP1 DIV PUSH1 0x1 PUSH1 0x1 PUSH1 0xA0 SHL SUB AND DUP4 DUP3 ADD MSTORE DUP6 DUP5 MSTORE PUSH1 0x4 DUP3 MSTORE DUP1 DUP5 KECCAK256 DUP10 DUP6 MSTORE PUSH1 0x5 SWAP1 SWAP3 MSTORE SWAP1 SWAP3 KECCAK256 SLOAD DUP3 SLOAD SWAP2 SWAP6 POP DUP6 SWAP3 SWAP2 DUP2 LT PUSH2 0xF2C JUMPI PUSH2 0xF2C PUSH2 0x2D57 JUMP JUMPDEST PUSH1 0x0 SWAP2 DUP3 MSTORE PUSH1 0x20 DUP1 DUP4 KECCAK256 DUP5 MLOAD SWAP3 ADD DUP1 SLOAD DUP6 DUP4 ADD MLOAD PUSH1 0x40 SWAP7 DUP8 ADD MLOAD PUSH1 0x1 PUSH1 0x1 PUSH1 0xA0 SHL SUB AND PUSH1 0x1 PUSH1 0x60 SHL MUL PUSH1 0x1 PUSH1 0x1 PUSH1 0x60 SHL SUB PUSH1 0x1 PUSH1 0x1 PUSH1 0x50 SHL SUB SWAP1 SWAP3 AND PUSH3 0x10000 MUL PUSH1 0x1 PUSH1 0x1 PUSH1 0x60 SHL SUB NOT SWAP1 SWAP4 AND PUSH2 0xFFFF SWAP7 DUP8 AND OR SWAP3 SWAP1 SWAP3 OR AND OR SWAP1 SSTORE DUP9 DUP4 MSTORE PUSH1 0x5 DUP2 MSTORE DUP4 DUP4 KECCAK256 SLOAD DUP8 MLOAD SWAP1 SWAP3 AND DUP4 MSTORE DUP4 DUP4 KECCAK256 SWAP2 SWAP1 SWAP2 SSTORE DUP5 DUP3 MSTORE PUSH1 0x4 SWAP1 MSTORE KECCAK256 DUP1 SLOAD DUP1 PUSH2 0xFB8 JUMPI PUSH2 0xFB8 PUSH2 0x2E46 JUMP JUMPDEST PUSH1 0x0 DUP3 DUP2 MSTORE PUSH1 0x20 DUP1 DUP3 KECCAK256 DUP4 ADD PUSH1 0x0 NOT SWAP1 DUP2 ADD DUP4 SWAP1 SSTORE SWAP3 SWAP1 SWAP3 ADD SWAP1 SWAP3 SSTORE DUP7 DUP3 MSTORE PUSH1 0x5 DUP2 MSTORE PUSH1 0x40 DUP1 DUP4 KECCAK256 DUP4 SWAP1 SSTORE DUP1 MLOAD DUP9 DUP2 MSTORE SWAP2 DUP3 ADD SWAP3 SWAP1 SWAP3 MSTORE PUSH1 0x1 DUP2 DUP4 ADD MSTORE SWAP1 MLOAD PUSH32 0x34478FBE5499EED4DBE01A401AD9153550F5F43C8818D1DC1D745CB4B81BA290 SWAP2 DUP2 SWAP1 SUB PUSH1 0x60 ADD SWAP1 LOG1 JUMPDEST DUP1 PUSH2 0x102C DUP2 PUSH2 0x2DC4 JUMP JUMPDEST SWAP2 POP POP PUSH2 0xBDF JUMP JUMPDEST POP POP PUSH1 0x11 DUP1 SLOAD PUSH2 0xFF00 NOT AND SWAP1 SSTORE POP POP POP POP POP JUMP JUMPDEST PUSH1 0x0 SLOAD PUSH1 0x1 PUSH1 0x1 PUSH1 0xA0 SHL SUB AND CALLER EQ PUSH2 0x1072 JUMPI PUSH1 0x40 MLOAD PUSH3 0x461BCD PUSH1 0xE5 SHL DUP2 MSTORE PUSH1 0x4 ADD PUSH2 0x69F SWAP1 PUSH2 0x2CD0 JUMP JUMPDEST PUSH1 0x11 DUP1 SLOAD PUSH1 0xFF NOT AND SWAP2 ISZERO ISZERO SWAP2 SWAP1 SWAP2 OR SWAP1 SSTORE JUMP JUMPDEST PUSH1 0x0 SLOAD PUSH1 0x1 PUSH1 0x1 PUSH1 0xA0 SHL SUB AND CALLER EQ PUSH2 0x10AF JUMPI PUSH1 0x40 MLOAD PUSH3 0x461BCD PUSH1 0xE5 SHL DUP2 MSTORE PUSH1 0x4 ADD PUSH2 0x69F SWAP1 PUSH2 0x2CD0 JUMP JUMPDEST PUSH1 0x1 DUP1 SLOAD PUSH1 0x1 PUSH1 0x1 PUSH1 0xA0 SHL SUB NOT AND PUSH1 0x1 PUSH1 0x1 PUSH1 0xA0 SHL SUB SWAP3 SWAP1 SWAP3 AND SWAP2 SWAP1 SWAP2 OR SWAP1 SSTORE JUMP JUMPDEST PUSH1 0x0 DUP1 DUP1 JUMPDEST DUP4 DUP2 LT ISZERO PUSH2 0x1376 JUMPI PUSH2 0x10F3 DUP6 DUP6 DUP4 DUP2 DUP2 LT PUSH2 0xA7C JUMPI PUSH2 0xA7C PUSH2 0x2D57 JUMP JUMPDEST ISZERO PUSH2 0x125A JUMPI PUSH1 0x0 PUSH1 0x3 PUSH1 0x0 DUP8 DUP8 DUP6 DUP2 DUP2 LT PUSH2 0x1110 JUMPI PUSH2 0x1110 PUSH2 0x2D57 JUMP JUMPDEST SWAP1 POP PUSH1 0x20 MUL ADD PUSH1 0x20 DUP2 ADD SWAP1 PUSH2 0x1125 SWAP2 SWAP1 PUSH2 0x2D6D JUMP JUMPDEST PUSH2 0xFFFF SWAP1 DUP2 AND DUP3 MSTORE PUSH1 0x20 DUP1 DUP4 ADD SWAP4 SWAP1 SWAP4 MSTORE PUSH1 0x40 SWAP2 DUP3 ADD PUSH1 0x0 SWAP1 DUP2 KECCAK256 DUP4 MLOAD PUSH1 0x60 DUP2 ADD DUP6 MSTORE SWAP1 SLOAD SWAP3 DUP4 AND DUP2 MSTORE PUSH3 0x10000 DUP4 DIV PUSH1 0x1 PUSH1 0x1 PUSH1 0x50 SHL SUB AND SWAP5 DUP2 ADD SWAP5 SWAP1 SWAP5 MSTORE PUSH1 0x1 PUSH1 0x60 SHL SWAP1 SWAP2 DIV PUSH1 0x1 PUSH1 0x1 PUSH1 0xA0 SHL SUB AND SWAP2 DUP4 ADD SWAP2 SWAP1 SWAP2 MSTORE PUSH1 0xE SLOAD SWAP2 SWAP3 POP SWAP1 PUSH12 0x7C13BC4B2C133C560000000 GT ISZERO PUSH2 0x11D0 JUMPI PUSH1 0x3C PUSH1 0xA SLOAD DUP4 PUSH1 0x20 ADD MLOAD PUSH1 0x1 PUSH1 0x1 PUSH1 0x50 SHL SUB AND TIMESTAMP PUSH2 0x11B5 SWAP2 SWAP1 PUSH2 0x2E2F JUMP JUMPDEST PUSH2 0x11BF SWAP2 SWAP1 PUSH2 0x2E5C JUMP JUMPDEST PUSH2 0x11C9 SWAP2 SWAP1 PUSH2 0x2E91 JUMP JUMPDEST SWAP1 POP PUSH2 0x1226 JUMP JUMPDEST PUSH1 0x10 SLOAD DUP3 PUSH1 0x20 ADD MLOAD PUSH1 0x1 PUSH1 0x1 PUSH1 0x50 SHL SUB AND GT ISZERO PUSH2 0x11EF JUMPI POP PUSH1 0x0 PUSH2 0x1226 JUMP JUMPDEST PUSH1 0x3C PUSH1 0xA SLOAD DUP4 PUSH1 0x20 ADD MLOAD PUSH1 0x1 PUSH1 0x1 PUSH1 0x50 SHL SUB AND PUSH1 0x10 SLOAD PUSH2 0x120F SWAP2 SWAP1 PUSH2 0x2E2F JUMP JUMPDEST PUSH2 0x1219 SWAP2 SWAP1 PUSH2 0x2E5C JUMP JUMPDEST PUSH2 0x1223 SWAP2 SWAP1 PUSH2 0x2E91 JUMP JUMPDEST SWAP1 POP JUMPDEST PUSH1 0x64 PUSH2 0x1233 PUSH1 0x14 DUP3 PUSH2 0x2E2F JUMP JUMPDEST PUSH2 0x123D SWAP1 DUP4 PUSH2 0x2E5C JUMP JUMPDEST PUSH2 0x1247 SWAP2 SWAP1 PUSH2 0x2E91 JUMP JUMPDEST PUSH2 0x1251 SWAP1 DUP6 PUSH2 0x2EA5 JUMP JUMPDEST SWAP4 POP POP POP PUSH2 0x1364 JUMP JUMPDEST PUSH1 0x0 PUSH2 0x128F DUP7 DUP7 DUP5 DUP2 DUP2 LT PUSH2 0x1271 JUMPI PUSH2 0x1271 PUSH2 0x2D57 JUMP JUMPDEST SWAP1 POP PUSH1 0x20 MUL ADD PUSH1 0x20 DUP2 ADD SWAP1 PUSH2 0x1286 SWAP2 SWAP1 PUSH2 0x2D6D JUMP JUMPDEST PUSH2 0xFFFF AND PUSH2 0x1D54 JUMP JUMPDEST PUSH1 0xFF AND PUSH1 0x0 DUP2 DUP2 MSTORE PUSH1 0x4 PUSH1 0x20 MSTORE PUSH1 0x40 DUP2 KECCAK256 SWAP2 SWAP3 POP SWAP1 PUSH1 0x5 DUP3 DUP10 DUP10 DUP8 DUP2 DUP2 LT PUSH2 0x12B9 JUMPI PUSH2 0x12B9 PUSH2 0x2D57 JUMP JUMPDEST SWAP1 POP PUSH1 0x20 MUL ADD PUSH1 0x20 DUP2 ADD SWAP1 PUSH2 0x12CE SWAP2 SWAP1 PUSH2 0x2D6D JUMP JUMPDEST PUSH2 0xFFFF AND DUP2 MSTORE PUSH1 0x20 ADD SWAP1 DUP2 MSTORE PUSH1 0x20 ADD PUSH1 0x0 KECCAK256 SLOAD DUP2 SLOAD DUP2 LT PUSH2 0x12F1 JUMPI PUSH2 0x12F1 PUSH2 0x2D57 JUMP JUMPDEST PUSH1 0x0 SWAP2 DUP3 MSTORE PUSH1 0x20 SWAP2 DUP3 SWAP1 KECCAK256 PUSH1 0x40 DUP1 MLOAD PUSH1 0x60 DUP2 ADD DUP3 MSTORE SWAP3 SWAP1 SWAP2 ADD SLOAD PUSH2 0xFFFF DUP2 AND DUP4 MSTORE PUSH3 0x10000 DUP2 DIV PUSH1 0x1 PUSH1 0x1 PUSH1 0x50 SHL SUB AND SWAP4 DUP4 ADD DUP5 SWAP1 MSTORE PUSH1 0x1 PUSH1 0x60 SHL SWAP1 DIV PUSH1 0x1 PUSH1 0x1 PUSH1 0xA0 SHL SUB AND SWAP1 DUP3 ADD MSTORE PUSH1 0x9 SLOAD SWAP1 SWAP3 POP PUSH2 0x134B SWAP2 SWAP1 PUSH2 0x2E2F JUMP JUMPDEST PUSH2 0x1355 SWAP1 DUP4 PUSH2 0x2E5C JUMP JUMPDEST PUSH2 0x135F SWAP1 DUP6 PUSH2 0x2EA5 JUMP JUMPDEST SWAP4 POP POP POP JUMPDEST DUP1 PUSH2 0x136E DUP2 PUSH2 0x2DC4 JUMP JUMPDEST SWAP2 POP POP PUSH2 0x10D6 JUMP JUMPDEST POP SWAP4 SWAP3 POP POP POP JUMP JUMPDEST PUSH1 0x0 SLOAD PUSH1 0x1 PUSH1 0x1 PUSH1 0xA0 SHL SUB AND CALLER EQ PUSH2 0x13A8 JUMPI PUSH1 0x40 MLOAD PUSH3 0x461BCD PUSH1 0xE5 SHL DUP2 MSTORE PUSH1 0x4 ADD PUSH2 0x69F SWAP1 PUSH2 0x2CD0 JUMP JUMPDEST PUSH1 0x11 DUP1 SLOAD PUSH1 0x1 PUSH1 0x1 PUSH1 0xA0 SHL SUB SWAP1 SWAP3 AND PUSH4 0x1000000 MUL PUSH4 0x1000000 PUSH1 0x1 PUSH1 0xB8 SHL SUB NOT SWAP1 SWAP3 AND SWAP2 SWAP1 SWAP2 OR SWAP1 SSTORE JUMP JUMPDEST PUSH1 0x0 SLOAD PUSH1 0x1 PUSH1 0x1 PUSH1 0xA0 SHL SUB AND CALLER EQ PUSH2 0x13FE JUMPI PUSH1 0x40 MLOAD PUSH3 0x461BCD PUSH1 0xE5 SHL DUP2 MSTORE PUSH1 0x4 ADD PUSH2 0x69F SWAP1 PUSH2 0x2CD0 JUMP JUMPDEST PUSH1 0x11 DUP1 SLOAD SWAP2 ISZERO ISZERO PUSH3 0x10000 MUL PUSH3 0xFF0000 NOT SWAP1 SWAP3 AND SWAP2 SWAP1 SWAP2 OR SWAP1 SSTORE JUMP JUMPDEST PUSH1 0x0 PUSH1 0x7 SLOAD PUSH1 0x0 EQ ISZERO PUSH2 0x142F JUMPI POP PUSH1 0x0 SWAP2 SWAP1 POP JUMP JUMPDEST PUSH1 0x0 PUSH1 0x7 SLOAD DUP4 PUSH4 0xFFFFFFFF AND PUSH2 0x1445 SWAP2 SWAP1 PUSH2 0x2EBD JUMP JUMPDEST PUSH1 0x20 SWAP4 SWAP1 SWAP4 SHR SWAP3 SWAP1 POP PUSH1 0x0 DUP1 PUSH2 0x145D PUSH1 0x3 PUSH1 0x8 PUSH2 0x2ED1 JUMP JUMPDEST PUSH1 0xFF AND SWAP1 POP JUMPDEST PUSH1 0x8 DUP2 GT PUSH2 0x14FE JUMPI PUSH1 0x0 DUP2 DUP2 MSTORE PUSH1 0x4 PUSH1 0x20 MSTORE PUSH1 0x40 SWAP1 KECCAK256 SLOAD PUSH2 0x1485 SWAP1 DUP3 SWAP1 PUSH2 0x2E5C JUMP JUMPDEST PUSH2 0x148F SWAP1 DUP4 PUSH2 0x2EA5 JUMP JUMPDEST SWAP2 POP DUP2 DUP4 LT PUSH2 0x149D JUMPI PUSH2 0x14EC JUMP JUMPDEST PUSH1 0x0 DUP2 DUP2 MSTORE PUSH1 0x4 PUSH1 0x20 MSTORE PUSH1 0x40 SWAP1 KECCAK256 DUP1 SLOAD PUSH2 0x14B7 SWAP1 DUP8 PUSH2 0x2EBD JUMP JUMPDEST DUP2 SLOAD DUP2 LT PUSH2 0x14C7 JUMPI PUSH2 0x14C7 PUSH2 0x2D57 JUMP JUMPDEST PUSH1 0x0 SWAP2 DUP3 MSTORE PUSH1 0x20 SWAP1 SWAP2 KECCAK256 ADD SLOAD PUSH1 0x1 PUSH1 0x60 SHL SWAP1 DIV PUSH1 0x1 PUSH1 0x1 PUSH1 0xA0 SHL SUB AND SWAP6 SWAP5 POP POP POP POP POP JUMP JUMPDEST DUP1 PUSH2 0x14F6 DUP2 PUSH2 0x2DC4 JUMP JUMPDEST SWAP2 POP POP PUSH2 0x1463 JUMP JUMPDEST POP PUSH1 0x0 SWAP5 SWAP4 POP POP POP POP JUMP JUMPDEST PUSH1 0x11 SLOAD PUSH2 0x100 SWAP1 DIV PUSH1 0xFF AND ISZERO PUSH2 0x1531 JUMPI PUSH1 0x40 MLOAD PUSH3 0x461BCD PUSH1 0xE5 SHL DUP2 MSTORE PUSH1 0x4 ADD PUSH2 0x69F SWAP1 PUSH2 0x2D30 JUMP JUMPDEST PUSH1 0x11 DUP1 SLOAD PUSH2 0xFF00 NOT AND PUSH2 0x100 OR SWAP1 SSTORE PUSH1 0xE SLOAD PUSH12 0x7C13BC4B2C133C560000000 GT ISZERO PUSH2 0x15A5 JUMPI PUSH1 0x3C PUSH1 0xA SLOAD PUSH1 0xF SLOAD PUSH1 0x10 SLOAD TIMESTAMP PUSH2 0x156C SWAP2 SWAP1 PUSH2 0x2E2F JUMP JUMPDEST PUSH2 0x1576 SWAP2 SWAP1 PUSH2 0x2E5C JUMP JUMPDEST PUSH2 0x1580 SWAP2 SWAP1 PUSH2 0x2E5C JUMP JUMPDEST PUSH2 0x158A SWAP2 SWAP1 PUSH2 0x2E91 JUMP JUMPDEST PUSH1 0xE PUSH1 0x0 DUP3 DUP3 SLOAD PUSH2 0x159B SWAP2 SWAP1 PUSH2 0x2EA5 JUMP JUMPDEST SWAP1 SWAP2 SSTORE POP POP TIMESTAMP PUSH1 0x10 SSTORE JUMPDEST CALLER ORIGIN EQ PUSH2 0x15DF JUMPI PUSH1 0x40 MLOAD PUSH3 0x461BCD PUSH1 0xE5 SHL DUP2 MSTORE PUSH1 0x20 PUSH1 0x4 DUP3 ADD MSTORE PUSH1 0x8 PUSH1 0x24 DUP3 ADD MSTORE PUSH8 0x4F6E6C7920454F41 PUSH1 0xC0 SHL PUSH1 0x44 DUP3 ADD MSTORE PUSH1 0x64 ADD PUSH2 0x69F JUMP JUMPDEST PUSH1 0x11 SLOAD PUSH3 0x10000 SWAP1 DIV PUSH1 0xFF AND PUSH2 0x1628 JUMPI PUSH1 0x40 MLOAD PUSH3 0x461BCD PUSH1 0xE5 SHL DUP2 MSTORE PUSH1 0x20 PUSH1 0x4 DUP3 ADD MSTORE PUSH1 0xE PUSH1 0x24 DUP3 ADD MSTORE PUSH14 0x436C61696D206465616374697665 PUSH1 0x90 SHL PUSH1 0x44 DUP3 ADD MSTORE PUSH1 0x64 ADD PUSH2 0x69F JUMP JUMPDEST PUSH1 0x0 DUP1 JUMPDEST DUP4 DUP2 LT ISZERO PUSH2 0x16E6 JUMPI PUSH2 0x1649 DUP6 DUP6 DUP4 DUP2 DUP2 LT PUSH2 0xA7C JUMPI PUSH2 0xA7C PUSH2 0x2D57 JUMP JUMPDEST ISZERO PUSH2 0x1693 JUMPI PUSH2 0x1682 DUP6 DUP6 DUP4 DUP2 DUP2 LT PUSH2 0x1663 JUMPI PUSH2 0x1663 PUSH2 0x2D57 JUMP JUMPDEST SWAP1 POP PUSH1 0x20 MUL ADD PUSH1 0x20 DUP2 ADD SWAP1 PUSH2 0x1678 SWAP2 SWAP1 PUSH2 0x2D6D JUMP JUMPDEST PUSH2 0xFFFF AND DUP5 PUSH2 0x1DE5 JUMP JUMPDEST PUSH2 0x168C SWAP1 DUP4 PUSH2 0x2EA5 JUMP JUMPDEST SWAP2 POP PUSH2 0x16D4 JUMP JUMPDEST PUSH2 0x16C7 DUP6 DUP6 DUP4 DUP2 DUP2 LT PUSH2 0x16A8 JUMPI PUSH2 0x16A8 PUSH2 0x2D57 JUMP JUMPDEST SWAP1 POP PUSH1 0x20 MUL ADD PUSH1 0x20 DUP2 ADD SWAP1 PUSH2 0x16BD SWAP2 SWAP1 PUSH2 0x2D6D JUMP JUMPDEST PUSH2 0xFFFF AND DUP5 PUSH2 0x2162 JUMP JUMPDEST PUSH2 0x16D1 SWAP1 DUP4 PUSH2 0x2EA5 JUMP JUMPDEST SWAP2 POP JUMPDEST DUP1 PUSH2 0x16DE DUP2 PUSH2 0x2DC4 JUMP JUMPDEST SWAP2 POP POP PUSH2 0x162C JUMP JUMPDEST POP DUP1 PUSH2 0x16F2 JUMPI POP PUSH2 0x1766 JUMP JUMPDEST PUSH1 0x2 SLOAD PUSH1 0x1 PUSH1 0x1 PUSH1 0xA0 SHL SUB AND PUSH4 0x40C10F19 CALLER PUSH1 0x40 MLOAD PUSH1 0x1 PUSH1 0x1 PUSH1 0xE0 SHL SUB NOT PUSH1 0xE0 DUP5 SWAP1 SHL AND DUP2 MSTORE PUSH1 0x1 PUSH1 0x1 PUSH1 0xA0 SHL SUB SWAP1 SWAP2 AND PUSH1 0x4 DUP3 ADD MSTORE PUSH1 0x24 DUP2 ADD DUP5 SWAP1 MSTORE PUSH1 0x44 ADD PUSH1 0x0 PUSH1 0x40 MLOAD DUP1 DUP4 SUB DUP2 PUSH1 0x0 DUP8 DUP1 EXTCODESIZE ISZERO DUP1 ISZERO PUSH2 0x174C JUMPI PUSH1 0x0 DUP1 REVERT JUMPDEST POP GAS CALL ISZERO DUP1 ISZERO PUSH2 0x1760 JUMPI RETURNDATASIZE PUSH1 0x0 DUP1 RETURNDATACOPY RETURNDATASIZE PUSH1 0x0 REVERT JUMPDEST POP POP POP POP POP JUMPDEST POP POP PUSH1 0x11 DUP1 SLOAD PUSH2 0xFF00 NOT AND SWAP1 SSTORE POP JUMP JUMPDEST PUSH1 0x11 SLOAD PUSH4 0x1000000 SWAP1 DIV PUSH1 0x1 PUSH1 0x1 PUSH1 0xA0 SHL SUB AND CALLER EQ DUP1 PUSH2 0x17A0 JUMPI POP PUSH1 0x0 SLOAD PUSH1 0x1 PUSH1 0x1 PUSH1 0xA0 SHL SUB AND CALLER EQ JUMPDEST PUSH2 0x17E1 JUMPI PUSH1 0x40 MLOAD PUSH3 0x461BCD PUSH1 0xE5 SHL DUP2 MSTORE PUSH1 0x20 PUSH1 0x4 DUP3 ADD MSTORE PUSH1 0x12 PUSH1 0x24 DUP3 ADD MSTORE PUSH18 0x37B7363C9039BBB839103E3E1037BBB732B9 PUSH1 0x71 SHL PUSH1 0x44 DUP3 ADD MSTORE PUSH1 0x64 ADD PUSH2 0x69F JUMP JUMPDEST DUP3 ISZERO PUSH2 0x17F7 JUMPI PUSH2 0x17F2 DUP3 DUP6 DUP4 PUSH2 0x25FB JUMP JUMPDEST PUSH2 0x1801 JUMP JUMPDEST PUSH2 0x1801 DUP3 DUP6 PUSH2 0x1B6E JUMP JUMPDEST POP POP POP POP JUMP JUMPDEST PUSH1 0x4 PUSH1 0x20 MSTORE DUP2 PUSH1 0x0 MSTORE PUSH1 0x40 PUSH1 0x0 KECCAK256 DUP2 DUP2 SLOAD DUP2 LT PUSH2 0x1823 JUMPI PUSH1 0x0 DUP1 REVERT JUMPDEST PUSH1 0x0 SWAP2 DUP3 MSTORE PUSH1 0x20 SWAP1 SWAP2 KECCAK256 ADD SLOAD PUSH2 0xFFFF DUP2 AND SWAP3 POP PUSH3 0x10000 DUP2 DIV PUSH1 0x1 PUSH1 0x1 PUSH1 0x50 SHL SUB AND SWAP2 POP PUSH1 0x1 PUSH1 0x60 SHL SWAP1 DIV PUSH1 0x1 PUSH1 0x1 PUSH1 0xA0 SHL SUB AND DUP4 JUMP JUMPDEST PUSH1 0x0 SLOAD PUSH1 0x1 PUSH1 0x1 PUSH1 0xA0 SHL SUB AND CALLER EQ PUSH2 0x1884 JUMPI PUSH1 0x40 MLOAD PUSH3 0x461BCD PUSH1 0xE5 SHL DUP2 MSTORE PUSH1 0x4 ADD PUSH2 0x69F SWAP1 PUSH2 0x2CD0 JUMP JUMPDEST PUSH1 0x1 PUSH1 0x1 PUSH1 0xA0 SHL SUB DUP2 AND PUSH2 0x18E9 JUMPI PUSH1 0x40 MLOAD PUSH3 0x461BCD PUSH1 0xE5 SHL DUP2 MSTORE PUSH1 0x20 PUSH1 0x4 DUP3 ADD MSTORE PUSH1 0x26 PUSH1 0x24 DUP3 ADD MSTORE PUSH32 0x4F776E61626C653A206E6577206F776E657220697320746865207A65726F2061 PUSH1 0x44 DUP3 ADD MSTORE PUSH6 0x646472657373 PUSH1 0xD0 SHL PUSH1 0x64 DUP3 ADD MSTORE PUSH1 0x84 ADD PUSH2 0x69F JUMP JUMPDEST PUSH2 0x6F2 DUP2 PUSH2 0x2726 JUMP JUMPDEST PUSH1 0x0 SLOAD PUSH1 0x1 PUSH1 0xA0 SHL SWAP1 DIV PUSH1 0xFF AND ISZERO PUSH2 0x191C JUMPI PUSH1 0x40 MLOAD PUSH3 0x461BCD PUSH1 0xE5 SHL DUP2 MSTORE PUSH1 0x4 ADD PUSH2 0x69F SWAP1 PUSH2 0x2D05 JUMP JUMPDEST PUSH1 0x0 DUP1 SLOAD PUSH1 0xFF PUSH1 0xA0 SHL NOT AND PUSH1 0x1 PUSH1 0xA0 SHL OR SWAP1 SSTORE PUSH32 0x62E78CEA01BEE320CD4E420270B5EA74000D11B0C9F74754EBDBFC544B05A258 PUSH2 0x1957 CALLER SWAP1 JUMP JUMPDEST PUSH1 0x40 MLOAD PUSH1 0x1 PUSH1 0x1 PUSH1 0xA0 SHL SUB SWAP1 SWAP2 AND DUP2 MSTORE PUSH1 0x20 ADD PUSH1 0x40 MLOAD DUP1 SWAP2 SUB SWAP1 LOG1 JUMP JUMPDEST PUSH1 0x0 SLOAD PUSH1 0x1 PUSH1 0xA0 SHL SWAP1 DIV PUSH1 0xFF AND PUSH2 0x19C5 JUMPI PUSH1 0x40 MLOAD PUSH3 0x461BCD PUSH1 0xE5 SHL DUP2 MSTORE PUSH1 0x20 PUSH1 0x4 DUP3 ADD MSTORE PUSH1 0x15 PUSH1 0x24 DUP3 ADD MSTORE PUSH21 0x14185D5CD958589B194E881B9BDD081C185D5CD959 PUSH1 0x5A SHL PUSH1 0x44 DUP3 ADD MSTORE PUSH1 0x64 ADD PUSH2 0x69F JUMP JUMPDEST PUSH1 0x0 DUP1 SLOAD PUSH1 0xFF PUSH1 0xA0 SHL NOT AND SWAP1 SSTORE PUSH32 0x5DB9EE0A495BF2E6FF9C91A7834C1BA4FDD244A5E8AA4E537BD38AEAE4B073AA CALLER PUSH2 0x1957 JUMP JUMPDEST PUSH1 0x0 SLOAD PUSH1 0x1 PUSH1 0xA0 SHL SWAP1 DIV PUSH1 0xFF AND ISZERO PUSH2 0x1A23 JUMPI PUSH1 0x40 MLOAD PUSH3 0x461BCD PUSH1 0xE5 SHL DUP2 MSTORE PUSH1 0x4 ADD PUSH2 0x69F SWAP1 PUSH2 0x2D05 JUMP JUMPDEST PUSH12 0x7C13BC4B2C133C560000000 PUSH1 0xE SLOAD LT ISZERO PUSH2 0x1A88 JUMPI PUSH1 0x3C PUSH1 0xA SLOAD PUSH1 0xF SLOAD PUSH1 0x10 SLOAD TIMESTAMP PUSH2 0x1A4F SWAP2 SWAP1 PUSH2 0x2E2F JUMP JUMPDEST PUSH2 0x1A59 SWAP2 SWAP1 PUSH2 0x2E5C JUMP JUMPDEST PUSH2 0x1A63 SWAP2 SWAP1 PUSH2 0x2E5C JUMP JUMPDEST PUSH2 0x1A6D SWAP2 SWAP1 PUSH2 0x2E91 JUMP JUMPDEST PUSH1 0xE PUSH1 0x0 DUP3 DUP3 SLOAD PUSH2 0x1A7E SWAP2 SWAP1 PUSH2 0x2EA5 JUMP JUMPDEST SWAP1 SWAP2 SSTORE POP POP TIMESTAMP PUSH1 0x10 SSTORE JUMPDEST PUSH1 0x40 DUP1 MLOAD PUSH1 0x60 DUP2 ADD DUP3 MSTORE PUSH2 0xFFFF DUP1 DUP5 AND DUP3 MSTORE PUSH1 0x1 PUSH1 0x1 PUSH1 0x50 SHL SUB TIMESTAMP DUP2 AND PUSH1 0x20 DUP1 DUP6 ADD SWAP2 DUP3 MSTORE PUSH1 0x1 PUSH1 0x1 PUSH1 0xA0 SHL SUB DUP1 DUP10 AND DUP7 DUP9 ADD SWAP1 DUP2 MSTORE PUSH1 0x0 DUP10 DUP2 MSTORE PUSH1 0x3 SWAP1 SWAP4 MSTORE SWAP7 DUP3 KECCAK256 SWAP6 MLOAD DUP7 SLOAD SWAP4 MLOAD SWAP8 MLOAD SWAP1 SWAP2 AND PUSH1 0x1 PUSH1 0x60 SHL MUL PUSH1 0x1 PUSH1 0x1 PUSH1 0x60 SHL SUB SWAP8 SWAP1 SWAP5 AND PUSH3 0x10000 MUL PUSH1 0x1 PUSH1 0x1 PUSH1 0x60 SHL SUB NOT SWAP1 SWAP4 AND SWAP5 AND SWAP4 SWAP1 SWAP4 OR OR SWAP4 SWAP1 SWAP4 AND SWAP3 SWAP1 SWAP3 OR SWAP1 SSTORE PUSH1 0xF DUP1 SLOAD PUSH1 0x1 SWAP3 SWAP1 PUSH2 0x1B1D SWAP1 DUP5 SWAP1 PUSH2 0x2EA5 JUMP JUMPDEST SWAP1 SWAP2 SSTORE POP POP PUSH1 0x40 DUP1 MLOAD PUSH1 0x1 PUSH1 0x1 PUSH1 0xA0 SHL SUB DUP5 AND DUP2 MSTORE PUSH1 0x20 DUP2 ADD DUP4 SWAP1 MSTORE TIMESTAMP DUP2 DUP4 ADD MSTORE SWAP1 MLOAD PUSH32 0x6173E4D2D9DD52AAE0ED37AFED3ADCF924A490639B759CA93D32DC43366C17D2 SWAP2 DUP2 SWAP1 SUB PUSH1 0x60 ADD SWAP1 LOG1 POP POP JUMP JUMPDEST PUSH1 0x0 PUSH2 0x1B79 DUP3 PUSH2 0x1D54 JUMP JUMPDEST PUSH1 0xFF AND SWAP1 POP DUP1 PUSH1 0x7 PUSH1 0x0 DUP3 DUP3 SLOAD PUSH2 0x1B90 SWAP2 SWAP1 PUSH2 0x2EA5 JUMP JUMPDEST SWAP1 SWAP2 SSTORE POP POP PUSH1 0x0 DUP2 DUP2 MSTORE PUSH1 0x4 PUSH1 0x20 DUP2 DUP2 MSTORE PUSH1 0x40 DUP1 DUP5 KECCAK256 DUP1 SLOAD DUP8 DUP7 MSTORE PUSH1 0x5 DUP5 MSTORE DUP3 DUP7 KECCAK256 DUP2 SWAP1 SSTORE SWAP4 DUP4 MSTORE DUP2 MLOAD PUSH1 0x60 DUP1 DUP3 ADD DUP5 MSTORE PUSH2 0xFFFF DUP1 DUP11 AND DUP4 MSTORE PUSH1 0x9 DUP1 SLOAD PUSH1 0x1 PUSH1 0x1 PUSH1 0x50 SHL SUB SWAP1 DUP2 AND DUP6 DUP10 ADD SWAP1 DUP2 MSTORE PUSH1 0x1 PUSH1 0x1 PUSH1 0xA0 SHL SUB DUP15 DUP2 AND DUP8 DUP11 ADD DUP2 DUP2 MSTORE PUSH1 0x1 DUP14 ADD DUP11 SSTORE SWAP9 DUP14 MSTORE SWAP12 DUP11 SWAP1 KECCAK256 SWAP7 MLOAD SWAP7 SWAP1 SWAP11 ADD DUP1 SLOAD SWAP2 MLOAD SWAP8 MLOAD SWAP7 SWAP1 SWAP5 AND PUSH1 0x1 PUSH1 0x1 PUSH1 0x60 SHL SUB NOT SWAP1 SWAP2 AND OR PUSH3 0x10000 SWAP7 SWAP1 SWAP2 AND SWAP6 SWAP1 SWAP6 MUL SWAP5 SWAP1 SWAP5 OR PUSH1 0x1 PUSH1 0x1 PUSH1 0x60 SHL SUB AND PUSH1 0x1 PUSH1 0x60 SHL SWAP4 SWAP1 SWAP8 AND SWAP3 SWAP1 SWAP3 MUL SWAP6 SWAP1 SWAP6 OR SWAP1 SSTORE SLOAD DUP2 MLOAD SWAP5 DUP6 MSTORE SWAP2 DUP5 ADD DUP7 SWAP1 MSTORE DUP4 ADD MSTORE PUSH32 0x6173E4D2D9DD52AAE0ED37AFED3ADCF924A490639B759CA93D32DC43366C17D2 SWAP2 ADD JUMPDEST PUSH1 0x40 MLOAD DUP1 SWAP2 SUB SWAP1 LOG1 POP POP POP JUMP JUMPDEST PUSH1 0x1 PUSH1 0x1 PUSH1 0xA0 SHL SUB DUP3 AND PUSH1 0x0 SWAP1 DUP2 MSTORE PUSH1 0x6 PUSH1 0x20 MSTORE PUSH1 0x40 DUP2 KECCAK256 SWAP1 JUMPDEST DUP2 SLOAD DUP2 LT ISZERO PUSH2 0x1801 JUMPI DUP3 DUP3 DUP3 DUP2 SLOAD DUP2 LT PUSH2 0x1CBB JUMPI PUSH2 0x1CBB PUSH2 0x2D57 JUMP JUMPDEST SWAP1 PUSH1 0x0 MSTORE PUSH1 0x20 PUSH1 0x0 KECCAK256 ADD SLOAD EQ ISZERO PUSH2 0x1D42 JUMPI DUP2 SLOAD DUP3 SWAP1 PUSH2 0x1CDC SWAP1 PUSH1 0x1 SWAP1 PUSH2 0x2E2F JUMP JUMPDEST DUP2 SLOAD DUP2 LT PUSH2 0x1CEC JUMPI PUSH2 0x1CEC PUSH2 0x2D57 JUMP JUMPDEST SWAP1 PUSH1 0x0 MSTORE PUSH1 0x20 PUSH1 0x0 KECCAK256 ADD SLOAD DUP3 DUP3 DUP2 SLOAD DUP2 LT PUSH2 0x1D09 JUMPI PUSH2 0x1D09 PUSH2 0x2D57 JUMP JUMPDEST SWAP1 PUSH1 0x0 MSTORE PUSH1 0x20 PUSH1 0x0 KECCAK256 ADD DUP2 SWAP1 SSTORE POP DUP2 DUP1 SLOAD DUP1 PUSH2 0x1D27 JUMPI PUSH2 0x1D27 PUSH2 0x2E46 JUMP JUMPDEST PUSH1 0x1 SWAP1 SUB DUP2 DUP2 SWAP1 PUSH1 0x0 MSTORE PUSH1 0x20 PUSH1 0x0 KECCAK256 ADD PUSH1 0x0 SWAP1 SSTORE SWAP1 SSTORE PUSH2 0x1801 JUMP JUMPDEST DUP1 PUSH2 0x1D4C DUP2 PUSH2 0x2DC4 JUMP JUMPDEST SWAP2 POP POP PUSH2 0x1C9F JUMP JUMPDEST PUSH1 0x1 SLOAD PUSH1 0x40 MLOAD PUSH4 0xE05C57BF PUSH1 0xE0 SHL DUP2 MSTORE PUSH1 0x4 DUP2 ADD DUP4 SWAP1 MSTORE PUSH1 0x0 SWAP2 DUP3 SWAP2 PUSH1 0x1 PUSH1 0x1 PUSH1 0xA0 SHL SUB SWAP1 SWAP2 AND SWAP1 PUSH4 0xE05C57BF SWAP1 PUSH1 0x24 ADD PUSH2 0x120 PUSH1 0x40 MLOAD DUP1 DUP4 SUB DUP2 DUP7 GAS STATICCALL ISZERO DUP1 ISZERO PUSH2 0x1DA3 JUMPI RETURNDATASIZE PUSH1 0x0 DUP1 RETURNDATACOPY RETURNDATASIZE PUSH1 0x0 REVERT JUMPDEST POP POP POP POP PUSH1 0x40 MLOAD RETURNDATASIZE PUSH1 0x1F NOT PUSH1 0x1F DUP3 ADD AND DUP3 ADD DUP1 PUSH1 0x40 MSTORE POP DUP2 ADD SWAP1 PUSH2 0x1DC7 SWAP2 SWAP1 PUSH2 0x2C26 JUMP JUMPDEST SWAP9 POP POP POP POP POP POP POP POP POP DUP1 PUSH1 0x8 PUSH2 0x1DDE SWAP2 SWAP1 PUSH2 0x2ED1 JUMP JUMPDEST SWAP4 SWAP3 POP POP POP JUMP JUMPDEST PUSH1 0x0 DUP3 DUP2 MSTORE PUSH1 0x3 PUSH1 0x20 SWAP1 DUP2 MSTORE PUSH1 0x40 DUP1 DUP4 KECCAK256 DUP2 MLOAD PUSH1 0x60 DUP2 ADD DUP4 MSTORE SWAP1 SLOAD PUSH2 0xFFFF DUP2 AND DUP3 MSTORE PUSH3 0x10000 DUP2 DIV PUSH1 0x1 PUSH1 0x1 PUSH1 0x50 SHL SUB AND SWAP4 DUP3 ADD SWAP4 SWAP1 SWAP4 MSTORE PUSH1 0x1 PUSH1 0x60 SHL SWAP1 SWAP3 DIV PUSH1 0x1 PUSH1 0x1 PUSH1 0xA0 SHL SUB AND SWAP1 DUP3 ADD DUP2 SWAP1 MSTORE CALLER EQ PUSH2 0x1E52 JUMPI PUSH1 0x40 MLOAD PUSH3 0x461BCD PUSH1 0xE5 SHL DUP2 MSTORE PUSH1 0x4 ADD PUSH2 0x69F SWAP1 PUSH2 0x2DDF JUMP JUMPDEST DUP3 DUP1 ISZERO PUSH2 0x1E77 JUMPI POP PUSH1 0xB SLOAD PUSH1 0x20 DUP3 ADD MLOAD PUSH2 0x1E75 SWAP1 PUSH1 0x1 PUSH1 0x1 PUSH1 0x50 SHL SUB AND TIMESTAMP PUSH2 0x2E2F JUMP JUMPDEST LT JUMPDEST ISZERO PUSH2 0x1ED0 JUMPI PUSH1 0x40 MLOAD PUSH3 0x461BCD PUSH1 0xE5 SHL DUP2 MSTORE PUSH1 0x20 PUSH1 0x4 DUP3 ADD MSTORE PUSH1 0x24 DUP1 DUP3 ADD MSTORE PUSH32 0x474F4E4E4120424520434F4C4420574954484F55542054574F20444159275320 PUSH1 0x44 DUP3 ADD MSTORE PUSH4 0x1313D3D5 PUSH1 0xE2 SHL PUSH1 0x64 DUP3 ADD MSTORE PUSH1 0x84 ADD PUSH2 0x69F JUMP JUMPDEST PUSH12 0x7C13BC4B2C133C560000000 PUSH1 0xE SLOAD LT ISZERO PUSH2 0x1F1F JUMPI PUSH1 0x3C PUSH1 0xA SLOAD DUP3 PUSH1 0x20 ADD MLOAD PUSH1 0x1 PUSH1 0x1 PUSH1 0x50 SHL SUB AND TIMESTAMP PUSH2 0x1F04 SWAP2 SWAP1 PUSH2 0x2E2F JUMP JUMPDEST PUSH2 0x1F0E SWAP2 SWAP1 PUSH2 0x2E5C JUMP JUMPDEST PUSH2 0x1F18 SWAP2 SWAP1 PUSH2 0x2E91 JUMP JUMPDEST SWAP2 POP PUSH2 0x1F76 JUMP JUMPDEST PUSH1 0x10 SLOAD DUP2 PUSH1 0x20 ADD MLOAD PUSH1 0x1 PUSH1 0x1 PUSH1 0x50 SHL SUB AND GT ISZERO PUSH2 0x1F3F JUMPI PUSH1 0x0 SWAP2 POP PUSH2 0x1F76 JUMP JUMPDEST PUSH1 0x3C PUSH1 0xA SLOAD DUP3 PUSH1 0x20 ADD MLOAD PUSH1 0x1 PUSH1 0x1 PUSH1 0x50 SHL SUB AND PUSH1 0x10 SLOAD PUSH2 0x1F5F SWAP2 SWAP1 PUSH2 0x2E2F JUMP JUMPDEST PUSH2 0x1F69 SWAP2 SWAP1 PUSH2 0x2E5C JUMP JUMPDEST PUSH2 0x1F73 SWAP2 SWAP1 PUSH2 0x2E91 JUMP JUMPDEST SWAP2 POP JUMPDEST DUP3 ISZERO PUSH2 0x203D JUMPI PUSH2 0x1F86 CALLER DUP6 PUSH2 0x1C85 JUMP JUMPDEST PUSH2 0x1F8F DUP5 PUSH2 0x2776 JUMP JUMPDEST PUSH1 0x1 AND PUSH1 0x1 EQ ISZERO PUSH2 0x1FA8 JUMPI PUSH2 0x1FA3 DUP3 PUSH2 0x28BA JUMP JUMPDEST PUSH1 0x0 SWAP2 POP JUMPDEST PUSH1 0x1 SLOAD PUSH1 0x1 PUSH1 0x1 PUSH1 0xA0 SHL SUB AND PUSH4 0x23B872DD ADDRESS CALLER DUP8 PUSH1 0x40 MLOAD DUP5 PUSH4 0xFFFFFFFF AND PUSH1 0xE0 SHL DUP2 MSTORE PUSH1 0x4 ADD PUSH2 0x1FDA SWAP4 SWAP3 SWAP2 SWAP1 PUSH2 0x2E0B JUMP JUMPDEST PUSH1 0x0 PUSH1 0x40 MLOAD DUP1 DUP4 SUB DUP2 PUSH1 0x0 DUP8 DUP1 EXTCODESIZE ISZERO DUP1 ISZERO PUSH2 0x1FF4 JUMPI PUSH1 0x0 DUP1 REVERT JUMPDEST POP GAS CALL ISZERO DUP1 ISZERO PUSH2 0x2008 JUMPI RETURNDATASIZE PUSH1 0x0 DUP1 RETURNDATACOPY RETURNDATASIZE PUSH1 0x0 REVERT JUMPDEST POP POP POP PUSH1 0x0 DUP6 DUP2 MSTORE PUSH1 0x3 PUSH1 0x20 MSTORE PUSH1 0x40 DUP2 KECCAK256 DUP2 SWAP1 SSTORE PUSH1 0xF DUP1 SLOAD PUSH1 0x1 SWAP4 POP SWAP1 SWAP2 SWAP1 PUSH2 0x2032 SWAP1 DUP5 SWAP1 PUSH2 0x2E2F JUMP JUMPDEST SWAP1 SWAP2 SSTORE POP PUSH2 0x211A SWAP1 POP JUMP JUMPDEST PUSH2 0x205C PUSH1 0x64 PUSH2 0x204D PUSH1 0x14 DUP6 PUSH2 0x2E5C JUMP JUMPDEST PUSH2 0x2057 SWAP2 SWAP1 PUSH2 0x2E91 JUMP JUMPDEST PUSH2 0x28BA JUMP JUMPDEST PUSH1 0x64 PUSH2 0x2069 PUSH1 0x14 DUP3 PUSH2 0x2E2F JUMP JUMPDEST PUSH2 0x2073 SWAP1 DUP5 PUSH2 0x2E5C JUMP JUMPDEST PUSH2 0x207D SWAP2 SWAP1 PUSH2 0x2E91 JUMP JUMPDEST SWAP2 POP PUSH1 0x40 MLOAD DUP1 PUSH1 0x60 ADD PUSH1 0x40 MSTORE DUP1 DUP6 PUSH2 0xFFFF AND DUP2 MSTORE PUSH1 0x20 ADD TIMESTAMP PUSH1 0x1 PUSH1 0x1 PUSH1 0x50 SHL SUB AND DUP2 MSTORE PUSH1 0x20 ADD PUSH2 0x20AA CALLER SWAP1 JUMP JUMPDEST PUSH1 0x1 PUSH1 0x1 PUSH1 0xA0 SHL SUB SWAP1 DUP2 AND SWAP1 SWAP2 MSTORE PUSH1 0x0 DUP7 DUP2 MSTORE PUSH1 0x3 PUSH1 0x20 SWAP1 DUP2 MSTORE PUSH1 0x40 SWAP2 DUP3 SWAP1 KECCAK256 DUP5 MLOAD DUP2 SLOAD SWAP3 DUP7 ADD MLOAD SWAP6 SWAP1 SWAP4 ADD MLOAD SWAP1 SWAP4 AND PUSH1 0x1 PUSH1 0x60 SHL MUL PUSH1 0x1 PUSH1 0x1 PUSH1 0x60 SHL SUB PUSH1 0x1 PUSH1 0x1 PUSH1 0x50 SHL SUB SWAP1 SWAP6 AND PUSH3 0x10000 MUL PUSH1 0x1 PUSH1 0x1 PUSH1 0x60 SHL SUB NOT SWAP1 SWAP3 AND PUSH2 0xFFFF SWAP1 SWAP4 AND SWAP3 SWAP1 SWAP3 OR OR SWAP3 SWAP1 SWAP3 AND SWAP2 SWAP1 SWAP2 OR SWAP1 SSTORE JUMPDEST PUSH1 0x40 DUP1 MLOAD DUP6 DUP2 MSTORE PUSH1 0x20 DUP2 ADD DUP5 SWAP1 MSTORE DUP5 ISZERO ISZERO DUP2 DUP4 ADD MSTORE SWAP1 MLOAD PUSH32 0x77EEECEEB03A054C3BB2BF8E5B43D03BED962C2351FB292CF68FEDCA9F6A82A2 SWAP2 DUP2 SWAP1 SUB PUSH1 0x60 ADD SWAP1 LOG1 POP SWAP3 SWAP2 POP POP JUMP JUMPDEST PUSH1 0x1 SLOAD PUSH1 0x40 MLOAD PUSH4 0x31A9108F PUSH1 0xE1 SHL DUP2 MSTORE PUSH1 0x4 DUP2 ADD DUP5 SWAP1 MSTORE PUSH1 0x0 SWAP2 ADDRESS SWAP2 PUSH1 0x1 PUSH1 0x1 PUSH1 0xA0 SHL SUB SWAP1 SWAP2 AND SWAP1 PUSH4 0x6352211E SWAP1 PUSH1 0x24 ADD PUSH1 0x20 PUSH1 0x40 MLOAD DUP1 DUP4 SUB DUP2 DUP7 GAS STATICCALL ISZERO DUP1 ISZERO PUSH2 0x21B0 JUMPI RETURNDATASIZE PUSH1 0x0 DUP1 RETURNDATACOPY RETURNDATASIZE PUSH1 0x0 REVERT JUMPDEST POP POP POP POP PUSH1 0x40 MLOAD RETURNDATASIZE PUSH1 0x1F NOT PUSH1 0x1F DUP3 ADD AND DUP3 ADD DUP1 PUSH1 0x40 MSTORE POP DUP2 ADD SWAP1 PUSH2 0x21D4 SWAP2 SWAP1 PUSH2 0x2D91 JUMP JUMPDEST PUSH1 0x1 PUSH1 0x1 PUSH1 0xA0 SHL SUB AND EQ PUSH2 0x222A JUMPI PUSH1 0x40 MLOAD PUSH3 0x461BCD PUSH1 0xE5 SHL DUP2 MSTORE PUSH1 0x20 PUSH1 0x4 DUP3 ADD MSTORE PUSH1 0x17 PUSH1 0x24 DUP3 ADD MSTORE PUSH32 0x41494E5420412050415254204F4620544845205041434B000000000000000000 PUSH1 0x44 DUP3 ADD MSTORE PUSH1 0x64 ADD PUSH2 0x69F JUMP JUMPDEST PUSH1 0x0 PUSH2 0x2235 DUP5 PUSH2 0x1D54 JUMP JUMPDEST PUSH1 0xFF AND PUSH1 0x0 DUP2 DUP2 MSTORE PUSH1 0x4 PUSH1 0x20 SWAP1 DUP2 MSTORE PUSH1 0x40 DUP1 DUP4 KECCAK256 DUP9 DUP5 MSTORE PUSH1 0x5 SWAP1 SWAP3 MSTORE DUP3 KECCAK256 SLOAD DUP2 SLOAD SWAP4 SWAP5 POP SWAP2 SWAP3 SWAP1 SWAP2 SWAP1 DUP2 LT PUSH2 0x226C JUMPI PUSH2 0x226C PUSH2 0x2D57 JUMP JUMPDEST PUSH1 0x0 SWAP2 DUP3 MSTORE PUSH1 0x20 SWAP2 DUP3 SWAP1 KECCAK256 PUSH1 0x40 DUP1 MLOAD PUSH1 0x60 DUP2 ADD DUP3 MSTORE SWAP3 SWAP1 SWAP2 ADD SLOAD PUSH2 0xFFFF DUP2 AND DUP4 MSTORE PUSH3 0x10000 DUP2 DIV PUSH1 0x1 PUSH1 0x1 PUSH1 0x50 SHL SUB AND SWAP4 DUP4 ADD SWAP4 SWAP1 SWAP4 MSTORE PUSH1 0x1 PUSH1 0x60 SHL SWAP1 SWAP3 DIV PUSH1 0x1 PUSH1 0x1 PUSH1 0xA0 SHL SUB AND SWAP2 DUP2 ADD DUP3 SWAP1 MSTORE SWAP2 POP CALLER EQ PUSH2 0x22DA JUMPI PUSH1 0x40 MLOAD PUSH3 0x461BCD PUSH1 0xE5 SHL DUP2 MSTORE PUSH1 0x4 ADD PUSH2 0x69F SWAP1 PUSH2 0x2DDF JUMP JUMPDEST DUP1 PUSH1 0x20 ADD MLOAD PUSH1 0x1 PUSH1 0x1 PUSH1 0x50 SHL SUB AND PUSH1 0x9 SLOAD PUSH2 0x22F5 SWAP2 SWAP1 PUSH2 0x2E2F JUMP JUMPDEST PUSH2 0x22FF SWAP1 DUP4 PUSH2 0x2E5C JUMP JUMPDEST SWAP3 POP DUP4 ISZERO PUSH2 0x24E6 JUMPI PUSH2 0x2310 CALLER PUSH2 0xC0C JUMP JUMPDEST DUP2 PUSH1 0x7 PUSH1 0x0 DUP3 DUP3 SLOAD PUSH2 0x2322 SWAP2 SWAP1 PUSH2 0x2E2F JUMP JUMPDEST SWAP1 SWAP2 SSTORE POP POP PUSH1 0x1 SLOAD PUSH1 0x1 PUSH1 0x1 PUSH1 0xA0 SHL SUB AND PUSH4 0x23B872DD ADDRESS CALLER DUP9 PUSH1 0x40 MLOAD DUP5 PUSH4 0xFFFFFFFF AND PUSH1 0xE0 SHL DUP2 MSTORE PUSH1 0x4 ADD PUSH2 0x2359 SWAP4 SWAP3 SWAP2 SWAP1 PUSH2 0x2E0B JUMP JUMPDEST PUSH1 0x0 PUSH1 0x40 MLOAD DUP1 DUP4 SUB DUP2 PUSH1 0x0 DUP8 DUP1 EXTCODESIZE ISZERO DUP1 ISZERO PUSH2 0x2373 JUMPI PUSH1 0x0 DUP1 REVERT JUMPDEST POP GAS CALL ISZERO DUP1 ISZERO PUSH2 0x2387 JUMPI RETURNDATASIZE PUSH1 0x0 DUP1 RETURNDATACOPY RETURNDATASIZE PUSH1 0x0 REVERT JUMPDEST POP POP POP PUSH1 0x0 DUP4 DUP2 MSTORE PUSH1 0x4 PUSH1 0x20 MSTORE PUSH1 0x40 DUP2 KECCAK256 DUP1 SLOAD SWAP2 SWAP3 POP SWAP1 PUSH2 0x23AA SWAP1 PUSH1 0x1 SWAP1 PUSH2 0x2E2F JUMP JUMPDEST DUP2 SLOAD DUP2 LT PUSH2 0x23BA JUMPI PUSH2 0x23BA PUSH2 0x2D57 JUMP JUMPDEST PUSH1 0x0 SWAP2 DUP3 MSTORE PUSH1 0x20 DUP1 DUP4 KECCAK256 PUSH1 0x40 DUP1 MLOAD PUSH1 0x60 DUP2 ADD DUP3 MSTORE SWAP4 SWAP1 SWAP2 ADD SLOAD PUSH2 0xFFFF DUP2 AND DUP5 MSTORE PUSH3 0x10000 DUP2 DIV PUSH1 0x1 PUSH1 0x1 PUSH1 0x50 SHL SUB AND DUP5 DUP5 ADD MSTORE PUSH1 0x1 PUSH1 0x60 SHL SWAP1 DIV PUSH1 0x1 PUSH1 0x1 PUSH1 0xA0 SHL SUB AND DUP4 DUP3 ADD MSTORE DUP7 DUP5 MSTORE PUSH1 0x4 DUP3 MSTORE DUP1 DUP5 KECCAK256 DUP11 DUP6 MSTORE PUSH1 0x5 SWAP1 SWAP3 MSTORE SWAP1 SWAP3 KECCAK256 SLOAD DUP3 SLOAD SWAP2 SWAP4 POP DUP4 SWAP3 SWAP2 DUP2 LT PUSH2 0x242D JUMPI PUSH2 0x242D PUSH2 0x2D57 JUMP JUMPDEST PUSH1 0x0 SWAP2 DUP3 MSTORE PUSH1 0x20 DUP1 DUP4 KECCAK256 DUP5 MLOAD SWAP3 ADD DUP1 SLOAD DUP6 DUP4 ADD MLOAD PUSH1 0x40 SWAP7 DUP8 ADD MLOAD PUSH1 0x1 PUSH1 0x1 PUSH1 0xA0 SHL SUB AND PUSH1 0x1 PUSH1 0x60 SHL MUL PUSH1 0x1 PUSH1 0x1 PUSH1 0x60 SHL SUB PUSH1 0x1 PUSH1 0x1 PUSH1 0x50 SHL SUB SWAP1 SWAP3 AND PUSH3 0x10000 MUL PUSH1 0x1 PUSH1 0x1 PUSH1 0x60 SHL SUB NOT SWAP1 SWAP4 AND PUSH2 0xFFFF SWAP7 DUP8 AND OR SWAP3 SWAP1 SWAP3 OR AND OR SWAP1 SSTORE DUP10 DUP4 MSTORE PUSH1 0x5 DUP2 MSTORE DUP4 DUP4 KECCAK256 SLOAD DUP6 MLOAD SWAP1 SWAP3 AND DUP4 MSTORE DUP4 DUP4 KECCAK256 SWAP2 SWAP1 SWAP2 SSTORE DUP6 DUP3 MSTORE PUSH1 0x4 SWAP1 MSTORE KECCAK256 DUP1 SLOAD DUP1 PUSH2 0x24B9 JUMPI PUSH2 0x24B9 PUSH2 0x2E46 JUMP JUMPDEST PUSH1 0x0 DUP3 DUP2 MSTORE PUSH1 0x20 DUP1 DUP3 KECCAK256 DUP4 ADD PUSH1 0x0 NOT SWAP1 DUP2 ADD DUP4 SWAP1 SSTORE SWAP1 SWAP3 ADD SWAP1 SWAP3 SSTORE DUP8 DUP3 MSTORE PUSH1 0x5 SWAP1 MSTORE PUSH1 0x40 DUP2 KECCAK256 SSTORE POP PUSH2 0x25B2 JUMP JUMPDEST PUSH1 0x40 MLOAD DUP1 PUSH1 0x60 ADD PUSH1 0x40 MSTORE DUP1 DUP7 PUSH2 0xFFFF AND DUP2 MSTORE PUSH1 0x20 ADD PUSH1 0x9 SLOAD PUSH1 0x1 PUSH1 0x1 PUSH1 0x50 SHL SUB AND DUP2 MSTORE PUSH1 0x20 ADD PUSH2 0x2513 CALLER SWAP1 JUMP JUMPDEST PUSH1 0x1 PUSH1 0x1 PUSH1 0xA0 SHL SUB AND SWAP1 MSTORE PUSH1 0x0 DUP4 DUP2 MSTORE PUSH1 0x4 PUSH1 0x20 SWAP1 DUP2 MSTORE PUSH1 0x40 DUP1 DUP4 KECCAK256 DUP10 DUP5 MSTORE PUSH1 0x5 SWAP1 SWAP3 MSTORE SWAP1 SWAP2 KECCAK256 SLOAD DUP2 SLOAD DUP2 LT PUSH2 0x254B JUMPI PUSH2 0x254B PUSH2 0x2D57 JUMP JUMPDEST PUSH1 0x0 SWAP2 DUP3 MSTORE PUSH1 0x20 SWAP2 DUP3 SWAP1 KECCAK256 DUP4 MLOAD SWAP2 ADD DUP1 SLOAD SWAP3 DUP5 ADD MLOAD PUSH1 0x40 SWAP1 SWAP5 ADD MLOAD PUSH1 0x1 PUSH1 0x1 PUSH1 0xA0 SHL SUB AND PUSH1 0x1 PUSH1 0x60 SHL MUL PUSH1 0x1 PUSH1 0x1 PUSH1 0x60 SHL SUB PUSH1 0x1 PUSH1 0x1 PUSH1 0x50 SHL SUB SWAP1 SWAP6 AND PUSH3 0x10000 MUL PUSH1 0x1 PUSH1 0x1 PUSH1 0x60 SHL SUB NOT SWAP1 SWAP5 AND PUSH2 0xFFFF SWAP1 SWAP4 AND SWAP3 SWAP1 SWAP3 OR SWAP3 SWAP1 SWAP3 OR SWAP3 SWAP1 SWAP3 AND SWAP2 SWAP1 SWAP2 OR SWAP1 SSTORE JUMPDEST PUSH1 0x40 DUP1 MLOAD DUP7 DUP2 MSTORE PUSH1 0x20 DUP2 ADD DUP6 SWAP1 MSTORE DUP6 ISZERO ISZERO DUP2 DUP4 ADD MSTORE SWAP1 MLOAD PUSH32 0x34478FBE5499EED4DBE01A401AD9153550F5F43C8818D1DC1D745CB4B81BA290 SWAP2 DUP2 SWAP1 SUB PUSH1 0x60 ADD SWAP1 LOG1 POP POP SWAP3 SWAP2 POP POP JUMP JUMPDEST PUSH1 0x3C PUSH1 0xA SLOAD PUSH1 0xF SLOAD PUSH1 0x10 SLOAD DUP5 PUSH2 0x2611 SWAP2 SWAP1 PUSH2 0x2E2F JUMP JUMPDEST PUSH2 0x261B SWAP2 SWAP1 PUSH2 0x2E5C JUMP JUMPDEST PUSH2 0x2625 SWAP2 SWAP1 PUSH2 0x2E5C JUMP JUMPDEST PUSH2 0x262F SWAP2 SWAP1 PUSH2 0x2E91 JUMP JUMPDEST PUSH1 0xE PUSH1 0x0 DUP3 DUP3 SLOAD PUSH2 0x2640 SWAP2 SWAP1 PUSH2 0x2EA5 JUMP JUMPDEST SWAP1 SWAP2 SSTORE POP POP PUSH1 0x40 DUP1 MLOAD PUSH1 0x60 DUP2 ADD DUP3 MSTORE PUSH2 0xFFFF DUP1 DUP6 AND DUP3 MSTORE PUSH1 0x1 PUSH1 0x1 PUSH1 0x50 SHL SUB DUP1 DUP6 AND PUSH1 0x20 DUP1 DUP6 ADD SWAP2 DUP3 MSTORE PUSH1 0x1 PUSH1 0x1 PUSH1 0xA0 SHL SUB DUP1 DUP11 AND DUP7 DUP9 ADD SWAP1 DUP2 MSTORE PUSH1 0x0 DUP11 DUP2 MSTORE PUSH1 0x3 SWAP1 SWAP4 MSTORE SWAP7 DUP3 KECCAK256 SWAP6 MLOAD DUP7 SLOAD SWAP4 MLOAD SWAP8 MLOAD SWAP1 SWAP2 AND PUSH1 0x1 PUSH1 0x60 SHL MUL PUSH1 0x1 PUSH1 0x1 PUSH1 0x60 SHL SUB SWAP8 SWAP1 SWAP5 AND PUSH3 0x10000 MUL PUSH1 0x1 PUSH1 0x1 PUSH1 0x60 SHL SUB NOT SWAP1 SWAP4 AND SWAP5 AND SWAP4 SWAP1 SWAP4 OR OR SWAP4 SWAP1 SWAP4 AND SWAP3 SWAP1 SWAP3 OR SWAP1 SSTORE PUSH1 0xF DUP1 SLOAD PUSH1 0x1 SWAP3 SWAP1 PUSH2 0x26DA SWAP1 DUP5 SWAP1 PUSH2 0x2EA5 JUMP JUMPDEST SWAP1 SWAP2 SSTORE POP POP PUSH1 0x40 DUP1 MLOAD PUSH1 0x1 PUSH1 0x1 PUSH1 0xA0 SHL SUB DUP6 AND DUP2 MSTORE PUSH1 0x20 DUP2 ADD DUP5 SWAP1 MSTORE SWAP1 DUP2 ADD DUP3 SWAP1 MSTORE PUSH32 0x6173E4D2D9DD52AAE0ED37AFED3ADCF924A490639B759CA93D32DC43366C17D2 SWAP1 PUSH1 0x60 ADD PUSH2 0x1C78 JUMP JUMPDEST PUSH1 0x0 DUP1 SLOAD PUSH1 0x1 PUSH1 0x1 PUSH1 0xA0 SHL SUB DUP4 DUP2 AND PUSH1 0x1 PUSH1 0x1 PUSH1 0xA0 SHL SUB NOT DUP4 AND DUP2 OR DUP5 SSTORE PUSH1 0x40 MLOAD SWAP2 SWAP1 SWAP3 AND SWAP3 DUP4 SWAP2 PUSH32 0x8BE0079C531659141344CD1FD0A4F28419497F9722A3DAAFE3B4186F6B6457E0 SWAP2 SWAP1 LOG3 POP POP JUMP JUMPDEST PUSH1 0x1 SLOAD PUSH1 0x40 DUP1 MLOAD PUSH4 0x644DBB3 PUSH1 0xE1 SHL DUP2 MSTORE SWAP1 MLOAD PUSH1 0x0 SWAP3 PUSH1 0x1 PUSH1 0x1 PUSH1 0xA0 SHL SUB AND SWAP2 PUSH4 0xC89B766 SWAP2 PUSH1 0x4 DUP1 DUP4 ADD SWAP3 PUSH1 0x20 SWAP3 SWAP2 SWAP1 DUP3 SWAP1 SUB ADD DUP2 DUP7 GAS STATICCALL ISZERO DUP1 ISZERO PUSH2 0x27C0 JUMPI RETURNDATASIZE PUSH1 0x0 DUP1 RETURNDATACOPY RETURNDATASIZE PUSH1 0x0 REVERT JUMPDEST POP POP POP POP PUSH1 0x40 MLOAD RETURNDATASIZE PUSH1 0x1F NOT PUSH1 0x1F DUP3 ADD AND DUP3 ADD DUP1 PUSH1 0x40 MSTORE POP DUP2 ADD SWAP1 PUSH2 0x27E4 SWAP2 SWAP1 PUSH2 0x2D91 JUMP JUMPDEST PUSH1 0x1 PUSH1 0x1 PUSH1 0xA0 SHL SUB AND PUSH4 0x7D94792A PUSH1 0x40 MLOAD DUP2 PUSH4 0xFFFFFFFF AND PUSH1 0xE0 SHL DUP2 MSTORE PUSH1 0x4 ADD PUSH1 0x20 PUSH1 0x40 MLOAD DUP1 DUP4 SUB DUP2 DUP7 GAS STATICCALL ISZERO DUP1 ISZERO PUSH2 0x2821 JUMPI RETURNDATASIZE PUSH1 0x0 DUP1 RETURNDATACOPY RETURNDATASIZE PUSH1 0x0 REVERT JUMPDEST POP POP POP POP PUSH1 0x40 MLOAD RETURNDATASIZE PUSH1 0x1F NOT PUSH1 0x1F DUP3 ADD AND DUP3 ADD DUP1 PUSH1 0x40 MSTORE POP DUP2 ADD SWAP1 PUSH2 0x2845 SWAP2 SWAP1 PUSH2 0x2EF4 JUMP JUMPDEST ORIGIN PUSH2 0x2851 PUSH1 0x1 NUMBER PUSH2 0x2E2F JUMP JUMPDEST PUSH1 0xF SLOAD PUSH1 0x7 SLOAD PUSH1 0x10 SLOAD PUSH1 0x40 MLOAD PUSH1 0x60 SWAP6 SWAP1 SWAP6 SHL PUSH1 0x1 PUSH1 0x1 PUSH1 0x60 SHL SUB NOT AND PUSH1 0x20 DUP7 ADD MSTORE SWAP3 BLOCKHASH PUSH1 0x34 DUP6 ADD MSTORE TIMESTAMP PUSH1 0x54 DUP6 ADD MSTORE PUSH1 0x74 DUP5 ADD DUP8 SWAP1 MSTORE PUSH1 0x94 DUP5 ADD SWAP2 SWAP1 SWAP2 MSTORE PUSH1 0xB4 DUP4 ADD MSTORE PUSH1 0xD4 DUP3 ADD MSTORE PUSH1 0xF4 ADD PUSH1 0x40 DUP1 MLOAD PUSH1 0x1F NOT DUP2 DUP5 SUB ADD DUP2 MSTORE SWAP2 SWAP1 MSTORE DUP1 MLOAD PUSH1 0x20 SWAP1 SWAP2 ADD KECCAK256 XOR SWAP3 SWAP2 POP POP JUMP JUMPDEST PUSH1 0x7 SLOAD PUSH2 0x28DB JUMPI DUP1 PUSH1 0x8 PUSH1 0x0 DUP3 DUP3 SLOAD PUSH2 0x28D3 SWAP2 SWAP1 PUSH2 0x2EA5 JUMP JUMPDEST SWAP1 SWAP2 SSTORE POP POP POP JUMP JUMPDEST PUSH1 0x7 SLOAD PUSH1 0x8 SLOAD PUSH2 0x28EB SWAP1 DUP4 PUSH2 0x2EA5 JUMP JUMPDEST PUSH2 0x28F5 SWAP2 SWAP1 PUSH2 0x2E91 JUMP JUMPDEST PUSH1 0x9 PUSH1 0x0 DUP3 DUP3 SLOAD PUSH2 0x2906 SWAP2 SWAP1 PUSH2 0x2EA5 JUMP JUMPDEST SWAP1 SWAP2 SSTORE POP POP PUSH1 0x0 PUSH1 0x8 SSTORE POP JUMP JUMPDEST PUSH1 0x1 PUSH1 0x1 PUSH1 0xA0 SHL SUB DUP2 AND DUP2 EQ PUSH2 0x6F2 JUMPI PUSH1 0x0 DUP1 REVERT JUMPDEST PUSH1 0x0 PUSH1 0x20 DUP3 DUP5 SUB SLT ISZERO PUSH2 0x293A JUMPI PUSH1 0x0 DUP1 REVERT JUMPDEST DUP2 CALLDATALOAD PUSH2 0x1DDE DUP2 PUSH2 0x2913 JUMP JUMPDEST PUSH1 0x20 DUP1 DUP3 MSTORE DUP3 MLOAD DUP3 DUP3 ADD DUP2 SWAP1 MSTORE PUSH1 0x0 SWAP2 SWAP1 DUP5 DUP3 ADD SWAP1 PUSH1 0x40 DUP6 ADD SWAP1 DUP5 JUMPDEST DUP2 DUP2 LT ISZERO PUSH2 0x297D JUMPI DUP4 MLOAD DUP4 MSTORE SWAP3 DUP5 ADD SWAP3 SWAP2 DUP5 ADD SWAP2 PUSH1 0x1 ADD PUSH2 0x2961 JUMP JUMPDEST POP SWAP1 SWAP7 SWAP6 POP POP POP POP POP POP JUMP JUMPDEST PUSH1 0x0 PUSH1 0x20 DUP3 DUP5 SUB SLT ISZERO PUSH2 0x299B JUMPI PUSH1 0x0 DUP1 REVERT JUMPDEST POP CALLDATALOAD SWAP2 SWAP1 POP JUMP JUMPDEST PUSH1 0x0 DUP1 PUSH1 0x0 DUP1 PUSH1 0x0 PUSH1 0x80 DUP7 DUP9 SUB SLT ISZERO PUSH2 0x29BA JUMPI PUSH1 0x0 DUP1 REVERT JUMPDEST DUP6 CALLDATALOAD PUSH2 0x29C5 DUP2 PUSH2 0x2913 JUMP JUMPDEST SWAP5 POP PUSH1 0x20 DUP7 ADD CALLDATALOAD PUSH2 0x29D5 DUP2 PUSH2 0x2913 JUMP JUMPDEST SWAP4 POP PUSH1 0x40 DUP7 ADD CALLDATALOAD SWAP3 POP PUSH1 0x60 DUP7 ADD CALLDATALOAD PUSH8 0xFFFFFFFFFFFFFFFF DUP1 DUP3 GT ISZERO PUSH2 0x29F9 JUMPI PUSH1 0x0 DUP1 REVERT JUMPDEST DUP2 DUP9 ADD SWAP2 POP DUP9 PUSH1 0x1F DUP4 ADD SLT PUSH2 0x2A0D JUMPI PUSH1 0x0 DUP1 REVERT JUMPDEST DUP2 CALLDATALOAD DUP2 DUP2 GT ISZERO PUSH2 0x2A1C JUMPI PUSH1 0x0 DUP1 REVERT JUMPDEST DUP10 PUSH1 0x20 DUP3 DUP6 ADD ADD GT ISZERO PUSH2 0x2A2E JUMPI PUSH1 0x0 DUP1 REVERT JUMPDEST SWAP7 SWAP10 SWAP6 SWAP9 POP SWAP4 SWAP7 POP PUSH1 0x20 ADD SWAP5 SWAP4 SWAP3 POP POP POP JUMP JUMPDEST DUP1 ISZERO ISZERO DUP2 EQ PUSH2 0x6F2 JUMPI PUSH1 0x0 DUP1 REVERT JUMPDEST PUSH1 0x0 PUSH1 0x20 DUP3 DUP5 SUB SLT ISZERO PUSH2 0x2A61 JUMPI PUSH1 0x0 DUP1 REVERT JUMPDEST DUP2 CALLDATALOAD PUSH2 0x1DDE DUP2 PUSH2 0x2A41 JUMP JUMPDEST PUSH1 0x0 DUP1 PUSH1 0x40 DUP4 DUP6 SUB SLT ISZERO PUSH2 0x2A7F JUMPI PUSH1 0x0 DUP1 REVERT JUMPDEST POP POP DUP1 CALLDATALOAD SWAP3 PUSH1 0x20 SWAP1 SWAP2 ADD CALLDATALOAD SWAP2 POP JUMP JUMPDEST PUSH1 0x0 DUP1 DUP4 PUSH1 0x1F DUP5 ADD SLT PUSH2 0x2AA0 JUMPI PUSH1 0x0 DUP1 REVERT JUMPDEST POP DUP2 CALLDATALOAD PUSH8 0xFFFFFFFFFFFFFFFF DUP2 GT ISZERO PUSH2 0x2AB8 JUMPI PUSH1 0x0 DUP1 REVERT JUMPDEST PUSH1 0x20 DUP4 ADD SWAP2 POP DUP4 PUSH1 0x20 DUP3 PUSH1 0x5 SHL DUP6 ADD ADD GT ISZERO PUSH2 0x2AD3 JUMPI PUSH1 0x0 DUP1 REVERT JUMPDEST SWAP3 POP SWAP3 SWAP1 POP JUMP JUMPDEST PUSH1 0x0 DUP1 PUSH1 0x0 PUSH1 0x40 DUP5 DUP7 SUB SLT ISZERO PUSH2 0x2AEF JUMPI PUSH1 0x0 DUP1 REVERT JUMPDEST DUP4 CALLDATALOAD PUSH2 0x2AFA DUP2 PUSH2 0x2913 JUMP JUMPDEST SWAP3 POP PUSH1 0x20 DUP5 ADD CALLDATALOAD PUSH8 0xFFFFFFFFFFFFFFFF DUP2 GT ISZERO PUSH2 0x2B16 JUMPI PUSH1 0x0 DUP1 REVERT JUMPDEST PUSH2 0x2B22 DUP7 DUP3 DUP8 ADD PUSH2 0x2A8E JUMP JUMPDEST SWAP5 SWAP8 SWAP1 SWAP7 POP SWAP4 SWAP5 POP POP POP POP JUMP JUMPDEST PUSH1 0x0 DUP1 PUSH1 0x20 DUP4 DUP6 SUB SLT ISZERO PUSH2 0x2B42 JUMPI PUSH1 0x0 DUP1 REVERT JUMPDEST DUP3 CALLDATALOAD PUSH8 0xFFFFFFFFFFFFFFFF DUP2 GT ISZERO PUSH2 0x2B59 JUMPI PUSH1 0x0 DUP1 REVERT JUMPDEST PUSH2 0x2B65 DUP6 DUP3 DUP7 ADD PUSH2 0x2A8E JUMP JUMPDEST SWAP1 SWAP7 SWAP1 SWAP6 POP SWAP4 POP POP POP POP JUMP JUMPDEST PUSH1 0x0 DUP1 PUSH1 0x0 PUSH1 0x40 DUP5 DUP7 SUB SLT ISZERO PUSH2 0x2B86 JUMPI PUSH1 0x0 DUP1 REVERT JUMPDEST DUP4 CALLDATALOAD PUSH8 0xFFFFFFFFFFFFFFFF DUP2 GT ISZERO PUSH2 0x2B9D JUMPI PUSH1 0x0 DUP1 REVERT JUMPDEST PUSH2 0x2BA9 DUP7 DUP3 DUP8 ADD PUSH2 0x2A8E JUMP JUMPDEST SWAP1 SWAP5 POP SWAP3 POP POP PUSH1 0x20 DUP5 ADD CALLDATALOAD PUSH2 0x2BBD DUP2 PUSH2 0x2A41 JUMP JUMPDEST DUP1 SWAP2 POP POP SWAP3 POP SWAP3 POP SWAP3 JUMP JUMPDEST PUSH1 0x0 DUP1 PUSH1 0x0 DUP1 PUSH1 0x80 DUP6 DUP8 SUB SLT ISZERO PUSH2 0x2BDE JUMPI PUSH1 0x0 DUP1 REVERT JUMPDEST DUP5 CALLDATALOAD SWAP4 POP PUSH1 0x20 DUP6 ADD CALLDATALOAD PUSH2 0x2BF0 DUP2 PUSH2 0x2A41 JUMP JUMPDEST SWAP3 POP PUSH1 0x40 DUP6 ADD CALLDATALOAD PUSH2 0x2C00 DUP2 PUSH2 0x2913 JUMP JUMPDEST SWAP4 SWAP7 SWAP3 SWAP6 POP SWAP3 SWAP4 PUSH1 0x60 ADD CALLDATALOAD SWAP3 POP POP JUMP JUMPDEST DUP1 MLOAD PUSH1 0xFF DUP2 AND DUP2 EQ PUSH2 0x2C21 JUMPI PUSH1 0x0 DUP1 REVERT JUMPDEST SWAP2 SWAP1 POP JUMP JUMPDEST PUSH1 0x0 DUP1 PUSH1 0x0 DUP1 PUSH1 0x0 DUP1 PUSH1 0x0 DUP1 PUSH1 0x0 PUSH2 0x120 DUP11 DUP13 SUB SLT ISZERO PUSH2 0x2C45 JUMPI PUSH1 0x0 DUP1 REVERT JUMPDEST DUP10 MLOAD PUSH2 0x2C50 DUP2 PUSH2 0x2A41 JUMP JUMPDEST SWAP9 POP PUSH2 0x2C5E PUSH1 0x20 DUP12 ADD PUSH2 0x2C10 JUMP JUMPDEST SWAP8 POP PUSH2 0x2C6C PUSH1 0x40 DUP12 ADD PUSH2 0x2C10 JUMP JUMPDEST SWAP7 POP PUSH2 0x2C7A PUSH1 0x60 DUP12 ADD PUSH2 0x2C10 JUMP JUMPDEST SWAP6 POP PUSH2 0x2C88 PUSH1 0x80 DUP12 ADD PUSH2 0x2C10 JUMP JUMPDEST SWAP5 POP PUSH2 0x2C96 PUSH1 0xA0 DUP12 ADD PUSH2 0x2C10 JUMP JUMPDEST SWAP4 POP PUSH2 0x2CA4 PUSH1 0xC0 DUP12 ADD PUSH2 0x2C10 JUMP JUMPDEST SWAP3 POP PUSH2 0x2CB2 PUSH1 0xE0 DUP12 ADD PUSH2 0x2C10 JUMP JUMPDEST SWAP2 POP PUSH2 0x2CC1 PUSH2 0x100 DUP12 ADD PUSH2 0x2C10 JUMP JUMPDEST SWAP1 POP SWAP3 SWAP6 SWAP9 POP SWAP3 SWAP6 SWAP9 POP SWAP3 SWAP6 SWAP9 JUMP JUMPDEST PUSH1 0x20 DUP1 DUP3 MSTORE DUP2 DUP2 ADD MSTORE PUSH32 0x4F776E61626C653A2063616C6C6572206973206E6F7420746865206F776E6572 PUSH1 0x40 DUP3 ADD MSTORE PUSH1 0x60 ADD SWAP1 JUMP JUMPDEST PUSH1 0x20 DUP1 DUP3 MSTORE PUSH1 0x11 SWAP1 DUP3 ADD MSTORE PUSH17 0x14185D5CD958589B194E881C185D5CD959 PUSH1 0x7A SHL PUSH1 0x40 DUP3 ADD MSTORE PUSH1 0x60 ADD SWAP1 JUMP JUMPDEST PUSH1 0x20 DUP1 DUP3 MSTORE PUSH1 0xD SWAP1 DUP3 ADD MSTORE PUSH13 0x4E6F207265656E7472616E6379 PUSH1 0x98 SHL PUSH1 0x40 DUP3 ADD MSTORE PUSH1 0x60 ADD SWAP1 JUMP JUMPDEST PUSH4 0x4E487B71 PUSH1 0xE0 SHL PUSH1 0x0 MSTORE PUSH1 0x32 PUSH1 0x4 MSTORE PUSH1 0x24 PUSH1 0x0 REVERT JUMPDEST PUSH1 0x0 PUSH1 0x20 DUP3 DUP5 SUB SLT ISZERO PUSH2 0x2D7F JUMPI PUSH1 0x0 DUP1 REVERT JUMPDEST DUP2 CALLDATALOAD PUSH2 0xFFFF DUP2 AND DUP2 EQ PUSH2 0x1DDE JUMPI PUSH1 0x0 DUP1 REVERT JUMPDEST PUSH1 0x0 PUSH1 0x20 DUP3 DUP5 SUB SLT ISZERO PUSH2 0x2DA3 JUMPI PUSH1 0x0 DUP1 REVERT JUMPDEST DUP2 MLOAD PUSH2 0x1DDE DUP2 PUSH2 0x2913 JUMP JUMPDEST PUSH4 0x4E487B71 PUSH1 0xE0 SHL PUSH1 0x0 MSTORE PUSH1 0x11 PUSH1 0x4 MSTORE PUSH1 0x24 PUSH1 0x0 REVERT JUMPDEST PUSH1 0x0 PUSH1 0x0 NOT DUP3 EQ ISZERO PUSH2 0x2DD8 JUMPI PUSH2 0x2DD8 PUSH2 0x2DAE JUMP JUMPDEST POP PUSH1 0x1 ADD SWAP1 JUMP JUMPDEST PUSH1 0x20 DUP1 DUP3 MSTORE PUSH1 0x12 SWAP1 DUP3 ADD MSTORE PUSH18 0x5357495045522C204E4F2053574950494E47 PUSH1 0x70 SHL PUSH1 0x40 DUP3 ADD MSTORE PUSH1 0x60 ADD SWAP1 JUMP JUMPDEST PUSH1 0x1 PUSH1 0x1 PUSH1 0xA0 SHL SUB SWAP4 DUP5 AND DUP2 MSTORE SWAP2 SWAP1 SWAP3 AND PUSH1 0x20 DUP3 ADD MSTORE PUSH1 0x40 DUP2 ADD SWAP2 SWAP1 SWAP2 MSTORE PUSH1 0x60 ADD SWAP1 JUMP JUMPDEST PUSH1 0x0 DUP3 DUP3 LT ISZERO PUSH2 0x2E41 JUMPI PUSH2 0x2E41 PUSH2 0x2DAE JUMP JUMPDEST POP SUB SWAP1 JUMP JUMPDEST PUSH4 0x4E487B71 PUSH1 0xE0 SHL PUSH1 0x0 MSTORE PUSH1 0x31 PUSH1 0x4 MSTORE PUSH1 0x24 PUSH1 0x0 REVERT JUMPDEST PUSH1 0x0 DUP2 PUSH1 0x0 NOT DIV DUP4 GT DUP3 ISZERO ISZERO AND ISZERO PUSH2 0x2E76 JUMPI PUSH2 0x2E76 PUSH2 0x2DAE JUMP JUMPDEST POP MUL SWAP1 JUMP JUMPDEST PUSH4 0x4E487B71 PUSH1 0xE0 SHL PUSH1 0x0 MSTORE PUSH1 0x12 PUSH1 0x4 MSTORE PUSH1 0x24 PUSH1 0x0 REVERT JUMPDEST PUSH1 0x0 DUP3 PUSH2 0x2EA0 JUMPI PUSH2 0x2EA0 PUSH2 0x2E7B JUMP JUMPDEST POP DIV SWAP1 JUMP JUMPDEST PUSH1 0x0 DUP3 NOT DUP3 GT ISZERO PUSH2 0x2EB8 JUMPI PUSH2 0x2EB8 PUSH2 0x2DAE JUMP JUMPDEST POP ADD SWAP1 JUMP JUMPDEST PUSH1 0x0 DUP3 PUSH2 0x2ECC JUMPI PUSH2 0x2ECC PUSH2 0x2E7B JUMP JUMPDEST POP MOD SWAP1 JUMP JUMPDEST PUSH1 0x0 PUSH1 0xFF DUP3 AND PUSH1 0xFF DUP5 AND DUP1 DUP3 LT ISZERO PUSH2 0x2EEB JUMPI PUSH2 0x2EEB PUSH2 0x2DAE JUMP JUMPDEST SWAP1 SUB SWAP4 SWAP3 POP POP POP JUMP JUMPDEST PUSH1 0x0 PUSH1 0x20 DUP3 DUP5 SUB SLT ISZERO PUSH2 0x2F06 JUMPI PUSH1 0x0 DUP1 REVERT JUMPDEST POP MLOAD SWAP2 SWAP1 POP JUMP INVALID LOG2 PUSH5 0x6970667358 0x22 SLT KECCAK256 CALLCODE SWAP7 ADD 0x2E SWAP10 0xF8 PC 0xC2 PUSH17 0x549818950D691190DCC124DA34C88C5038 0xF7 RETURNDATACOPY 0xA5 GT 0xE SDIV PUSH5 0x736F6C6343 STOP ADDMOD SIGNEXTEND STOP CALLER "
		},
		"gasEstimates": {
			"creation": {
				"codeDepositCost": "2419800",
				"executionCost": "infinite",
				"totalCost": "infinite"
			},
			"external": {
				"DAILY_LOOT_RATE()": "2331",
				"LOOT_CLAIM_TAX_PERCENTAGE()": "229",
				"MAXIMUM_GLOBAL_LOOT()": "273",
				"MAX_ALPHA()": "294",
				"MINIMUM_TO_EXIT()": "2330",
				"addManyToBankAndPack(address,uint16[])": "infinite",
				"bank(uint256)": "2713",
				"canClaim()": "2454",
				"claimManyFromBankAndPack(uint16[],bool)": "infinite",
				"estimatedRevenuesOf(uint16[])": "infinite",
				"getTokensOf(address)": "infinite",
				"isThief(uint256)": "infinite",
				"lastClaimTimestamp()": "2373",
				"lootPerAlpha()": "2329",
				"onERC721Received(address,address,uint256,bytes)": "infinite",
				"owner()": "2442",
				"pack(uint256,uint256)": "4933",
				"packIndices(uint256)": "2473",
				"paused()": "2388",
				"public_start_time()": "2374",
				"randomPoliceOwner(uint256)": "infinite",
				"rescue(uint256[])": "infinite",
				"rescueEnabled()": "2378",
				"setClaiming(bool)": "26766",
				"setGame(address)": "26772",
				"setOldTokenInfo(uint256,bool,address,uint256)": "infinite",
				"setPaused(bool)": "infinite",
				"setRescueEnabled(bool)": "26753",
				"setSettings(uint256,uint256)": "46724",
				"setSwapper(address)": "26783",
				"swapper()": "2460",
				"totalAlphaStaked()": "2352",
				"totalLootEarned()": "2352",
				"totalThiefStaked()": "2396",
				"transferOwnership(address)": "infinite",
				"unaccountedRewards()": "2350",
				"whitelist_start_time()": "2417"
			},
			"internal": {
				"_add(address,uint256)": "infinite",
				"_addPoliceToPack(address,uint256)": "infinite",
				"_addThiefToBank(address,uint256)": "infinite",
				"_addThiefToBankWithTime(address,uint256,uint256)": "infinite",
				"_alphaForPolice(uint256)": "infinite",
				"_claimPoliceFromPack(uint256,bool)": "infinite",
				"_claimThiefFromBank(uint256,bool)": "infinite",
				"_payPoliceTax(uint256)": "infinite",
				"_remove(address,uint256)": "infinite",
				"random(uint256)": "infinite"
			}
		},
		"methodIdentifiers": {
			"DAILY_LOOT_RATE()": "000d07ce",
			"LOOT_CLAIM_TAX_PERCENTAGE()": "9af69f2f",
			"MAXIMUM_GLOBAL_LOOT()": "8b6a036d",
			"MAX_ALPHA()": "201ef2a4",
			"MINIMUM_TO_EXIT()": "37a386b9",
			"addManyToBankAndPack(address,uint16[])": "5b519142",
			"bank(uint256)": "771f2476",
			"canClaim()": "6dc7a627",
			"claimManyFromBankAndPack(uint16[],bool)": "b40b03d2",
			"estimatedRevenuesOf(uint16[])": "9062ae06",
			"getTokensOf(address)": "0986b210",
			"isThief(uint256)": "0db7af53",
			"lastClaimTimestamp()": "607af397",
			"lootPerAlpha()": "7bde72dc",
			"onERC721Received(address,address,uint256,bytes)": "150b7a02",
			"owner()": "8da5cb5b",
			"pack(uint256,uint256)": "dd55fcb3",
			"packIndices(uint256)": "6f234fb5",
			"paused()": "5c975abb",
			"public_start_time()": "40a8058a",
			"randomPoliceOwner(uint256)": "9e6dee4a",
			"rescue(uint256[])": "6a3ef057",
			"rescueEnabled()": "39db714f",
			"setClaiming(bool)": "9d34b691",
			"setGame(address)": "819912a2",
			"setOldTokenInfo(uint256,bool,address,uint256)": "d5128535",
			"setPaused(bool)": "16c38b3c",
			"setRescueEnabled(bool)": "76531008",
			"setSettings(uint256,uint256)": "37a28979",
			"setSwapper(address)": "9c82f2a4",
			"swapper()": "2b3297f9",
			"totalAlphaStaked()": "6f257875",
			"totalLootEarned()": "1e1d8cf8",
			"totalThiefStaked()": "457e5789",
			"transferOwnership(address)": "f2fde38b",
			"unaccountedRewards()": "c0c472c0",
			"whitelist_start_time()": "a94945bb"
		}
	},
	"abi": [
		{
			"inputs": [
				{
					"internalType": "contract PoliceAndThief",
					"name": "_game",
					"type": "address"
				},
				{
					"internalType": "contract LOOT",
					"name": "_loot",
					"type": "address"
				},
				{
					"internalType": "address",
					"name": "_swapper",
					"type": "address"
				}
			],
			"stateMutability": "nonpayable",
			"type": "constructor"
		},
		{
			"anonymous": false,
			"inputs": [
				{
					"indexed": true,
					"internalType": "address",
					"name": "previousOwner",
					"type": "address"
				},
				{
					"indexed": true,
					"internalType": "address",
					"name": "newOwner",
					"type": "address"
				}
			],
			"name": "OwnershipTransferred",
			"type": "event"
		},
		{
			"anonymous": false,
			"inputs": [
				{
					"indexed": false,
					"internalType": "address",
					"name": "account",
					"type": "address"
				}
			],
			"name": "Paused",
			"type": "event"
		},
		{
			"anonymous": false,
			"inputs": [
				{
					"indexed": false,
					"internalType": "uint256",
					"name": "tokenId",
					"type": "uint256"
				},
				{
					"indexed": false,
					"internalType": "uint256",
					"name": "earned",
					"type": "uint256"
				},
				{
					"indexed": false,
					"internalType": "bool",
					"name": "unstaked",
					"type": "bool"
				}
			],
			"name": "PoliceClaimed",
			"type": "event"
		},
		{
			"anonymous": false,
			"inputs": [
				{
					"indexed": false,
					"internalType": "uint256",
					"name": "tokenId",
					"type": "uint256"
				},
				{
					"indexed": false,
					"internalType": "uint256",
					"name": "earned",
					"type": "uint256"
				},
				{
					"indexed": false,
					"internalType": "bool",
					"name": "unstaked",
					"type": "bool"
				}
			],
			"name": "ThiefClaimed",
			"type": "event"
		},
		{
			"anonymous": false,
			"inputs": [
				{
					"indexed": false,
					"internalType": "address",
					"name": "owner",
					"type": "address"
				},
				{
					"indexed": false,
					"internalType": "uint256",
					"name": "tokenId",
					"type": "uint256"
				},
				{
					"indexed": false,
					"internalType": "uint256",
					"name": "value",
					"type": "uint256"
				}
			],
			"name": "TokenStaked",
			"type": "event"
		},
		{
			"anonymous": false,
			"inputs": [
				{
					"indexed": false,
					"internalType": "address",
					"name": "account",
					"type": "address"
				}
			],
			"name": "Unpaused",
			"type": "event"
		},
		{
			"inputs": [],
			"name": "DAILY_LOOT_RATE",
			"outputs": [
				{
					"internalType": "uint256",
					"name": "",
					"type": "uint256"
				}
			],
			"stateMutability": "view",
			"type": "function"
		},
		{
			"inputs": [],
			"name": "LOOT_CLAIM_TAX_PERCENTAGE",
			"outputs": [
				{
					"internalType": "uint256",
					"name": "",
					"type": "uint256"
				}
			],
			"stateMutability": "view",
			"type": "function"
		},
		{
			"inputs": [],
			"name": "MAXIMUM_GLOBAL_LOOT",
			"outputs": [
				{
					"internalType": "uint256",
					"name": "",
					"type": "uint256"
				}
			],
			"stateMutability": "view",
			"type": "function"
		},
		{
			"inputs": [],
			"name": "MAX_ALPHA",
			"outputs": [
				{
					"internalType": "uint8",
					"name": "",
					"type": "uint8"
				}
			],
			"stateMutability": "view",
			"type": "function"
		},
		{
			"inputs": [],
			"name": "MINIMUM_TO_EXIT",
			"outputs": [
				{
					"internalType": "uint256",
					"name": "",
					"type": "uint256"
				}
			],
			"stateMutability": "view",
			"type": "function"
		},
		{
			"inputs": [
				{
					"internalType": "address",
					"name": "account",
					"type": "address"
				},
				{
					"internalType": "uint16[]",
					"name": "tokenIds",
					"type": "uint16[]"
				}
			],
			"name": "addManyToBankAndPack",
			"outputs": [],
			"stateMutability": "nonpayable",
			"type": "function"
		},
		{
			"inputs": [
				{
					"internalType": "uint256",
					"name": "",
					"type": "uint256"
				}
			],
			"name": "bank",
			"outputs": [
				{
					"internalType": "uint16",
					"name": "tokenId",
					"type": "uint16"
				},
				{
					"internalType": "uint80",
					"name": "value",
					"type": "uint80"
				},
				{
					"internalType": "address",
					"name": "owner",
					"type": "address"
				}
			],
			"stateMutability": "view",
			"type": "function"
		},
		{
			"inputs": [],
			"name": "canClaim",
			"outputs": [
				{
					"internalType": "bool",
					"name": "",
					"type": "bool"
				}
			],
			"stateMutability": "view",
			"type": "function"
		},
		{
			"inputs": [
				{
					"internalType": "uint16[]",
					"name": "tokenIds",
					"type": "uint16[]"
				},
				{
					"internalType": "bool",
					"name": "unstake",
					"type": "bool"
				}
			],
			"name": "claimManyFromBankAndPack",
			"outputs": [],
			"stateMutability": "nonpayable",
			"type": "function"
		},
		{
			"inputs": [
				{
					"internalType": "uint16[]",
					"name": "tokenIds",
					"type": "uint16[]"
				}
			],
			"name": "estimatedRevenuesOf",
			"outputs": [
				{
					"internalType": "uint256",
					"name": "",
					"type": "uint256"
				}
			],
			"stateMutability": "view",
			"type": "function"
		},
		{
			"inputs": [
				{
					"internalType": "address",
					"name": "account",
					"type": "address"
				}
			],
			"name": "getTokensOf",
			"outputs": [
				{
					"internalType": "uint256[]",
					"name": "",
					"type": "uint256[]"
				}
			],
			"stateMutability": "view",
			"type": "function"
		},
		{
			"inputs": [
				{
					"internalType": "uint256",
					"name": "tokenId",
					"type": "uint256"
				}
			],
			"name": "isThief",
			"outputs": [
				{
					"internalType": "bool",
					"name": "thief",
					"type": "bool"
				}
			],
			"stateMutability": "view",
			"type": "function"
		},
		{
			"inputs": [],
			"name": "lastClaimTimestamp",
			"outputs": [
				{
					"internalType": "uint256",
					"name": "",
					"type": "uint256"
				}
			],
			"stateMutability": "view",
			"type": "function"
		},
		{
			"inputs": [],
			"name": "lootPerAlpha",
			"outputs": [
				{
					"internalType": "uint256",
					"name": "",
					"type": "uint256"
				}
			],
			"stateMutability": "view",
			"type": "function"
		},
		{
			"inputs": [
				{
					"internalType": "address",
					"name": "",
					"type": "address"
				},
				{
					"internalType": "address",
					"name": "from",
					"type": "address"
				},
				{
					"internalType": "uint256",
					"name": "",
					"type": "uint256"
				},
				{
					"internalType": "bytes",
					"name": "",
					"type": "bytes"
				}
			],
			"name": "onERC721Received",
			"outputs": [
				{
					"internalType": "bytes4",
					"name": "",
					"type": "bytes4"
				}
			],
			"stateMutability": "pure",
			"type": "function"
		},
		{
			"inputs": [],
			"name": "owner",
			"outputs": [
				{
					"internalType": "address",
					"name": "",
					"type": "address"
				}
			],
			"stateMutability": "view",
			"type": "function"
		},
		{
			"inputs": [
				{
					"internalType": "uint256",
					"name": "",
					"type": "uint256"
				},
				{
					"internalType": "uint256",
					"name": "",
					"type": "uint256"
				}
			],
			"name": "pack",
			"outputs": [
				{
					"internalType": "uint16",
					"name": "tokenId",
					"type": "uint16"
				},
				{
					"internalType": "uint80",
					"name": "value",
					"type": "uint80"
				},
				{
					"internalType": "address",
					"name": "owner",
					"type": "address"
				}
			],
			"stateMutability": "view",
			"type": "function"
		},
		{
			"inputs": [
				{
					"internalType": "uint256",
					"name": "",
					"type": "uint256"
				}
			],
			"name": "packIndices",
			"outputs": [
				{
					"internalType": "uint256",
					"name": "",
					"type": "uint256"
				}
			],
			"stateMutability": "view",
			"type": "function"
		},
		{
			"inputs": [],
			"name": "paused",
			"outputs": [
				{
					"internalType": "bool",
					"name": "",
					"type": "bool"
				}
			],
			"stateMutability": "view",
			"type": "function"
		},
		{
			"inputs": [],
			"name": "public_start_time",
			"outputs": [
				{
					"internalType": "uint256",
					"name": "",
					"type": "uint256"
				}
			],
			"stateMutability": "view",
			"type": "function"
		},
		{
			"inputs": [
				{
					"internalType": "uint256",
					"name": "seed",
					"type": "uint256"
				}
			],
			"name": "randomPoliceOwner",
			"outputs": [
				{
					"internalType": "address",
					"name": "",
					"type": "address"
				}
			],
			"stateMutability": "view",
			"type": "function"
		},
		{
			"inputs": [
				{
					"internalType": "uint256[]",
					"name": "tokenIds",
					"type": "uint256[]"
				}
			],
			"name": "rescue",
			"outputs": [],
			"stateMutability": "nonpayable",
			"type": "function"
		},
		{
			"inputs": [],
			"name": "rescueEnabled",
			"outputs": [
				{
					"internalType": "bool",
					"name": "",
					"type": "bool"
				}
			],
			"stateMutability": "view",
			"type": "function"
		},
		{
			"inputs": [
				{
					"internalType": "bool",
					"name": "_canClaim",
					"type": "bool"
				}
			],
			"name": "setClaiming",
			"outputs": [],
			"stateMutability": "nonpayable",
			"type": "function"
		},
		{
			"inputs": [
				{
					"internalType": "contract PoliceAndThief",
					"name": "_nGame",
					"type": "address"
				}
			],
			"name": "setGame",
			"outputs": [],
			"stateMutability": "nonpayable",
			"type": "function"
		},
		{
			"inputs": [
				{
					"internalType": "uint256",
					"name": "_tokenId",
					"type": "uint256"
				},
				{
					"internalType": "bool",
					"name": "_isThief",
					"type": "bool"
				},
				{
					"internalType": "address",
					"name": "_tokenOwner",
					"type": "address"
				},
				{
					"internalType": "uint256",
					"name": "_value",
					"type": "uint256"
				}
			],
			"name": "setOldTokenInfo",
			"outputs": [],
			"stateMutability": "nonpayable",
			"type": "function"
		},
		{
			"inputs": [
				{
					"internalType": "bool",
					"name": "_paused",
					"type": "bool"
				}
			],
			"name": "setPaused",
			"outputs": [],
			"stateMutability": "nonpayable",
			"type": "function"
		},
		{
			"inputs": [
				{
					"internalType": "bool",
					"name": "_enabled",
					"type": "bool"
				}
			],
			"name": "setRescueEnabled",
			"outputs": [],
			"stateMutability": "nonpayable",
			"type": "function"
		},
		{
			"inputs": [
				{
					"internalType": "uint256",
					"name": "rate",
					"type": "uint256"
				},
				{
					"internalType": "uint256",
					"name": "exit",
					"type": "uint256"
				}
			],
			"name": "setSettings",
			"outputs": [],
			"stateMutability": "nonpayable",
			"type": "function"
		},
		{
			"inputs": [
				{
					"internalType": "address",
					"name": "swp",
					"type": "address"
				}
			],
			"name": "setSwapper",
			"outputs": [],
			"stateMutability": "nonpayable",
			"type": "function"
		},
		{
			"inputs": [],
			"name": "swapper",
			"outputs": [
				{
					"internalType": "address",
					"name": "",
					"type": "address"
				}
			],
			"stateMutability": "view",
			"type": "function"
		},
		{
			"inputs": [],
			"name": "totalAlphaStaked",
			"outputs": [
				{
					"internalType": "uint256",
					"name": "",
					"type": "uint256"
				}
			],
			"stateMutability": "view",
			"type": "function"
		},
		{
			"inputs": [],
			"name": "totalLootEarned",
			"outputs": [
				{
					"internalType": "uint256",
					"name": "",
					"type": "uint256"
				}
			],
			"stateMutability": "view",
			"type": "function"
		},
		{
			"inputs": [],
			"name": "totalThiefStaked",
			"outputs": [
				{
					"internalType": "uint256",
					"name": "",
					"type": "uint256"
				}
			],
			"stateMutability": "view",
			"type": "function"
		},
		{
			"inputs": [
				{
					"internalType": "address",
					"name": "newOwner",
					"type": "address"
				}
			],
			"name": "transferOwnership",
			"outputs": [],
			"stateMutability": "nonpayable",
			"type": "function"
		},
		{
			"inputs": [],
			"name": "unaccountedRewards",
			"outputs": [
				{
					"internalType": "uint256",
					"name": "",
					"type": "uint256"
				}
			],
			"stateMutability": "view",
			"type": "function"
		},
		{
			"inputs": [],
			"name": "whitelist_start_time",
			"outputs": [
				{
					"internalType": "uint256",
					"name": "",
					"type": "uint256"
				}
			],
			"stateMutability": "view",
			"type": "function"
		}
	]
}