{
	"data": {
		"bytecode": {
			"linkReferences": {},
			"object": "60a0604052662386f26fc10000600b556013805460ff60a01b191690553480156200002957600080fd5b50604051620035a1380380620035a18339810160408190526200004c916200024c565b604080518082018252601181527048756d616e73205653205a6f6d6269657360781b602080830191825283518085019094526005845264564952555360d81b908401528151919291620000a2916000916200018d565b508051620000b89060019060208401906200018d565b505050620000d5620000cf6200013760201b60201c565b6200013b565b600a805460ff60a01b1916600160a01b179055601180546001600160a01b038086166001600160a01b031992831617909255601280549285169290911691909117905560808190526200012a60058262000294565b600c5550620002f4915050565b3390565b600a80546001600160a01b038381166001600160a01b0319831681179093556040519116919082907f8be0079c531659141344cd1fd0a4f28419497f9722a3daafe3b4186f6b6457e090600090a35050565b8280546200019b90620002b7565b90600052602060002090601f016020900481019282620001bf57600085556200020a565b82601f10620001da57805160ff19168380011785556200020a565b828001600101855582156200020a579182015b828111156200020a578251825591602001919060010190620001ed565b50620002189291506200021c565b5090565b5b808211156200021857600081556001016200021d565b6001600160a01b03811681146200024957600080fd5b50565b6000806000606084860312156200026257600080fd5b83516200026f8162000233565b6020850151909350620002828162000233565b80925050604084015190509250925092565b600082620002b257634e487b7160e01b600052601260045260246000fd5b500490565b600181811c90821680620002cc57607f821691505b60208210811415620002ee57634e487b7160e01b600052602260045260246000fd5b50919050565b60805161327c62000325600039600081816109a701528181610da001528181610dee0152611226015261327c6000f3fe6080604052600436106102885760003560e01c806370a082311161015a578063b88d4fde116100c1578063e05c57bf1161007a578063e05c57bf1461081a578063e1fc334f146108ec578063e985e9c51461090c578063eb0b445314610955578063f2fde38b14610975578063f47c84c51461099557600080fd5b8063b88d4fde1461076e578063c002d23d1461078e578063c084f540146107a4578063c87b56dd146107ba578063d773826d146107da578063d868f4c0146107fa57600080fd5b80639b7b2ab0116101135780639b7b2ab0146106545780639c82f2a414610674578063a1b8f37414610694578063a22cb465146106c1578063a2b40d19146106e1578063b863bd371461070157600080fd5b806370a082311461059457806376cdb03b146105b457806377f9213a146105d45780638da5cb5b146105f457806394e568471461061257806395d89b411461063f57600080fd5b80632f745c59116101fe5780634f02c420116101b75780634f02c420146104d45780634f6ccce7146105025780635c975abb146105225780636352211e1461054157806367f68fac146105615780636f4f73661461057457600080fd5b80632f745c591461041d5780633431a7531461043d5780633ccfd60b1461045d5780634018b1f81461047257806342842e0e14610487578063438b6300146104a757600080fd5b80630c89b766116102505780630c89b7661461035e57806316c38b3c1461037e57806318160ddd1461039e57806323b872dd146103bd57806327de8f27146103dd5780632b3297f9146103fd57600080fd5b806301ffc9a71461028d57806306fdde03146102c2578063081812fc146102e4578063090d23b91461031c578063095ea7b31461033e575b600080fd5b34801561029957600080fd5b506102ad6102a8366004612a41565b6109c9565b60405190151581526020015b60405180910390f35b3480156102ce57600080fd5b506102d76109f4565b6040516102b99190612a97565b3480156102f057600080fd5b506103046102ff366004612aca565b610a86565b6040516001600160a01b0390911681526020016102b9565b34801561032857600080fd5b5061033c610337366004612af8565b610b20565b005b34801561034a57600080fd5b5061033c610359366004612b15565b610b6c565b34801561036a57600080fd5b50601354610304906001600160a01b031681565b34801561038a57600080fd5b5061033c610399366004612b4f565b610c82565b3480156103aa57600080fd5b506008545b6040519081526020016102b9565b3480156103c957600080fd5b5061033c6103d8366004612b6c565b610cc5565b3480156103e957600080fd5b506103af6103f8366004612aca565b610d86565b34801561040957600080fd5b50601454610304906001600160a01b031681565b34801561042957600080fd5b506103af610438366004612b15565b610e46565b34801561044957600080fd5b5061033c610458366004612aca565b610edc565b34801561046957600080fd5b5061033c610f0b565b34801561047e57600080fd5b50600c546103af565b34801561049357600080fd5b5061033c6104a2366004612b6c565b610f6e565b3480156104b357600080fd5b506104c76104c2366004612af8565b610f89565b6040516102b99190612bad565b3480156104e057600080fd5b50600d546104ef9061ffff1681565b60405161ffff90911681526020016102b9565b34801561050e57600080fd5b506103af61051d366004612aca565b61102b565b34801561052e57600080fd5b50600a54600160a01b900460ff166102ad565b34801561054d57600080fd5b5061030461055c366004612aca565b6110be565b61033c61056f366004612bf1565b611135565b34801561058057600080fd5b5061033c61058f366004612af8565b6116d3565b3480156105a057600080fd5b506103af6105af366004612af8565b61171f565b3480156105c057600080fd5b50601054610304906001600160a01b031681565b3480156105e057600080fd5b506103af6105ef366004612aca565b6117a6565b34801561060057600080fd5b50600a546001600160a01b0316610304565b34801561061e57600080fd5b5061063261062d366004612aca565b611800565b6040516102b99190612c21565b34801561064b57600080fd5b506102d76118a5565b34801561066057600080fd5b50601154610304906001600160a01b031681565b34801561068057600080fd5b5061033c61068f366004612af8565b6118b4565b3480156106a057600080fd5b506103af6106af366004612aca565b600f6020526000908152604090205481565b3480156106cd57600080fd5b5061033c6106dc366004612ccd565b611900565b3480156106ed57600080fd5b5061033c6106fc366004612aca565b6119c5565b34801561070d57600080fd5b506103af61071c366004612aca565b6040516bffffffffffffffffffffffff193260601b1660208201524460348201524260548201526074810182905260009060940160408051601f19818403018152919052805160209091012092915050565b34801561077a57600080fd5b5061033c610789366004612d94565b6119f4565b34801561079a57600080fd5b506103af600b5481565b3480156107b057600080fd5b506103af600c5481565b3480156107c657600080fd5b506102d76107d5366004612aca565b611a2b565b3480156107e657600080fd5b5061033c6107f5366004612af8565b611b1b565b34801561080657600080fd5b50610632610815366004612e43565b611b67565b34801561082657600080fd5b5061089a610835366004612aca565b600e6020526000908152604090205460ff808216916101008104821691620100008204811691630100000081048216916401000000008204811691600160281b8104821691600160301b8204811691600160381b8104821691600160401b9091041689565b604080519915158a5260ff98891660208b01529688169689019690965293861660608801529185166080870152841660a0860152831660c0850152821660e084015216610100820152610120016102b9565b3480156108f857600080fd5b50601254610304906001600160a01b031681565b34801561091857600080fd5b506102ad610927366004612e65565b6001600160a01b03918216600090815260056020908152604080832093909416825291909152205460ff1690565b34801561096157600080fd5b5061033c610970366004612e93565b611c7a565b34801561098157600080fd5b5061033c610990366004612af8565b611e61565b3480156109a157600080fd5b506103af7f000000000000000000000000000000000000000000000000000000000000000081565b60006001600160e01b0319821663780e9d6360e01b14806109ee57506109ee82611ef9565b92915050565b606060008054610a0390612ed5565b80601f0160208091040260200160405190810160405280929190818152602001828054610a2f90612ed5565b8015610a7c5780601f10610a5157610100808354040283529160200191610a7c565b820191906000526020600020905b815481529060010190602001808311610a5f57829003601f168201915b5050505050905090565b6000818152600260205260408120546001600160a01b0316610b045760405162461bcd60e51b815260206004820152602c60248201527f4552433732313a20617070726f76656420717565727920666f72206e6f6e657860448201526b34b9ba32b73a103a37b5b2b760a11b60648201526084015b60405180910390fd5b506000908152600460205260409020546001600160a01b031690565b600a546001600160a01b03163314610b4a5760405162461bcd60e51b8152600401610afb90612f0a565b601080546001600160a01b0319166001600160a01b0392909216919091179055565b6000610b77826110be565b9050806001600160a01b0316836001600160a01b03161415610be55760405162461bcd60e51b815260206004820152602160248201527f4552433732313a20617070726f76616c20746f2063757272656e74206f776e656044820152603960f91b6064820152608401610afb565b336001600160a01b0382161480610c015750610c018133610927565b610c735760405162461bcd60e51b815260206004820152603860248201527f4552433732313a20617070726f76652063616c6c6572206973206e6f74206f7760448201527f6e6572206e6f7220617070726f76656420666f7220616c6c00000000000000006064820152608401610afb565b610c7d8383611f49565b505050565b600a546001600160a01b03163314610cac5760405162461bcd60e51b8152600401610afb90612f0a565b8015610cbd57610cba611fb7565b50565b610cba61205d565b601354600160a01b900460ff1615610d0f5760405162461bcd60e51b815260206004820152600d60248201526c4e6f207265656e7472616e637960981b6044820152606401610afb565b6013805460ff60a01b1916600160a01b1790556010546001600160a01b0316610d353390565b6001600160a01b031614610d6957610d4d33826120e2565b610d695760405162461bcd60e51b8152600401610afb90612f3f565b610d748383836121d9565b50506013805460ff60a01b1916905550565b6000600c548211610d9957506000919050565b6005610dc67f00000000000000000000000000000000000000000000000000000000000000006002612fa6565b610dd09190612fdb565b8211610de7575069043c33c1937564800000919050565b6005610e147f00000000000000000000000000000000000000000000000000000000000000006004612fa6565b610e1e9190612fdb565b8211610e355750690878678326eac9000000919050565b50690cb49b44ba602d800000919050565b6000610e518361171f565b8210610eb35760405162461bcd60e51b815260206004820152602b60248201527f455243373231456e756d657261626c653a206f776e657220696e646578206f7560448201526a74206f6620626f756e647360a81b6064820152608401610afb565b506001600160a01b03919091166000908152600660209081526040808320938352929052205490565b600a546001600160a01b03163314610f065760405162461bcd60e51b8152600401610afb90612f0a565b600c55565b600a546001600160a01b03163314610f355760405162461bcd60e51b8152600401610afb90612f0a565b600a546040516001600160a01b03909116904780156108fc02916000818181858888f19350505050158015610cba573d6000803e3d6000fd5b610c7d838383604051806020016040528060008152506119f4565b60606000610f968361171f565b905060008167ffffffffffffffff811115610fb357610fb3612cfb565b604051908082528060200260200182016040528015610fdc578160200160208202803683370190505b50905060005b8281101561102357610ff48582610e46565b82828151811061100657611006612fef565b60209081029190910101528061101b81613005565b915050610fe2565b509392505050565b600061103660085490565b82106110995760405162461bcd60e51b815260206004820152602c60248201527f455243373231456e756d657261626c653a20676c6f62616c20696e646578206f60448201526b7574206f6620626f756e647360a01b6064820152608401610afb565b600882815481106110ac576110ac612fef565b90600052602060002001549050919050565b6000818152600260205260408120546001600160a01b0316806109ee5760405162461bcd60e51b815260206004820152602960248201527f4552433732313a206f776e657220717565727920666f72206e6f6e657869737460448201526832b73a103a37b5b2b760b91b6064820152608401610afb565b601354600160a01b900460ff161561117f5760405162461bcd60e51b815260206004820152600d60248201526c4e6f207265656e7472616e637960981b6044820152606401610afb565b6013805460ff60a01b1916600160a01b1790556111a6600a5460ff600160a01b9091041690565b156111e75760405162461bcd60e51b815260206004820152601160248201527014185d5cd958589b194e881c185d5cd959607a1b6044820152606401610afb565b3233146112215760405162461bcd60e51b81526020600482015260086024820152674f6e6c7920454f4160c01b6044820152606401610afb565b600d547f00000000000000000000000000000000000000000000000000000000000000009061125590849061ffff16613020565b11156112975760405162461bcd60e51b8152602060048201526011602482015270105b1b081d1bdad95b9cc81b5a5b9d1959607a1b6044820152606401610afb565b6000821180156112a85750601e8211155b6112ea5760405162461bcd60e51b8152602060048201526013602482015272125b9d985b1a59081b5a5b9d08185b5bdd5b9d606a1b6044820152606401610afb565b600c54600d5461ffff1610156113b757600c54600d5461130f90849061ffff16613020565b111561135d5760405162461bcd60e51b815260206004820152601f60248201527f416c6c20746f6b656e73206f6e2d73616c6520616c726561647920736f6c64006044820152606401610afb565b34600b548361136c9190612fa6565b146113b25760405162461bcd60e51b8152602060048201526016602482015275125b9d985b1a59081c185e5b595b9d08185b5bdd5b9d60521b6044820152606401610afb565b6113c2565b34156113c257600080fd5b6000808367ffffffffffffffff8111156113de576113de612cfb565b604051908082528060200260200182016040528015611407578160200160208202803683370190505b50905060008467ffffffffffffffff81111561142557611425612cfb565b60405190808252806020026020018201604052801561144e578160200160208202803683370190505b50600d5490915060009061ffff16815b878110156115aa57600d805461ffff1690600061147a83613038565b82546101009290920a61ffff818102199093169183160217909155600d546114a492501684611b67565b5060006114b084612384565b600d549091506114c39061ffff16610d86565b6114cd9088613020565b96508715806114e557506001600160a01b0381163314155b1561152257808583815181106114fd576114fd612fef565b60200260200101906001600160a01b031690816001600160a01b031681525050611597565b600d54865161ffff9091169087908490811061154057611540612fef565b61ffff9092166020928302919091019091015260105485516001600160a01b039091169086908490811061157657611576612fef565b60200260200101906001600160a01b031690816001600160a01b0316815250505b50806115a281613005565b91505061145e565b508415611624576011546001600160a01b0316639dc29fac336040516001600160e01b031960e084901b1681526001600160a01b03909116600482015260248101889052604401600060405180830381600087803b15801561160b57600080fd5b505af115801561161f573d6000803e3d6000fd5b505050505b60005b83518110156116bc57600061163c8284613020565b611647906001613020565b90508715806116815750336001600160a01b031685838151811061166d5761166d612fef565b60200260200101516001600160a01b031614155b156116a9576116a985838151811061169b5761169b612fef565b602002602001015182612442565b50806116b481613005565b915050611627565b50506013805460ff60a01b19169055505050505050565b600a546001600160a01b031633146116fd5760405162461bcd60e51b8152600401610afb90612f0a565b601280546001600160a01b0319166001600160a01b0392909216919091179055565b60006001600160a01b03821661178a5760405162461bcd60e51b815260206004820152602a60248201527f4552433732313a2062616c616e636520717565727920666f7220746865207a65604482015269726f206164647265737360b01b6064820152608401610afb565b506001600160a01b031660009081526003602052604090205490565b6040516bffffffffffffffffffffffff193260601b166020820152446034820152426054820152607481018290526000906064906094016040516020818303038152906040528051906020012060001c6109ee919061305a565b6118086129f5565b506000908152600e6020908152604091829020825161012081018452905460ff808216151583526101008083048216948401949094526201000082048116948301949094526301000000810484166060830152640100000000810484166080830152600160281b8104841660a0830152600160301b8104841660c0830152600160381b8104841660e0830152600160401b90049092169082015290565b606060018054610a0390612ed5565b600a546001600160a01b031633146118de5760405162461bcd60e51b8152600401610afb90612f0a565b601480546001600160a01b0319166001600160a01b0392909216919091179055565b6001600160a01b0382163314156119595760405162461bcd60e51b815260206004820152601960248201527f4552433732313a20617070726f766520746f2063616c6c6572000000000000006044820152606401610afb565b3360008181526005602090815260408083206001600160a01b03871680855290835292819020805460ff191686151590811790915590519081529192917f17307eab39ab6107e8899845ad3d59bd9653f200f220920489ca2b5937696c31910160405180910390a35050565b600a546001600160a01b031633146119ef5760405162461bcd60e51b8152600401610afb90612f0a565b600b55565b6119fe33836120e2565b611a1a5760405162461bcd60e51b8152600401610afb90612f3f565b611a25848484610cc5565b50505050565b6000818152600260205260409020546060906001600160a01b0316611aaa5760405162461bcd60e51b815260206004820152602f60248201527f4552433732314d657461646174613a2055524920717565727920666f72206e6f60448201526e3732bc34b9ba32b73a103a37b5b2b760891b6064820152608401610afb565b60125460405163c87b56dd60e01b8152600481018490526001600160a01b039091169063c87b56dd90602401600060405180830381865afa158015611af3573d6000803e3d6000fd5b505050506040513d6000823e601f3d908101601f191682016040526109ee919081019061306e565b600a546001600160a01b03163314611b455760405162461bcd60e51b8152600401610afb90612f0a565b601380546001600160a01b0319166001600160a01b0392909216919091179055565b611b6f6129f5565b611b7882612460565b6000938452600e60209081526040948590208251815492840151968401516060850151608086015160a087015160c088015160e0890151610100808b015161ffff19909a1697151561ff0019169790971760ff9d8e169097029690961763ffff0000191662010000958d169590950263ff0000001916949094176301000000938c16939093029290921765ffff000000001916640100000000918b169190910265ff0000000000191617600160281b918a16919091021767ffff0000000000001916600160301b9189169190910260ff60381b191617600160381b918816919091021760ff60401b1916600160401b9690921695909502179093555090919050565b6014546001600160a01b03163314611cc35760405162461bcd60e51b815260206004820152600c60248201526b27b7363c9039bbb0b83832b960a11b6044820152606401610afb565b6040516394e5684760e01b8152600481018390526001600160a01b038416906394e568479060240161012060405180830381865afa158015611d09573d6000803e3d6000fd5b505050506040513d601f19601f82011682018060405250810190611d2d9190613106565b6000838152600e602090815260408083208451815493860151928601516060870151608088015160a089015160c08a015160e08b01516101009b8c015161ffff19909a1696151561ff0019169690961760ff988916909b029a909a1763ffff00001916620100009488169490940263ff0000001916939093176301000000928716929092029190911765ffff0000000019166401000000009186169190910265ff0000000000191617600160281b918516919091021767ffff0000000000001916600160301b9684169690960260ff60381b191695909517600160381b958316959095029490941760ff60401b1916600160401b919092160217909155600d805461ffff1691611e3c83613038565b91906101000a81548161ffff021916908361ffff16021790555050610c7d8183612442565b600a546001600160a01b03163314611e8b5760405162461bcd60e51b8152600401610afb90612f0a565b6001600160a01b038116611ef05760405162461bcd60e51b815260206004820152602660248201527f4f776e61626c653a206e6577206f776e657220697320746865207a65726f206160448201526564647265737360d01b6064820152608401610afb565b610cba81612589565b60006001600160e01b031982166380ac58cd60e01b1480611f2a57506001600160e01b03198216635b5e139f60e01b145b806109ee57506301ffc9a760e01b6001600160e01b03198316146109ee565b600081815260046020526040902080546001600160a01b0319166001600160a01b0384169081179091558190611f7e826110be565b6001600160a01b03167f8c5be1e5ebec7d5bd14f71427d1e84f3dd0314c0f7b2291e5b200ac8c7c3b92560405160405180910390a45050565b600a54600160a01b900460ff16156120055760405162461bcd60e51b815260206004820152601160248201527014185d5cd958589b194e881c185d5cd959607a1b6044820152606401610afb565b600a805460ff60a01b1916600160a01b1790557f62e78cea01bee320cd4e420270b5ea74000d11b0c9f74754ebdbfc544b05a2586120403390565b6040516001600160a01b03909116815260200160405180910390a1565b600a54600160a01b900460ff166120ae5760405162461bcd60e51b815260206004820152601560248201527414185d5cd958589b194e881b9bdd081c185d5cd959605a1b6044820152606401610afb565b600a805460ff60a01b191690557f5db9ee0a495bf2e6ff9c91a7834c1ba4fdd244a5e8aa4e537bd38aeae4b073aa33612040565b6000818152600260205260408120546001600160a01b031661215b5760405162461bcd60e51b815260206004820152602c60248201527f4552433732313a206f70657261746f7220717565727920666f72206e6f6e657860448201526b34b9ba32b73a103a37b5b2b760a11b6064820152608401610afb565b6000612166836110be565b9050806001600160a01b0316846001600160a01b031614806121a15750836001600160a01b031661219684610a86565b6001600160a01b0316145b806121d157506001600160a01b0380821660009081526005602090815260408083209388168352929052205460ff165b949350505050565b826001600160a01b03166121ec826110be565b6001600160a01b0316146122545760405162461bcd60e51b815260206004820152602960248201527f4552433732313a207472616e73666572206f6620746f6b656e2074686174206960448201526839903737ba1037bbb760b91b6064820152608401610afb565b6001600160a01b0382166122b65760405162461bcd60e51b8152602060048201526024808201527f4552433732313a207472616e7366657220746f20746865207a65726f206164646044820152637265737360e01b6064820152608401610afb565b6122c18383836125db565b6122cc600082611f49565b6001600160a01b03831660009081526003602052604081208054600192906122f59084906131bc565b90915550506001600160a01b0382166000908152600360205260408120805460019290612323908490613020565b909155505060008181526002602052604080822080546001600160a01b0319166001600160a01b0386811691821790925591518493918716917fddf252ad1be2c89b69c2b068fc378daa952ba7f163c4a11628f55a4df523b3ef91a4505050565b600c54600d5460009161ffff9091161115806123ad57506123aa600a60f584901c61305a565b15155b156123b857336109ee565b601054604051634f36f72560e11b8152609084901c60048201526000916001600160a01b031690639e6dee4a90602401602060405180830381865afa158015612405573d6000803e3d6000fd5b505050506040513d601f19601f8201168201806040525081019061242991906131d3565b90506001600160a01b0381166109ee57335b9392505050565b61245c828260405180602001604052806000815250612693565b5050565b6124686129f5565b6001815260109190911c90600061248c61ffff841661248783806131f0565b61269d565b60ff16602083015260109290921c916124ae61ffff84166124878360016131f0565b60ff16604083015260109290921c916124d061ffff84166124878360026131f0565b60ff16608083015260109290921c916124f261ffff84166124878360036131f0565b60ff16606083015260109290921c9161251461ffff84166124878360046131f0565b60ff1660e083015260109290921c9161253661ffff84166124878360056131f0565b60ff1660a0830152815160109390931c926125835761255e61ffff84166124878360066131f0565b60ff1660c083015261257961ffff84166124878360076131f0565b60ff166101008301525b50919050565b600a80546001600160a01b038381166001600160a01b0319831681179093556040519116919082907f8be0079c531659141344cd1fd0a4f28419497f9722a3daafe3b4186f6b6457e090600090a35050565b6001600160a01b0383166126365761263181600880546000838152600960205260408120829055600182018355919091527ff3f7a9fe364faab93b216da50a3214154f22a0a2b415b23a84c8169e8b636ee30155565b612659565b816001600160a01b0316836001600160a01b031614612659576126598382612717565b6001600160a01b03821661267057610c7d816127b4565b826001600160a01b0316826001600160a01b031614610c7d57610c7d8282612863565b610c7d83836128a7565b6012546040516353584b4960e11b815261ffff8416600482015260ff831660248201526000916001600160a01b03169063a6b0969290604401602060405180830381865afa1580156126f3573d6000803e3d6000fd5b505050506040513d601f19601f8201168201806040525081019061243b9190613215565b600060016127248461171f565b61272e91906131bc565b600083815260076020526040902054909150808214612781576001600160a01b03841660009081526006602090815260408083208584528252808320548484528184208190558352600790915290208190555b5060009182526007602090815260408084208490556001600160a01b039094168352600681528383209183525290812055565b6008546000906127c6906001906131bc565b600083815260096020526040812054600880549394509092849081106127ee576127ee612fef565b90600052602060002001549050806008838154811061280f5761280f612fef565b600091825260208083209091019290925582815260099091526040808220849055858252812055600880548061284757612847613230565b6001900381819060005260206000200160009055905550505050565b600061286e8361171f565b6001600160a01b039093166000908152600660209081526040808320868452825280832085905593825260079052919091209190915550565b6001600160a01b0382166128fd5760405162461bcd60e51b815260206004820181905260248201527f4552433732313a206d696e7420746f20746865207a65726f20616464726573736044820152606401610afb565b6000818152600260205260409020546001600160a01b0316156129625760405162461bcd60e51b815260206004820152601c60248201527f4552433732313a20746f6b656e20616c7265616479206d696e746564000000006044820152606401610afb565b61296e600083836125db565b6001600160a01b0382166000908152600360205260408120805460019290612997908490613020565b909155505060008181526002602052604080822080546001600160a01b0319166001600160a01b03861690811790915590518392907fddf252ad1be2c89b69c2b068fc378daa952ba7f163c4a11628f55a4df523b3ef908290a45050565b6040805161012081018252600080825260208201819052918101829052606081018290526080810182905260a0810182905260c0810182905260e0810182905261010081019190915290565b600060208284031215612a5357600080fd5b81356001600160e01b03198116811461243b57600080fd5b60005b83811015612a86578181015183820152602001612a6e565b83811115611a255750506000910152565b6020815260008251806020840152612ab6816040850160208701612a6b565b601f01601f19169190910160400192915050565b600060208284031215612adc57600080fd5b5035919050565b6001600160a01b0381168114610cba57600080fd5b600060208284031215612b0a57600080fd5b813561243b81612ae3565b60008060408385031215612b2857600080fd5b8235612b3381612ae3565b946020939093013593505050565b8015158114610cba57600080fd5b600060208284031215612b6157600080fd5b813561243b81612b41565b600080600060608486031215612b8157600080fd5b8335612b8c81612ae3565b92506020840135612b9c81612ae3565b929592945050506040919091013590565b6020808252825182820181905260009190848201906040850190845b81811015612be557835183529284019291840191600101612bc9565b50909695505050505050565b60008060408385031215612c0457600080fd5b823591506020830135612c1681612b41565b809150509250929050565b60006101208201905082511515825260ff60208401511660208301526040830151612c51604084018260ff169052565b506060830151612c66606084018260ff169052565b506080830151612c7b608084018260ff169052565b5060a0830151612c9060a084018260ff169052565b5060c0830151612ca560c084018260ff169052565b5060e0830151612cba60e084018260ff169052565b506101009283015160ff16919092015290565b60008060408385031215612ce057600080fd5b8235612ceb81612ae3565b91506020830135612c1681612b41565b634e487b7160e01b600052604160045260246000fd5b604051610120810167ffffffffffffffff81118282101715612d3557612d35612cfb565b60405290565b604051601f8201601f1916810167ffffffffffffffff81118282101715612d6457612d64612cfb565b604052919050565b600067ffffffffffffffff821115612d8657612d86612cfb565b50601f01601f191660200190565b60008060008060808587031215612daa57600080fd5b8435612db581612ae3565b93506020850135612dc581612ae3565b925060408501359150606085013567ffffffffffffffff811115612de857600080fd5b8501601f81018713612df957600080fd5b8035612e0c612e0782612d6c565b612d3b565b818152886020838501011115612e2157600080fd5b8160208401602083013760006020838301015280935050505092959194509250565b60008060408385031215612e5657600080fd5b50508035926020909101359150565b60008060408385031215612e7857600080fd5b8235612e8381612ae3565b91506020830135612c1681612ae3565b600080600060608486031215612ea857600080fd5b8335612eb381612ae3565b9250602084013591506040840135612eca81612ae3565b809150509250925092565b600181811c90821680612ee957607f821691505b6020821081141561258357634e487b7160e01b600052602260045260246000fd5b6020808252818101527f4f776e61626c653a2063616c6c6572206973206e6f7420746865206f776e6572604082015260600190565b60208082526031908201527f4552433732313a207472616e736665722063616c6c6572206973206e6f74206f6040820152701ddb995c881b9bdc88185c1c1c9bdd9959607a1b606082015260800190565b634e487b7160e01b600052601160045260246000fd5b6000816000190483118215151615612fc057612fc0612f90565b500290565b634e487b7160e01b600052601260045260246000fd5b600082612fea57612fea612fc5565b500490565b634e487b7160e01b600052603260045260246000fd5b600060001982141561301957613019612f90565b5060010190565b6000821982111561303357613033612f90565b500190565b600061ffff8083168181141561305057613050612f90565b6001019392505050565b60008261306957613069612fc5565b500690565b60006020828403121561308057600080fd5b815167ffffffffffffffff81111561309757600080fd5b8201601f810184136130a857600080fd5b80516130b6612e0782612d6c565b8181528560208385010111156130cb57600080fd5b6130dc826020830160208601612a6b565b95945050505050565b80516130f081612b41565b919050565b805160ff811681146130f057600080fd5b6000610120828403121561311957600080fd5b613121612d11565b61312a836130e5565b8152613138602084016130f5565b6020820152613149604084016130f5565b604082015261315a606084016130f5565b606082015261316b608084016130f5565b608082015261317c60a084016130f5565b60a082015261318d60c084016130f5565b60c082015261319e60e084016130f5565b60e08201526101006131b18185016130f5565b908201529392505050565b6000828210156131ce576131ce612f90565b500390565b6000602082840312156131e557600080fd5b815161243b81612ae3565b600060ff821660ff84168060ff0382111561320d5761320d612f90565b019392505050565b60006020828403121561322757600080fd5b61243b826130f5565b634e487b7160e01b600052603160045260246000fdfea2646970667358221220017e9a7487495eded493204a0744cd218185db628c4f1bce880b1c6771a981f064736f6c634300080b0033",
			"opcodes": "PUSH1 0xA0 PUSH1 0x40 MSTORE PUSH7 0x2386F26FC10000 PUSH1 0xB SSTORE PUSH1 0x13 DUP1 SLOAD PUSH1 0xFF PUSH1 0xA0 SHL NOT AND SWAP1 SSTORE CALLVALUE DUP1 ISZERO PUSH3 0x29 JUMPI PUSH1 0x0 DUP1 REVERT JUMPDEST POP PUSH1 0x40 MLOAD PUSH3 0x35A1 CODESIZE SUB DUP1 PUSH3 0x35A1 DUP4 CODECOPY DUP2 ADD PUSH1 0x40 DUP2 SWAP1 MSTORE PUSH3 0x4C SWAP2 PUSH3 0x24C JUMP JUMPDEST PUSH1 0x40 DUP1 MLOAD DUP1 DUP3 ADD DUP3 MSTORE PUSH1 0x11 DUP2 MSTORE PUSH17 0x48756D616E73205653205A6F6D62696573 PUSH1 0x78 SHL PUSH1 0x20 DUP1 DUP4 ADD SWAP2 DUP3 MSTORE DUP4 MLOAD DUP1 DUP6 ADD SWAP1 SWAP5 MSTORE PUSH1 0x5 DUP5 MSTORE PUSH5 0x5649525553 PUSH1 0xD8 SHL SWAP1 DUP5 ADD MSTORE DUP2 MLOAD SWAP2 SWAP3 SWAP2 PUSH3 0xA2 SWAP2 PUSH1 0x0 SWAP2 PUSH3 0x18D JUMP JUMPDEST POP DUP1 MLOAD PUSH3 0xB8 SWAP1 PUSH1 0x1 SWAP1 PUSH1 0x20 DUP5 ADD SWAP1 PUSH3 0x18D JUMP JUMPDEST POP POP POP PUSH3 0xD5 PUSH3 0xCF PUSH3 0x137 PUSH1 0x20 SHL PUSH1 0x20 SHR JUMP JUMPDEST PUSH3 0x13B JUMP JUMPDEST PUSH1 0xA DUP1 SLOAD PUSH1 0xFF PUSH1 0xA0 SHL NOT AND PUSH1 0x1 PUSH1 0xA0 SHL OR SWAP1 SSTORE PUSH1 0x11 DUP1 SLOAD PUSH1 0x1 PUSH1 0x1 PUSH1 0xA0 SHL SUB DUP1 DUP7 AND PUSH1 0x1 PUSH1 0x1 PUSH1 0xA0 SHL SUB NOT SWAP3 DUP4 AND OR SWAP1 SWAP3 SSTORE PUSH1 0x12 DUP1 SLOAD SWAP3 DUP6 AND SWAP3 SWAP1 SWAP2 AND SWAP2 SWAP1 SWAP2 OR SWAP1 SSTORE PUSH1 0x80 DUP2 SWAP1 MSTORE PUSH3 0x12A PUSH1 0x5 DUP3 PUSH3 0x294 JUMP JUMPDEST PUSH1 0xC SSTORE POP PUSH3 0x2F4 SWAP2 POP POP JUMP JUMPDEST CALLER SWAP1 JUMP JUMPDEST PUSH1 0xA DUP1 SLOAD PUSH1 0x1 PUSH1 0x1 PUSH1 0xA0 SHL SUB DUP4 DUP2 AND PUSH1 0x1 PUSH1 0x1 PUSH1 0xA0 SHL SUB NOT DUP4 AND DUP2 OR SWAP1 SWAP4 SSTORE PUSH1 0x40 MLOAD SWAP2 AND SWAP2 SWAP1 DUP3 SWAP1 PUSH32 0x8BE0079C531659141344CD1FD0A4F28419497F9722A3DAAFE3B4186F6B6457E0 SWAP1 PUSH1 0x0 SWAP1 LOG3 POP POP JUMP JUMPDEST DUP3 DUP1 SLOAD PUSH3 0x19B SWAP1 PUSH3 0x2B7 JUMP JUMPDEST SWAP1 PUSH1 0x0 MSTORE PUSH1 0x20 PUSH1 0x0 KECCAK256 SWAP1 PUSH1 0x1F ADD PUSH1 0x20 SWAP1 DIV DUP2 ADD SWAP3 DUP3 PUSH3 0x1BF JUMPI PUSH1 0x0 DUP6 SSTORE PUSH3 0x20A JUMP JUMPDEST DUP3 PUSH1 0x1F LT PUSH3 0x1DA JUMPI DUP1 MLOAD PUSH1 0xFF NOT AND DUP4 DUP1 ADD OR DUP6 SSTORE PUSH3 0x20A JUMP JUMPDEST DUP3 DUP1 ADD PUSH1 0x1 ADD DUP6 SSTORE DUP3 ISZERO PUSH3 0x20A JUMPI SWAP2 DUP3 ADD JUMPDEST DUP3 DUP2 GT ISZERO PUSH3 0x20A JUMPI DUP3 MLOAD DUP3 SSTORE SWAP2 PUSH1 0x20 ADD SWAP2 SWAP1 PUSH1 0x1 ADD SWAP1 PUSH3 0x1ED JUMP JUMPDEST POP PUSH3 0x218 SWAP3 SWAP2 POP PUSH3 0x21C JUMP JUMPDEST POP SWAP1 JUMP JUMPDEST JUMPDEST DUP1 DUP3 GT ISZERO PUSH3 0x218 JUMPI PUSH1 0x0 DUP2 SSTORE PUSH1 0x1 ADD PUSH3 0x21D JUMP JUMPDEST PUSH1 0x1 PUSH1 0x1 PUSH1 0xA0 SHL SUB DUP2 AND DUP2 EQ PUSH3 0x249 JUMPI PUSH1 0x0 DUP1 REVERT JUMPDEST POP JUMP JUMPDEST PUSH1 0x0 DUP1 PUSH1 0x0 PUSH1 0x60 DUP5 DUP7 SUB SLT ISZERO PUSH3 0x262 JUMPI PUSH1 0x0 DUP1 REVERT JUMPDEST DUP4 MLOAD PUSH3 0x26F DUP2 PUSH3 0x233 JUMP JUMPDEST PUSH1 0x20 DUP6 ADD MLOAD SWAP1 SWAP4 POP PUSH3 0x282 DUP2 PUSH3 0x233 JUMP JUMPDEST DUP1 SWAP3 POP POP PUSH1 0x40 DUP5 ADD MLOAD SWAP1 POP SWAP3 POP SWAP3 POP SWAP3 JUMP JUMPDEST PUSH1 0x0 DUP3 PUSH3 0x2B2 JUMPI PUSH4 0x4E487B71 PUSH1 0xE0 SHL PUSH1 0x0 MSTORE PUSH1 0x12 PUSH1 0x4 MSTORE PUSH1 0x24 PUSH1 0x0 REVERT JUMPDEST POP DIV SWAP1 JUMP JUMPDEST PUSH1 0x1 DUP2 DUP2 SHR SWAP1 DUP3 AND DUP1 PUSH3 0x2CC JUMPI PUSH1 0x7F DUP3 AND SWAP2 POP JUMPDEST PUSH1 0x20 DUP3 LT DUP2 EQ ISZERO PUSH3 0x2EE JUMPI PUSH4 0x4E487B71 PUSH1 0xE0 SHL PUSH1 0x0 MSTORE PUSH1 0x22 PUSH1 0x4 MSTORE PUSH1 0x24 PUSH1 0x0 REVERT JUMPDEST POP SWAP2 SWAP1 POP JUMP JUMPDEST PUSH1 0x80 MLOAD PUSH2 0x327C PUSH3 0x325 PUSH1 0x0 CODECOPY PUSH1 0x0 DUP2 DUP2 PUSH2 0x9A7 ADD MSTORE DUP2 DUP2 PUSH2 0xDA0 ADD MSTORE DUP2 DUP2 PUSH2 0xDEE ADD MSTORE PUSH2 0x1226 ADD MSTORE PUSH2 0x327C PUSH1 0x0 RETURN INVALID PUSH1 0x80 PUSH1 0x40 MSTORE PUSH1 0x4 CALLDATASIZE LT PUSH2 0x288 JUMPI PUSH1 0x0 CALLDATALOAD PUSH1 0xE0 SHR DUP1 PUSH4 0x70A08231 GT PUSH2 0x15A JUMPI DUP1 PUSH4 0xB88D4FDE GT PUSH2 0xC1 JUMPI DUP1 PUSH4 0xE05C57BF GT PUSH2 0x7A JUMPI DUP1 PUSH4 0xE05C57BF EQ PUSH2 0x81A JUMPI DUP1 PUSH4 0xE1FC334F EQ PUSH2 0x8EC JUMPI DUP1 PUSH4 0xE985E9C5 EQ PUSH2 0x90C JUMPI DUP1 PUSH4 0xEB0B4453 EQ PUSH2 0x955 JUMPI DUP1 PUSH4 0xF2FDE38B EQ PUSH2 0x975 JUMPI DUP1 PUSH4 0xF47C84C5 EQ PUSH2 0x995 JUMPI PUSH1 0x0 DUP1 REVERT JUMPDEST DUP1 PUSH4 0xB88D4FDE EQ PUSH2 0x76E JUMPI DUP1 PUSH4 0xC002D23D EQ PUSH2 0x78E JUMPI DUP1 PUSH4 0xC084F540 EQ PUSH2 0x7A4 JUMPI DUP1 PUSH4 0xC87B56DD EQ PUSH2 0x7BA JUMPI DUP1 PUSH4 0xD773826D EQ PUSH2 0x7DA JUMPI DUP1 PUSH4 0xD868F4C0 EQ PUSH2 0x7FA JUMPI PUSH1 0x0 DUP1 REVERT JUMPDEST DUP1 PUSH4 0x9B7B2AB0 GT PUSH2 0x113 JUMPI DUP1 PUSH4 0x9B7B2AB0 EQ PUSH2 0x654 JUMPI DUP1 PUSH4 0x9C82F2A4 EQ PUSH2 0x674 JUMPI DUP1 PUSH4 0xA1B8F374 EQ PUSH2 0x694 JUMPI DUP1 PUSH4 0xA22CB465 EQ PUSH2 0x6C1 JUMPI DUP1 PUSH4 0xA2B40D19 EQ PUSH2 0x6E1 JUMPI DUP1 PUSH4 0xB863BD37 EQ PUSH2 0x701 JUMPI PUSH1 0x0 DUP1 REVERT JUMPDEST DUP1 PUSH4 0x70A08231 EQ PUSH2 0x594 JUMPI DUP1 PUSH4 0x76CDB03B EQ PUSH2 0x5B4 JUMPI DUP1 PUSH4 0x77F9213A EQ PUSH2 0x5D4 JUMPI DUP1 PUSH4 0x8DA5CB5B EQ PUSH2 0x5F4 JUMPI DUP1 PUSH4 0x94E56847 EQ PUSH2 0x612 JUMPI DUP1 PUSH4 0x95D89B41 EQ PUSH2 0x63F JUMPI PUSH1 0x0 DUP1 REVERT JUMPDEST DUP1 PUSH4 0x2F745C59 GT PUSH2 0x1FE JUMPI DUP1 PUSH4 0x4F02C420 GT PUSH2 0x1B7 JUMPI DUP1 PUSH4 0x4F02C420 EQ PUSH2 0x4D4 JUMPI DUP1 PUSH4 0x4F6CCCE7 EQ PUSH2 0x502 JUMPI DUP1 PUSH4 0x5C975ABB EQ PUSH2 0x522 JUMPI DUP1 PUSH4 0x6352211E EQ PUSH2 0x541 JUMPI DUP1 PUSH4 0x67F68FAC EQ PUSH2 0x561 JUMPI DUP1 PUSH4 0x6F4F7366 EQ PUSH2 0x574 JUMPI PUSH1 0x0 DUP1 REVERT JUMPDEST DUP1 PUSH4 0x2F745C59 EQ PUSH2 0x41D JUMPI DUP1 PUSH4 0x3431A753 EQ PUSH2 0x43D JUMPI DUP1 PUSH4 0x3CCFD60B EQ PUSH2 0x45D JUMPI DUP1 PUSH4 0x4018B1F8 EQ PUSH2 0x472 JUMPI DUP1 PUSH4 0x42842E0E EQ PUSH2 0x487 JUMPI DUP1 PUSH4 0x438B6300 EQ PUSH2 0x4A7 JUMPI PUSH1 0x0 DUP1 REVERT JUMPDEST DUP1 PUSH4 0xC89B766 GT PUSH2 0x250 JUMPI DUP1 PUSH4 0xC89B766 EQ PUSH2 0x35E JUMPI DUP1 PUSH4 0x16C38B3C EQ PUSH2 0x37E JUMPI DUP1 PUSH4 0x18160DDD EQ PUSH2 0x39E JUMPI DUP1 PUSH4 0x23B872DD EQ PUSH2 0x3BD JUMPI DUP1 PUSH4 0x27DE8F27 EQ PUSH2 0x3DD JUMPI DUP1 PUSH4 0x2B3297F9 EQ PUSH2 0x3FD JUMPI PUSH1 0x0 DUP1 REVERT JUMPDEST DUP1 PUSH4 0x1FFC9A7 EQ PUSH2 0x28D JUMPI DUP1 PUSH4 0x6FDDE03 EQ PUSH2 0x2C2 JUMPI DUP1 PUSH4 0x81812FC EQ PUSH2 0x2E4 JUMPI DUP1 PUSH4 0x90D23B9 EQ PUSH2 0x31C JUMPI DUP1 PUSH4 0x95EA7B3 EQ PUSH2 0x33E JUMPI JUMPDEST PUSH1 0x0 DUP1 REVERT JUMPDEST CALLVALUE DUP1 ISZERO PUSH2 0x299 JUMPI PUSH1 0x0 DUP1 REVERT JUMPDEST POP PUSH2 0x2AD PUSH2 0x2A8 CALLDATASIZE PUSH1 0x4 PUSH2 0x2A41 JUMP JUMPDEST PUSH2 0x9C9 JUMP JUMPDEST PUSH1 0x40 MLOAD SWAP1 ISZERO ISZERO DUP2 MSTORE PUSH1 0x20 ADD JUMPDEST PUSH1 0x40 MLOAD DUP1 SWAP2 SUB SWAP1 RETURN JUMPDEST CALLVALUE DUP1 ISZERO PUSH2 0x2CE JUMPI PUSH1 0x0 DUP1 REVERT JUMPDEST POP PUSH2 0x2D7 PUSH2 0x9F4 JUMP JUMPDEST PUSH1 0x40 MLOAD PUSH2 0x2B9 SWAP2 SWAP1 PUSH2 0x2A97 JUMP JUMPDEST CALLVALUE DUP1 ISZERO PUSH2 0x2F0 JUMPI PUSH1 0x0 DUP1 REVERT JUMPDEST POP PUSH2 0x304 PUSH2 0x2FF CALLDATASIZE PUSH1 0x4 PUSH2 0x2ACA JUMP JUMPDEST PUSH2 0xA86 JUMP JUMPDEST PUSH1 0x40 MLOAD PUSH1 0x1 PUSH1 0x1 PUSH1 0xA0 SHL SUB SWAP1 SWAP2 AND DUP2 MSTORE PUSH1 0x20 ADD PUSH2 0x2B9 JUMP JUMPDEST CALLVALUE DUP1 ISZERO PUSH2 0x328 JUMPI PUSH1 0x0 DUP1 REVERT JUMPDEST POP PUSH2 0x33C PUSH2 0x337 CALLDATASIZE PUSH1 0x4 PUSH2 0x2AF8 JUMP JUMPDEST PUSH2 0xB20 JUMP JUMPDEST STOP JUMPDEST CALLVALUE DUP1 ISZERO PUSH2 0x34A JUMPI PUSH1 0x0 DUP1 REVERT JUMPDEST POP PUSH2 0x33C PUSH2 0x359 CALLDATASIZE PUSH1 0x4 PUSH2 0x2B15 JUMP JUMPDEST PUSH2 0xB6C JUMP JUMPDEST CALLVALUE DUP1 ISZERO PUSH2 0x36A JUMPI PUSH1 0x0 DUP1 REVERT JUMPDEST POP PUSH1 0x13 SLOAD PUSH2 0x304 SWAP1 PUSH1 0x1 PUSH1 0x1 PUSH1 0xA0 SHL SUB AND DUP2 JUMP JUMPDEST CALLVALUE DUP1 ISZERO PUSH2 0x38A JUMPI PUSH1 0x0 DUP1 REVERT JUMPDEST POP PUSH2 0x33C PUSH2 0x399 CALLDATASIZE PUSH1 0x4 PUSH2 0x2B4F JUMP JUMPDEST PUSH2 0xC82 JUMP JUMPDEST CALLVALUE DUP1 ISZERO PUSH2 0x3AA JUMPI PUSH1 0x0 DUP1 REVERT JUMPDEST POP PUSH1 0x8 SLOAD JUMPDEST PUSH1 0x40 MLOAD SWAP1 DUP2 MSTORE PUSH1 0x20 ADD PUSH2 0x2B9 JUMP JUMPDEST CALLVALUE DUP1 ISZERO PUSH2 0x3C9 JUMPI PUSH1 0x0 DUP1 REVERT JUMPDEST POP PUSH2 0x33C PUSH2 0x3D8 CALLDATASIZE PUSH1 0x4 PUSH2 0x2B6C JUMP JUMPDEST PUSH2 0xCC5 JUMP JUMPDEST CALLVALUE DUP1 ISZERO PUSH2 0x3E9 JUMPI PUSH1 0x0 DUP1 REVERT JUMPDEST POP PUSH2 0x3AF PUSH2 0x3F8 CALLDATASIZE PUSH1 0x4 PUSH2 0x2ACA JUMP JUMPDEST PUSH2 0xD86 JUMP JUMPDEST CALLVALUE DUP1 ISZERO PUSH2 0x409 JUMPI PUSH1 0x0 DUP1 REVERT JUMPDEST POP PUSH1 0x14 SLOAD PUSH2 0x304 SWAP1 PUSH1 0x1 PUSH1 0x1 PUSH1 0xA0 SHL SUB AND DUP2 JUMP JUMPDEST CALLVALUE DUP1 ISZERO PUSH2 0x429 JUMPI PUSH1 0x0 DUP1 REVERT JUMPDEST POP PUSH2 0x3AF PUSH2 0x438 CALLDATASIZE PUSH1 0x4 PUSH2 0x2B15 JUMP JUMPDEST PUSH2 0xE46 JUMP JUMPDEST CALLVALUE DUP1 ISZERO PUSH2 0x449 JUMPI PUSH1 0x0 DUP1 REVERT JUMPDEST POP PUSH2 0x33C PUSH2 0x458 CALLDATASIZE PUSH1 0x4 PUSH2 0x2ACA JUMP JUMPDEST PUSH2 0xEDC JUMP JUMPDEST CALLVALUE DUP1 ISZERO PUSH2 0x469 JUMPI PUSH1 0x0 DUP1 REVERT JUMPDEST POP PUSH2 0x33C PUSH2 0xF0B JUMP JUMPDEST CALLVALUE DUP1 ISZERO PUSH2 0x47E JUMPI PUSH1 0x0 DUP1 REVERT JUMPDEST POP PUSH1 0xC SLOAD PUSH2 0x3AF JUMP JUMPDEST CALLVALUE DUP1 ISZERO PUSH2 0x493 JUMPI PUSH1 0x0 DUP1 REVERT JUMPDEST POP PUSH2 0x33C PUSH2 0x4A2 CALLDATASIZE PUSH1 0x4 PUSH2 0x2B6C JUMP JUMPDEST PUSH2 0xF6E JUMP JUMPDEST CALLVALUE DUP1 ISZERO PUSH2 0x4B3 JUMPI PUSH1 0x0 DUP1 REVERT JUMPDEST POP PUSH2 0x4C7 PUSH2 0x4C2 CALLDATASIZE PUSH1 0x4 PUSH2 0x2AF8 JUMP JUMPDEST PUSH2 0xF89 JUMP JUMPDEST PUSH1 0x40 MLOAD PUSH2 0x2B9 SWAP2 SWAP1 PUSH2 0x2BAD JUMP JUMPDEST CALLVALUE DUP1 ISZERO PUSH2 0x4E0 JUMPI PUSH1 0x0 DUP1 REVERT JUMPDEST POP PUSH1 0xD SLOAD PUSH2 0x4EF SWAP1 PUSH2 0xFFFF AND DUP2 JUMP JUMPDEST PUSH1 0x40 MLOAD PUSH2 0xFFFF SWAP1 SWAP2 AND DUP2 MSTORE PUSH1 0x20 ADD PUSH2 0x2B9 JUMP JUMPDEST CALLVALUE DUP1 ISZERO PUSH2 0x50E JUMPI PUSH1 0x0 DUP1 REVERT JUMPDEST POP PUSH2 0x3AF PUSH2 0x51D CALLDATASIZE PUSH1 0x4 PUSH2 0x2ACA JUMP JUMPDEST PUSH2 0x102B JUMP JUMPDEST CALLVALUE DUP1 ISZERO PUSH2 0x52E JUMPI PUSH1 0x0 DUP1 REVERT JUMPDEST POP PUSH1 0xA SLOAD PUSH1 0x1 PUSH1 0xA0 SHL SWAP1 DIV PUSH1 0xFF AND PUSH2 0x2AD JUMP JUMPDEST CALLVALUE DUP1 ISZERO PUSH2 0x54D JUMPI PUSH1 0x0 DUP1 REVERT JUMPDEST POP PUSH2 0x304 PUSH2 0x55C CALLDATASIZE PUSH1 0x4 PUSH2 0x2ACA JUMP JUMPDEST PUSH2 0x10BE JUMP JUMPDEST PUSH2 0x33C PUSH2 0x56F CALLDATASIZE PUSH1 0x4 PUSH2 0x2BF1 JUMP JUMPDEST PUSH2 0x1135 JUMP JUMPDEST CALLVALUE DUP1 ISZERO PUSH2 0x580 JUMPI PUSH1 0x0 DUP1 REVERT JUMPDEST POP PUSH2 0x33C PUSH2 0x58F CALLDATASIZE PUSH1 0x4 PUSH2 0x2AF8 JUMP JUMPDEST PUSH2 0x16D3 JUMP JUMPDEST CALLVALUE DUP1 ISZERO PUSH2 0x5A0 JUMPI PUSH1 0x0 DUP1 REVERT JUMPDEST POP PUSH2 0x3AF PUSH2 0x5AF CALLDATASIZE PUSH1 0x4 PUSH2 0x2AF8 JUMP JUMPDEST PUSH2 0x171F JUMP JUMPDEST CALLVALUE DUP1 ISZERO PUSH2 0x5C0 JUMPI PUSH1 0x0 DUP1 REVERT JUMPDEST POP PUSH1 0x10 SLOAD PUSH2 0x304 SWAP1 PUSH1 0x1 PUSH1 0x1 PUSH1 0xA0 SHL SUB AND DUP2 JUMP JUMPDEST CALLVALUE DUP1 ISZERO PUSH2 0x5E0 JUMPI PUSH1 0x0 DUP1 REVERT JUMPDEST POP PUSH2 0x3AF PUSH2 0x5EF CALLDATASIZE PUSH1 0x4 PUSH2 0x2ACA JUMP JUMPDEST PUSH2 0x17A6 JUMP JUMPDEST CALLVALUE DUP1 ISZERO PUSH2 0x600 JUMPI PUSH1 0x0 DUP1 REVERT JUMPDEST POP PUSH1 0xA SLOAD PUSH1 0x1 PUSH1 0x1 PUSH1 0xA0 SHL SUB AND PUSH2 0x304 JUMP JUMPDEST CALLVALUE DUP1 ISZERO PUSH2 0x61E JUMPI PUSH1 0x0 DUP1 REVERT JUMPDEST POP PUSH2 0x632 PUSH2 0x62D CALLDATASIZE PUSH1 0x4 PUSH2 0x2ACA JUMP JUMPDEST PUSH2 0x1800 JUMP JUMPDEST PUSH1 0x40 MLOAD PUSH2 0x2B9 SWAP2 SWAP1 PUSH2 0x2C21 JUMP JUMPDEST CALLVALUE DUP1 ISZERO PUSH2 0x64B JUMPI PUSH1 0x0 DUP1 REVERT JUMPDEST POP PUSH2 0x2D7 PUSH2 0x18A5 JUMP JUMPDEST CALLVALUE DUP1 ISZERO PUSH2 0x660 JUMPI PUSH1 0x0 DUP1 REVERT JUMPDEST POP PUSH1 0x11 SLOAD PUSH2 0x304 SWAP1 PUSH1 0x1 PUSH1 0x1 PUSH1 0xA0 SHL SUB AND DUP2 JUMP JUMPDEST CALLVALUE DUP1 ISZERO PUSH2 0x680 JUMPI PUSH1 0x0 DUP1 REVERT JUMPDEST POP PUSH2 0x33C PUSH2 0x68F CALLDATASIZE PUSH1 0x4 PUSH2 0x2AF8 JUMP JUMPDEST PUSH2 0x18B4 JUMP JUMPDEST CALLVALUE DUP1 ISZERO PUSH2 0x6A0 JUMPI PUSH1 0x0 DUP1 REVERT JUMPDEST POP PUSH2 0x3AF PUSH2 0x6AF CALLDATASIZE PUSH1 0x4 PUSH2 0x2ACA JUMP JUMPDEST PUSH1 0xF PUSH1 0x20 MSTORE PUSH1 0x0 SWAP1 DUP2 MSTORE PUSH1 0x40 SWAP1 KECCAK256 SLOAD DUP2 JUMP JUMPDEST CALLVALUE DUP1 ISZERO PUSH2 0x6CD JUMPI PUSH1 0x0 DUP1 REVERT JUMPDEST POP PUSH2 0x33C PUSH2 0x6DC CALLDATASIZE PUSH1 0x4 PUSH2 0x2CCD JUMP JUMPDEST PUSH2 0x1900 JUMP JUMPDEST CALLVALUE DUP1 ISZERO PUSH2 0x6ED JUMPI PUSH1 0x0 DUP1 REVERT JUMPDEST POP PUSH2 0x33C PUSH2 0x6FC CALLDATASIZE PUSH1 0x4 PUSH2 0x2ACA JUMP JUMPDEST PUSH2 0x19C5 JUMP JUMPDEST CALLVALUE DUP1 ISZERO PUSH2 0x70D JUMPI PUSH1 0x0 DUP1 REVERT JUMPDEST POP PUSH2 0x3AF PUSH2 0x71C CALLDATASIZE PUSH1 0x4 PUSH2 0x2ACA JUMP JUMPDEST PUSH1 0x40 MLOAD PUSH12 0xFFFFFFFFFFFFFFFFFFFFFFFF NOT ORIGIN PUSH1 0x60 SHL AND PUSH1 0x20 DUP3 ADD MSTORE DIFFICULTY PUSH1 0x34 DUP3 ADD MSTORE TIMESTAMP PUSH1 0x54 DUP3 ADD MSTORE PUSH1 0x74 DUP2 ADD DUP3 SWAP1 MSTORE PUSH1 0x0 SWAP1 PUSH1 0x94 ADD PUSH1 0x40 DUP1 MLOAD PUSH1 0x1F NOT DUP2 DUP5 SUB ADD DUP2 MSTORE SWAP2 SWAP1 MSTORE DUP1 MLOAD PUSH1 0x20 SWAP1 SWAP2 ADD KECCAK256 SWAP3 SWAP2 POP POP JUMP JUMPDEST CALLVALUE DUP1 ISZERO PUSH2 0x77A JUMPI PUSH1 0x0 DUP1 REVERT JUMPDEST POP PUSH2 0x33C PUSH2 0x789 CALLDATASIZE PUSH1 0x4 PUSH2 0x2D94 JUMP JUMPDEST PUSH2 0x19F4 JUMP JUMPDEST CALLVALUE DUP1 ISZERO PUSH2 0x79A JUMPI PUSH1 0x0 DUP1 REVERT JUMPDEST POP PUSH2 0x3AF PUSH1 0xB SLOAD DUP2 JUMP JUMPDEST CALLVALUE DUP1 ISZERO PUSH2 0x7B0 JUMPI PUSH1 0x0 DUP1 REVERT JUMPDEST POP PUSH2 0x3AF PUSH1 0xC SLOAD DUP2 JUMP JUMPDEST CALLVALUE DUP1 ISZERO PUSH2 0x7C6 JUMPI PUSH1 0x0 DUP1 REVERT JUMPDEST POP PUSH2 0x2D7 PUSH2 0x7D5 CALLDATASIZE PUSH1 0x4 PUSH2 0x2ACA JUMP JUMPDEST PUSH2 0x1A2B JUMP JUMPDEST CALLVALUE DUP1 ISZERO PUSH2 0x7E6 JUMPI PUSH1 0x0 DUP1 REVERT JUMPDEST POP PUSH2 0x33C PUSH2 0x7F5 CALLDATASIZE PUSH1 0x4 PUSH2 0x2AF8 JUMP JUMPDEST PUSH2 0x1B1B JUMP JUMPDEST CALLVALUE DUP1 ISZERO PUSH2 0x806 JUMPI PUSH1 0x0 DUP1 REVERT JUMPDEST POP PUSH2 0x632 PUSH2 0x815 CALLDATASIZE PUSH1 0x4 PUSH2 0x2E43 JUMP JUMPDEST PUSH2 0x1B67 JUMP JUMPDEST CALLVALUE DUP1 ISZERO PUSH2 0x826 JUMPI PUSH1 0x0 DUP1 REVERT JUMPDEST POP PUSH2 0x89A PUSH2 0x835 CALLDATASIZE PUSH1 0x4 PUSH2 0x2ACA JUMP JUMPDEST PUSH1 0xE PUSH1 0x20 MSTORE PUSH1 0x0 SWAP1 DUP2 MSTORE PUSH1 0x40 SWAP1 KECCAK256 SLOAD PUSH1 0xFF DUP1 DUP3 AND SWAP2 PUSH2 0x100 DUP2 DIV DUP3 AND SWAP2 PUSH3 0x10000 DUP3 DIV DUP2 AND SWAP2 PUSH4 0x1000000 DUP2 DIV DUP3 AND SWAP2 PUSH5 0x100000000 DUP3 DIV DUP2 AND SWAP2 PUSH1 0x1 PUSH1 0x28 SHL DUP2 DIV DUP3 AND SWAP2 PUSH1 0x1 PUSH1 0x30 SHL DUP3 DIV DUP2 AND SWAP2 PUSH1 0x1 PUSH1 0x38 SHL DUP2 DIV DUP3 AND SWAP2 PUSH1 0x1 PUSH1 0x40 SHL SWAP1 SWAP2 DIV AND DUP10 JUMP JUMPDEST PUSH1 0x40 DUP1 MLOAD SWAP10 ISZERO ISZERO DUP11 MSTORE PUSH1 0xFF SWAP9 DUP10 AND PUSH1 0x20 DUP12 ADD MSTORE SWAP7 DUP9 AND SWAP7 DUP10 ADD SWAP7 SWAP1 SWAP7 MSTORE SWAP4 DUP7 AND PUSH1 0x60 DUP9 ADD MSTORE SWAP2 DUP6 AND PUSH1 0x80 DUP8 ADD MSTORE DUP5 AND PUSH1 0xA0 DUP7 ADD MSTORE DUP4 AND PUSH1 0xC0 DUP6 ADD MSTORE DUP3 AND PUSH1 0xE0 DUP5 ADD MSTORE AND PUSH2 0x100 DUP3 ADD MSTORE PUSH2 0x120 ADD PUSH2 0x2B9 JUMP JUMPDEST CALLVALUE DUP1 ISZERO PUSH2 0x8F8 JUMPI PUSH1 0x0 DUP1 REVERT JUMPDEST POP PUSH1 0x12 SLOAD PUSH2 0x304 SWAP1 PUSH1 0x1 PUSH1 0x1 PUSH1 0xA0 SHL SUB AND DUP2 JUMP JUMPDEST CALLVALUE DUP1 ISZERO PUSH2 0x918 JUMPI PUSH1 0x0 DUP1 REVERT JUMPDEST POP PUSH2 0x2AD PUSH2 0x927 CALLDATASIZE PUSH1 0x4 PUSH2 0x2E65 JUMP JUMPDEST PUSH1 0x1 PUSH1 0x1 PUSH1 0xA0 SHL SUB SWAP2 DUP3 AND PUSH1 0x0 SWAP1 DUP2 MSTORE PUSH1 0x5 PUSH1 0x20 SWAP1 DUP2 MSTORE PUSH1 0x40 DUP1 DUP4 KECCAK256 SWAP4 SWAP1 SWAP5 AND DUP3 MSTORE SWAP2 SWAP1 SWAP2 MSTORE KECCAK256 SLOAD PUSH1 0xFF AND SWAP1 JUMP JUMPDEST CALLVALUE DUP1 ISZERO PUSH2 0x961 JUMPI PUSH1 0x0 DUP1 REVERT JUMPDEST POP PUSH2 0x33C PUSH2 0x970 CALLDATASIZE PUSH1 0x4 PUSH2 0x2E93 JUMP JUMPDEST PUSH2 0x1C7A JUMP JUMPDEST CALLVALUE DUP1 ISZERO PUSH2 0x981 JUMPI PUSH1 0x0 DUP1 REVERT JUMPDEST POP PUSH2 0x33C PUSH2 0x990 CALLDATASIZE PUSH1 0x4 PUSH2 0x2AF8 JUMP JUMPDEST PUSH2 0x1E61 JUMP JUMPDEST CALLVALUE DUP1 ISZERO PUSH2 0x9A1 JUMPI PUSH1 0x0 DUP1 REVERT JUMPDEST POP PUSH2 0x3AF PUSH32 0x0 DUP2 JUMP JUMPDEST PUSH1 0x0 PUSH1 0x1 PUSH1 0x1 PUSH1 0xE0 SHL SUB NOT DUP3 AND PUSH4 0x780E9D63 PUSH1 0xE0 SHL EQ DUP1 PUSH2 0x9EE JUMPI POP PUSH2 0x9EE DUP3 PUSH2 0x1EF9 JUMP JUMPDEST SWAP3 SWAP2 POP POP JUMP JUMPDEST PUSH1 0x60 PUSH1 0x0 DUP1 SLOAD PUSH2 0xA03 SWAP1 PUSH2 0x2ED5 JUMP JUMPDEST DUP1 PUSH1 0x1F ADD PUSH1 0x20 DUP1 SWAP2 DIV MUL PUSH1 0x20 ADD PUSH1 0x40 MLOAD SWAP1 DUP2 ADD PUSH1 0x40 MSTORE DUP1 SWAP3 SWAP2 SWAP1 DUP2 DUP2 MSTORE PUSH1 0x20 ADD DUP3 DUP1 SLOAD PUSH2 0xA2F SWAP1 PUSH2 0x2ED5 JUMP JUMPDEST DUP1 ISZERO PUSH2 0xA7C JUMPI DUP1 PUSH1 0x1F LT PUSH2 0xA51 JUMPI PUSH2 0x100 DUP1 DUP4 SLOAD DIV MUL DUP4 MSTORE SWAP2 PUSH1 0x20 ADD SWAP2 PUSH2 0xA7C JUMP JUMPDEST DUP3 ADD SWAP2 SWAP1 PUSH1 0x0 MSTORE PUSH1 0x20 PUSH1 0x0 KECCAK256 SWAP1 JUMPDEST DUP2 SLOAD DUP2 MSTORE SWAP1 PUSH1 0x1 ADD SWAP1 PUSH1 0x20 ADD DUP1 DUP4 GT PUSH2 0xA5F JUMPI DUP3 SWAP1 SUB PUSH1 0x1F AND DUP3 ADD SWAP2 JUMPDEST POP POP POP POP POP SWAP1 POP SWAP1 JUMP JUMPDEST PUSH1 0x0 DUP2 DUP2 MSTORE PUSH1 0x2 PUSH1 0x20 MSTORE PUSH1 0x40 DUP2 KECCAK256 SLOAD PUSH1 0x1 PUSH1 0x1 PUSH1 0xA0 SHL SUB AND PUSH2 0xB04 JUMPI PUSH1 0x40 MLOAD PUSH3 0x461BCD PUSH1 0xE5 SHL DUP2 MSTORE PUSH1 0x20 PUSH1 0x4 DUP3 ADD MSTORE PUSH1 0x2C PUSH1 0x24 DUP3 ADD MSTORE PUSH32 0x4552433732313A20617070726F76656420717565727920666F72206E6F6E6578 PUSH1 0x44 DUP3 ADD MSTORE PUSH12 0x34B9BA32B73A103A37B5B2B7 PUSH1 0xA1 SHL PUSH1 0x64 DUP3 ADD MSTORE PUSH1 0x84 ADD JUMPDEST PUSH1 0x40 MLOAD DUP1 SWAP2 SUB SWAP1 REVERT JUMPDEST POP PUSH1 0x0 SWAP1 DUP2 MSTORE PUSH1 0x4 PUSH1 0x20 MSTORE PUSH1 0x40 SWAP1 KECCAK256 SLOAD PUSH1 0x1 PUSH1 0x1 PUSH1 0xA0 SHL SUB AND SWAP1 JUMP JUMPDEST PUSH1 0xA SLOAD PUSH1 0x1 PUSH1 0x1 PUSH1 0xA0 SHL SUB AND CALLER EQ PUSH2 0xB4A JUMPI PUSH1 0x40 MLOAD PUSH3 0x461BCD PUSH1 0xE5 SHL DUP2 MSTORE PUSH1 0x4 ADD PUSH2 0xAFB SWAP1 PUSH2 0x2F0A JUMP JUMPDEST PUSH1 0x10 DUP1 SLOAD PUSH1 0x1 PUSH1 0x1 PUSH1 0xA0 SHL SUB NOT AND PUSH1 0x1 PUSH1 0x1 PUSH1 0xA0 SHL SUB SWAP3 SWAP1 SWAP3 AND SWAP2 SWAP1 SWAP2 OR SWAP1 SSTORE JUMP JUMPDEST PUSH1 0x0 PUSH2 0xB77 DUP3 PUSH2 0x10BE JUMP JUMPDEST SWAP1 POP DUP1 PUSH1 0x1 PUSH1 0x1 PUSH1 0xA0 SHL SUB AND DUP4 PUSH1 0x1 PUSH1 0x1 PUSH1 0xA0 SHL SUB AND EQ ISZERO PUSH2 0xBE5 JUMPI PUSH1 0x40 MLOAD PUSH3 0x461BCD PUSH1 0xE5 SHL DUP2 MSTORE PUSH1 0x20 PUSH1 0x4 DUP3 ADD MSTORE PUSH1 0x21 PUSH1 0x24 DUP3 ADD MSTORE PUSH32 0x4552433732313A20617070726F76616C20746F2063757272656E74206F776E65 PUSH1 0x44 DUP3 ADD MSTORE PUSH1 0x39 PUSH1 0xF9 SHL PUSH1 0x64 DUP3 ADD MSTORE PUSH1 0x84 ADD PUSH2 0xAFB JUMP JUMPDEST CALLER PUSH1 0x1 PUSH1 0x1 PUSH1 0xA0 SHL SUB DUP3 AND EQ DUP1 PUSH2 0xC01 JUMPI POP PUSH2 0xC01 DUP2 CALLER PUSH2 0x927 JUMP JUMPDEST PUSH2 0xC73 JUMPI PUSH1 0x40 MLOAD PUSH3 0x461BCD PUSH1 0xE5 SHL DUP2 MSTORE PUSH1 0x20 PUSH1 0x4 DUP3 ADD MSTORE PUSH1 0x38 PUSH1 0x24 DUP3 ADD MSTORE PUSH32 0x4552433732313A20617070726F76652063616C6C6572206973206E6F74206F77 PUSH1 0x44 DUP3 ADD MSTORE PUSH32 0x6E6572206E6F7220617070726F76656420666F7220616C6C0000000000000000 PUSH1 0x64 DUP3 ADD MSTORE PUSH1 0x84 ADD PUSH2 0xAFB JUMP JUMPDEST PUSH2 0xC7D DUP4 DUP4 PUSH2 0x1F49 JUMP JUMPDEST POP POP POP JUMP JUMPDEST PUSH1 0xA SLOAD PUSH1 0x1 PUSH1 0x1 PUSH1 0xA0 SHL SUB AND CALLER EQ PUSH2 0xCAC JUMPI PUSH1 0x40 MLOAD PUSH3 0x461BCD PUSH1 0xE5 SHL DUP2 MSTORE PUSH1 0x4 ADD PUSH2 0xAFB SWAP1 PUSH2 0x2F0A JUMP JUMPDEST DUP1 ISZERO PUSH2 0xCBD JUMPI PUSH2 0xCBA PUSH2 0x1FB7 JUMP JUMPDEST POP JUMP JUMPDEST PUSH2 0xCBA PUSH2 0x205D JUMP JUMPDEST PUSH1 0x13 SLOAD PUSH1 0x1 PUSH1 0xA0 SHL SWAP1 DIV PUSH1 0xFF AND ISZERO PUSH2 0xD0F JUMPI PUSH1 0x40 MLOAD PUSH3 0x461BCD PUSH1 0xE5 SHL DUP2 MSTORE PUSH1 0x20 PUSH1 0x4 DUP3 ADD MSTORE PUSH1 0xD PUSH1 0x24 DUP3 ADD MSTORE PUSH13 0x4E6F207265656E7472616E6379 PUSH1 0x98 SHL PUSH1 0x44 DUP3 ADD MSTORE PUSH1 0x64 ADD PUSH2 0xAFB JUMP JUMPDEST PUSH1 0x13 DUP1 SLOAD PUSH1 0xFF PUSH1 0xA0 SHL NOT AND PUSH1 0x1 PUSH1 0xA0 SHL OR SWAP1 SSTORE PUSH1 0x10 SLOAD PUSH1 0x1 PUSH1 0x1 PUSH1 0xA0 SHL SUB AND PUSH2 0xD35 CALLER SWAP1 JUMP JUMPDEST PUSH1 0x1 PUSH1 0x1 PUSH1 0xA0 SHL SUB AND EQ PUSH2 0xD69 JUMPI PUSH2 0xD4D CALLER DUP3 PUSH2 0x20E2 JUMP JUMPDEST PUSH2 0xD69 JUMPI PUSH1 0x40 MLOAD PUSH3 0x461BCD PUSH1 0xE5 SHL DUP2 MSTORE PUSH1 0x4 ADD PUSH2 0xAFB SWAP1 PUSH2 0x2F3F JUMP JUMPDEST PUSH2 0xD74 DUP4 DUP4 DUP4 PUSH2 0x21D9 JUMP JUMPDEST POP POP PUSH1 0x13 DUP1 SLOAD PUSH1 0xFF PUSH1 0xA0 SHL NOT AND SWAP1 SSTORE POP JUMP JUMPDEST PUSH1 0x0 PUSH1 0xC SLOAD DUP3 GT PUSH2 0xD99 JUMPI POP PUSH1 0x0 SWAP2 SWAP1 POP JUMP JUMPDEST PUSH1 0x5 PUSH2 0xDC6 PUSH32 0x0 PUSH1 0x2 PUSH2 0x2FA6 JUMP JUMPDEST PUSH2 0xDD0 SWAP2 SWAP1 PUSH2 0x2FDB JUMP JUMPDEST DUP3 GT PUSH2 0xDE7 JUMPI POP PUSH10 0x43C33C1937564800000 SWAP2 SWAP1 POP JUMP JUMPDEST PUSH1 0x5 PUSH2 0xE14 PUSH32 0x0 PUSH1 0x4 PUSH2 0x2FA6 JUMP JUMPDEST PUSH2 0xE1E SWAP2 SWAP1 PUSH2 0x2FDB JUMP JUMPDEST DUP3 GT PUSH2 0xE35 JUMPI POP PUSH10 0x878678326EAC9000000 SWAP2 SWAP1 POP JUMP JUMPDEST POP PUSH10 0xCB49B44BA602D800000 SWAP2 SWAP1 POP JUMP JUMPDEST PUSH1 0x0 PUSH2 0xE51 DUP4 PUSH2 0x171F JUMP JUMPDEST DUP3 LT PUSH2 0xEB3 JUMPI PUSH1 0x40 MLOAD PUSH3 0x461BCD PUSH1 0xE5 SHL DUP2 MSTORE PUSH1 0x20 PUSH1 0x4 DUP3 ADD MSTORE PUSH1 0x2B PUSH1 0x24 DUP3 ADD MSTORE PUSH32 0x455243373231456E756D657261626C653A206F776E657220696E646578206F75 PUSH1 0x44 DUP3 ADD MSTORE PUSH11 0x74206F6620626F756E6473 PUSH1 0xA8 SHL PUSH1 0x64 DUP3 ADD MSTORE PUSH1 0x84 ADD PUSH2 0xAFB JUMP JUMPDEST POP PUSH1 0x1 PUSH1 0x1 PUSH1 0xA0 SHL SUB SWAP2 SWAP1 SWAP2 AND PUSH1 0x0 SWAP1 DUP2 MSTORE PUSH1 0x6 PUSH1 0x20 SWAP1 DUP2 MSTORE PUSH1 0x40 DUP1 DUP4 KECCAK256 SWAP4 DUP4 MSTORE SWAP3 SWAP1 MSTORE KECCAK256 SLOAD SWAP1 JUMP JUMPDEST PUSH1 0xA SLOAD PUSH1 0x1 PUSH1 0x1 PUSH1 0xA0 SHL SUB AND CALLER EQ PUSH2 0xF06 JUMPI PUSH1 0x40 MLOAD PUSH3 0x461BCD PUSH1 0xE5 SHL DUP2 MSTORE PUSH1 0x4 ADD PUSH2 0xAFB SWAP1 PUSH2 0x2F0A JUMP JUMPDEST PUSH1 0xC SSTORE JUMP JUMPDEST PUSH1 0xA SLOAD PUSH1 0x1 PUSH1 0x1 PUSH1 0xA0 SHL SUB AND CALLER EQ PUSH2 0xF35 JUMPI PUSH1 0x40 MLOAD PUSH3 0x461BCD PUSH1 0xE5 SHL DUP2 MSTORE PUSH1 0x4 ADD PUSH2 0xAFB SWAP1 PUSH2 0x2F0A JUMP JUMPDEST PUSH1 0xA SLOAD PUSH1 0x40 MLOAD PUSH1 0x1 PUSH1 0x1 PUSH1 0xA0 SHL SUB SWAP1 SWAP2 AND SWAP1 SELFBALANCE DUP1 ISZERO PUSH2 0x8FC MUL SWAP2 PUSH1 0x0 DUP2 DUP2 DUP2 DUP6 DUP9 DUP9 CALL SWAP4 POP POP POP POP ISZERO DUP1 ISZERO PUSH2 0xCBA JUMPI RETURNDATASIZE PUSH1 0x0 DUP1 RETURNDATACOPY RETURNDATASIZE PUSH1 0x0 REVERT JUMPDEST PUSH2 0xC7D DUP4 DUP4 DUP4 PUSH1 0x40 MLOAD DUP1 PUSH1 0x20 ADD PUSH1 0x40 MSTORE DUP1 PUSH1 0x0 DUP2 MSTORE POP PUSH2 0x19F4 JUMP JUMPDEST PUSH1 0x60 PUSH1 0x0 PUSH2 0xF96 DUP4 PUSH2 0x171F JUMP JUMPDEST SWAP1 POP PUSH1 0x0 DUP2 PUSH8 0xFFFFFFFFFFFFFFFF DUP2 GT ISZERO PUSH2 0xFB3 JUMPI PUSH2 0xFB3 PUSH2 0x2CFB JUMP JUMPDEST PUSH1 0x40 MLOAD SWAP1 DUP1 DUP3 MSTORE DUP1 PUSH1 0x20 MUL PUSH1 0x20 ADD DUP3 ADD PUSH1 0x40 MSTORE DUP1 ISZERO PUSH2 0xFDC JUMPI DUP2 PUSH1 0x20 ADD PUSH1 0x20 DUP3 MUL DUP1 CALLDATASIZE DUP4 CALLDATACOPY ADD SWAP1 POP JUMPDEST POP SWAP1 POP PUSH1 0x0 JUMPDEST DUP3 DUP2 LT ISZERO PUSH2 0x1023 JUMPI PUSH2 0xFF4 DUP6 DUP3 PUSH2 0xE46 JUMP JUMPDEST DUP3 DUP3 DUP2 MLOAD DUP2 LT PUSH2 0x1006 JUMPI PUSH2 0x1006 PUSH2 0x2FEF JUMP JUMPDEST PUSH1 0x20 SWAP1 DUP2 MUL SWAP2 SWAP1 SWAP2 ADD ADD MSTORE DUP1 PUSH2 0x101B DUP2 PUSH2 0x3005 JUMP JUMPDEST SWAP2 POP POP PUSH2 0xFE2 JUMP JUMPDEST POP SWAP4 SWAP3 POP POP POP JUMP JUMPDEST PUSH1 0x0 PUSH2 0x1036 PUSH1 0x8 SLOAD SWAP1 JUMP JUMPDEST DUP3 LT PUSH2 0x1099 JUMPI PUSH1 0x40 MLOAD PUSH3 0x461BCD PUSH1 0xE5 SHL DUP2 MSTORE PUSH1 0x20 PUSH1 0x4 DUP3 ADD MSTORE PUSH1 0x2C PUSH1 0x24 DUP3 ADD MSTORE PUSH32 0x455243373231456E756D657261626C653A20676C6F62616C20696E646578206F PUSH1 0x44 DUP3 ADD MSTORE PUSH12 0x7574206F6620626F756E6473 PUSH1 0xA0 SHL PUSH1 0x64 DUP3 ADD MSTORE PUSH1 0x84 ADD PUSH2 0xAFB JUMP JUMPDEST PUSH1 0x8 DUP3 DUP2 SLOAD DUP2 LT PUSH2 0x10AC JUMPI PUSH2 0x10AC PUSH2 0x2FEF JUMP JUMPDEST SWAP1 PUSH1 0x0 MSTORE PUSH1 0x20 PUSH1 0x0 KECCAK256 ADD SLOAD SWAP1 POP SWAP2 SWAP1 POP JUMP JUMPDEST PUSH1 0x0 DUP2 DUP2 MSTORE PUSH1 0x2 PUSH1 0x20 MSTORE PUSH1 0x40 DUP2 KECCAK256 SLOAD PUSH1 0x1 PUSH1 0x1 PUSH1 0xA0 SHL SUB AND DUP1 PUSH2 0x9EE JUMPI PUSH1 0x40 MLOAD PUSH3 0x461BCD PUSH1 0xE5 SHL DUP2 MSTORE PUSH1 0x20 PUSH1 0x4 DUP3 ADD MSTORE PUSH1 0x29 PUSH1 0x24 DUP3 ADD MSTORE PUSH32 0x4552433732313A206F776E657220717565727920666F72206E6F6E6578697374 PUSH1 0x44 DUP3 ADD MSTORE PUSH9 0x32B73A103A37B5B2B7 PUSH1 0xB9 SHL PUSH1 0x64 DUP3 ADD MSTORE PUSH1 0x84 ADD PUSH2 0xAFB JUMP JUMPDEST PUSH1 0x13 SLOAD PUSH1 0x1 PUSH1 0xA0 SHL SWAP1 DIV PUSH1 0xFF AND ISZERO PUSH2 0x117F JUMPI PUSH1 0x40 MLOAD PUSH3 0x461BCD PUSH1 0xE5 SHL DUP2 MSTORE PUSH1 0x20 PUSH1 0x4 DUP3 ADD MSTORE PUSH1 0xD PUSH1 0x24 DUP3 ADD MSTORE PUSH13 0x4E6F207265656E7472616E6379 PUSH1 0x98 SHL PUSH1 0x44 DUP3 ADD MSTORE PUSH1 0x64 ADD PUSH2 0xAFB JUMP JUMPDEST PUSH1 0x13 DUP1 SLOAD PUSH1 0xFF PUSH1 0xA0 SHL NOT AND PUSH1 0x1 PUSH1 0xA0 SHL OR SWAP1 SSTORE PUSH2 0x11A6 PUSH1 0xA SLOAD PUSH1 0xFF PUSH1 0x1 PUSH1 0xA0 SHL SWAP1 SWAP2 DIV AND SWAP1 JUMP JUMPDEST ISZERO PUSH2 0x11E7 JUMPI PUSH1 0x40 MLOAD PUSH3 0x461BCD PUSH1 0xE5 SHL DUP2 MSTORE PUSH1 0x20 PUSH1 0x4 DUP3 ADD MSTORE PUSH1 0x11 PUSH1 0x24 DUP3 ADD MSTORE PUSH17 0x14185D5CD958589B194E881C185D5CD959 PUSH1 0x7A SHL PUSH1 0x44 DUP3 ADD MSTORE PUSH1 0x64 ADD PUSH2 0xAFB JUMP JUMPDEST ORIGIN CALLER EQ PUSH2 0x1221 JUMPI PUSH1 0x40 MLOAD PUSH3 0x461BCD PUSH1 0xE5 SHL DUP2 MSTORE PUSH1 0x20 PUSH1 0x4 DUP3 ADD MSTORE PUSH1 0x8 PUSH1 0x24 DUP3 ADD MSTORE PUSH8 0x4F6E6C7920454F41 PUSH1 0xC0 SHL PUSH1 0x44 DUP3 ADD MSTORE PUSH1 0x64 ADD PUSH2 0xAFB JUMP JUMPDEST PUSH1 0xD SLOAD PUSH32 0x0 SWAP1 PUSH2 0x1255 SWAP1 DUP5 SWAP1 PUSH2 0xFFFF AND PUSH2 0x3020 JUMP JUMPDEST GT ISZERO PUSH2 0x1297 JUMPI PUSH1 0x40 MLOAD PUSH3 0x461BCD PUSH1 0xE5 SHL DUP2 MSTORE PUSH1 0x20 PUSH1 0x4 DUP3 ADD MSTORE PUSH1 0x11 PUSH1 0x24 DUP3 ADD MSTORE PUSH17 0x105B1B081D1BDAD95B9CC81B5A5B9D1959 PUSH1 0x7A SHL PUSH1 0x44 DUP3 ADD MSTORE PUSH1 0x64 ADD PUSH2 0xAFB JUMP JUMPDEST PUSH1 0x0 DUP3 GT DUP1 ISZERO PUSH2 0x12A8 JUMPI POP PUSH1 0x1E DUP3 GT ISZERO JUMPDEST PUSH2 0x12EA JUMPI PUSH1 0x40 MLOAD PUSH3 0x461BCD PUSH1 0xE5 SHL DUP2 MSTORE PUSH1 0x20 PUSH1 0x4 DUP3 ADD MSTORE PUSH1 0x13 PUSH1 0x24 DUP3 ADD MSTORE PUSH19 0x125B9D985B1A59081B5A5B9D08185B5BDD5B9D PUSH1 0x6A SHL PUSH1 0x44 DUP3 ADD MSTORE PUSH1 0x64 ADD PUSH2 0xAFB JUMP JUMPDEST PUSH1 0xC SLOAD PUSH1 0xD SLOAD PUSH2 0xFFFF AND LT ISZERO PUSH2 0x13B7 JUMPI PUSH1 0xC SLOAD PUSH1 0xD SLOAD PUSH2 0x130F SWAP1 DUP5 SWAP1 PUSH2 0xFFFF AND PUSH2 0x3020 JUMP JUMPDEST GT ISZERO PUSH2 0x135D JUMPI PUSH1 0x40 MLOAD PUSH3 0x461BCD PUSH1 0xE5 SHL DUP2 MSTORE PUSH1 0x20 PUSH1 0x4 DUP3 ADD MSTORE PUSH1 0x1F PUSH1 0x24 DUP3 ADD MSTORE PUSH32 0x416C6C20746F6B656E73206F6E2D73616C6520616C726561647920736F6C6400 PUSH1 0x44 DUP3 ADD MSTORE PUSH1 0x64 ADD PUSH2 0xAFB JUMP JUMPDEST CALLVALUE PUSH1 0xB SLOAD DUP4 PUSH2 0x136C SWAP2 SWAP1 PUSH2 0x2FA6 JUMP JUMPDEST EQ PUSH2 0x13B2 JUMPI PUSH1 0x40 MLOAD PUSH3 0x461BCD PUSH1 0xE5 SHL DUP2 MSTORE PUSH1 0x20 PUSH1 0x4 DUP3 ADD MSTORE PUSH1 0x16 PUSH1 0x24 DUP3 ADD MSTORE PUSH22 0x125B9D985B1A59081C185E5B595B9D08185B5BDD5B9D PUSH1 0x52 SHL PUSH1 0x44 DUP3 ADD MSTORE PUSH1 0x64 ADD PUSH2 0xAFB JUMP JUMPDEST PUSH2 0x13C2 JUMP JUMPDEST CALLVALUE ISZERO PUSH2 0x13C2 JUMPI PUSH1 0x0 DUP1 REVERT JUMPDEST PUSH1 0x0 DUP1 DUP4 PUSH8 0xFFFFFFFFFFFFFFFF DUP2 GT ISZERO PUSH2 0x13DE JUMPI PUSH2 0x13DE PUSH2 0x2CFB JUMP JUMPDEST PUSH1 0x40 MLOAD SWAP1 DUP1 DUP3 MSTORE DUP1 PUSH1 0x20 MUL PUSH1 0x20 ADD DUP3 ADD PUSH1 0x40 MSTORE DUP1 ISZERO PUSH2 0x1407 JUMPI DUP2 PUSH1 0x20 ADD PUSH1 0x20 DUP3 MUL DUP1 CALLDATASIZE DUP4 CALLDATACOPY ADD SWAP1 POP JUMPDEST POP SWAP1 POP PUSH1 0x0 DUP5 PUSH8 0xFFFFFFFFFFFFFFFF DUP2 GT ISZERO PUSH2 0x1425 JUMPI PUSH2 0x1425 PUSH2 0x2CFB JUMP JUMPDEST PUSH1 0x40 MLOAD SWAP1 DUP1 DUP3 MSTORE DUP1 PUSH1 0x20 MUL PUSH1 0x20 ADD DUP3 ADD PUSH1 0x40 MSTORE DUP1 ISZERO PUSH2 0x144E JUMPI DUP2 PUSH1 0x20 ADD PUSH1 0x20 DUP3 MUL DUP1 CALLDATASIZE DUP4 CALLDATACOPY ADD SWAP1 POP JUMPDEST POP PUSH1 0xD SLOAD SWAP1 SWAP2 POP PUSH1 0x0 SWAP1 PUSH2 0xFFFF AND DUP2 JUMPDEST DUP8 DUP2 LT ISZERO PUSH2 0x15AA JUMPI PUSH1 0xD DUP1 SLOAD PUSH2 0xFFFF AND SWAP1 PUSH1 0x0 PUSH2 0x147A DUP4 PUSH2 0x3038 JUMP JUMPDEST DUP3 SLOAD PUSH2 0x100 SWAP3 SWAP1 SWAP3 EXP PUSH2 0xFFFF DUP2 DUP2 MUL NOT SWAP1 SWAP4 AND SWAP2 DUP4 AND MUL OR SWAP1 SWAP2 SSTORE PUSH1 0xD SLOAD PUSH2 0x14A4 SWAP3 POP AND DUP5 PUSH2 0x1B67 JUMP JUMPDEST POP PUSH1 0x0 PUSH2 0x14B0 DUP5 PUSH2 0x2384 JUMP JUMPDEST PUSH1 0xD SLOAD SWAP1 SWAP2 POP PUSH2 0x14C3 SWAP1 PUSH2 0xFFFF AND PUSH2 0xD86 JUMP JUMPDEST PUSH2 0x14CD SWAP1 DUP9 PUSH2 0x3020 JUMP JUMPDEST SWAP7 POP DUP8 ISZERO DUP1 PUSH2 0x14E5 JUMPI POP PUSH1 0x1 PUSH1 0x1 PUSH1 0xA0 SHL SUB DUP2 AND CALLER EQ ISZERO JUMPDEST ISZERO PUSH2 0x1522 JUMPI DUP1 DUP6 DUP4 DUP2 MLOAD DUP2 LT PUSH2 0x14FD JUMPI PUSH2 0x14FD PUSH2 0x2FEF JUMP JUMPDEST PUSH1 0x20 MUL PUSH1 0x20 ADD ADD SWAP1 PUSH1 0x1 PUSH1 0x1 PUSH1 0xA0 SHL SUB AND SWAP1 DUP2 PUSH1 0x1 PUSH1 0x1 PUSH1 0xA0 SHL SUB AND DUP2 MSTORE POP POP PUSH2 0x1597 JUMP JUMPDEST PUSH1 0xD SLOAD DUP7 MLOAD PUSH2 0xFFFF SWAP1 SWAP2 AND SWAP1 DUP8 SWAP1 DUP5 SWAP1 DUP2 LT PUSH2 0x1540 JUMPI PUSH2 0x1540 PUSH2 0x2FEF JUMP JUMPDEST PUSH2 0xFFFF SWAP1 SWAP3 AND PUSH1 0x20 SWAP3 DUP4 MUL SWAP2 SWAP1 SWAP2 ADD SWAP1 SWAP2 ADD MSTORE PUSH1 0x10 SLOAD DUP6 MLOAD PUSH1 0x1 PUSH1 0x1 PUSH1 0xA0 SHL SUB SWAP1 SWAP2 AND SWAP1 DUP7 SWAP1 DUP5 SWAP1 DUP2 LT PUSH2 0x1576 JUMPI PUSH2 0x1576 PUSH2 0x2FEF JUMP JUMPDEST PUSH1 0x20 MUL PUSH1 0x20 ADD ADD SWAP1 PUSH1 0x1 PUSH1 0x1 PUSH1 0xA0 SHL SUB AND SWAP1 DUP2 PUSH1 0x1 PUSH1 0x1 PUSH1 0xA0 SHL SUB AND DUP2 MSTORE POP POP JUMPDEST POP DUP1 PUSH2 0x15A2 DUP2 PUSH2 0x3005 JUMP JUMPDEST SWAP2 POP POP PUSH2 0x145E JUMP JUMPDEST POP DUP5 ISZERO PUSH2 0x1624 JUMPI PUSH1 0x11 SLOAD PUSH1 0x1 PUSH1 0x1 PUSH1 0xA0 SHL SUB AND PUSH4 0x9DC29FAC CALLER PUSH1 0x40 MLOAD PUSH1 0x1 PUSH1 0x1 PUSH1 0xE0 SHL SUB NOT PUSH1 0xE0 DUP5 SWAP1 SHL AND DUP2 MSTORE PUSH1 0x1 PUSH1 0x1 PUSH1 0xA0 SHL SUB SWAP1 SWAP2 AND PUSH1 0x4 DUP3 ADD MSTORE PUSH1 0x24 DUP2 ADD DUP9 SWAP1 MSTORE PUSH1 0x44 ADD PUSH1 0x0 PUSH1 0x40 MLOAD DUP1 DUP4 SUB DUP2 PUSH1 0x0 DUP8 DUP1 EXTCODESIZE ISZERO DUP1 ISZERO PUSH2 0x160B JUMPI PUSH1 0x0 DUP1 REVERT JUMPDEST POP GAS CALL ISZERO DUP1 ISZERO PUSH2 0x161F JUMPI RETURNDATASIZE PUSH1 0x0 DUP1 RETURNDATACOPY RETURNDATASIZE PUSH1 0x0 REVERT JUMPDEST POP POP POP POP JUMPDEST PUSH1 0x0 JUMPDEST DUP4 MLOAD DUP2 LT ISZERO PUSH2 0x16BC JUMPI PUSH1 0x0 PUSH2 0x163C DUP3 DUP5 PUSH2 0x3020 JUMP JUMPDEST PUSH2 0x1647 SWAP1 PUSH1 0x1 PUSH2 0x3020 JUMP JUMPDEST SWAP1 POP DUP8 ISZERO DUP1 PUSH2 0x1681 JUMPI POP CALLER PUSH1 0x1 PUSH1 0x1 PUSH1 0xA0 SHL SUB AND DUP6 DUP4 DUP2 MLOAD DUP2 LT PUSH2 0x166D JUMPI PUSH2 0x166D PUSH2 0x2FEF JUMP JUMPDEST PUSH1 0x20 MUL PUSH1 0x20 ADD ADD MLOAD PUSH1 0x1 PUSH1 0x1 PUSH1 0xA0 SHL SUB AND EQ ISZERO JUMPDEST ISZERO PUSH2 0x16A9 JUMPI PUSH2 0x16A9 DUP6 DUP4 DUP2 MLOAD DUP2 LT PUSH2 0x169B JUMPI PUSH2 0x169B PUSH2 0x2FEF JUMP JUMPDEST PUSH1 0x20 MUL PUSH1 0x20 ADD ADD MLOAD DUP3 PUSH2 0x2442 JUMP JUMPDEST POP DUP1 PUSH2 0x16B4 DUP2 PUSH2 0x3005 JUMP JUMPDEST SWAP2 POP POP PUSH2 0x1627 JUMP JUMPDEST POP POP PUSH1 0x13 DUP1 SLOAD PUSH1 0xFF PUSH1 0xA0 SHL NOT AND SWAP1 SSTORE POP POP POP POP POP POP JUMP JUMPDEST PUSH1 0xA SLOAD PUSH1 0x1 PUSH1 0x1 PUSH1 0xA0 SHL SUB AND CALLER EQ PUSH2 0x16FD JUMPI PUSH1 0x40 MLOAD PUSH3 0x461BCD PUSH1 0xE5 SHL DUP2 MSTORE PUSH1 0x4 ADD PUSH2 0xAFB SWAP1 PUSH2 0x2F0A JUMP JUMPDEST PUSH1 0x12 DUP1 SLOAD PUSH1 0x1 PUSH1 0x1 PUSH1 0xA0 SHL SUB NOT AND PUSH1 0x1 PUSH1 0x1 PUSH1 0xA0 SHL SUB SWAP3 SWAP1 SWAP3 AND SWAP2 SWAP1 SWAP2 OR SWAP1 SSTORE JUMP JUMPDEST PUSH1 0x0 PUSH1 0x1 PUSH1 0x1 PUSH1 0xA0 SHL SUB DUP3 AND PUSH2 0x178A JUMPI PUSH1 0x40 MLOAD PUSH3 0x461BCD PUSH1 0xE5 SHL DUP2 MSTORE PUSH1 0x20 PUSH1 0x4 DUP3 ADD MSTORE PUSH1 0x2A PUSH1 0x24 DUP3 ADD MSTORE PUSH32 0x4552433732313A2062616C616E636520717565727920666F7220746865207A65 PUSH1 0x44 DUP3 ADD MSTORE PUSH10 0x726F2061646472657373 PUSH1 0xB0 SHL PUSH1 0x64 DUP3 ADD MSTORE PUSH1 0x84 ADD PUSH2 0xAFB JUMP JUMPDEST POP PUSH1 0x1 PUSH1 0x1 PUSH1 0xA0 SHL SUB AND PUSH1 0x0 SWAP1 DUP2 MSTORE PUSH1 0x3 PUSH1 0x20 MSTORE PUSH1 0x40 SWAP1 KECCAK256 SLOAD SWAP1 JUMP JUMPDEST PUSH1 0x40 MLOAD PUSH12 0xFFFFFFFFFFFFFFFFFFFFFFFF NOT ORIGIN PUSH1 0x60 SHL AND PUSH1 0x20 DUP3 ADD MSTORE DIFFICULTY PUSH1 0x34 DUP3 ADD MSTORE TIMESTAMP PUSH1 0x54 DUP3 ADD MSTORE PUSH1 0x74 DUP2 ADD DUP3 SWAP1 MSTORE PUSH1 0x0 SWAP1 PUSH1 0x64 SWAP1 PUSH1 0x94 ADD PUSH1 0x40 MLOAD PUSH1 0x20 DUP2 DUP4 SUB SUB DUP2 MSTORE SWAP1 PUSH1 0x40 MSTORE DUP1 MLOAD SWAP1 PUSH1 0x20 ADD KECCAK256 PUSH1 0x0 SHR PUSH2 0x9EE SWAP2 SWAP1 PUSH2 0x305A JUMP JUMPDEST PUSH2 0x1808 PUSH2 0x29F5 JUMP JUMPDEST POP PUSH1 0x0 SWAP1 DUP2 MSTORE PUSH1 0xE PUSH1 0x20 SWAP1 DUP2 MSTORE PUSH1 0x40 SWAP2 DUP3 SWAP1 KECCAK256 DUP3 MLOAD PUSH2 0x120 DUP2 ADD DUP5 MSTORE SWAP1 SLOAD PUSH1 0xFF DUP1 DUP3 AND ISZERO ISZERO DUP4 MSTORE PUSH2 0x100 DUP1 DUP4 DIV DUP3 AND SWAP5 DUP5 ADD SWAP5 SWAP1 SWAP5 MSTORE PUSH3 0x10000 DUP3 DIV DUP2 AND SWAP5 DUP4 ADD SWAP5 SWAP1 SWAP5 MSTORE PUSH4 0x1000000 DUP2 DIV DUP5 AND PUSH1 0x60 DUP4 ADD MSTORE PUSH5 0x100000000 DUP2 DIV DUP5 AND PUSH1 0x80 DUP4 ADD MSTORE PUSH1 0x1 PUSH1 0x28 SHL DUP2 DIV DUP5 AND PUSH1 0xA0 DUP4 ADD MSTORE PUSH1 0x1 PUSH1 0x30 SHL DUP2 DIV DUP5 AND PUSH1 0xC0 DUP4 ADD MSTORE PUSH1 0x1 PUSH1 0x38 SHL DUP2 DIV DUP5 AND PUSH1 0xE0 DUP4 ADD MSTORE PUSH1 0x1 PUSH1 0x40 SHL SWAP1 DIV SWAP1 SWAP3 AND SWAP1 DUP3 ADD MSTORE SWAP1 JUMP JUMPDEST PUSH1 0x60 PUSH1 0x1 DUP1 SLOAD PUSH2 0xA03 SWAP1 PUSH2 0x2ED5 JUMP JUMPDEST PUSH1 0xA SLOAD PUSH1 0x1 PUSH1 0x1 PUSH1 0xA0 SHL SUB AND CALLER EQ PUSH2 0x18DE JUMPI PUSH1 0x40 MLOAD PUSH3 0x461BCD PUSH1 0xE5 SHL DUP2 MSTORE PUSH1 0x4 ADD PUSH2 0xAFB SWAP1 PUSH2 0x2F0A JUMP JUMPDEST PUSH1 0x14 DUP1 SLOAD PUSH1 0x1 PUSH1 0x1 PUSH1 0xA0 SHL SUB NOT AND PUSH1 0x1 PUSH1 0x1 PUSH1 0xA0 SHL SUB SWAP3 SWAP1 SWAP3 AND SWAP2 SWAP1 SWAP2 OR SWAP1 SSTORE JUMP JUMPDEST PUSH1 0x1 PUSH1 0x1 PUSH1 0xA0 SHL SUB DUP3 AND CALLER EQ ISZERO PUSH2 0x1959 JUMPI PUSH1 0x40 MLOAD PUSH3 0x461BCD PUSH1 0xE5 SHL DUP2 MSTORE PUSH1 0x20 PUSH1 0x4 DUP3 ADD MSTORE PUSH1 0x19 PUSH1 0x24 DUP3 ADD MSTORE PUSH32 0x4552433732313A20617070726F766520746F2063616C6C657200000000000000 PUSH1 0x44 DUP3 ADD MSTORE PUSH1 0x64 ADD PUSH2 0xAFB JUMP JUMPDEST CALLER PUSH1 0x0 DUP2 DUP2 MSTORE PUSH1 0x5 PUSH1 0x20 SWAP1 DUP2 MSTORE PUSH1 0x40 DUP1 DUP4 KECCAK256 PUSH1 0x1 PUSH1 0x1 PUSH1 0xA0 SHL SUB DUP8 AND DUP1 DUP6 MSTORE SWAP1 DUP4 MSTORE SWAP3 DUP2 SWAP1 KECCAK256 DUP1 SLOAD PUSH1 0xFF NOT AND DUP7 ISZERO ISZERO SWAP1 DUP2 OR SWAP1 SWAP2 SSTORE SWAP1 MLOAD SWAP1 DUP2 MSTORE SWAP2 SWAP3 SWAP2 PUSH32 0x17307EAB39AB6107E8899845AD3D59BD9653F200F220920489CA2B5937696C31 SWAP2 ADD PUSH1 0x40 MLOAD DUP1 SWAP2 SUB SWAP1 LOG3 POP POP JUMP JUMPDEST PUSH1 0xA SLOAD PUSH1 0x1 PUSH1 0x1 PUSH1 0xA0 SHL SUB AND CALLER EQ PUSH2 0x19EF JUMPI PUSH1 0x40 MLOAD PUSH3 0x461BCD PUSH1 0xE5 SHL DUP2 MSTORE PUSH1 0x4 ADD PUSH2 0xAFB SWAP1 PUSH2 0x2F0A JUMP JUMPDEST PUSH1 0xB SSTORE JUMP JUMPDEST PUSH2 0x19FE CALLER DUP4 PUSH2 0x20E2 JUMP JUMPDEST PUSH2 0x1A1A JUMPI PUSH1 0x40 MLOAD PUSH3 0x461BCD PUSH1 0xE5 SHL DUP2 MSTORE PUSH1 0x4 ADD PUSH2 0xAFB SWAP1 PUSH2 0x2F3F JUMP JUMPDEST PUSH2 0x1A25 DUP5 DUP5 DUP5 PUSH2 0xCC5 JUMP JUMPDEST POP POP POP POP JUMP JUMPDEST PUSH1 0x0 DUP2 DUP2 MSTORE PUSH1 0x2 PUSH1 0x20 MSTORE PUSH1 0x40 SWAP1 KECCAK256 SLOAD PUSH1 0x60 SWAP1 PUSH1 0x1 PUSH1 0x1 PUSH1 0xA0 SHL SUB AND PUSH2 0x1AAA JUMPI PUSH1 0x40 MLOAD PUSH3 0x461BCD PUSH1 0xE5 SHL DUP2 MSTORE PUSH1 0x20 PUSH1 0x4 DUP3 ADD MSTORE PUSH1 0x2F PUSH1 0x24 DUP3 ADD MSTORE PUSH32 0x4552433732314D657461646174613A2055524920717565727920666F72206E6F PUSH1 0x44 DUP3 ADD MSTORE PUSH15 0x3732BC34B9BA32B73A103A37B5B2B7 PUSH1 0x89 SHL PUSH1 0x64 DUP3 ADD MSTORE PUSH1 0x84 ADD PUSH2 0xAFB JUMP JUMPDEST PUSH1 0x12 SLOAD PUSH1 0x40 MLOAD PUSH4 0xC87B56DD PUSH1 0xE0 SHL DUP2 MSTORE PUSH1 0x4 DUP2 ADD DUP5 SWAP1 MSTORE PUSH1 0x1 PUSH1 0x1 PUSH1 0xA0 SHL SUB SWAP1 SWAP2 AND SWAP1 PUSH4 0xC87B56DD SWAP1 PUSH1 0x24 ADD PUSH1 0x0 PUSH1 0x40 MLOAD DUP1 DUP4 SUB DUP2 DUP7 GAS STATICCALL ISZERO DUP1 ISZERO PUSH2 0x1AF3 JUMPI RETURNDATASIZE PUSH1 0x0 DUP1 RETURNDATACOPY RETURNDATASIZE PUSH1 0x0 REVERT JUMPDEST POP POP POP POP PUSH1 0x40 MLOAD RETURNDATASIZE PUSH1 0x0 DUP3 RETURNDATACOPY PUSH1 0x1F RETURNDATASIZE SWAP1 DUP2 ADD PUSH1 0x1F NOT AND DUP3 ADD PUSH1 0x40 MSTORE PUSH2 0x9EE SWAP2 SWAP1 DUP2 ADD SWAP1 PUSH2 0x306E JUMP JUMPDEST PUSH1 0xA SLOAD PUSH1 0x1 PUSH1 0x1 PUSH1 0xA0 SHL SUB AND CALLER EQ PUSH2 0x1B45 JUMPI PUSH1 0x40 MLOAD PUSH3 0x461BCD PUSH1 0xE5 SHL DUP2 MSTORE PUSH1 0x4 ADD PUSH2 0xAFB SWAP1 PUSH2 0x2F0A JUMP JUMPDEST PUSH1 0x13 DUP1 SLOAD PUSH1 0x1 PUSH1 0x1 PUSH1 0xA0 SHL SUB NOT AND PUSH1 0x1 PUSH1 0x1 PUSH1 0xA0 SHL SUB SWAP3 SWAP1 SWAP3 AND SWAP2 SWAP1 SWAP2 OR SWAP1 SSTORE JUMP JUMPDEST PUSH2 0x1B6F PUSH2 0x29F5 JUMP JUMPDEST PUSH2 0x1B78 DUP3 PUSH2 0x2460 JUMP JUMPDEST PUSH1 0x0 SWAP4 DUP5 MSTORE PUSH1 0xE PUSH1 0x20 SWAP1 DUP2 MSTORE PUSH1 0x40 SWAP5 DUP6 SWAP1 KECCAK256 DUP3 MLOAD DUP2 SLOAD SWAP3 DUP5 ADD MLOAD SWAP7 DUP5 ADD MLOAD PUSH1 0x60 DUP6 ADD MLOAD PUSH1 0x80 DUP7 ADD MLOAD PUSH1 0xA0 DUP8 ADD MLOAD PUSH1 0xC0 DUP9 ADD MLOAD PUSH1 0xE0 DUP10 ADD MLOAD PUSH2 0x100 DUP1 DUP12 ADD MLOAD PUSH2 0xFFFF NOT SWAP1 SWAP11 AND SWAP8 ISZERO ISZERO PUSH2 0xFF00 NOT AND SWAP8 SWAP1 SWAP8 OR PUSH1 0xFF SWAP14 DUP15 AND SWAP1 SWAP8 MUL SWAP7 SWAP1 SWAP7 OR PUSH4 0xFFFF0000 NOT AND PUSH3 0x10000 SWAP6 DUP14 AND SWAP6 SWAP1 SWAP6 MUL PUSH4 0xFF000000 NOT AND SWAP5 SWAP1 SWAP5 OR PUSH4 0x1000000 SWAP4 DUP13 AND SWAP4 SWAP1 SWAP4 MUL SWAP3 SWAP1 SWAP3 OR PUSH6 0xFFFF00000000 NOT AND PUSH5 0x100000000 SWAP2 DUP12 AND SWAP2 SWAP1 SWAP2 MUL PUSH6 0xFF0000000000 NOT AND OR PUSH1 0x1 PUSH1 0x28 SHL SWAP2 DUP11 AND SWAP2 SWAP1 SWAP2 MUL OR PUSH8 0xFFFF000000000000 NOT AND PUSH1 0x1 PUSH1 0x30 SHL SWAP2 DUP10 AND SWAP2 SWAP1 SWAP2 MUL PUSH1 0xFF PUSH1 0x38 SHL NOT AND OR PUSH1 0x1 PUSH1 0x38 SHL SWAP2 DUP9 AND SWAP2 SWAP1 SWAP2 MUL OR PUSH1 0xFF PUSH1 0x40 SHL NOT AND PUSH1 0x1 PUSH1 0x40 SHL SWAP7 SWAP1 SWAP3 AND SWAP6 SWAP1 SWAP6 MUL OR SWAP1 SWAP4 SSTORE POP SWAP1 SWAP2 SWAP1 POP JUMP JUMPDEST PUSH1 0x14 SLOAD PUSH1 0x1 PUSH1 0x1 PUSH1 0xA0 SHL SUB AND CALLER EQ PUSH2 0x1CC3 JUMPI PUSH1 0x40 MLOAD PUSH3 0x461BCD PUSH1 0xE5 SHL DUP2 MSTORE PUSH1 0x20 PUSH1 0x4 DUP3 ADD MSTORE PUSH1 0xC PUSH1 0x24 DUP3 ADD MSTORE PUSH12 0x27B7363C9039BBB0B83832B9 PUSH1 0xA1 SHL PUSH1 0x44 DUP3 ADD MSTORE PUSH1 0x64 ADD PUSH2 0xAFB JUMP JUMPDEST PUSH1 0x40 MLOAD PUSH4 0x94E56847 PUSH1 0xE0 SHL DUP2 MSTORE PUSH1 0x4 DUP2 ADD DUP4 SWAP1 MSTORE PUSH1 0x1 PUSH1 0x1 PUSH1 0xA0 SHL SUB DUP5 AND SWAP1 PUSH4 0x94E56847 SWAP1 PUSH1 0x24 ADD PUSH2 0x120 PUSH1 0x40 MLOAD DUP1 DUP4 SUB DUP2 DUP7 GAS STATICCALL ISZERO DUP1 ISZERO PUSH2 0x1D09 JUMPI RETURNDATASIZE PUSH1 0x0 DUP1 RETURNDATACOPY RETURNDATASIZE PUSH1 0x0 REVERT JUMPDEST POP POP POP POP PUSH1 0x40 MLOAD RETURNDATASIZE PUSH1 0x1F NOT PUSH1 0x1F DUP3 ADD AND DUP3 ADD DUP1 PUSH1 0x40 MSTORE POP DUP2 ADD SWAP1 PUSH2 0x1D2D SWAP2 SWAP1 PUSH2 0x3106 JUMP JUMPDEST PUSH1 0x0 DUP4 DUP2 MSTORE PUSH1 0xE PUSH1 0x20 SWAP1 DUP2 MSTORE PUSH1 0x40 DUP1 DUP4 KECCAK256 DUP5 MLOAD DUP2 SLOAD SWAP4 DUP7 ADD MLOAD SWAP3 DUP7 ADD MLOAD PUSH1 0x60 DUP8 ADD MLOAD PUSH1 0x80 DUP9 ADD MLOAD PUSH1 0xA0 DUP10 ADD MLOAD PUSH1 0xC0 DUP11 ADD MLOAD PUSH1 0xE0 DUP12 ADD MLOAD PUSH2 0x100 SWAP12 DUP13 ADD MLOAD PUSH2 0xFFFF NOT SWAP1 SWAP11 AND SWAP7 ISZERO ISZERO PUSH2 0xFF00 NOT AND SWAP7 SWAP1 SWAP7 OR PUSH1 0xFF SWAP9 DUP10 AND SWAP1 SWAP12 MUL SWAP11 SWAP1 SWAP11 OR PUSH4 0xFFFF0000 NOT AND PUSH3 0x10000 SWAP5 DUP9 AND SWAP5 SWAP1 SWAP5 MUL PUSH4 0xFF000000 NOT AND SWAP4 SWAP1 SWAP4 OR PUSH4 0x1000000 SWAP3 DUP8 AND SWAP3 SWAP1 SWAP3 MUL SWAP2 SWAP1 SWAP2 OR PUSH6 0xFFFF00000000 NOT AND PUSH5 0x100000000 SWAP2 DUP7 AND SWAP2 SWAP1 SWAP2 MUL PUSH6 0xFF0000000000 NOT AND OR PUSH1 0x1 PUSH1 0x28 SHL SWAP2 DUP6 AND SWAP2 SWAP1 SWAP2 MUL OR PUSH8 0xFFFF000000000000 NOT AND PUSH1 0x1 PUSH1 0x30 SHL SWAP7 DUP5 AND SWAP7 SWAP1 SWAP7 MUL PUSH1 0xFF PUSH1 0x38 SHL NOT AND SWAP6 SWAP1 SWAP6 OR PUSH1 0x1 PUSH1 0x38 SHL SWAP6 DUP4 AND SWAP6 SWAP1 SWAP6 MUL SWAP5 SWAP1 SWAP5 OR PUSH1 0xFF PUSH1 0x40 SHL NOT AND PUSH1 0x1 PUSH1 0x40 SHL SWAP2 SWAP1 SWAP3 AND MUL OR SWAP1 SWAP2 SSTORE PUSH1 0xD DUP1 SLOAD PUSH2 0xFFFF AND SWAP2 PUSH2 0x1E3C DUP4 PUSH2 0x3038 JUMP JUMPDEST SWAP2 SWAP1 PUSH2 0x100 EXP DUP2 SLOAD DUP2 PUSH2 0xFFFF MUL NOT AND SWAP1 DUP4 PUSH2 0xFFFF AND MUL OR SWAP1 SSTORE POP POP PUSH2 0xC7D DUP2 DUP4 PUSH2 0x2442 JUMP JUMPDEST PUSH1 0xA SLOAD PUSH1 0x1 PUSH1 0x1 PUSH1 0xA0 SHL SUB AND CALLER EQ PUSH2 0x1E8B JUMPI PUSH1 0x40 MLOAD PUSH3 0x461BCD PUSH1 0xE5 SHL DUP2 MSTORE PUSH1 0x4 ADD PUSH2 0xAFB SWAP1 PUSH2 0x2F0A JUMP JUMPDEST PUSH1 0x1 PUSH1 0x1 PUSH1 0xA0 SHL SUB DUP2 AND PUSH2 0x1EF0 JUMPI PUSH1 0x40 MLOAD PUSH3 0x461BCD PUSH1 0xE5 SHL DUP2 MSTORE PUSH1 0x20 PUSH1 0x4 DUP3 ADD MSTORE PUSH1 0x26 PUSH1 0x24 DUP3 ADD MSTORE PUSH32 0x4F776E61626C653A206E6577206F776E657220697320746865207A65726F2061 PUSH1 0x44 DUP3 ADD MSTORE PUSH6 0x646472657373 PUSH1 0xD0 SHL PUSH1 0x64 DUP3 ADD MSTORE PUSH1 0x84 ADD PUSH2 0xAFB JUMP JUMPDEST PUSH2 0xCBA DUP2 PUSH2 0x2589 JUMP JUMPDEST PUSH1 0x0 PUSH1 0x1 PUSH1 0x1 PUSH1 0xE0 SHL SUB NOT DUP3 AND PUSH4 0x80AC58CD PUSH1 0xE0 SHL EQ DUP1 PUSH2 0x1F2A JUMPI POP PUSH1 0x1 PUSH1 0x1 PUSH1 0xE0 SHL SUB NOT DUP3 AND PUSH4 0x5B5E139F PUSH1 0xE0 SHL EQ JUMPDEST DUP1 PUSH2 0x9EE JUMPI POP PUSH4 0x1FFC9A7 PUSH1 0xE0 SHL PUSH1 0x1 PUSH1 0x1 PUSH1 0xE0 SHL SUB NOT DUP4 AND EQ PUSH2 0x9EE JUMP JUMPDEST PUSH1 0x0 DUP2 DUP2 MSTORE PUSH1 0x4 PUSH1 0x20 MSTORE PUSH1 0x40 SWAP1 KECCAK256 DUP1 SLOAD PUSH1 0x1 PUSH1 0x1 PUSH1 0xA0 SHL SUB NOT AND PUSH1 0x1 PUSH1 0x1 PUSH1 0xA0 SHL SUB DUP5 AND SWAP1 DUP2 OR SWAP1 SWAP2 SSTORE DUP2 SWAP1 PUSH2 0x1F7E DUP3 PUSH2 0x10BE JUMP JUMPDEST PUSH1 0x1 PUSH1 0x1 PUSH1 0xA0 SHL SUB AND PUSH32 0x8C5BE1E5EBEC7D5BD14F71427D1E84F3DD0314C0F7B2291E5B200AC8C7C3B925 PUSH1 0x40 MLOAD PUSH1 0x40 MLOAD DUP1 SWAP2 SUB SWAP1 LOG4 POP POP JUMP JUMPDEST PUSH1 0xA SLOAD PUSH1 0x1 PUSH1 0xA0 SHL SWAP1 DIV PUSH1 0xFF AND ISZERO PUSH2 0x2005 JUMPI PUSH1 0x40 MLOAD PUSH3 0x461BCD PUSH1 0xE5 SHL DUP2 MSTORE PUSH1 0x20 PUSH1 0x4 DUP3 ADD MSTORE PUSH1 0x11 PUSH1 0x24 DUP3 ADD MSTORE PUSH17 0x14185D5CD958589B194E881C185D5CD959 PUSH1 0x7A SHL PUSH1 0x44 DUP3 ADD MSTORE PUSH1 0x64 ADD PUSH2 0xAFB JUMP JUMPDEST PUSH1 0xA DUP1 SLOAD PUSH1 0xFF PUSH1 0xA0 SHL NOT AND PUSH1 0x1 PUSH1 0xA0 SHL OR SWAP1 SSTORE PUSH32 0x62E78CEA01BEE320CD4E420270B5EA74000D11B0C9F74754EBDBFC544B05A258 PUSH2 0x2040 CALLER SWAP1 JUMP JUMPDEST PUSH1 0x40 MLOAD PUSH1 0x1 PUSH1 0x1 PUSH1 0xA0 SHL SUB SWAP1 SWAP2 AND DUP2 MSTORE PUSH1 0x20 ADD PUSH1 0x40 MLOAD DUP1 SWAP2 SUB SWAP1 LOG1 JUMP JUMPDEST PUSH1 0xA SLOAD PUSH1 0x1 PUSH1 0xA0 SHL SWAP1 DIV PUSH1 0xFF AND PUSH2 0x20AE JUMPI PUSH1 0x40 MLOAD PUSH3 0x461BCD PUSH1 0xE5 SHL DUP2 MSTORE PUSH1 0x20 PUSH1 0x4 DUP3 ADD MSTORE PUSH1 0x15 PUSH1 0x24 DUP3 ADD MSTORE PUSH21 0x14185D5CD958589B194E881B9BDD081C185D5CD959 PUSH1 0x5A SHL PUSH1 0x44 DUP3 ADD MSTORE PUSH1 0x64 ADD PUSH2 0xAFB JUMP JUMPDEST PUSH1 0xA DUP1 SLOAD PUSH1 0xFF PUSH1 0xA0 SHL NOT AND SWAP1 SSTORE PUSH32 0x5DB9EE0A495BF2E6FF9C91A7834C1BA4FDD244A5E8AA4E537BD38AEAE4B073AA CALLER PUSH2 0x2040 JUMP JUMPDEST PUSH1 0x0 DUP2 DUP2 MSTORE PUSH1 0x2 PUSH1 0x20 MSTORE PUSH1 0x40 DUP2 KECCAK256 SLOAD PUSH1 0x1 PUSH1 0x1 PUSH1 0xA0 SHL SUB AND PUSH2 0x215B JUMPI PUSH1 0x40 MLOAD PUSH3 0x461BCD PUSH1 0xE5 SHL DUP2 MSTORE PUSH1 0x20 PUSH1 0x4 DUP3 ADD MSTORE PUSH1 0x2C PUSH1 0x24 DUP3 ADD MSTORE PUSH32 0x4552433732313A206F70657261746F7220717565727920666F72206E6F6E6578 PUSH1 0x44 DUP3 ADD MSTORE PUSH12 0x34B9BA32B73A103A37B5B2B7 PUSH1 0xA1 SHL PUSH1 0x64 DUP3 ADD MSTORE PUSH1 0x84 ADD PUSH2 0xAFB JUMP JUMPDEST PUSH1 0x0 PUSH2 0x2166 DUP4 PUSH2 0x10BE JUMP JUMPDEST SWAP1 POP DUP1 PUSH1 0x1 PUSH1 0x1 PUSH1 0xA0 SHL SUB AND DUP5 PUSH1 0x1 PUSH1 0x1 PUSH1 0xA0 SHL SUB AND EQ DUP1 PUSH2 0x21A1 JUMPI POP DUP4 PUSH1 0x1 PUSH1 0x1 PUSH1 0xA0 SHL SUB AND PUSH2 0x2196 DUP5 PUSH2 0xA86 JUMP JUMPDEST PUSH1 0x1 PUSH1 0x1 PUSH1 0xA0 SHL SUB AND EQ JUMPDEST DUP1 PUSH2 0x21D1 JUMPI POP PUSH1 0x1 PUSH1 0x1 PUSH1 0xA0 SHL SUB DUP1 DUP3 AND PUSH1 0x0 SWAP1 DUP2 MSTORE PUSH1 0x5 PUSH1 0x20 SWAP1 DUP2 MSTORE PUSH1 0x40 DUP1 DUP4 KECCAK256 SWAP4 DUP9 AND DUP4 MSTORE SWAP3 SWAP1 MSTORE KECCAK256 SLOAD PUSH1 0xFF AND JUMPDEST SWAP5 SWAP4 POP POP POP POP JUMP JUMPDEST DUP3 PUSH1 0x1 PUSH1 0x1 PUSH1 0xA0 SHL SUB AND PUSH2 0x21EC DUP3 PUSH2 0x10BE JUMP JUMPDEST PUSH1 0x1 PUSH1 0x1 PUSH1 0xA0 SHL SUB AND EQ PUSH2 0x2254 JUMPI PUSH1 0x40 MLOAD PUSH3 0x461BCD PUSH1 0xE5 SHL DUP2 MSTORE PUSH1 0x20 PUSH1 0x4 DUP3 ADD MSTORE PUSH1 0x29 PUSH1 0x24 DUP3 ADD MSTORE PUSH32 0x4552433732313A207472616E73666572206F6620746F6B656E20746861742069 PUSH1 0x44 DUP3 ADD MSTORE PUSH9 0x39903737BA1037BBB7 PUSH1 0xB9 SHL PUSH1 0x64 DUP3 ADD MSTORE PUSH1 0x84 ADD PUSH2 0xAFB JUMP JUMPDEST PUSH1 0x1 PUSH1 0x1 PUSH1 0xA0 SHL SUB DUP3 AND PUSH2 0x22B6 JUMPI PUSH1 0x40 MLOAD PUSH3 0x461BCD PUSH1 0xE5 SHL DUP2 MSTORE PUSH1 0x20 PUSH1 0x4 DUP3 ADD MSTORE PUSH1 0x24 DUP1 DUP3 ADD MSTORE PUSH32 0x4552433732313A207472616E7366657220746F20746865207A65726F20616464 PUSH1 0x44 DUP3 ADD MSTORE PUSH4 0x72657373 PUSH1 0xE0 SHL PUSH1 0x64 DUP3 ADD MSTORE PUSH1 0x84 ADD PUSH2 0xAFB JUMP JUMPDEST PUSH2 0x22C1 DUP4 DUP4 DUP4 PUSH2 0x25DB JUMP JUMPDEST PUSH2 0x22CC PUSH1 0x0 DUP3 PUSH2 0x1F49 JUMP JUMPDEST PUSH1 0x1 PUSH1 0x1 PUSH1 0xA0 SHL SUB DUP4 AND PUSH1 0x0 SWAP1 DUP2 MSTORE PUSH1 0x3 PUSH1 0x20 MSTORE PUSH1 0x40 DUP2 KECCAK256 DUP1 SLOAD PUSH1 0x1 SWAP3 SWAP1 PUSH2 0x22F5 SWAP1 DUP5 SWAP1 PUSH2 0x31BC JUMP JUMPDEST SWAP1 SWAP2 SSTORE POP POP PUSH1 0x1 PUSH1 0x1 PUSH1 0xA0 SHL SUB DUP3 AND PUSH1 0x0 SWAP1 DUP2 MSTORE PUSH1 0x3 PUSH1 0x20 MSTORE PUSH1 0x40 DUP2 KECCAK256 DUP1 SLOAD PUSH1 0x1 SWAP3 SWAP1 PUSH2 0x2323 SWAP1 DUP5 SWAP1 PUSH2 0x3020 JUMP JUMPDEST SWAP1 SWAP2 SSTORE POP POP PUSH1 0x0 DUP2 DUP2 MSTORE PUSH1 0x2 PUSH1 0x20 MSTORE PUSH1 0x40 DUP1 DUP3 KECCAK256 DUP1 SLOAD PUSH1 0x1 PUSH1 0x1 PUSH1 0xA0 SHL SUB NOT AND PUSH1 0x1 PUSH1 0x1 PUSH1 0xA0 SHL SUB DUP7 DUP2 AND SWAP2 DUP3 OR SWAP1 SWAP3 SSTORE SWAP2 MLOAD DUP5 SWAP4 SWAP2 DUP8 AND SWAP2 PUSH32 0xDDF252AD1BE2C89B69C2B068FC378DAA952BA7F163C4A11628F55A4DF523B3EF SWAP2 LOG4 POP POP POP JUMP JUMPDEST PUSH1 0xC SLOAD PUSH1 0xD SLOAD PUSH1 0x0 SWAP2 PUSH2 0xFFFF SWAP1 SWAP2 AND GT ISZERO DUP1 PUSH2 0x23AD JUMPI POP PUSH2 0x23AA PUSH1 0xA PUSH1 0xF5 DUP5 SWAP1 SHR PUSH2 0x305A JUMP JUMPDEST ISZERO ISZERO JUMPDEST ISZERO PUSH2 0x23B8 JUMPI CALLER PUSH2 0x9EE JUMP JUMPDEST PUSH1 0x10 SLOAD PUSH1 0x40 MLOAD PUSH4 0x4F36F725 PUSH1 0xE1 SHL DUP2 MSTORE PUSH1 0x90 DUP5 SWAP1 SHR PUSH1 0x4 DUP3 ADD MSTORE PUSH1 0x0 SWAP2 PUSH1 0x1 PUSH1 0x1 PUSH1 0xA0 SHL SUB AND SWAP1 PUSH4 0x9E6DEE4A SWAP1 PUSH1 0x24 ADD PUSH1 0x20 PUSH1 0x40 MLOAD DUP1 DUP4 SUB DUP2 DUP7 GAS STATICCALL ISZERO DUP1 ISZERO PUSH2 0x2405 JUMPI RETURNDATASIZE PUSH1 0x0 DUP1 RETURNDATACOPY RETURNDATASIZE PUSH1 0x0 REVERT JUMPDEST POP POP POP POP PUSH1 0x40 MLOAD RETURNDATASIZE PUSH1 0x1F NOT PUSH1 0x1F DUP3 ADD AND DUP3 ADD DUP1 PUSH1 0x40 MSTORE POP DUP2 ADD SWAP1 PUSH2 0x2429 SWAP2 SWAP1 PUSH2 0x31D3 JUMP JUMPDEST SWAP1 POP PUSH1 0x1 PUSH1 0x1 PUSH1 0xA0 SHL SUB DUP2 AND PUSH2 0x9EE JUMPI CALLER JUMPDEST SWAP4 SWAP3 POP POP POP JUMP JUMPDEST PUSH2 0x245C DUP3 DUP3 PUSH1 0x40 MLOAD DUP1 PUSH1 0x20 ADD PUSH1 0x40 MSTORE DUP1 PUSH1 0x0 DUP2 MSTORE POP PUSH2 0x2693 JUMP JUMPDEST POP POP JUMP JUMPDEST PUSH2 0x2468 PUSH2 0x29F5 JUMP JUMPDEST PUSH1 0x1 DUP2 MSTORE PUSH1 0x10 SWAP2 SWAP1 SWAP2 SHR SWAP1 PUSH1 0x0 PUSH2 0x248C PUSH2 0xFFFF DUP5 AND PUSH2 0x2487 DUP4 DUP1 PUSH2 0x31F0 JUMP JUMPDEST PUSH2 0x269D JUMP JUMPDEST PUSH1 0xFF AND PUSH1 0x20 DUP4 ADD MSTORE PUSH1 0x10 SWAP3 SWAP1 SWAP3 SHR SWAP2 PUSH2 0x24AE PUSH2 0xFFFF DUP5 AND PUSH2 0x2487 DUP4 PUSH1 0x1 PUSH2 0x31F0 JUMP JUMPDEST PUSH1 0xFF AND PUSH1 0x40 DUP4 ADD MSTORE PUSH1 0x10 SWAP3 SWAP1 SWAP3 SHR SWAP2 PUSH2 0x24D0 PUSH2 0xFFFF DUP5 AND PUSH2 0x2487 DUP4 PUSH1 0x2 PUSH2 0x31F0 JUMP JUMPDEST PUSH1 0xFF AND PUSH1 0x80 DUP4 ADD MSTORE PUSH1 0x10 SWAP3 SWAP1 SWAP3 SHR SWAP2 PUSH2 0x24F2 PUSH2 0xFFFF DUP5 AND PUSH2 0x2487 DUP4 PUSH1 0x3 PUSH2 0x31F0 JUMP JUMPDEST PUSH1 0xFF AND PUSH1 0x60 DUP4 ADD MSTORE PUSH1 0x10 SWAP3 SWAP1 SWAP3 SHR SWAP2 PUSH2 0x2514 PUSH2 0xFFFF DUP5 AND PUSH2 0x2487 DUP4 PUSH1 0x4 PUSH2 0x31F0 JUMP JUMPDEST PUSH1 0xFF AND PUSH1 0xE0 DUP4 ADD MSTORE PUSH1 0x10 SWAP3 SWAP1 SWAP3 SHR SWAP2 PUSH2 0x2536 PUSH2 0xFFFF DUP5 AND PUSH2 0x2487 DUP4 PUSH1 0x5 PUSH2 0x31F0 JUMP JUMPDEST PUSH1 0xFF AND PUSH1 0xA0 DUP4 ADD MSTORE DUP2 MLOAD PUSH1 0x10 SWAP4 SWAP1 SWAP4 SHR SWAP3 PUSH2 0x2583 JUMPI PUSH2 0x255E PUSH2 0xFFFF DUP5 AND PUSH2 0x2487 DUP4 PUSH1 0x6 PUSH2 0x31F0 JUMP JUMPDEST PUSH1 0xFF AND PUSH1 0xC0 DUP4 ADD MSTORE PUSH2 0x2579 PUSH2 0xFFFF DUP5 AND PUSH2 0x2487 DUP4 PUSH1 0x7 PUSH2 0x31F0 JUMP JUMPDEST PUSH1 0xFF AND PUSH2 0x100 DUP4 ADD MSTORE JUMPDEST POP SWAP2 SWAP1 POP JUMP JUMPDEST PUSH1 0xA DUP1 SLOAD PUSH1 0x1 PUSH1 0x1 PUSH1 0xA0 SHL SUB DUP4 DUP2 AND PUSH1 0x1 PUSH1 0x1 PUSH1 0xA0 SHL SUB NOT DUP4 AND DUP2 OR SWAP1 SWAP4 SSTORE PUSH1 0x40 MLOAD SWAP2 AND SWAP2 SWAP1 DUP3 SWAP1 PUSH32 0x8BE0079C531659141344CD1FD0A4F28419497F9722A3DAAFE3B4186F6B6457E0 SWAP1 PUSH1 0x0 SWAP1 LOG3 POP POP JUMP JUMPDEST PUSH1 0x1 PUSH1 0x1 PUSH1 0xA0 SHL SUB DUP4 AND PUSH2 0x2636 JUMPI PUSH2 0x2631 DUP2 PUSH1 0x8 DUP1 SLOAD PUSH1 0x0 DUP4 DUP2 MSTORE PUSH1 0x9 PUSH1 0x20 MSTORE PUSH1 0x40 DUP2 KECCAK256 DUP3 SWAP1 SSTORE PUSH1 0x1 DUP3 ADD DUP4 SSTORE SWAP2 SWAP1 SWAP2 MSTORE PUSH32 0xF3F7A9FE364FAAB93B216DA50A3214154F22A0A2B415B23A84C8169E8B636EE3 ADD SSTORE JUMP JUMPDEST PUSH2 0x2659 JUMP JUMPDEST DUP2 PUSH1 0x1 PUSH1 0x1 PUSH1 0xA0 SHL SUB AND DUP4 PUSH1 0x1 PUSH1 0x1 PUSH1 0xA0 SHL SUB AND EQ PUSH2 0x2659 JUMPI PUSH2 0x2659 DUP4 DUP3 PUSH2 0x2717 JUMP JUMPDEST PUSH1 0x1 PUSH1 0x1 PUSH1 0xA0 SHL SUB DUP3 AND PUSH2 0x2670 JUMPI PUSH2 0xC7D DUP2 PUSH2 0x27B4 JUMP JUMPDEST DUP3 PUSH1 0x1 PUSH1 0x1 PUSH1 0xA0 SHL SUB AND DUP3 PUSH1 0x1 PUSH1 0x1 PUSH1 0xA0 SHL SUB AND EQ PUSH2 0xC7D JUMPI PUSH2 0xC7D DUP3 DUP3 PUSH2 0x2863 JUMP JUMPDEST PUSH2 0xC7D DUP4 DUP4 PUSH2 0x28A7 JUMP JUMPDEST PUSH1 0x12 SLOAD PUSH1 0x40 MLOAD PUSH4 0x53584B49 PUSH1 0xE1 SHL DUP2 MSTORE PUSH2 0xFFFF DUP5 AND PUSH1 0x4 DUP3 ADD MSTORE PUSH1 0xFF DUP4 AND PUSH1 0x24 DUP3 ADD MSTORE PUSH1 0x0 SWAP2 PUSH1 0x1 PUSH1 0x1 PUSH1 0xA0 SHL SUB AND SWAP1 PUSH4 0xA6B09692 SWAP1 PUSH1 0x44 ADD PUSH1 0x20 PUSH1 0x40 MLOAD DUP1 DUP4 SUB DUP2 DUP7 GAS STATICCALL ISZERO DUP1 ISZERO PUSH2 0x26F3 JUMPI RETURNDATASIZE PUSH1 0x0 DUP1 RETURNDATACOPY RETURNDATASIZE PUSH1 0x0 REVERT JUMPDEST POP POP POP POP PUSH1 0x40 MLOAD RETURNDATASIZE PUSH1 0x1F NOT PUSH1 0x1F DUP3 ADD AND DUP3 ADD DUP1 PUSH1 0x40 MSTORE POP DUP2 ADD SWAP1 PUSH2 0x243B SWAP2 SWAP1 PUSH2 0x3215 JUMP JUMPDEST PUSH1 0x0 PUSH1 0x1 PUSH2 0x2724 DUP5 PUSH2 0x171F JUMP JUMPDEST PUSH2 0x272E SWAP2 SWAP1 PUSH2 0x31BC JUMP JUMPDEST PUSH1 0x0 DUP4 DUP2 MSTORE PUSH1 0x7 PUSH1 0x20 MSTORE PUSH1 0x40 SWAP1 KECCAK256 SLOAD SWAP1 SWAP2 POP DUP1 DUP3 EQ PUSH2 0x2781 JUMPI PUSH1 0x1 PUSH1 0x1 PUSH1 0xA0 SHL SUB DUP5 AND PUSH1 0x0 SWAP1 DUP2 MSTORE PUSH1 0x6 PUSH1 0x20 SWAP1 DUP2 MSTORE PUSH1 0x40 DUP1 DUP4 KECCAK256 DUP6 DUP5 MSTORE DUP3 MSTORE DUP1 DUP4 KECCAK256 SLOAD DUP5 DUP5 MSTORE DUP2 DUP5 KECCAK256 DUP2 SWAP1 SSTORE DUP4 MSTORE PUSH1 0x7 SWAP1 SWAP2 MSTORE SWAP1 KECCAK256 DUP2 SWAP1 SSTORE JUMPDEST POP PUSH1 0x0 SWAP2 DUP3 MSTORE PUSH1 0x7 PUSH1 0x20 SWAP1 DUP2 MSTORE PUSH1 0x40 DUP1 DUP5 KECCAK256 DUP5 SWAP1 SSTORE PUSH1 0x1 PUSH1 0x1 PUSH1 0xA0 SHL SUB SWAP1 SWAP5 AND DUP4 MSTORE PUSH1 0x6 DUP2 MSTORE DUP4 DUP4 KECCAK256 SWAP2 DUP4 MSTORE MSTORE SWAP1 DUP2 KECCAK256 SSTORE JUMP JUMPDEST PUSH1 0x8 SLOAD PUSH1 0x0 SWAP1 PUSH2 0x27C6 SWAP1 PUSH1 0x1 SWAP1 PUSH2 0x31BC JUMP JUMPDEST PUSH1 0x0 DUP4 DUP2 MSTORE PUSH1 0x9 PUSH1 0x20 MSTORE PUSH1 0x40 DUP2 KECCAK256 SLOAD PUSH1 0x8 DUP1 SLOAD SWAP4 SWAP5 POP SWAP1 SWAP3 DUP5 SWAP1 DUP2 LT PUSH2 0x27EE JUMPI PUSH2 0x27EE PUSH2 0x2FEF JUMP JUMPDEST SWAP1 PUSH1 0x0 MSTORE PUSH1 0x20 PUSH1 0x0 KECCAK256 ADD SLOAD SWAP1 POP DUP1 PUSH1 0x8 DUP4 DUP2 SLOAD DUP2 LT PUSH2 0x280F JUMPI PUSH2 0x280F PUSH2 0x2FEF JUMP JUMPDEST PUSH1 0x0 SWAP2 DUP3 MSTORE PUSH1 0x20 DUP1 DUP4 KECCAK256 SWAP1 SWAP2 ADD SWAP3 SWAP1 SWAP3 SSTORE DUP3 DUP2 MSTORE PUSH1 0x9 SWAP1 SWAP2 MSTORE PUSH1 0x40 DUP1 DUP3 KECCAK256 DUP5 SWAP1 SSTORE DUP6 DUP3 MSTORE DUP2 KECCAK256 SSTORE PUSH1 0x8 DUP1 SLOAD DUP1 PUSH2 0x2847 JUMPI PUSH2 0x2847 PUSH2 0x3230 JUMP JUMPDEST PUSH1 0x1 SWAP1 SUB DUP2 DUP2 SWAP1 PUSH1 0x0 MSTORE PUSH1 0x20 PUSH1 0x0 KECCAK256 ADD PUSH1 0x0 SWAP1 SSTORE SWAP1 SSTORE POP POP POP POP JUMP JUMPDEST PUSH1 0x0 PUSH2 0x286E DUP4 PUSH2 0x171F JUMP JUMPDEST PUSH1 0x1 PUSH1 0x1 PUSH1 0xA0 SHL SUB SWAP1 SWAP4 AND PUSH1 0x0 SWAP1 DUP2 MSTORE PUSH1 0x6 PUSH1 0x20 SWAP1 DUP2 MSTORE PUSH1 0x40 DUP1 DUP4 KECCAK256 DUP7 DUP5 MSTORE DUP3 MSTORE DUP1 DUP4 KECCAK256 DUP6 SWAP1 SSTORE SWAP4 DUP3 MSTORE PUSH1 0x7 SWAP1 MSTORE SWAP2 SWAP1 SWAP2 KECCAK256 SWAP2 SWAP1 SWAP2 SSTORE POP JUMP JUMPDEST PUSH1 0x1 PUSH1 0x1 PUSH1 0xA0 SHL SUB DUP3 AND PUSH2 0x28FD JUMPI PUSH1 0x40 MLOAD PUSH3 0x461BCD PUSH1 0xE5 SHL DUP2 MSTORE PUSH1 0x20 PUSH1 0x4 DUP3 ADD DUP2 SWAP1 MSTORE PUSH1 0x24 DUP3 ADD MSTORE PUSH32 0x4552433732313A206D696E7420746F20746865207A65726F2061646472657373 PUSH1 0x44 DUP3 ADD MSTORE PUSH1 0x64 ADD PUSH2 0xAFB JUMP JUMPDEST PUSH1 0x0 DUP2 DUP2 MSTORE PUSH1 0x2 PUSH1 0x20 MSTORE PUSH1 0x40 SWAP1 KECCAK256 SLOAD PUSH1 0x1 PUSH1 0x1 PUSH1 0xA0 SHL SUB AND ISZERO PUSH2 0x2962 JUMPI PUSH1 0x40 MLOAD PUSH3 0x461BCD PUSH1 0xE5 SHL DUP2 MSTORE PUSH1 0x20 PUSH1 0x4 DUP3 ADD MSTORE PUSH1 0x1C PUSH1 0x24 DUP3 ADD MSTORE PUSH32 0x4552433732313A20746F6B656E20616C7265616479206D696E74656400000000 PUSH1 0x44 DUP3 ADD MSTORE PUSH1 0x64 ADD PUSH2 0xAFB JUMP JUMPDEST PUSH2 0x296E PUSH1 0x0 DUP4 DUP4 PUSH2 0x25DB JUMP JUMPDEST PUSH1 0x1 PUSH1 0x1 PUSH1 0xA0 SHL SUB DUP3 AND PUSH1 0x0 SWAP1 DUP2 MSTORE PUSH1 0x3 PUSH1 0x20 MSTORE PUSH1 0x40 DUP2 KECCAK256 DUP1 SLOAD PUSH1 0x1 SWAP3 SWAP1 PUSH2 0x2997 SWAP1 DUP5 SWAP1 PUSH2 0x3020 JUMP JUMPDEST SWAP1 SWAP2 SSTORE POP POP PUSH1 0x0 DUP2 DUP2 MSTORE PUSH1 0x2 PUSH1 0x20 MSTORE PUSH1 0x40 DUP1 DUP3 KECCAK256 DUP1 SLOAD PUSH1 0x1 PUSH1 0x1 PUSH1 0xA0 SHL SUB NOT AND PUSH1 0x1 PUSH1 0x1 PUSH1 0xA0 SHL SUB DUP7 AND SWAP1 DUP2 OR SWAP1 SWAP2 SSTORE SWAP1 MLOAD DUP4 SWAP3 SWAP1 PUSH32 0xDDF252AD1BE2C89B69C2B068FC378DAA952BA7F163C4A11628F55A4DF523B3EF SWAP1 DUP3 SWAP1 LOG4 POP POP JUMP JUMPDEST PUSH1 0x40 DUP1 MLOAD PUSH2 0x120 DUP2 ADD DUP3 MSTORE PUSH1 0x0 DUP1 DUP3 MSTORE PUSH1 0x20 DUP3 ADD DUP2 SWAP1 MSTORE SWAP2 DUP2 ADD DUP3 SWAP1 MSTORE PUSH1 0x60 DUP2 ADD DUP3 SWAP1 MSTORE PUSH1 0x80 DUP2 ADD DUP3 SWAP1 MSTORE PUSH1 0xA0 DUP2 ADD DUP3 SWAP1 MSTORE PUSH1 0xC0 DUP2 ADD DUP3 SWAP1 MSTORE PUSH1 0xE0 DUP2 ADD DUP3 SWAP1 MSTORE PUSH2 0x100 DUP2 ADD SWAP2 SWAP1 SWAP2 MSTORE SWAP1 JUMP JUMPDEST PUSH1 0x0 PUSH1 0x20 DUP3 DUP5 SUB SLT ISZERO PUSH2 0x2A53 JUMPI PUSH1 0x0 DUP1 REVERT JUMPDEST DUP2 CALLDATALOAD PUSH1 0x1 PUSH1 0x1 PUSH1 0xE0 SHL SUB NOT DUP2 AND DUP2 EQ PUSH2 0x243B JUMPI PUSH1 0x0 DUP1 REVERT JUMPDEST PUSH1 0x0 JUMPDEST DUP4 DUP2 LT ISZERO PUSH2 0x2A86 JUMPI DUP2 DUP2 ADD MLOAD DUP4 DUP3 ADD MSTORE PUSH1 0x20 ADD PUSH2 0x2A6E JUMP JUMPDEST DUP4 DUP2 GT ISZERO PUSH2 0x1A25 JUMPI POP POP PUSH1 0x0 SWAP2 ADD MSTORE JUMP JUMPDEST PUSH1 0x20 DUP2 MSTORE PUSH1 0x0 DUP3 MLOAD DUP1 PUSH1 0x20 DUP5 ADD MSTORE PUSH2 0x2AB6 DUP2 PUSH1 0x40 DUP6 ADD PUSH1 0x20 DUP8 ADD PUSH2 0x2A6B JUMP JUMPDEST PUSH1 0x1F ADD PUSH1 0x1F NOT AND SWAP2 SWAP1 SWAP2 ADD PUSH1 0x40 ADD SWAP3 SWAP2 POP POP JUMP JUMPDEST PUSH1 0x0 PUSH1 0x20 DUP3 DUP5 SUB SLT ISZERO PUSH2 0x2ADC JUMPI PUSH1 0x0 DUP1 REVERT JUMPDEST POP CALLDATALOAD SWAP2 SWAP1 POP JUMP JUMPDEST PUSH1 0x1 PUSH1 0x1 PUSH1 0xA0 SHL SUB DUP2 AND DUP2 EQ PUSH2 0xCBA JUMPI PUSH1 0x0 DUP1 REVERT JUMPDEST PUSH1 0x0 PUSH1 0x20 DUP3 DUP5 SUB SLT ISZERO PUSH2 0x2B0A JUMPI PUSH1 0x0 DUP1 REVERT JUMPDEST DUP2 CALLDATALOAD PUSH2 0x243B DUP2 PUSH2 0x2AE3 JUMP JUMPDEST PUSH1 0x0 DUP1 PUSH1 0x40 DUP4 DUP6 SUB SLT ISZERO PUSH2 0x2B28 JUMPI PUSH1 0x0 DUP1 REVERT JUMPDEST DUP3 CALLDATALOAD PUSH2 0x2B33 DUP2 PUSH2 0x2AE3 JUMP JUMPDEST SWAP5 PUSH1 0x20 SWAP4 SWAP1 SWAP4 ADD CALLDATALOAD SWAP4 POP POP POP JUMP JUMPDEST DUP1 ISZERO ISZERO DUP2 EQ PUSH2 0xCBA JUMPI PUSH1 0x0 DUP1 REVERT JUMPDEST PUSH1 0x0 PUSH1 0x20 DUP3 DUP5 SUB SLT ISZERO PUSH2 0x2B61 JUMPI PUSH1 0x0 DUP1 REVERT JUMPDEST DUP2 CALLDATALOAD PUSH2 0x243B DUP2 PUSH2 0x2B41 JUMP JUMPDEST PUSH1 0x0 DUP1 PUSH1 0x0 PUSH1 0x60 DUP5 DUP7 SUB SLT ISZERO PUSH2 0x2B81 JUMPI PUSH1 0x0 DUP1 REVERT JUMPDEST DUP4 CALLDATALOAD PUSH2 0x2B8C DUP2 PUSH2 0x2AE3 JUMP JUMPDEST SWAP3 POP PUSH1 0x20 DUP5 ADD CALLDATALOAD PUSH2 0x2B9C DUP2 PUSH2 0x2AE3 JUMP JUMPDEST SWAP3 SWAP6 SWAP3 SWAP5 POP POP POP PUSH1 0x40 SWAP2 SWAP1 SWAP2 ADD CALLDATALOAD SWAP1 JUMP JUMPDEST PUSH1 0x20 DUP1 DUP3 MSTORE DUP3 MLOAD DUP3 DUP3 ADD DUP2 SWAP1 MSTORE PUSH1 0x0 SWAP2 SWAP1 DUP5 DUP3 ADD SWAP1 PUSH1 0x40 DUP6 ADD SWAP1 DUP5 JUMPDEST DUP2 DUP2 LT ISZERO PUSH2 0x2BE5 JUMPI DUP4 MLOAD DUP4 MSTORE SWAP3 DUP5 ADD SWAP3 SWAP2 DUP5 ADD SWAP2 PUSH1 0x1 ADD PUSH2 0x2BC9 JUMP JUMPDEST POP SWAP1 SWAP7 SWAP6 POP POP POP POP POP POP JUMP JUMPDEST PUSH1 0x0 DUP1 PUSH1 0x40 DUP4 DUP6 SUB SLT ISZERO PUSH2 0x2C04 JUMPI PUSH1 0x0 DUP1 REVERT JUMPDEST DUP3 CALLDATALOAD SWAP2 POP PUSH1 0x20 DUP4 ADD CALLDATALOAD PUSH2 0x2C16 DUP2 PUSH2 0x2B41 JUMP JUMPDEST DUP1 SWAP2 POP POP SWAP3 POP SWAP3 SWAP1 POP JUMP JUMPDEST PUSH1 0x0 PUSH2 0x120 DUP3 ADD SWAP1 POP DUP3 MLOAD ISZERO ISZERO DUP3 MSTORE PUSH1 0xFF PUSH1 0x20 DUP5 ADD MLOAD AND PUSH1 0x20 DUP4 ADD MSTORE PUSH1 0x40 DUP4 ADD MLOAD PUSH2 0x2C51 PUSH1 0x40 DUP5 ADD DUP3 PUSH1 0xFF AND SWAP1 MSTORE JUMP JUMPDEST POP PUSH1 0x60 DUP4 ADD MLOAD PUSH2 0x2C66 PUSH1 0x60 DUP5 ADD DUP3 PUSH1 0xFF AND SWAP1 MSTORE JUMP JUMPDEST POP PUSH1 0x80 DUP4 ADD MLOAD PUSH2 0x2C7B PUSH1 0x80 DUP5 ADD DUP3 PUSH1 0xFF AND SWAP1 MSTORE JUMP JUMPDEST POP PUSH1 0xA0 DUP4 ADD MLOAD PUSH2 0x2C90 PUSH1 0xA0 DUP5 ADD DUP3 PUSH1 0xFF AND SWAP1 MSTORE JUMP JUMPDEST POP PUSH1 0xC0 DUP4 ADD MLOAD PUSH2 0x2CA5 PUSH1 0xC0 DUP5 ADD DUP3 PUSH1 0xFF AND SWAP1 MSTORE JUMP JUMPDEST POP PUSH1 0xE0 DUP4 ADD MLOAD PUSH2 0x2CBA PUSH1 0xE0 DUP5 ADD DUP3 PUSH1 0xFF AND SWAP1 MSTORE JUMP JUMPDEST POP PUSH2 0x100 SWAP3 DUP4 ADD MLOAD PUSH1 0xFF AND SWAP2 SWAP1 SWAP3 ADD MSTORE SWAP1 JUMP JUMPDEST PUSH1 0x0 DUP1 PUSH1 0x40 DUP4 DUP6 SUB SLT ISZERO PUSH2 0x2CE0 JUMPI PUSH1 0x0 DUP1 REVERT JUMPDEST DUP3 CALLDATALOAD PUSH2 0x2CEB DUP2 PUSH2 0x2AE3 JUMP JUMPDEST SWAP2 POP PUSH1 0x20 DUP4 ADD CALLDATALOAD PUSH2 0x2C16 DUP2 PUSH2 0x2B41 JUMP JUMPDEST PUSH4 0x4E487B71 PUSH1 0xE0 SHL PUSH1 0x0 MSTORE PUSH1 0x41 PUSH1 0x4 MSTORE PUSH1 0x24 PUSH1 0x0 REVERT JUMPDEST PUSH1 0x40 MLOAD PUSH2 0x120 DUP2 ADD PUSH8 0xFFFFFFFFFFFFFFFF DUP2 GT DUP3 DUP3 LT OR ISZERO PUSH2 0x2D35 JUMPI PUSH2 0x2D35 PUSH2 0x2CFB JUMP JUMPDEST PUSH1 0x40 MSTORE SWAP1 JUMP JUMPDEST PUSH1 0x40 MLOAD PUSH1 0x1F DUP3 ADD PUSH1 0x1F NOT AND DUP2 ADD PUSH8 0xFFFFFFFFFFFFFFFF DUP2 GT DUP3 DUP3 LT OR ISZERO PUSH2 0x2D64 JUMPI PUSH2 0x2D64 PUSH2 0x2CFB JUMP JUMPDEST PUSH1 0x40 MSTORE SWAP2 SWAP1 POP JUMP JUMPDEST PUSH1 0x0 PUSH8 0xFFFFFFFFFFFFFFFF DUP3 GT ISZERO PUSH2 0x2D86 JUMPI PUSH2 0x2D86 PUSH2 0x2CFB JUMP JUMPDEST POP PUSH1 0x1F ADD PUSH1 0x1F NOT AND PUSH1 0x20 ADD SWAP1 JUMP JUMPDEST PUSH1 0x0 DUP1 PUSH1 0x0 DUP1 PUSH1 0x80 DUP6 DUP8 SUB SLT ISZERO PUSH2 0x2DAA JUMPI PUSH1 0x0 DUP1 REVERT JUMPDEST DUP5 CALLDATALOAD PUSH2 0x2DB5 DUP2 PUSH2 0x2AE3 JUMP JUMPDEST SWAP4 POP PUSH1 0x20 DUP6 ADD CALLDATALOAD PUSH2 0x2DC5 DUP2 PUSH2 0x2AE3 JUMP JUMPDEST SWAP3 POP PUSH1 0x40 DUP6 ADD CALLDATALOAD SWAP2 POP PUSH1 0x60 DUP6 ADD CALLDATALOAD PUSH8 0xFFFFFFFFFFFFFFFF DUP2 GT ISZERO PUSH2 0x2DE8 JUMPI PUSH1 0x0 DUP1 REVERT JUMPDEST DUP6 ADD PUSH1 0x1F DUP2 ADD DUP8 SGT PUSH2 0x2DF9 JUMPI PUSH1 0x0 DUP1 REVERT JUMPDEST DUP1 CALLDATALOAD PUSH2 0x2E0C PUSH2 0x2E07 DUP3 PUSH2 0x2D6C JUMP JUMPDEST PUSH2 0x2D3B JUMP JUMPDEST DUP2 DUP2 MSTORE DUP9 PUSH1 0x20 DUP4 DUP6 ADD ADD GT ISZERO PUSH2 0x2E21 JUMPI PUSH1 0x0 DUP1 REVERT JUMPDEST DUP2 PUSH1 0x20 DUP5 ADD PUSH1 0x20 DUP4 ADD CALLDATACOPY PUSH1 0x0 PUSH1 0x20 DUP4 DUP4 ADD ADD MSTORE DUP1 SWAP4 POP POP POP POP SWAP3 SWAP6 SWAP2 SWAP5 POP SWAP3 POP JUMP JUMPDEST PUSH1 0x0 DUP1 PUSH1 0x40 DUP4 DUP6 SUB SLT ISZERO PUSH2 0x2E56 JUMPI PUSH1 0x0 DUP1 REVERT JUMPDEST POP POP DUP1 CALLDATALOAD SWAP3 PUSH1 0x20 SWAP1 SWAP2 ADD CALLDATALOAD SWAP2 POP JUMP JUMPDEST PUSH1 0x0 DUP1 PUSH1 0x40 DUP4 DUP6 SUB SLT ISZERO PUSH2 0x2E78 JUMPI PUSH1 0x0 DUP1 REVERT JUMPDEST DUP3 CALLDATALOAD PUSH2 0x2E83 DUP2 PUSH2 0x2AE3 JUMP JUMPDEST SWAP2 POP PUSH1 0x20 DUP4 ADD CALLDATALOAD PUSH2 0x2C16 DUP2 PUSH2 0x2AE3 JUMP JUMPDEST PUSH1 0x0 DUP1 PUSH1 0x0 PUSH1 0x60 DUP5 DUP7 SUB SLT ISZERO PUSH2 0x2EA8 JUMPI PUSH1 0x0 DUP1 REVERT JUMPDEST DUP4 CALLDATALOAD PUSH2 0x2EB3 DUP2 PUSH2 0x2AE3 JUMP JUMPDEST SWAP3 POP PUSH1 0x20 DUP5 ADD CALLDATALOAD SWAP2 POP PUSH1 0x40 DUP5 ADD CALLDATALOAD PUSH2 0x2ECA DUP2 PUSH2 0x2AE3 JUMP JUMPDEST DUP1 SWAP2 POP POP SWAP3 POP SWAP3 POP SWAP3 JUMP JUMPDEST PUSH1 0x1 DUP2 DUP2 SHR SWAP1 DUP3 AND DUP1 PUSH2 0x2EE9 JUMPI PUSH1 0x7F DUP3 AND SWAP2 POP JUMPDEST PUSH1 0x20 DUP3 LT DUP2 EQ ISZERO PUSH2 0x2583 JUMPI PUSH4 0x4E487B71 PUSH1 0xE0 SHL PUSH1 0x0 MSTORE PUSH1 0x22 PUSH1 0x4 MSTORE PUSH1 0x24 PUSH1 0x0 REVERT JUMPDEST PUSH1 0x20 DUP1 DUP3 MSTORE DUP2 DUP2 ADD MSTORE PUSH32 0x4F776E61626C653A2063616C6C6572206973206E6F7420746865206F776E6572 PUSH1 0x40 DUP3 ADD MSTORE PUSH1 0x60 ADD SWAP1 JUMP JUMPDEST PUSH1 0x20 DUP1 DUP3 MSTORE PUSH1 0x31 SWAP1 DUP3 ADD MSTORE PUSH32 0x4552433732313A207472616E736665722063616C6C6572206973206E6F74206F PUSH1 0x40 DUP3 ADD MSTORE PUSH17 0x1DDB995C881B9BDC88185C1C1C9BDD9959 PUSH1 0x7A SHL PUSH1 0x60 DUP3 ADD MSTORE PUSH1 0x80 ADD SWAP1 JUMP JUMPDEST PUSH4 0x4E487B71 PUSH1 0xE0 SHL PUSH1 0x0 MSTORE PUSH1 0x11 PUSH1 0x4 MSTORE PUSH1 0x24 PUSH1 0x0 REVERT JUMPDEST PUSH1 0x0 DUP2 PUSH1 0x0 NOT DIV DUP4 GT DUP3 ISZERO ISZERO AND ISZERO PUSH2 0x2FC0 JUMPI PUSH2 0x2FC0 PUSH2 0x2F90 JUMP JUMPDEST POP MUL SWAP1 JUMP JUMPDEST PUSH4 0x4E487B71 PUSH1 0xE0 SHL PUSH1 0x0 MSTORE PUSH1 0x12 PUSH1 0x4 MSTORE PUSH1 0x24 PUSH1 0x0 REVERT JUMPDEST PUSH1 0x0 DUP3 PUSH2 0x2FEA JUMPI PUSH2 0x2FEA PUSH2 0x2FC5 JUMP JUMPDEST POP DIV SWAP1 JUMP JUMPDEST PUSH4 0x4E487B71 PUSH1 0xE0 SHL PUSH1 0x0 MSTORE PUSH1 0x32 PUSH1 0x4 MSTORE PUSH1 0x24 PUSH1 0x0 REVERT JUMPDEST PUSH1 0x0 PUSH1 0x0 NOT DUP3 EQ ISZERO PUSH2 0x3019 JUMPI PUSH2 0x3019 PUSH2 0x2F90 JUMP JUMPDEST POP PUSH1 0x1 ADD SWAP1 JUMP JUMPDEST PUSH1 0x0 DUP3 NOT DUP3 GT ISZERO PUSH2 0x3033 JUMPI PUSH2 0x3033 PUSH2 0x2F90 JUMP JUMPDEST POP ADD SWAP1 JUMP JUMPDEST PUSH1 0x0 PUSH2 0xFFFF DUP1 DUP4 AND DUP2 DUP2 EQ ISZERO PUSH2 0x3050 JUMPI PUSH2 0x3050 PUSH2 0x2F90 JUMP JUMPDEST PUSH1 0x1 ADD SWAP4 SWAP3 POP POP POP JUMP JUMPDEST PUSH1 0x0 DUP3 PUSH2 0x3069 JUMPI PUSH2 0x3069 PUSH2 0x2FC5 JUMP JUMPDEST POP MOD SWAP1 JUMP JUMPDEST PUSH1 0x0 PUSH1 0x20 DUP3 DUP5 SUB SLT ISZERO PUSH2 0x3080 JUMPI PUSH1 0x0 DUP1 REVERT JUMPDEST DUP2 MLOAD PUSH8 0xFFFFFFFFFFFFFFFF DUP2 GT ISZERO PUSH2 0x3097 JUMPI PUSH1 0x0 DUP1 REVERT JUMPDEST DUP3 ADD PUSH1 0x1F DUP2 ADD DUP5 SGT PUSH2 0x30A8 JUMPI PUSH1 0x0 DUP1 REVERT JUMPDEST DUP1 MLOAD PUSH2 0x30B6 PUSH2 0x2E07 DUP3 PUSH2 0x2D6C JUMP JUMPDEST DUP2 DUP2 MSTORE DUP6 PUSH1 0x20 DUP4 DUP6 ADD ADD GT ISZERO PUSH2 0x30CB JUMPI PUSH1 0x0 DUP1 REVERT JUMPDEST PUSH2 0x30DC DUP3 PUSH1 0x20 DUP4 ADD PUSH1 0x20 DUP7 ADD PUSH2 0x2A6B JUMP JUMPDEST SWAP6 SWAP5 POP POP POP POP POP JUMP JUMPDEST DUP1 MLOAD PUSH2 0x30F0 DUP2 PUSH2 0x2B41 JUMP JUMPDEST SWAP2 SWAP1 POP JUMP JUMPDEST DUP1 MLOAD PUSH1 0xFF DUP2 AND DUP2 EQ PUSH2 0x30F0 JUMPI PUSH1 0x0 DUP1 REVERT JUMPDEST PUSH1 0x0 PUSH2 0x120 DUP3 DUP5 SUB SLT ISZERO PUSH2 0x3119 JUMPI PUSH1 0x0 DUP1 REVERT JUMPDEST PUSH2 0x3121 PUSH2 0x2D11 JUMP JUMPDEST PUSH2 0x312A DUP4 PUSH2 0x30E5 JUMP JUMPDEST DUP2 MSTORE PUSH2 0x3138 PUSH1 0x20 DUP5 ADD PUSH2 0x30F5 JUMP JUMPDEST PUSH1 0x20 DUP3 ADD MSTORE PUSH2 0x3149 PUSH1 0x40 DUP5 ADD PUSH2 0x30F5 JUMP JUMPDEST PUSH1 0x40 DUP3 ADD MSTORE PUSH2 0x315A PUSH1 0x60 DUP5 ADD PUSH2 0x30F5 JUMP JUMPDEST PUSH1 0x60 DUP3 ADD MSTORE PUSH2 0x316B PUSH1 0x80 DUP5 ADD PUSH2 0x30F5 JUMP JUMPDEST PUSH1 0x80 DUP3 ADD MSTORE PUSH2 0x317C PUSH1 0xA0 DUP5 ADD PUSH2 0x30F5 JUMP JUMPDEST PUSH1 0xA0 DUP3 ADD MSTORE PUSH2 0x318D PUSH1 0xC0 DUP5 ADD PUSH2 0x30F5 JUMP JUMPDEST PUSH1 0xC0 DUP3 ADD MSTORE PUSH2 0x319E PUSH1 0xE0 DUP5 ADD PUSH2 0x30F5 JUMP JUMPDEST PUSH1 0xE0 DUP3 ADD MSTORE PUSH2 0x100 PUSH2 0x31B1 DUP2 DUP6 ADD PUSH2 0x30F5 JUMP JUMPDEST SWAP1 DUP3 ADD MSTORE SWAP4 SWAP3 POP POP POP JUMP JUMPDEST PUSH1 0x0 DUP3 DUP3 LT ISZERO PUSH2 0x31CE JUMPI PUSH2 0x31CE PUSH2 0x2F90 JUMP JUMPDEST POP SUB SWAP1 JUMP JUMPDEST PUSH1 0x0 PUSH1 0x20 DUP3 DUP5 SUB SLT ISZERO PUSH2 0x31E5 JUMPI PUSH1 0x0 DUP1 REVERT JUMPDEST DUP2 MLOAD PUSH2 0x243B DUP2 PUSH2 0x2AE3 JUMP JUMPDEST PUSH1 0x0 PUSH1 0xFF DUP3 AND PUSH1 0xFF DUP5 AND DUP1 PUSH1 0xFF SUB DUP3 GT ISZERO PUSH2 0x320D JUMPI PUSH2 0x320D PUSH2 0x2F90 JUMP JUMPDEST ADD SWAP4 SWAP3 POP POP POP JUMP JUMPDEST PUSH1 0x0 PUSH1 0x20 DUP3 DUP5 SUB SLT ISZERO PUSH2 0x3227 JUMPI PUSH1 0x0 DUP1 REVERT JUMPDEST PUSH2 0x243B DUP3 PUSH2 0x30F5 JUMP JUMPDEST PUSH4 0x4E487B71 PUSH1 0xE0 SHL PUSH1 0x0 MSTORE PUSH1 0x31 PUSH1 0x4 MSTORE PUSH1 0x24 PUSH1 0x0 REVERT INVALID LOG2 PUSH5 0x6970667358 0x22 SLT KECCAK256 ADD PUSH31 0x9A7487495EDED493204A0744CD218185DB628C4F1BCE880B1C6771A981F064 PUSH20 0x6F6C634300080B00330000000000000000000000 "
		},
		"gasEstimates": {
			"creation": {
				"codeDepositCost": "2584800",
				"executionCost": "infinite",
				"totalCost": "infinite"
			},
			"external": {
				"MAX_TOKENS()": "infinite",
				"MINT_PRICE()": "2362",
				"PAID_TOKENS()": "2384",
				"approve(address,uint256)": "infinite",
				"balanceOf(address)": "2629",
				"bank()": "2405",
				"changePrice(uint256)": "24597",
				"existingCombinations(uint256)": "2527",
				"generate(uint256,uint256)": "infinite",
				"getApproved(uint256)": "4783",
				"getPaidTokens()": "2404",
				"getTokenTraits(uint256)": "3622",
				"isApprovedForAll(address,address)": "infinite",
				"loot()": "2382",
				"mint(uint256,bool)": "infinite",
				"mintCost(uint256)": "infinite",
				"mintOldTokens(address,uint256,address)": "infinite",
				"minted()": "2358",
				"name()": "infinite",
				"owner()": "2443",
				"ownerOf(uint256)": "2667",
				"paused()": "2399",
				"random(uint256)": "653",
				"randomPerCent(uint256)": "663",
				"randomSource()": "2383",
				"safeTransferFrom(address,address,uint256)": "infinite",
				"safeTransferFrom(address,address,uint256,bytes)": "infinite",
				"setApprovalForAll(address,bool)": "infinite",
				"setBank(address)": "26818",
				"setPaidTokens(uint256)": "24532",
				"setPaused(bool)": "infinite",
				"setRandomSource(address)": "26838",
				"setSwapper(address)": "26772",
				"setTraits(address)": "26860",
				"supportsInterface(bytes4)": "infinite",
				"swapper()": "2493",
				"symbol()": "infinite",
				"tokenByIndex(uint256)": "6782",
				"tokenOfOwnerByIndex(address,uint256)": "4970",
				"tokenTraits(uint256)": "2876",
				"tokenURI(uint256)": "infinite",
				"totalSupply()": "2371",
				"traits()": "2403",
				"transferFrom(address,address,uint256)": "infinite",
				"transferOwnership(address)": "infinite",
				"walletOfOwner(address)": "infinite",
				"withdraw()": "infinite"
			},
			"internal": {
				"selectRecipient(uint256)": "infinite",
				"selectTrait(uint16,uint8)": "infinite",
				"selectTraits(uint256)": "infinite",
				"structToHash(struct IPoliceAndThief.ThiefPolice memory)": "infinite"
			}
		},
		"methodIdentifiers": {
			"MAX_TOKENS()": "f47c84c5",
			"MINT_PRICE()": "c002d23d",
			"PAID_TOKENS()": "c084f540",
			"approve(address,uint256)": "095ea7b3",
			"balanceOf(address)": "70a08231",
			"bank()": "76cdb03b",
			"changePrice(uint256)": "a2b40d19",
			"existingCombinations(uint256)": "a1b8f374",
			"generate(uint256,uint256)": "d868f4c0",
			"getApproved(uint256)": "081812fc",
			"getPaidTokens()": "4018b1f8",
			"getTokenTraits(uint256)": "94e56847",
			"isApprovedForAll(address,address)": "e985e9c5",
			"loot()": "9b7b2ab0",
			"mint(uint256,bool)": "67f68fac",
			"mintCost(uint256)": "27de8f27",
			"mintOldTokens(address,uint256,address)": "eb0b4453",
			"minted()": "4f02c420",
			"name()": "06fdde03",
			"owner()": "8da5cb5b",
			"ownerOf(uint256)": "6352211e",
			"paused()": "5c975abb",
			"random(uint256)": "b863bd37",
			"randomPerCent(uint256)": "77f9213a",
			"randomSource()": "0c89b766",
			"safeTransferFrom(address,address,uint256)": "42842e0e",
			"safeTransferFrom(address,address,uint256,bytes)": "b88d4fde",
			"setApprovalForAll(address,bool)": "a22cb465",
			"setBank(address)": "090d23b9",
			"setPaidTokens(uint256)": "3431a753",
			"setPaused(bool)": "16c38b3c",
			"setRandomSource(address)": "d773826d",
			"setSwapper(address)": "9c82f2a4",
			"setTraits(address)": "6f4f7366",
			"supportsInterface(bytes4)": "01ffc9a7",
			"swapper()": "2b3297f9",
			"symbol()": "95d89b41",
			"tokenByIndex(uint256)": "4f6ccce7",
			"tokenOfOwnerByIndex(address,uint256)": "2f745c59",
			"tokenTraits(uint256)": "e05c57bf",
			"tokenURI(uint256)": "c87b56dd",
			"totalSupply()": "18160ddd",
			"traits()": "e1fc334f",
			"transferFrom(address,address,uint256)": "23b872dd",
			"transferOwnership(address)": "f2fde38b",
			"walletOfOwner(address)": "438b6300",
			"withdraw()": "3ccfd60b"
		}
	},
	"abi": [
		{
			"inputs": [
				{
					"internalType": "contract ILOOT",
					"name": "_loot",
					"type": "address"
				},
				{
					"internalType": "contract ITraits",
					"name": "_traits",
					"type": "address"
				},
				{
					"internalType": "uint256",
					"name": "_maxTokens",
					"type": "uint256"
				}
			],
			"stateMutability": "nonpayable",
			"type": "constructor"
		},
		{
			"anonymous": false,
			"inputs": [
				{
					"indexed": true,
					"internalType": "address",
					"name": "owner",
					"type": "address"
				},
				{
					"indexed": true,
					"internalType": "address",
					"name": "approved",
					"type": "address"
				},
				{
					"indexed": true,
					"internalType": "uint256",
					"name": "tokenId",
					"type": "uint256"
				}
			],
			"name": "Approval",
			"type": "event"
		},
		{
			"anonymous": false,
			"inputs": [
				{
					"indexed": true,
					"internalType": "address",
					"name": "owner",
					"type": "address"
				},
				{
					"indexed": true,
					"internalType": "address",
					"name": "operator",
					"type": "address"
				},
				{
					"indexed": false,
					"internalType": "bool",
					"name": "approved",
					"type": "bool"
				}
			],
			"name": "ApprovalForAll",
			"type": "event"
		},
		{
			"anonymous": false,
			"inputs": [
				{
					"indexed": true,
					"internalType": "address",
					"name": "previousOwner",
					"type": "address"
				},
				{
					"indexed": true,
					"internalType": "address",
					"name": "newOwner",
					"type": "address"
				}
			],
			"name": "OwnershipTransferred",
			"type": "event"
		},
		{
			"anonymous": false,
			"inputs": [
				{
					"indexed": false,
					"internalType": "address",
					"name": "account",
					"type": "address"
				}
			],
			"name": "Paused",
			"type": "event"
		},
		{
			"anonymous": false,
			"inputs": [
				{
					"indexed": true,
					"internalType": "address",
					"name": "from",
					"type": "address"
				},
				{
					"indexed": true,
					"internalType": "address",
					"name": "to",
					"type": "address"
				},
				{
					"indexed": true,
					"internalType": "uint256",
					"name": "tokenId",
					"type": "uint256"
				}
			],
			"name": "Transfer",
			"type": "event"
		},
		{
			"anonymous": false,
			"inputs": [
				{
					"indexed": false,
					"internalType": "address",
					"name": "account",
					"type": "address"
				}
			],
			"name": "Unpaused",
			"type": "event"
		},
		{
			"inputs": [],
			"name": "MAX_TOKENS",
			"outputs": [
				{
					"internalType": "uint256",
					"name": "",
					"type": "uint256"
				}
			],
			"stateMutability": "view",
			"type": "function"
		},
		{
			"inputs": [],
			"name": "MINT_PRICE",
			"outputs": [
				{
					"internalType": "uint256",
					"name": "",
					"type": "uint256"
				}
			],
			"stateMutability": "view",
			"type": "function"
		},
		{
			"inputs": [],
			"name": "PAID_TOKENS",
			"outputs": [
				{
					"internalType": "uint256",
					"name": "",
					"type": "uint256"
				}
			],
			"stateMutability": "view",
			"type": "function"
		},
		{
			"inputs": [
				{
					"internalType": "address",
					"name": "to",
					"type": "address"
				},
				{
					"internalType": "uint256",
					"name": "tokenId",
					"type": "uint256"
				}
			],
			"name": "approve",
			"outputs": [],
			"stateMutability": "nonpayable",
			"type": "function"
		},
		{
			"inputs": [
				{
					"internalType": "address",
					"name": "owner",
					"type": "address"
				}
			],
			"name": "balanceOf",
			"outputs": [
				{
					"internalType": "uint256",
					"name": "",
					"type": "uint256"
				}
			],
			"stateMutability": "view",
			"type": "function"
		},
		{
			"inputs": [],
			"name": "bank",
			"outputs": [
				{
					"internalType": "contract IBank",
					"name": "",
					"type": "address"
				}
			],
			"stateMutability": "view",
			"type": "function"
		},
		{
			"inputs": [
				{
					"internalType": "uint256",
					"name": "_price",
					"type": "uint256"
				}
			],
			"name": "changePrice",
			"outputs": [],
			"stateMutability": "nonpayable",
			"type": "function"
		},
		{
			"inputs": [
				{
					"internalType": "uint256",
					"name": "",
					"type": "uint256"
				}
			],
			"name": "existingCombinations",
			"outputs": [
				{
					"internalType": "uint256",
					"name": "",
					"type": "uint256"
				}
			],
			"stateMutability": "view",
			"type": "function"
		},
		{
			"inputs": [
				{
					"internalType": "uint256",
					"name": "tokenId",
					"type": "uint256"
				},
				{
					"internalType": "uint256",
					"name": "seed",
					"type": "uint256"
				}
			],
			"name": "generate",
			"outputs": [
				{
					"components": [
						{
							"internalType": "bool",
							"name": "isThief",
							"type": "bool"
						},
						{
							"internalType": "uint8",
							"name": "uniform",
							"type": "uint8"
						},
						{
							"internalType": "uint8",
							"name": "hair",
							"type": "uint8"
						},
						{
							"internalType": "uint8",
							"name": "eyes",
							"type": "uint8"
						},
						{
							"internalType": "uint8",
							"name": "facialHair",
							"type": "uint8"
						},
						{
							"internalType": "uint8",
							"name": "headgear",
							"type": "uint8"
						},
						{
							"internalType": "uint8",
							"name": "neckGear",
							"type": "uint8"
						},
						{
							"internalType": "uint8",
							"name": "accessory",
							"type": "uint8"
						},
						{
							"internalType": "uint8",
							"name": "alphaIndex",
							"type": "uint8"
						}
					],
					"internalType": "struct IPoliceAndThief.ThiefPolice",
					"name": "t",
					"type": "tuple"
				}
			],
			"stateMutability": "nonpayable",
			"type": "function"
		},
		{
			"inputs": [
				{
					"internalType": "uint256",
					"name": "tokenId",
					"type": "uint256"
				}
			],
			"name": "getApproved",
			"outputs": [
				{
					"internalType": "address",
					"name": "",
					"type": "address"
				}
			],
			"stateMutability": "view",
			"type": "function"
		},
		{
			"inputs": [],
			"name": "getPaidTokens",
			"outputs": [
				{
					"internalType": "uint256",
					"name": "",
					"type": "uint256"
				}
			],
			"stateMutability": "view",
			"type": "function"
		},
		{
			"inputs": [
				{
					"internalType": "uint256",
					"name": "tokenId",
					"type": "uint256"
				}
			],
			"name": "getTokenTraits",
			"outputs": [
				{
					"components": [
						{
							"internalType": "bool",
							"name": "isThief",
							"type": "bool"
						},
						{
							"internalType": "uint8",
							"name": "uniform",
							"type": "uint8"
						},
						{
							"internalType": "uint8",
							"name": "hair",
							"type": "uint8"
						},
						{
							"internalType": "uint8",
							"name": "eyes",
							"type": "uint8"
						},
						{
							"internalType": "uint8",
							"name": "facialHair",
							"type": "uint8"
						},
						{
							"internalType": "uint8",
							"name": "headgear",
							"type": "uint8"
						},
						{
							"internalType": "uint8",
							"name": "neckGear",
							"type": "uint8"
						},
						{
							"internalType": "uint8",
							"name": "accessory",
							"type": "uint8"
						},
						{
							"internalType": "uint8",
							"name": "alphaIndex",
							"type": "uint8"
						}
					],
					"internalType": "struct IPoliceAndThief.ThiefPolice",
					"name": "",
					"type": "tuple"
				}
			],
			"stateMutability": "view",
			"type": "function"
		},
		{
			"inputs": [
				{
					"internalType": "address",
					"name": "owner",
					"type": "address"
				},
				{
					"internalType": "address",
					"name": "operator",
					"type": "address"
				}
			],
			"name": "isApprovedForAll",
			"outputs": [
				{
					"internalType": "bool",
					"name": "",
					"type": "bool"
				}
			],
			"stateMutability": "view",
			"type": "function"
		},
		{
			"inputs": [],
			"name": "loot",
			"outputs": [
				{
					"internalType": "contract ILOOT",
					"name": "",
					"type": "address"
				}
			],
			"stateMutability": "view",
			"type": "function"
		},
		{
			"inputs": [
				{
					"internalType": "uint256",
					"name": "amount",
					"type": "uint256"
				},
				{
					"internalType": "bool",
					"name": "stake",
					"type": "bool"
				}
			],
			"name": "mint",
			"outputs": [],
			"stateMutability": "payable",
			"type": "function"
		},
		{
			"inputs": [
				{
					"internalType": "uint256",
					"name": "tokenId",
					"type": "uint256"
				}
			],
			"name": "mintCost",
			"outputs": [
				{
					"internalType": "uint256",
					"name": "",
					"type": "uint256"
				}
			],
			"stateMutability": "view",
			"type": "function"
		},
		{
			"inputs": [
				{
					"internalType": "address",
					"name": "oldGame",
					"type": "address"
				},
				{
					"internalType": "uint256",
					"name": "id",
					"type": "uint256"
				},
				{
					"internalType": "address",
					"name": "ownr",
					"type": "address"
				}
			],
			"name": "mintOldTokens",
			"outputs": [],
			"stateMutability": "nonpayable",
			"type": "function"
		},
		{
			"inputs": [],
			"name": "minted",
			"outputs": [
				{
					"internalType": "uint16",
					"name": "",
					"type": "uint16"
				}
			],
			"stateMutability": "view",
			"type": "function"
		},
		{
			"inputs": [],
			"name": "name",
			"outputs": [
				{
					"internalType": "string",
					"name": "",
					"type": "string"
				}
			],
			"stateMutability": "view",
			"type": "function"
		},
		{
			"inputs": [],
			"name": "owner",
			"outputs": [
				{
					"internalType": "address",
					"name": "",
					"type": "address"
				}
			],
			"stateMutability": "view",
			"type": "function"
		},
		{
			"inputs": [
				{
					"internalType": "uint256",
					"name": "tokenId",
					"type": "uint256"
				}
			],
			"name": "ownerOf",
			"outputs": [
				{
					"internalType": "address",
					"name": "",
					"type": "address"
				}
			],
			"stateMutability": "view",
			"type": "function"
		},
		{
			"inputs": [],
			"name": "paused",
			"outputs": [
				{
					"internalType": "bool",
					"name": "",
					"type": "bool"
				}
			],
			"stateMutability": "view",
			"type": "function"
		},
		{
			"inputs": [
				{
					"internalType": "uint256",
					"name": "seed",
					"type": "uint256"
				}
			],
			"name": "random",
			"outputs": [
				{
					"internalType": "uint256",
					"name": "",
					"type": "uint256"
				}
			],
			"stateMutability": "view",
			"type": "function"
		},
		{
			"inputs": [
				{
					"internalType": "uint256",
					"name": "seed",
					"type": "uint256"
				}
			],
			"name": "randomPerCent",
			"outputs": [
				{
					"internalType": "uint256",
					"name": "",
					"type": "uint256"
				}
			],
			"stateMutability": "view",
			"type": "function"
		},
		{
			"inputs": [],
			"name": "randomSource",
			"outputs": [
				{
					"internalType": "contract ISeed",
					"name": "",
					"type": "address"
				}
			],
			"stateMutability": "view",
			"type": "function"
		},
		{
			"inputs": [
				{
					"internalType": "address",
					"name": "from",
					"type": "address"
				},
				{
					"internalType": "address",
					"name": "to",
					"type": "address"
				},
				{
					"internalType": "uint256",
					"name": "tokenId",
					"type": "uint256"
				}
			],
			"name": "safeTransferFrom",
			"outputs": [],
			"stateMutability": "nonpayable",
			"type": "function"
		},
		{
			"inputs": [
				{
					"internalType": "address",
					"name": "from",
					"type": "address"
				},
				{
					"internalType": "address",
					"name": "to",
					"type": "address"
				},
				{
					"internalType": "uint256",
					"name": "tokenId",
					"type": "uint256"
				},
				{
					"internalType": "bytes",
					"name": "_data",
					"type": "bytes"
				}
			],
			"name": "safeTransferFrom",
			"outputs": [],
			"stateMutability": "nonpayable",
			"type": "function"
		},
		{
			"inputs": [
				{
					"internalType": "address",
					"name": "operator",
					"type": "address"
				},
				{
					"internalType": "bool",
					"name": "approved",
					"type": "bool"
				}
			],
			"name": "setApprovalForAll",
			"outputs": [],
			"stateMutability": "nonpayable",
			"type": "function"
		},
		{
			"inputs": [
				{
					"internalType": "address",
					"name": "_bank",
					"type": "address"
				}
			],
			"name": "setBank",
			"outputs": [],
			"stateMutability": "nonpayable",
			"type": "function"
		},
		{
			"inputs": [
				{
					"internalType": "uint256",
					"name": "_paidTokens",
					"type": "uint256"
				}
			],
			"name": "setPaidTokens",
			"outputs": [],
			"stateMutability": "nonpayable",
			"type": "function"
		},
		{
			"inputs": [
				{
					"internalType": "bool",
					"name": "_paused",
					"type": "bool"
				}
			],
			"name": "setPaused",
			"outputs": [],
			"stateMutability": "nonpayable",
			"type": "function"
		},
		{
			"inputs": [
				{
					"internalType": "contract ISeed",
					"name": "_seed",
					"type": "address"
				}
			],
			"name": "setRandomSource",
			"outputs": [],
			"stateMutability": "nonpayable",
			"type": "function"
		},
		{
			"inputs": [
				{
					"internalType": "address",
					"name": "_sw",
					"type": "address"
				}
			],
			"name": "setSwapper",
			"outputs": [],
			"stateMutability": "nonpayable",
			"type": "function"
		},
		{
			"inputs": [
				{
					"internalType": "contract ITraits",
					"name": "addr",
					"type": "address"
				}
			],
			"name": "setTraits",
			"outputs": [],
			"stateMutability": "nonpayable",
			"type": "function"
		},
		{
			"inputs": [
				{
					"internalType": "bytes4",
					"name": "interfaceId",
					"type": "bytes4"
				}
			],
			"name": "supportsInterface",
			"outputs": [
				{
					"internalType": "bool",
					"name": "",
					"type": "bool"
				}
			],
			"stateMutability": "view",
			"type": "function"
		},
		{
			"inputs": [],
			"name": "swapper",
			"outputs": [
				{
					"internalType": "address",
					"name": "",
					"type": "address"
				}
			],
			"stateMutability": "view",
			"type": "function"
		},
		{
			"inputs": [],
			"name": "symbol",
			"outputs": [
				{
					"internalType": "string",
					"name": "",
					"type": "string"
				}
			],
			"stateMutability": "view",
			"type": "function"
		},
		{
			"inputs": [
				{
					"internalType": "uint256",
					"name": "index",
					"type": "uint256"
				}
			],
			"name": "tokenByIndex",
			"outputs": [
				{
					"internalType": "uint256",
					"name": "",
					"type": "uint256"
				}
			],
			"stateMutability": "view",
			"type": "function"
		},
		{
			"inputs": [
				{
					"internalType": "address",
					"name": "owner",
					"type": "address"
				},
				{
					"internalType": "uint256",
					"name": "index",
					"type": "uint256"
				}
			],
			"name": "tokenOfOwnerByIndex",
			"outputs": [
				{
					"internalType": "uint256",
					"name": "",
					"type": "uint256"
				}
			],
			"stateMutability": "view",
			"type": "function"
		},
		{
			"inputs": [
				{
					"internalType": "uint256",
					"name": "",
					"type": "uint256"
				}
			],
			"name": "tokenTraits",
			"outputs": [
				{
					"internalType": "bool",
					"name": "isThief",
					"type": "bool"
				},
				{
					"internalType": "uint8",
					"name": "uniform",
					"type": "uint8"
				},
				{
					"internalType": "uint8",
					"name": "hair",
					"type": "uint8"
				},
				{
					"internalType": "uint8",
					"name": "eyes",
					"type": "uint8"
				},
				{
					"internalType": "uint8",
					"name": "facialHair",
					"type": "uint8"
				},
				{
					"internalType": "uint8",
					"name": "headgear",
					"type": "uint8"
				},
				{
					"internalType": "uint8",
					"name": "neckGear",
					"type": "uint8"
				},
				{
					"internalType": "uint8",
					"name": "accessory",
					"type": "uint8"
				},
				{
					"internalType": "uint8",
					"name": "alphaIndex",
					"type": "uint8"
				}
			],
			"stateMutability": "view",
			"type": "function"
		},
		{
			"inputs": [
				{
					"internalType": "uint256",
					"name": "tokenId",
					"type": "uint256"
				}
			],
			"name": "tokenURI",
			"outputs": [
				{
					"internalType": "string",
					"name": "",
					"type": "string"
				}
			],
			"stateMutability": "view",
			"type": "function"
		},
		{
			"inputs": [],
			"name": "totalSupply",
			"outputs": [
				{
					"internalType": "uint256",
					"name": "",
					"type": "uint256"
				}
			],
			"stateMutability": "view",
			"type": "function"
		},
		{
			"inputs": [],
			"name": "traits",
			"outputs": [
				{
					"internalType": "contract ITraits",
					"name": "",
					"type": "address"
				}
			],
			"stateMutability": "view",
			"type": "function"
		},
		{
			"inputs": [
				{
					"internalType": "address",
					"name": "from",
					"type": "address"
				},
				{
					"internalType": "address",
					"name": "to",
					"type": "address"
				},
				{
					"internalType": "uint256",
					"name": "tokenId",
					"type": "uint256"
				}
			],
			"name": "transferFrom",
			"outputs": [],
			"stateMutability": "nonpayable",
			"type": "function"
		},
		{
			"inputs": [
				{
					"internalType": "address",
					"name": "newOwner",
					"type": "address"
				}
			],
			"name": "transferOwnership",
			"outputs": [],
			"stateMutability": "nonpayable",
			"type": "function"
		},
		{
			"inputs": [
				{
					"internalType": "address",
					"name": "_owner",
					"type": "address"
				}
			],
			"name": "walletOfOwner",
			"outputs": [
				{
					"internalType": "uint256[]",
					"name": "",
					"type": "uint256[]"
				}
			],
			"stateMutability": "view",
			"type": "function"
		},
		{
			"inputs": [],
			"name": "withdraw",
			"outputs": [],
			"stateMutability": "nonpayable",
			"type": "function"
		}
	]
}